{
	"Staking.sol": {
		"StakeContract": {
			"abi": [
				{
					"anonymous": false,
					"inputs": [
						{
							"indexed": true,
							"internalType": "address",
							"name": "previousOwner",
							"type": "address"
						},
						{
							"indexed": true,
							"internalType": "address",
							"name": "newOwner",
							"type": "address"
						}
					],
					"name": "OwnershipTransferred",
					"type": "event"
				},
				{
					"anonymous": false,
					"inputs": [
						{
							"indexed": false,
							"internalType": "address",
							"name": "_user",
							"type": "address"
						},
						{
							"indexed": false,
							"internalType": "uint256",
							"name": "_amount",
							"type": "uint256"
						},
						{
							"indexed": false,
							"internalType": "uint256",
							"name": "_pool",
							"type": "uint256"
						},
						{
							"indexed": false,
							"internalType": "uint256",
							"name": "_time",
							"type": "uint256"
						}
					],
					"name": "Stake",
					"type": "event"
				},
				{
					"anonymous": false,
					"inputs": [
						{
							"indexed": false,
							"internalType": "address",
							"name": "_user",
							"type": "address"
						},
						{
							"indexed": false,
							"internalType": "uint256",
							"name": "_amount",
							"type": "uint256"
						},
						{
							"indexed": false,
							"internalType": "uint256",
							"name": "_time",
							"type": "uint256"
						}
					],
					"name": "UnStake",
					"type": "event"
				},
				{
					"anonymous": false,
					"inputs": [
						{
							"indexed": false,
							"internalType": "address",
							"name": "_user",
							"type": "address"
						},
						{
							"indexed": false,
							"internalType": "uint256",
							"name": "_amount",
							"type": "uint256"
						},
						{
							"indexed": false,
							"internalType": "uint256",
							"name": "_time",
							"type": "uint256"
						}
					],
					"name": "Withdrawal",
					"type": "event"
				},
				{
					"inputs": [
						{
							"internalType": "uint256",
							"name": "_limit",
							"type": "uint256"
						}
					],
					"name": "changeDailyCapLimit",
					"outputs": [],
					"stateMutability": "nonpayable",
					"type": "function"
				},
				{
					"inputs": [
						{
							"internalType": "uint256",
							"name": "_minAmount",
							"type": "uint256"
						}
					],
					"name": "changeMinStakeAmt",
					"outputs": [],
					"stateMutability": "nonpayable",
					"type": "function"
				},
				{
					"inputs": [],
					"name": "checkPoolPause",
					"outputs": [
						{
							"internalType": "bool",
							"name": "",
							"type": "bool"
						}
					],
					"stateMutability": "view",
					"type": "function"
				},
				{
					"inputs": [
						{
							"internalType": "address",
							"name": "_tokenAddress",
							"type": "address"
						},
						{
							"internalType": "address",
							"name": "_rewardAddress",
							"type": "address"
						},
						{
							"internalType": "string",
							"name": "_name",
							"type": "string"
						},
						{
							"internalType": "uint256",
							"name": "_apy",
							"type": "uint256"
						}
					],
					"name": "createPool",
					"outputs": [],
					"stateMutability": "nonpayable",
					"type": "function"
				},
				{
					"inputs": [],
					"name": "dailyCapAmt",
					"outputs": [
						{
							"internalType": "uint256",
							"name": "",
							"type": "uint256"
						}
					],
					"stateMutability": "view",
					"type": "function"
				},
				{
					"inputs": [
						{
							"internalType": "uint256",
							"name": "_amount",
							"type": "uint256"
						}
					],
					"name": "depositRewardToken",
					"outputs": [],
					"stateMutability": "nonpayable",
					"type": "function"
				},
				{
					"inputs": [
						{
							"internalType": "address",
							"name": "_user",
							"type": "address"
						}
					],
					"name": "getCurrentReward",
					"outputs": [
						{
							"internalType": "uint256",
							"name": "",
							"type": "uint256"
						}
					],
					"stateMutability": "view",
					"type": "function"
				},
				{
					"inputs": [
						{
							"internalType": "uint256",
							"name": "_time",
							"type": "uint256"
						}
					],
					"name": "getDailyCap",
					"outputs": [
						{
							"internalType": "uint256",
							"name": "",
							"type": "uint256"
						}
					],
					"stateMutability": "view",
					"type": "function"
				},
				{
					"inputs": [],
					"name": "getPoolInfo",
					"outputs": [
						{
							"components": [
								{
									"internalType": "address",
									"name": "tokenAddress",
									"type": "address"
								},
								{
									"internalType": "address",
									"name": "rewardAddress",
									"type": "address"
								},
								{
									"internalType": "uint256",
									"name": "totalStakeAmount",
									"type": "uint256"
								},
								{
									"internalType": "string",
									"name": "name",
									"type": "string"
								},
								{
									"internalType": "bool",
									"name": "isPoolPause",
									"type": "bool"
								},
								{
									"internalType": "uint256",
									"name": "apy",
									"type": "uint256"
								}
							],
							"internalType": "struct StakeContract.PoolStruct",
							"name": "",
							"type": "tuple"
						}
					],
					"stateMutability": "view",
					"type": "function"
				},
				{
					"inputs": [
						{
							"internalType": "address",
							"name": "_user",
							"type": "address"
						}
					],
					"name": "getStakeDetails",
					"outputs": [
						{
							"components": [
								{
									"internalType": "bool",
									"name": "isExist",
									"type": "bool"
								},
								{
									"internalType": "uint256",
									"name": "amount",
									"type": "uint256"
								},
								{
									"internalType": "uint256",
									"name": "stakeTime",
									"type": "uint256"
								},
								{
									"internalType": "uint256",
									"name": "withdrawn",
									"type": "uint256"
								}
							],
							"internalType": "struct StakeContract.StakeStruct",
							"name": "",
							"type": "tuple"
						}
					],
					"stateMutability": "view",
					"type": "function"
				},
				{
					"inputs": [
						{
							"internalType": "address",
							"name": "_user",
							"type": "address"
						}
					],
					"name": "getTotalReward",
					"outputs": [
						{
							"internalType": "uint256",
							"name": "",
							"type": "uint256"
						}
					],
					"stateMutability": "view",
					"type": "function"
				},
				{
					"inputs": [
						{
							"internalType": "address",
							"name": "_user",
							"type": "address"
						}
					],
					"name": "getUserPoolIDLength",
					"outputs": [
						{
							"internalType": "uint256",
							"name": "",
							"type": "uint256"
						}
					],
					"stateMutability": "view",
					"type": "function"
				},
				{
					"inputs": [
						{
							"internalType": "address",
							"name": "_user",
							"type": "address"
						}
					],
					"name": "getUserPoolId",
					"outputs": [
						{
							"internalType": "uint256[]",
							"name": "",
							"type": "uint256[]"
						}
					],
					"stateMutability": "view",
					"type": "function"
				},
				{
					"inputs": [],
					"name": "minStakeAmount",
					"outputs": [
						{
							"internalType": "uint256",
							"name": "",
							"type": "uint256"
						}
					],
					"stateMutability": "view",
					"type": "function"
				},
				{
					"inputs": [],
					"name": "owner",
					"outputs": [
						{
							"internalType": "address",
							"name": "",
							"type": "address"
						}
					],
					"stateMutability": "view",
					"type": "function"
				},
				{
					"inputs": [],
					"name": "poolPauseUnPause",
					"outputs": [],
					"stateMutability": "nonpayable",
					"type": "function"
				},
				{
					"inputs": [],
					"name": "renounceOwnership",
					"outputs": [],
					"stateMutability": "nonpayable",
					"type": "function"
				},
				{
					"inputs": [
						{
							"internalType": "uint256",
							"name": "_amount",
							"type": "uint256"
						}
					],
					"name": "stake",
					"outputs": [],
					"stateMutability": "payable",
					"type": "function"
				},
				{
					"inputs": [
						{
							"internalType": "address",
							"name": "newOwner",
							"type": "address"
						}
					],
					"name": "transferOwnership",
					"outputs": [],
					"stateMutability": "nonpayable",
					"type": "function"
				},
				{
					"inputs": [
						{
							"internalType": "uint256",
							"name": "_amount",
							"type": "uint256"
						}
					],
					"name": "transferTokens",
					"outputs": [],
					"stateMutability": "nonpayable",
					"type": "function"
				},
				{
					"inputs": [],
					"name": "unStake",
					"outputs": [],
					"stateMutability": "nonpayable",
					"type": "function"
				},
				{
					"inputs": [],
					"name": "withdraw",
					"outputs": [
						{
							"internalType": "bool",
							"name": "",
							"type": "bool"
						}
					],
					"stateMutability": "nonpayable",
					"type": "function"
				}
			],
			"devdoc": {
				"kind": "dev",
				"methods": {
					"owner()": {
						"details": "Returns the address of the current owner."
					},
					"renounceOwnership()": {
						"details": "Leaves the contract without owner. It will not be possible to call `onlyOwner` functions anymore. Can only be called by the current owner. NOTE: Renouncing ownership will leave the contract without an owner, thereby removing any functionality that is only available to the owner."
					},
					"transferOwnership(address)": {
						"details": "Transfers ownership of the contract to a new account (`newOwner`). Can only be called by the current owner."
					}
				},
				"version": 1
			},
			"evm": {
				"assembly": "    /* \"Staking.sol\":238:6826  contract StakeContract is Ownable {\r... */\n  mstore(0x40, 0x80)\n    /* \"Staking.sol\":313:335  1000000000000000000000 */\n  0x3635c9adc5dea00000\n    /* \"Staking.sol\":281:335  uint256 public minStakeAmount = 1000000000000000000000 */\n  0x01\n  sstore\n    /* \"Staking.sol\":373:398  1000000000000000000000000 */\n  0xd3c21bcecceda1000000\n    /* \"Staking.sol\":344:398  uint256 public dailyCapAmt = 1000000000000000000000000 */\n  0x02\n  sstore\n    /* \"Staking.sol\":434:439  false */\n  0x00\n    /* \"Staking.sol\":407:439  bool private poolCreated = false */\n  0x03\n  exp(0x0100, 0x00)\n  dup2\n  sload\n  dup2\n  0xff\n  mul\n  not\n  and\n  swap1\n  dup4\n  iszero\n  iszero\n  mul\n  or\n  swap1\n  sstore\n  pop\n    /* \"Staking.sol\":238:6826  contract StakeContract is Ownable {\r... */\n  callvalue\n  dup1\n  iszero\n  tag_1\n  jumpi\n  0x00\n  dup1\n  revert\ntag_1:\n  pop\n    /* \"@openzeppelin/contracts/access/Ownable.sol\":936:968  _transferOwnership(_msgSender()) */\n  tag_4\n    /* \"@openzeppelin/contracts/access/Ownable.sol\":955:967  _msgSender() */\n  tag_5\n    /* \"@openzeppelin/contracts/access/Ownable.sol\":955:965  _msgSender */\n  shl(0x20, tag_6)\n    /* \"@openzeppelin/contracts/access/Ownable.sol\":955:967  _msgSender() */\n  0x20\n  shr\n  jump\t// in\ntag_5:\n    /* \"@openzeppelin/contracts/access/Ownable.sol\":936:954  _transferOwnership */\n  shl(0x20, tag_7)\n    /* \"@openzeppelin/contracts/access/Ownable.sol\":936:968  _transferOwnership(_msgSender()) */\n  0x20\n  shr\n  jump\t// in\ntag_4:\n    /* \"Staking.sol\":238:6826  contract StakeContract is Ownable {\r... */\n  jump(tag_8)\n    /* \"@openzeppelin/contracts/utils/Context.sol\":640:736  function _msgSender() internal view virtual returns (address) {... */\ntag_6:\n    /* \"@openzeppelin/contracts/utils/Context.sol\":693:700  address */\n  0x00\n    /* \"@openzeppelin/contracts/utils/Context.sol\":719:729  msg.sender */\n  caller\n    /* \"@openzeppelin/contracts/utils/Context.sol\":712:729  return msg.sender */\n  swap1\n  pop\n    /* \"@openzeppelin/contracts/utils/Context.sol\":640:736  function _msgSender() internal view virtual returns (address) {... */\n  swap1\n  jump\t// out\n    /* \"@openzeppelin/contracts/access/Ownable.sol\":2433:2620  function _transferOwnership(address newOwner) internal virtual {... */\ntag_7:\n    /* \"@openzeppelin/contracts/access/Ownable.sol\":2506:2522  address oldOwner */\n  0x00\n    /* \"@openzeppelin/contracts/access/Ownable.sol\":2525:2531  _owner */\n  dup1\n  0x00\n  swap1\n  sload\n  swap1\n  0x0100\n  exp\n  swap1\n  div\n  0xffffffffffffffffffffffffffffffffffffffff\n  and\n    /* \"@openzeppelin/contracts/access/Ownable.sol\":2506:2531  address oldOwner = _owner */\n  swap1\n  pop\n    /* \"@openzeppelin/contracts/access/Ownable.sol\":2550:2558  newOwner */\n  dup2\n    /* \"@openzeppelin/contracts/access/Ownable.sol\":2541:2547  _owner */\n  0x00\n  dup1\n    /* \"@openzeppelin/contracts/access/Ownable.sol\":2541:2558  _owner = newOwner */\n  0x0100\n  exp\n  dup2\n  sload\n  dup2\n  0xffffffffffffffffffffffffffffffffffffffff\n  mul\n  not\n  and\n  swap1\n  dup4\n  0xffffffffffffffffffffffffffffffffffffffff\n  and\n  mul\n  or\n  swap1\n  sstore\n  pop\n    /* \"@openzeppelin/contracts/access/Ownable.sol\":2604:2612  newOwner */\n  dup2\n    /* \"@openzeppelin/contracts/access/Ownable.sol\":2573:2613  OwnershipTransferred(oldOwner, newOwner) */\n  0xffffffffffffffffffffffffffffffffffffffff\n  and\n    /* \"@openzeppelin/contracts/access/Ownable.sol\":2594:2602  oldOwner */\n  dup2\n    /* \"@openzeppelin/contracts/access/Ownable.sol\":2573:2613  OwnershipTransferred(oldOwner, newOwner) */\n  0xffffffffffffffffffffffffffffffffffffffff\n  and\n  0x8be0079c531659141344cd1fd0a4f28419497f9722a3daafe3b4186f6b6457e0\n  mload(0x40)\n  mload(0x40)\n  dup1\n  swap2\n  sub\n  swap1\n  log3\n    /* \"@openzeppelin/contracts/access/Ownable.sol\":2496:2620  {... */\n  pop\n    /* \"@openzeppelin/contracts/access/Ownable.sol\":2433:2620  function _transferOwnership(address newOwner) internal virtual {... */\n  pop\n  jump\t// out\n    /* \"Staking.sol\":238:6826  contract StakeContract is Ownable {\r... */\ntag_8:\n  dataSize(sub_0)\n  dup1\n  dataOffset(sub_0)\n  0x00\n  codecopy\n  0x00\n  return\nstop\n\nsub_0: assembly {\n        /* \"Staking.sol\":238:6826  contract StakeContract is Ownable {\r... */\n      mstore(0x40, 0x80)\n      jumpi(tag_1, lt(calldatasize, 0x04))\n      shr(0xe0, calldataload(0x00))\n      dup1\n      0x8da5cb5b\n      gt\n      tag_24\n      jumpi\n      dup1\n      0xe36c723b\n      gt\n      tag_25\n      jumpi\n      dup1\n      0xe36c723b\n      eq\n      tag_18\n      jumpi\n      dup1\n      0xe7732d0a\n      eq\n      tag_19\n      jumpi\n      dup1\n      0xf1887684\n      eq\n      tag_20\n      jumpi\n      dup1\n      0xf2fde38b\n      eq\n      tag_21\n      jumpi\n      dup1\n      0xf41322ac\n      eq\n      tag_22\n      jumpi\n      dup1\n      0xfd9a4e61\n      eq\n      tag_23\n      jumpi\n      jump(tag_1)\n    tag_25:\n      dup1\n      0x8da5cb5b\n      eq\n      tag_13\n      jumpi\n      dup1\n      0xa694fc3a\n      eq\n      tag_14\n      jumpi\n      dup1\n      0xc089bd74\n      eq\n      tag_15\n      jumpi\n      dup1\n      0xd21cb76e\n      eq\n      tag_16\n      jumpi\n      dup1\n      0xda906bf6\n      eq\n      tag_17\n      jumpi\n      jump(tag_1)\n    tag_24:\n      dup1\n      0x4b0cd1f3\n      gt\n      tag_26\n      jumpi\n      dup1\n      0x4b0cd1f3\n      eq\n      tag_7\n      jumpi\n      dup1\n      0x4d307e3f\n      eq\n      tag_8\n      jumpi\n      dup1\n      0x60246c88\n      eq\n      tag_9\n      jumpi\n      dup1\n      0x60c18315\n      eq\n      tag_10\n      jumpi\n      dup1\n      0x715018a6\n      eq\n      tag_11\n      jumpi\n      dup1\n      0x73cf575a\n      eq\n      tag_12\n      jumpi\n      jump(tag_1)\n    tag_26:\n      dup1\n      0x0d2f0374\n      eq\n      tag_2\n      jumpi\n      dup1\n      0x14e1b95b\n      eq\n      tag_3\n      jumpi\n      dup1\n      0x20867caa\n      eq\n      tag_4\n      jumpi\n      dup1\n      0x34381749\n      eq\n      tag_5\n      jumpi\n      dup1\n      0x3ccfd60b\n      eq\n      tag_6\n      jumpi\n    tag_1:\n      0x00\n      dup1\n      revert\n        /* \"Staking.sol\":6345:6453  function getDailyCap(uint256 _time) public view returns(uint256){\r... */\n    tag_2:\n      callvalue\n      dup1\n      iszero\n      tag_27\n      jumpi\n      0x00\n      dup1\n      revert\n    tag_27:\n      pop\n      tag_28\n      0x04\n      dup1\n      calldatasize\n      sub\n      dup2\n      add\n      swap1\n      tag_29\n      swap2\n      swap1\n      tag_30\n      jump\t// in\n    tag_29:\n      tag_31\n      jump\t// in\n    tag_28:\n      mload(0x40)\n      tag_32\n      swap2\n      swap1\n      tag_33\n      jump\t// in\n    tag_32:\n      mload(0x40)\n      dup1\n      swap2\n      sub\n      swap1\n      return\n        /* \"Staking.sol\":344:398  uint256 public dailyCapAmt = 1000000000000000000000000 */\n    tag_3:\n      callvalue\n      dup1\n      iszero\n      tag_34\n      jumpi\n      0x00\n      dup1\n      revert\n    tag_34:\n      pop\n      tag_35\n      tag_36\n      jump\t// in\n    tag_35:\n      mload(0x40)\n      tag_37\n      swap2\n      swap1\n      tag_33\n      jump\t// in\n    tag_37:\n      mload(0x40)\n      dup1\n      swap2\n      sub\n      swap1\n      return\n        /* \"Staking.sol\":6596:6715  function getUserPoolId(address _user) public view returns(uint256[] memory){\r... */\n    tag_4:\n      callvalue\n      dup1\n      iszero\n      tag_38\n      jumpi\n      0x00\n      dup1\n      revert\n    tag_38:\n      pop\n      tag_39\n      0x04\n      dup1\n      calldatasize\n      sub\n      dup2\n      add\n      swap1\n      tag_40\n      swap2\n      swap1\n      tag_41\n      jump\t// in\n    tag_40:\n      tag_42\n      jump\t// in\n    tag_39:\n      mload(0x40)\n      tag_43\n      swap2\n      swap1\n      tag_44\n      jump\t// in\n    tag_43:\n      mload(0x40)\n      dup1\n      swap2\n      sub\n      swap1\n      return\n        /* \"Staking.sol\":4881:5425  function getTotalReward(address _user) public view returns (uint256) {\r... */\n    tag_5:\n      callvalue\n      dup1\n      iszero\n      tag_45\n      jumpi\n      0x00\n      dup1\n      revert\n    tag_45:\n      pop\n      tag_46\n      0x04\n      dup1\n      calldatasize\n      sub\n      dup2\n      add\n      swap1\n      tag_47\n      swap2\n      swap1\n      tag_41\n      jump\t// in\n    tag_47:\n      tag_48\n      jump\t// in\n    tag_46:\n      mload(0x40)\n      tag_49\n      swap2\n      swap1\n      tag_33\n      jump\t// in\n    tag_49:\n      mload(0x40)\n      dup1\n      swap2\n      sub\n      swap1\n      return\n        /* \"Staking.sol\":4355:4459  function withdraw() public returns (bool) {\r... */\n    tag_6:\n      callvalue\n      dup1\n      iszero\n      tag_50\n      jumpi\n      0x00\n      dup1\n      revert\n    tag_50:\n      pop\n      tag_51\n      tag_52\n      jump\t// in\n    tag_51:\n      mload(0x40)\n      tag_53\n      swap2\n      swap1\n      tag_54\n      jump\t// in\n    tag_53:\n      mload(0x40)\n      dup1\n      swap2\n      sub\n      swap1\n      return\n        /* \"Staking.sol\":6214:6337  function getUserPoolIDLength(address _user) public view returns(uint256){\r... */\n    tag_7:\n      callvalue\n      dup1\n      iszero\n      tag_55\n      jumpi\n      0x00\n      dup1\n      revert\n    tag_55:\n      pop\n      tag_56\n      0x04\n      dup1\n      calldatasize\n      sub\n      dup2\n      add\n      swap1\n      tag_57\n      swap2\n      swap1\n      tag_41\n      jump\t// in\n    tag_57:\n      tag_58\n      jump\t// in\n    tag_56:\n      mload(0x40)\n      tag_59\n      swap2\n      swap1\n      tag_33\n      jump\t// in\n    tag_59:\n      mload(0x40)\n      dup1\n      swap2\n      sub\n      swap1\n      return\n        /* \"Staking.sol\":5433:5693  function getCurrentReward(address _user) public view returns (uint256) {\r... */\n    tag_8:\n      callvalue\n      dup1\n      iszero\n      tag_60\n      jumpi\n      0x00\n      dup1\n      revert\n    tag_60:\n      pop\n      tag_61\n      0x04\n      dup1\n      calldatasize\n      sub\n      dup2\n      add\n      swap1\n      tag_62\n      swap2\n      swap1\n      tag_41\n      jump\t// in\n    tag_62:\n      tag_63\n      jump\t// in\n    tag_61:\n      mload(0x40)\n      tag_64\n      swap2\n      swap1\n      tag_33\n      jump\t// in\n    tag_64:\n      mload(0x40)\n      dup1\n      swap2\n      sub\n      swap1\n      return\n        /* \"Staking.sol\":5701:5800  function getPoolInfo() public view returns (PoolStruct memory){\r... */\n    tag_9:\n      callvalue\n      dup1\n      iszero\n      tag_65\n      jumpi\n      0x00\n      dup1\n      revert\n    tag_65:\n      pop\n      tag_66\n      tag_67\n      jump\t// in\n    tag_66:\n      mload(0x40)\n      tag_68\n      swap2\n      swap1\n      tag_69\n      jump\t// in\n    tag_68:\n      mload(0x40)\n      dup1\n      swap2\n      sub\n      swap1\n      return\n        /* \"Staking.sol\":1271:1966  function createPool(address _tokenAddress, \r... */\n    tag_10:\n      callvalue\n      dup1\n      iszero\n      tag_70\n      jumpi\n      0x00\n      dup1\n      revert\n    tag_70:\n      pop\n      tag_71\n      0x04\n      dup1\n      calldatasize\n      sub\n      dup2\n      add\n      swap1\n      tag_72\n      swap2\n      swap1\n      tag_73\n      jump\t// in\n    tag_72:\n      tag_74\n      jump\t// in\n    tag_71:\n      stop\n        /* \"@openzeppelin/contracts/access/Ownable.sol\":1831:1932  function renounceOwnership() public virtual onlyOwner {... */\n    tag_11:\n      callvalue\n      dup1\n      iszero\n      tag_75\n      jumpi\n      0x00\n      dup1\n      revert\n    tag_75:\n      pop\n      tag_76\n      tag_77\n      jump\t// in\n    tag_76:\n      stop\n        /* \"Staking.sol\":3241:4118  function unStake() public {\r... */\n    tag_12:\n      callvalue\n      dup1\n      iszero\n      tag_78\n      jumpi\n      0x00\n      dup1\n      revert\n    tag_78:\n      pop\n      tag_79\n      tag_80\n      jump\t// in\n    tag_79:\n      stop\n        /* \"@openzeppelin/contracts/access/Ownable.sol\":1201:1286  function owner() public view virtual returns (address) {... */\n    tag_13:\n      callvalue\n      dup1\n      iszero\n      tag_81\n      jumpi\n      0x00\n      dup1\n      revert\n    tag_81:\n      pop\n      tag_82\n      tag_83\n      jump\t// in\n    tag_82:\n      mload(0x40)\n      tag_84\n      swap2\n      swap1\n      tag_85\n      jump\t// in\n    tag_84:\n      mload(0x40)\n      dup1\n      swap2\n      sub\n      swap1\n      return\n        /* \"Staking.sol\":2173:3229  function stake(uint256 _amount) public payable {\r... */\n    tag_14:\n      tag_86\n      0x04\n      dup1\n      calldatasize\n      sub\n      dup2\n      add\n      swap1\n      tag_87\n      swap2\n      swap1\n      tag_30\n      jump\t// in\n    tag_87:\n      tag_88\n      jump\t// in\n    tag_86:\n      stop\n        /* \"Staking.sol\":5808:5963  function depositRewardToken(uint256 _amount) public onlyOwner {\r... */\n    tag_15:\n      callvalue\n      dup1\n      iszero\n      tag_89\n      jumpi\n      0x00\n      dup1\n      revert\n    tag_89:\n      pop\n      tag_90\n      0x04\n      dup1\n      calldatasize\n      sub\n      dup2\n      add\n      swap1\n      tag_91\n      swap2\n      swap1\n      tag_30\n      jump\t// in\n    tag_91:\n      tag_92\n      jump\t// in\n    tag_90:\n      stop\n        /* \"Staking.sol\":4126:4228  function changeDailyCapLimit (uint256 _limit) public onlyOwner {\r... */\n    tag_16:\n      callvalue\n      dup1\n      iszero\n      tag_93\n      jumpi\n      0x00\n      dup1\n      revert\n    tag_93:\n      pop\n      tag_94\n      0x04\n      dup1\n      calldatasize\n      sub\n      dup2\n      add\n      swap1\n      tag_95\n      swap2\n      swap1\n      tag_30\n      jump\t// in\n    tag_95:\n      tag_96\n      jump\t// in\n    tag_94:\n      stop\n        /* \"Staking.sol\":1974:2165  function poolPauseUnPause() public onlyOwner {\r... */\n    tag_17:\n      callvalue\n      dup1\n      iszero\n      tag_97\n      jumpi\n      0x00\n      dup1\n      revert\n    tag_97:\n      pop\n      tag_98\n      tag_99\n      jump\t// in\n    tag_98:\n      stop\n        /* \"Staking.sol\":4236:4347  function changeMinStakeAmt (uint256 _minAmount) public onlyOwner {\r... */\n    tag_18:\n      callvalue\n      dup1\n      iszero\n      tag_100\n      jumpi\n      0x00\n      dup1\n      revert\n    tag_100:\n      pop\n      tag_101\n      0x04\n      dup1\n      calldatasize\n      sub\n      dup2\n      add\n      swap1\n      tag_102\n      swap2\n      swap1\n      tag_30\n      jump\t// in\n    tag_102:\n      tag_103\n      jump\t// in\n    tag_101:\n      stop\n        /* \"Staking.sol\":6723:6823  function checkPoolPause() public view returns(bool){\r... */\n    tag_19:\n      callvalue\n      dup1\n      iszero\n      tag_104\n      jumpi\n      0x00\n      dup1\n      revert\n    tag_104:\n      pop\n      tag_105\n      tag_106\n      jump\t// in\n    tag_105:\n      mload(0x40)\n      tag_107\n      swap2\n      swap1\n      tag_54\n      jump\t// in\n    tag_107:\n      mload(0x40)\n      dup1\n      swap2\n      sub\n      swap1\n      return\n        /* \"Staking.sol\":281:335  uint256 public minStakeAmount = 1000000000000000000000 */\n    tag_20:\n      callvalue\n      dup1\n      iszero\n      tag_108\n      jumpi\n      0x00\n      dup1\n      revert\n    tag_108:\n      pop\n      tag_109\n      tag_110\n      jump\t// in\n    tag_109:\n      mload(0x40)\n      tag_111\n      swap2\n      swap1\n      tag_33\n      jump\t// in\n    tag_111:\n      mload(0x40)\n      dup1\n      swap2\n      sub\n      swap1\n      return\n        /* \"@openzeppelin/contracts/access/Ownable.sol\":2081:2279  function transferOwnership(address newOwner) public virtual onlyOwner {... */\n    tag_21:\n      callvalue\n      dup1\n      iszero\n      tag_112\n      jumpi\n      0x00\n      dup1\n      revert\n    tag_112:\n      pop\n      tag_113\n      0x04\n      dup1\n      calldatasize\n      sub\n      dup2\n      add\n      swap1\n      tag_114\n      swap2\n      swap1\n      tag_41\n      jump\t// in\n    tag_114:\n      tag_115\n      jump\t// in\n    tag_113:\n      stop\n        /* \"Staking.sol\":6461:6588  function getStakeDetails(address _user) public view returns(StakeStruct memory){\r... */\n    tag_22:\n      callvalue\n      dup1\n      iszero\n      tag_116\n      jumpi\n      0x00\n      dup1\n      revert\n    tag_116:\n      pop\n      tag_117\n      0x04\n      dup1\n      calldatasize\n      sub\n      dup2\n      add\n      swap1\n      tag_118\n      swap2\n      swap1\n      tag_41\n      jump\t// in\n    tag_118:\n      tag_119\n      jump\t// in\n    tag_117:\n      mload(0x40)\n      tag_120\n      swap2\n      swap1\n      tag_121\n      jump\t// in\n    tag_120:\n      mload(0x40)\n      dup1\n      swap2\n      sub\n      swap1\n      return\n        /* \"Staking.sol\":5971:6202  function transferTokens(uint256 _amount) public onlyOwner {\r... */\n    tag_23:\n      callvalue\n      dup1\n      iszero\n      tag_122\n      jumpi\n      0x00\n      dup1\n      revert\n    tag_122:\n      pop\n      tag_123\n      0x04\n      dup1\n      calldatasize\n      sub\n      dup2\n      add\n      swap1\n      tag_124\n      swap2\n      swap1\n      tag_30\n      jump\t// in\n    tag_124:\n      tag_125\n      jump\t// in\n    tag_123:\n      stop\n        /* \"Staking.sol\":6345:6453  function getDailyCap(uint256 _time) public view returns(uint256){\r... */\n    tag_31:\n        /* \"Staking.sol\":6401:6408  uint256 */\n      0x00\n        /* \"Staking.sol\":6427:6435  dailyCap */\n      0x06\n        /* \"Staking.sol\":6427:6442  dailyCap[_time] */\n      0x00\n        /* \"Staking.sol\":6436:6441  _time */\n      dup4\n        /* \"Staking.sol\":6427:6442  dailyCap[_time] */\n      dup2\n      mstore\n      0x20\n      add\n      swap1\n      dup2\n      mstore\n      0x20\n      add\n      0x00\n      keccak256\n        /* \"Staking.sol\":6427:6445  dailyCap[_time][0] */\n      0x00\n        /* \"Staking.sol\":6443:6444  0 */\n      dup1\n        /* \"Staking.sol\":6427:6445  dailyCap[_time][0] */\n      dup2\n      mstore\n      0x20\n      add\n      swap1\n      dup2\n      mstore\n      0x20\n      add\n      0x00\n      keccak256\n      sload\n        /* \"Staking.sol\":6420:6445  return dailyCap[_time][0] */\n      swap1\n      pop\n        /* \"Staking.sol\":6345:6453  function getDailyCap(uint256 _time) public view returns(uint256){\r... */\n      swap2\n      swap1\n      pop\n      jump\t// out\n        /* \"Staking.sol\":344:398  uint256 public dailyCapAmt = 1000000000000000000000000 */\n    tag_36:\n      sload(0x02)\n      dup2\n      jump\t// out\n        /* \"Staking.sol\":6596:6715  function getUserPoolId(address _user) public view returns(uint256[] memory){\r... */\n    tag_42:\n        /* \"Staking.sol\":6654:6670  uint256[] memory */\n      0x60\n        /* \"Staking.sol\":6689:6700  userPoolIds */\n      0x05\n        /* \"Staking.sol\":6689:6707  userPoolIds[_user] */\n      0x00\n        /* \"Staking.sol\":6701:6706  _user */\n      dup4\n        /* \"Staking.sol\":6689:6707  userPoolIds[_user] */\n      0xffffffffffffffffffffffffffffffffffffffff\n      and\n      0xffffffffffffffffffffffffffffffffffffffff\n      and\n      dup2\n      mstore\n      0x20\n      add\n      swap1\n      dup2\n      mstore\n      0x20\n      add\n      0x00\n      keccak256\n        /* \"Staking.sol\":6682:6707  return userPoolIds[_user] */\n      dup1\n      sload\n      dup1\n      0x20\n      mul\n      0x20\n      add\n      mload(0x40)\n      swap1\n      dup2\n      add\n      0x40\n      mstore\n      dup1\n      swap3\n      swap2\n      swap1\n      dup2\n      dup2\n      mstore\n      0x20\n      add\n      dup3\n      dup1\n      sload\n      dup1\n      iszero\n      tag_128\n      jumpi\n      0x20\n      mul\n      dup3\n      add\n      swap2\n      swap1\n      0x00\n      mstore\n      keccak256(0x00, 0x20)\n      swap1\n    tag_129:\n      dup2\n      sload\n      dup2\n      mstore\n      0x20\n      add\n      swap1\n      0x01\n      add\n      swap1\n      dup1\n      dup4\n      gt\n      tag_129\n      jumpi\n    tag_128:\n      pop\n      pop\n      pop\n      pop\n      pop\n      swap1\n      pop\n        /* \"Staking.sol\":6596:6715  function getUserPoolId(address _user) public view returns(uint256[] memory){\r... */\n      swap2\n      swap1\n      pop\n      jump\t// out\n        /* \"Staking.sol\":4881:5425  function getTotalReward(address _user) public view returns (uint256) {\r... */\n    tag_48:\n        /* \"Staking.sol\":4941:4948  uint256 */\n      0x00\n        /* \"Staking.sol\":4961:4977  uint256 currTime */\n      dup1\n        /* \"Staking.sol\":4999:5005  3 * 60 */\n      0xb4\n        /* \"Staking.sol\":4980:4995  block.timestamp */\n      timestamp\n        /* \"Staking.sol\":4980:5006  block.timestamp - (3 * 60) */\n      tag_131\n      swap2\n      swap1\n      tag_132\n      jump\t// in\n    tag_131:\n        /* \"Staking.sol\":4961:5006  uint256 currTime = block.timestamp - (3 * 60) */\n      swap1\n      pop\n        /* \"Staking.sol\":5017:5033  uint256 timeDiff */\n      0x00\n        /* \"Staking.sol\":5072:5084  stakeDetails */\n      0x07\n        /* \"Staking.sol\":5072:5091  stakeDetails[_user] */\n      0x00\n        /* \"Staking.sol\":5085:5090  _user */\n      dup6\n        /* \"Staking.sol\":5072:5091  stakeDetails[_user] */\n      0xffffffffffffffffffffffffffffffffffffffff\n      and\n      0xffffffffffffffffffffffffffffffffffffffff\n      and\n      dup2\n      mstore\n      0x20\n      add\n      swap1\n      dup2\n      mstore\n      0x20\n      add\n      0x00\n      keccak256\n        /* \"Staking.sol\":5072:5094  stakeDetails[_user][0] */\n      0x00\n        /* \"Staking.sol\":5092:5093  0 */\n      dup1\n        /* \"Staking.sol\":5072:5094  stakeDetails[_user][0] */\n      dup2\n      mstore\n      0x20\n      add\n      swap1\n      dup2\n      mstore\n      0x20\n      add\n      0x00\n      keccak256\n        /* \"Staking.sol\":5072:5104  stakeDetails[_user][0].stakeTime */\n      0x02\n      add\n      sload\n        /* \"Staking.sol\":5061:5069  currTime */\n      dup3\n        /* \"Staking.sol\":5061:5104  currTime > stakeDetails[_user][0].stakeTime */\n      gt\n        /* \"Staking.sol\":5058:5225  if(currTime > stakeDetails[_user][0].stakeTime){\r... */\n      iszero\n      tag_133\n      jumpi\n        /* \"Staking.sol\":5142:5154  stakeDetails */\n      0x07\n        /* \"Staking.sol\":5142:5161  stakeDetails[_user] */\n      0x00\n        /* \"Staking.sol\":5155:5160  _user */\n      dup6\n        /* \"Staking.sol\":5142:5161  stakeDetails[_user] */\n      0xffffffffffffffffffffffffffffffffffffffff\n      and\n      0xffffffffffffffffffffffffffffffffffffffff\n      and\n      dup2\n      mstore\n      0x20\n      add\n      swap1\n      dup2\n      mstore\n      0x20\n      add\n      0x00\n      keccak256\n        /* \"Staking.sol\":5142:5164  stakeDetails[_user][0] */\n      0x00\n        /* \"Staking.sol\":5162:5163  0 */\n      dup1\n        /* \"Staking.sol\":5142:5164  stakeDetails[_user][0] */\n      dup2\n      mstore\n      0x20\n      add\n      swap1\n      dup2\n      mstore\n      0x20\n      add\n      0x00\n      keccak256\n        /* \"Staking.sol\":5142:5174  stakeDetails[_user][0].stakeTime */\n      0x02\n      add\n      sload\n        /* \"Staking.sol\":5131:5139  currTime */\n      dup3\n        /* \"Staking.sol\":5131:5174  currTime - stakeDetails[_user][0].stakeTime */\n      tag_134\n      swap2\n      swap1\n      tag_132\n      jump\t// in\n    tag_134:\n        /* \"Staking.sol\":5120:5174  timeDiff = currTime - stakeDetails[_user][0].stakeTime */\n      swap1\n      pop\n        /* \"Staking.sol\":5058:5225  if(currTime > stakeDetails[_user][0].stakeTime){\r... */\n      jump(tag_135)\n    tag_133:\n        /* \"Staking.sol\":5212:5213  0 */\n      0x00\n        /* \"Staking.sol\":5205:5213  return 0 */\n      swap3\n      pop\n      pop\n      pop\n      jump(tag_130)\n        /* \"Staking.sol\":5058:5225  if(currTime > stakeDetails[_user][0].stakeTime){\r... */\n    tag_135:\n        /* \"Staking.sol\":5237:5264  uint256 yearlyHarvestAmount */\n      0x00\n        /* \"Staking.sol\":5319:5322  100 */\n      0x64\n        /* \"Staking.sol\":5300:5308  poolInfo */\n      0x04\n        /* \"Staking.sol\":5309:5310  0 */\n      0x00\n        /* \"Staking.sol\":5300:5311  poolInfo[0] */\n      dup2\n      sload\n      dup2\n      lt\n      tag_136\n      jumpi\n      tag_137\n      tag_138\n      jump\t// in\n    tag_137:\n    tag_136:\n      swap1\n      0x00\n      mstore\n      keccak256(0x00, 0x20)\n      swap1\n      0x06\n      mul\n      add\n        /* \"Staking.sol\":5300:5315  poolInfo[0].apy */\n      0x05\n      add\n      sload\n        /* \"Staking.sol\":5268:5280  stakeDetails */\n      0x07\n        /* \"Staking.sol\":5268:5287  stakeDetails[_user] */\n      0x00\n        /* \"Staking.sol\":5281:5286  _user */\n      dup9\n        /* \"Staking.sol\":5268:5287  stakeDetails[_user] */\n      0xffffffffffffffffffffffffffffffffffffffff\n      and\n      0xffffffffffffffffffffffffffffffffffffffff\n      and\n      dup2\n      mstore\n      0x20\n      add\n      swap1\n      dup2\n      mstore\n      0x20\n      add\n      0x00\n      keccak256\n        /* \"Staking.sol\":5268:5290  stakeDetails[_user][0] */\n      0x00\n        /* \"Staking.sol\":5288:5289  0 */\n      dup1\n        /* \"Staking.sol\":5268:5290  stakeDetails[_user][0] */\n      dup2\n      mstore\n      0x20\n      add\n      swap1\n      dup2\n      mstore\n      0x20\n      add\n      0x00\n      keccak256\n        /* \"Staking.sol\":5268:5297  stakeDetails[_user][0].amount */\n      0x01\n      add\n      sload\n        /* \"Staking.sol\":5268:5315  stakeDetails[_user][0].amount * poolInfo[0].apy */\n      tag_140\n      swap2\n      swap1\n      tag_141\n      jump\t// in\n    tag_140:\n        /* \"Staking.sol\":5267:5322  (stakeDetails[_user][0].amount * poolInfo[0].apy) / 100 */\n      tag_142\n      swap2\n      swap1\n      tag_143\n      jump\t// in\n    tag_142:\n        /* \"Staking.sol\":5237:5322  uint256 yearlyHarvestAmount = (stakeDetails[_user][0].amount * poolInfo[0].apy) / 100 */\n      swap1\n      pop\n        /* \"Staking.sol\":5333:5347  uint256 amount */\n      0x00\n        /* \"Staking.sol\":5385:5393  31536000 */\n      0x01e13380\n        /* \"Staking.sol\":5373:5381  timeDiff */\n      dup4\n        /* \"Staking.sol\":5351:5370  yearlyHarvestAmount */\n      dup4\n        /* \"Staking.sol\":5351:5381  yearlyHarvestAmount * timeDiff */\n      tag_144\n      swap2\n      swap1\n      tag_141\n      jump\t// in\n    tag_144:\n        /* \"Staking.sol\":5350:5393  (yearlyHarvestAmount * timeDiff) / 31536000 */\n      tag_145\n      swap2\n      swap1\n      tag_143\n      jump\t// in\n    tag_145:\n        /* \"Staking.sol\":5333:5393  uint256 amount = (yearlyHarvestAmount * timeDiff) / 31536000 */\n      swap1\n      pop\n        /* \"Staking.sol\":5411:5417  amount */\n      dup1\n        /* \"Staking.sol\":5404:5417  return amount */\n      swap5\n      pop\n      pop\n      pop\n      pop\n      pop\n        /* \"Staking.sol\":4881:5425  function getTotalReward(address _user) public view returns (uint256) {\r... */\n    tag_130:\n      swap2\n      swap1\n      pop\n      jump\t// out\n        /* \"Staking.sol\":4355:4459  function withdraw() public returns (bool) {\r... */\n    tag_52:\n        /* \"Staking.sol\":4391:4395  bool */\n      0x00\n        /* \"Staking.sol\":4408:4429  _withdraw(msg.sender) */\n      tag_147\n        /* \"Staking.sol\":4418:4428  msg.sender */\n      caller\n        /* \"Staking.sol\":4408:4417  _withdraw */\n      tag_148\n        /* \"Staking.sol\":4408:4429  _withdraw(msg.sender) */\n      jump\t// in\n    tag_147:\n        /* \"Staking.sol\":4447:4451  true */\n      0x01\n        /* \"Staking.sol\":4440:4451  return true */\n      swap1\n      pop\n        /* \"Staking.sol\":4355:4459  function withdraw() public returns (bool) {\r... */\n      swap1\n      jump\t// out\n        /* \"Staking.sol\":6214:6337  function getUserPoolIDLength(address _user) public view returns(uint256){\r... */\n    tag_58:\n        /* \"Staking.sol\":6278:6285  uint256 */\n      0x00\n        /* \"Staking.sol\":6304:6315  userPoolIds */\n      0x05\n        /* \"Staking.sol\":6304:6322  userPoolIds[_user] */\n      0x00\n        /* \"Staking.sol\":6316:6321  _user */\n      dup4\n        /* \"Staking.sol\":6304:6322  userPoolIds[_user] */\n      0xffffffffffffffffffffffffffffffffffffffff\n      and\n      0xffffffffffffffffffffffffffffffffffffffff\n      and\n      dup2\n      mstore\n      0x20\n      add\n      swap1\n      dup2\n      mstore\n      0x20\n      add\n      0x00\n      keccak256\n        /* \"Staking.sol\":6304:6329  userPoolIds[_user].length */\n      dup1\n      sload\n      swap1\n      pop\n        /* \"Staking.sol\":6297:6329  return userPoolIds[_user].length */\n      swap1\n      pop\n        /* \"Staking.sol\":6214:6337  function getUserPoolIDLength(address _user) public view returns(uint256){\r... */\n      swap2\n      swap1\n      pop\n      jump\t// out\n        /* \"Staking.sol\":5433:5693  function getCurrentReward(address _user) public view returns (uint256) {\r... */\n    tag_63:\n        /* \"Staking.sol\":5495:5502  uint256 */\n      0x00\n        /* \"Staking.sol\":5551:5552  0 */\n      dup1\n        /* \"Staking.sol\":5518:5530  stakeDetails */\n      0x07\n        /* \"Staking.sol\":5518:5537  stakeDetails[_user] */\n      0x00\n        /* \"Staking.sol\":5531:5536  _user */\n      dup5\n        /* \"Staking.sol\":5518:5537  stakeDetails[_user] */\n      0xffffffffffffffffffffffffffffffffffffffff\n      and\n      0xffffffffffffffffffffffffffffffffffffffff\n      and\n      dup2\n      mstore\n      0x20\n      add\n      swap1\n      dup2\n      mstore\n      0x20\n      add\n      0x00\n      keccak256\n        /* \"Staking.sol\":5518:5540  stakeDetails[_user][0] */\n      0x00\n        /* \"Staking.sol\":5538:5539  0 */\n      dup1\n        /* \"Staking.sol\":5518:5540  stakeDetails[_user][0] */\n      dup2\n      mstore\n      0x20\n      add\n      swap1\n      dup2\n      mstore\n      0x20\n      add\n      0x00\n      keccak256\n        /* \"Staking.sol\":5518:5547  stakeDetails[_user][0].amount */\n      0x01\n      add\n      sload\n        /* \"Staking.sol\":5518:5552  stakeDetails[_user][0].amount != 0 */\n      eq\n        /* \"Staking.sol\":5515:5686  if(stakeDetails[_user][0].amount != 0){\r... */\n      tag_151\n      jumpi\n        /* \"Staking.sol\":5602:5614  stakeDetails */\n      0x07\n        /* \"Staking.sol\":5602:5621  stakeDetails[_user] */\n      0x00\n        /* \"Staking.sol\":5615:5620  _user */\n      dup4\n        /* \"Staking.sol\":5602:5621  stakeDetails[_user] */\n      0xffffffffffffffffffffffffffffffffffffffff\n      and\n      0xffffffffffffffffffffffffffffffffffffffff\n      and\n      dup2\n      mstore\n      0x20\n      add\n      swap1\n      dup2\n      mstore\n      0x20\n      add\n      0x00\n      keccak256\n        /* \"Staking.sol\":5602:5624  stakeDetails[_user][0] */\n      0x00\n        /* \"Staking.sol\":5622:5623  0 */\n      dup1\n        /* \"Staking.sol\":5602:5624  stakeDetails[_user][0] */\n      dup2\n      mstore\n      0x20\n      add\n      swap1\n      dup2\n      mstore\n      0x20\n      add\n      0x00\n      keccak256\n        /* \"Staking.sol\":5602:5634  stakeDetails[_user][0].withdrawn */\n      0x03\n      add\n      sload\n        /* \"Staking.sol\":5576:5597  getTotalReward(_user) */\n      tag_152\n        /* \"Staking.sol\":5591:5596  _user */\n      dup4\n        /* \"Staking.sol\":5576:5590  getTotalReward */\n      tag_48\n        /* \"Staking.sol\":5576:5597  getTotalReward(_user) */\n      jump\t// in\n    tag_152:\n        /* \"Staking.sol\":5575:5635  (getTotalReward(_user)) - (stakeDetails[_user][0].withdrawn) */\n      tag_153\n      swap2\n      swap1\n      tag_132\n      jump\t// in\n    tag_153:\n        /* \"Staking.sol\":5568:5635  return (getTotalReward(_user)) - (stakeDetails[_user][0].withdrawn) */\n      swap1\n      pop\n      jump(tag_150)\n        /* \"Staking.sol\":5515:5686  if(stakeDetails[_user][0].amount != 0){\r... */\n    tag_151:\n        /* \"Staking.sol\":5673:5674  0 */\n      0x00\n        /* \"Staking.sol\":5666:5674  return 0 */\n      swap1\n      pop\n        /* \"Staking.sol\":5433:5693  function getCurrentReward(address _user) public view returns (uint256) {\r... */\n    tag_150:\n      swap2\n      swap1\n      pop\n      jump\t// out\n        /* \"Staking.sol\":5701:5800  function getPoolInfo() public view returns (PoolStruct memory){\r... */\n    tag_67:\n        /* \"Staking.sol\":5745:5762  PoolStruct memory */\n      tag_155\n      tag_156\n      jump\t// in\n    tag_155:\n        /* \"Staking.sol\":5781:5789  poolInfo */\n      0x04\n        /* \"Staking.sol\":5790:5791  0 */\n      0x00\n        /* \"Staking.sol\":5781:5792  poolInfo[0] */\n      dup2\n      sload\n      dup2\n      lt\n      tag_158\n      jumpi\n      tag_159\n      tag_138\n      jump\t// in\n    tag_159:\n    tag_158:\n      swap1\n      0x00\n      mstore\n      keccak256(0x00, 0x20)\n      swap1\n      0x06\n      mul\n      add\n        /* \"Staking.sol\":5774:5792  return poolInfo[0] */\n      mload(0x40)\n      dup1\n      0xc0\n      add\n      0x40\n      mstore\n      swap1\n      dup2\n      0x00\n      dup3\n      add\n      0x00\n      swap1\n      sload\n      swap1\n      0x0100\n      exp\n      swap1\n      div\n      0xffffffffffffffffffffffffffffffffffffffff\n      and\n      0xffffffffffffffffffffffffffffffffffffffff\n      and\n      0xffffffffffffffffffffffffffffffffffffffff\n      and\n      dup2\n      mstore\n      0x20\n      add\n      0x01\n      dup3\n      add\n      0x00\n      swap1\n      sload\n      swap1\n      0x0100\n      exp\n      swap1\n      div\n      0xffffffffffffffffffffffffffffffffffffffff\n      and\n      0xffffffffffffffffffffffffffffffffffffffff\n      and\n      0xffffffffffffffffffffffffffffffffffffffff\n      and\n      dup2\n      mstore\n      0x20\n      add\n      0x02\n      dup3\n      add\n      sload\n      dup2\n      mstore\n      0x20\n      add\n      0x03\n      dup3\n      add\n      dup1\n      sload\n      tag_161\n      swap1\n      tag_162\n      jump\t// in\n    tag_161:\n      dup1\n      0x1f\n      add\n      0x20\n      dup1\n      swap2\n      div\n      mul\n      0x20\n      add\n      mload(0x40)\n      swap1\n      dup2\n      add\n      0x40\n      mstore\n      dup1\n      swap3\n      swap2\n      swap1\n      dup2\n      dup2\n      mstore\n      0x20\n      add\n      dup3\n      dup1\n      sload\n      tag_163\n      swap1\n      tag_162\n      jump\t// in\n    tag_163:\n      dup1\n      iszero\n      tag_164\n      jumpi\n      dup1\n      0x1f\n      lt\n      tag_165\n      jumpi\n      0x0100\n      dup1\n      dup4\n      sload\n      div\n      mul\n      dup4\n      mstore\n      swap2\n      0x20\n      add\n      swap2\n      jump(tag_164)\n    tag_165:\n      dup3\n      add\n      swap2\n      swap1\n      0x00\n      mstore\n      keccak256(0x00, 0x20)\n      swap1\n    tag_166:\n      dup2\n      sload\n      dup2\n      mstore\n      swap1\n      0x01\n      add\n      swap1\n      0x20\n      add\n      dup1\n      dup4\n      gt\n      tag_166\n      jumpi\n      dup3\n      swap1\n      sub\n      0x1f\n      and\n      dup3\n      add\n      swap2\n    tag_164:\n      pop\n      pop\n      pop\n      pop\n      pop\n      dup2\n      mstore\n      0x20\n      add\n      0x04\n      dup3\n      add\n      0x00\n      swap1\n      sload\n      swap1\n      0x0100\n      exp\n      swap1\n      div\n      0xff\n      and\n      iszero\n      iszero\n      iszero\n      iszero\n      dup2\n      mstore\n      0x20\n      add\n      0x05\n      dup3\n      add\n      sload\n      dup2\n      mstore\n      pop\n      pop\n      swap1\n      pop\n        /* \"Staking.sol\":5701:5800  function getPoolInfo() public view returns (PoolStruct memory){\r... */\n      swap1\n      jump\t// out\n        /* \"Staking.sol\":1271:1966  function createPool(address _tokenAddress, \r... */\n    tag_74:\n        /* \"@openzeppelin/contracts/access/Ownable.sol\":1094:1107  _checkOwner() */\n      tag_168\n        /* \"@openzeppelin/contracts/access/Ownable.sol\":1094:1105  _checkOwner */\n      tag_169\n        /* \"@openzeppelin/contracts/access/Ownable.sol\":1094:1107  _checkOwner() */\n      jump\t// in\n    tag_168:\n        /* \"Staking.sol\":1488:1499  poolCreated */\n      0x03\n      0x00\n      swap1\n      sload\n      swap1\n      0x0100\n      exp\n      swap1\n      div\n      0xff\n      and\n        /* \"Staking.sol\":1487:1499  !poolCreated */\n      iszero\n        /* \"Staking.sol\":1479:1516  require(!poolCreated, \"Pool exists!\") */\n      tag_171\n      jumpi\n      mload(0x40)\n      0x08c379a000000000000000000000000000000000000000000000000000000000\n      dup2\n      mstore\n      0x04\n      add\n      tag_172\n      swap1\n      tag_173\n      jump\t// in\n    tag_172:\n      mload(0x40)\n      dup1\n      swap2\n      sub\n      swap1\n      revert\n    tag_171:\n        /* \"Staking.sol\":1560:1561  0 */\n      0x00\n        /* \"Staking.sol\":1535:1562  _tokenAddress != address(0) */\n      0xffffffffffffffffffffffffffffffffffffffff\n      and\n        /* \"Staking.sol\":1535:1548  _tokenAddress */\n      dup5\n        /* \"Staking.sol\":1535:1562  _tokenAddress != address(0) */\n      0xffffffffffffffffffffffffffffffffffffffff\n      and\n      eq\n      iszero\n        /* \"Staking.sol\":1527:1588  require(_tokenAddress != address(0), \"Invalid stake address\") */\n      tag_174\n      jumpi\n      mload(0x40)\n      0x08c379a000000000000000000000000000000000000000000000000000000000\n      dup2\n      mstore\n      0x04\n      add\n      tag_175\n      swap1\n      tag_176\n      jump\t// in\n    tag_175:\n      mload(0x40)\n      dup1\n      swap2\n      sub\n      swap1\n      revert\n    tag_174:\n        /* \"Staking.sol\":1633:1634  0 */\n      0x00\n        /* \"Staking.sol\":1607:1635  _rewardAddress != address(0) */\n      0xffffffffffffffffffffffffffffffffffffffff\n      and\n        /* \"Staking.sol\":1607:1621  _rewardAddress */\n      dup4\n        /* \"Staking.sol\":1607:1635  _rewardAddress != address(0) */\n      0xffffffffffffffffffffffffffffffffffffffff\n      and\n      eq\n      iszero\n        /* \"Staking.sol\":1599:1662  require(_rewardAddress != address(0), \"Invalid reward address\") */\n      tag_177\n      jumpi\n      mload(0x40)\n      0x08c379a000000000000000000000000000000000000000000000000000000000\n      dup2\n      mstore\n      0x04\n      add\n      tag_178\n      swap1\n      tag_179\n      jump\t// in\n    tag_178:\n      mload(0x40)\n      dup1\n      swap2\n      sub\n      swap1\n      revert\n    tag_177:\n        /* \"Staking.sol\":1675:1683  poolInfo */\n      0x04\n        /* \"Staking.sol\":1689:1926  PoolStruct({\r... */\n      mload(0x40)\n      dup1\n      0xc0\n      add\n      0x40\n      mstore\n      dup1\n        /* \"Staking.sol\":1729:1742  _tokenAddress */\n      dup7\n        /* \"Staking.sol\":1689:1926  PoolStruct({\r... */\n      0xffffffffffffffffffffffffffffffffffffffff\n      and\n      dup2\n      mstore\n      0x20\n      add\n        /* \"Staking.sol\":1772:1786  _rewardAddress */\n      dup6\n        /* \"Staking.sol\":1689:1926  PoolStruct({\r... */\n      0xffffffffffffffffffffffffffffffffffffffff\n      and\n      dup2\n      mstore\n      0x20\n      add\n        /* \"Staking.sol\":1819:1820  0 */\n      0x00\n        /* \"Staking.sol\":1689:1926  PoolStruct({\r... */\n      dup2\n      mstore\n      0x20\n      add\n        /* \"Staking.sol\":1841:1846  _name */\n      dup5\n        /* \"Staking.sol\":1689:1926  PoolStruct({\r... */\n      dup2\n      mstore\n      0x20\n      add\n        /* \"Staking.sol\":1874:1879  false */\n      0x00\n        /* \"Staking.sol\":1689:1926  PoolStruct({\r... */\n      iszero\n      iszero\n      dup2\n      mstore\n      0x20\n      add\n        /* \"Staking.sol\":1910:1914  _apy */\n      dup4\n        /* \"Staking.sol\":1689:1926  PoolStruct({\r... */\n      dup2\n      mstore\n      pop\n        /* \"Staking.sol\":1675:1927  poolInfo.push(PoolStruct({\r... */\n      swap1\n      dup1\n      0x01\n      dup2\n      sload\n      add\n      dup1\n      dup3\n      sstore\n      dup1\n      swap2\n      pop\n      pop\n      0x01\n      swap1\n      sub\n      swap1\n      0x00\n      mstore\n      keccak256(0x00, 0x20)\n      swap1\n      0x06\n      mul\n      add\n      0x00\n      swap1\n      swap2\n      swap1\n      swap2\n      swap1\n      swap2\n      pop\n      0x00\n      dup3\n      add\n      mload\n      dup2\n      0x00\n      add\n      exp(0x0100, 0x00)\n      dup2\n      sload\n      dup2\n      0xffffffffffffffffffffffffffffffffffffffff\n      mul\n      not\n      and\n      swap1\n      dup4\n      0xffffffffffffffffffffffffffffffffffffffff\n      and\n      mul\n      or\n      swap1\n      sstore\n      pop\n      0x20\n      dup3\n      add\n      mload\n      dup2\n      0x01\n      add\n      exp(0x0100, 0x00)\n      dup2\n      sload\n      dup2\n      0xffffffffffffffffffffffffffffffffffffffff\n      mul\n      not\n      and\n      swap1\n      dup4\n      0xffffffffffffffffffffffffffffffffffffffff\n      and\n      mul\n      or\n      swap1\n      sstore\n      pop\n      0x40\n      dup3\n      add\n      mload\n      dup2\n      0x02\n      add\n      sstore\n      0x60\n      dup3\n      add\n      mload\n      dup2\n      0x03\n      add\n      swap1\n      dup1\n      mload\n      swap1\n      0x20\n      add\n      swap1\n      tag_181\n      swap3\n      swap2\n      swap1\n      tag_182\n      jump\t// in\n    tag_181:\n      pop\n      0x80\n      dup3\n      add\n      mload\n      dup2\n      0x04\n      add\n      exp(0x0100, 0x00)\n      dup2\n      sload\n      dup2\n      0xff\n      mul\n      not\n      and\n      swap1\n      dup4\n      iszero\n      iszero\n      mul\n      or\n      swap1\n      sstore\n      pop\n      0xa0\n      dup3\n      add\n      mload\n      dup2\n      0x05\n      add\n      sstore\n      pop\n      pop\n        /* \"Staking.sol\":1954:1958  true */\n      0x01\n        /* \"Staking.sol\":1940:1951  poolCreated */\n      0x03\n      0x00\n        /* \"Staking.sol\":1940:1958  poolCreated = true */\n      0x0100\n      exp\n      dup2\n      sload\n      dup2\n      0xff\n      mul\n      not\n      and\n      swap1\n      dup4\n      iszero\n      iszero\n      mul\n      or\n      swap1\n      sstore\n      pop\n        /* \"Staking.sol\":1271:1966  function createPool(address _tokenAddress, \r... */\n      pop\n      pop\n      pop\n      pop\n      jump\t// out\n        /* \"@openzeppelin/contracts/access/Ownable.sol\":1831:1932  function renounceOwnership() public virtual onlyOwner {... */\n    tag_77:\n        /* \"@openzeppelin/contracts/access/Ownable.sol\":1094:1107  _checkOwner() */\n      tag_184\n        /* \"@openzeppelin/contracts/access/Ownable.sol\":1094:1105  _checkOwner */\n      tag_169\n        /* \"@openzeppelin/contracts/access/Ownable.sol\":1094:1107  _checkOwner() */\n      jump\t// in\n    tag_184:\n        /* \"@openzeppelin/contracts/access/Ownable.sol\":1895:1925  _transferOwnership(address(0)) */\n      tag_186\n        /* \"@openzeppelin/contracts/access/Ownable.sol\":1922:1923  0 */\n      0x00\n        /* \"@openzeppelin/contracts/access/Ownable.sol\":1895:1913  _transferOwnership */\n      tag_187\n        /* \"@openzeppelin/contracts/access/Ownable.sol\":1895:1925  _transferOwnership(address(0)) */\n      jump\t// in\n    tag_186:\n        /* \"@openzeppelin/contracts/access/Ownable.sol\":1831:1932  function renounceOwnership() public virtual onlyOwner {... */\n      jump\t// out\n        /* \"Staking.sol\":3241:4118  function unStake() public {\r... */\n    tag_80:\n        /* \"Staking.sol\":3287:3299  stakeDetails */\n      0x07\n        /* \"Staking.sol\":3287:3311  stakeDetails[msg.sender] */\n      0x00\n        /* \"Staking.sol\":3300:3310  msg.sender */\n      caller\n        /* \"Staking.sol\":3287:3311  stakeDetails[msg.sender] */\n      0xffffffffffffffffffffffffffffffffffffffff\n      and\n      0xffffffffffffffffffffffffffffffffffffffff\n      and\n      dup2\n      mstore\n      0x20\n      add\n      swap1\n      dup2\n      mstore\n      0x20\n      add\n      0x00\n      keccak256\n        /* \"Staking.sol\":3287:3314  stakeDetails[msg.sender][0] */\n      0x00\n        /* \"Staking.sol\":3312:3313  0 */\n      dup1\n        /* \"Staking.sol\":3287:3314  stakeDetails[msg.sender][0] */\n      dup2\n      mstore\n      0x20\n      add\n      swap1\n      dup2\n      mstore\n      0x20\n      add\n      0x00\n      keccak256\n        /* \"Staking.sol\":3287:3322  stakeDetails[msg.sender][0].isExist */\n      0x00\n      add\n      0x00\n      swap1\n      sload\n      swap1\n      0x0100\n      exp\n      swap1\n      div\n      0xff\n      and\n        /* \"Staking.sol\":3278:3345  require (stakeDetails[msg.sender][0].isExist, \"You are not staked\") */\n      tag_189\n      jumpi\n      mload(0x40)\n      0x08c379a000000000000000000000000000000000000000000000000000000000\n      dup2\n      mstore\n      0x04\n      add\n      tag_190\n      swap1\n      tag_191\n      jump\t// in\n    tag_190:\n      mload(0x40)\n      dup1\n      swap2\n      sub\n      swap1\n      revert\n    tag_189:\n        /* \"Staking.sol\":3393:3394  0 */\n      0x00\n        /* \"Staking.sol\":3362:3390  getCurrentReward(msg.sender) */\n      tag_192\n        /* \"Staking.sol\":3379:3389  msg.sender */\n      caller\n        /* \"Staking.sol\":3362:3378  getCurrentReward */\n      tag_63\n        /* \"Staking.sol\":3362:3390  getCurrentReward(msg.sender) */\n      jump\t// in\n    tag_192:\n        /* \"Staking.sol\":3362:3394  getCurrentReward(msg.sender) > 0 */\n      gt\n        /* \"Staking.sol\":3358:3444  if (getCurrentReward(msg.sender) > 0) {\r... */\n      iszero\n      tag_193\n      jumpi\n        /* \"Staking.sol\":3411:3432  _withdraw(msg.sender) */\n      tag_194\n        /* \"Staking.sol\":3421:3431  msg.sender */\n      caller\n        /* \"Staking.sol\":3411:3420  _withdraw */\n      tag_148\n        /* \"Staking.sol\":3411:3432  _withdraw(msg.sender) */\n      jump\t// in\n    tag_194:\n        /* \"Staking.sol\":3358:3444  if (getCurrentReward(msg.sender) > 0) {\r... */\n    tag_193:\n        /* \"Staking.sol\":3463:3471  poolInfo */\n      0x04\n        /* \"Staking.sol\":3472:3473  0 */\n      0x00\n        /* \"Staking.sol\":3463:3474  poolInfo[0] */\n      dup2\n      sload\n      dup2\n      lt\n      tag_195\n      jumpi\n      tag_196\n      tag_138\n      jump\t// in\n    tag_196:\n    tag_195:\n      swap1\n      0x00\n      mstore\n      keccak256(0x00, 0x20)\n      swap1\n      0x06\n      mul\n      add\n        /* \"Staking.sol\":3463:3487  poolInfo[0].tokenAddress */\n      0x00\n      add\n      0x00\n      swap1\n      sload\n      swap1\n      0x0100\n      exp\n      swap1\n      div\n      0xffffffffffffffffffffffffffffffffffffffff\n      and\n        /* \"Staking.sol\":3456:3497  IERC20(poolInfo[0].tokenAddress).transfer */\n      0xffffffffffffffffffffffffffffffffffffffff\n      and\n      0xa9059cbb\n        /* \"Staking.sol\":3498:3508  msg.sender */\n      caller\n        /* \"Staking.sol\":3510:3522  stakeDetails */\n      0x07\n        /* \"Staking.sol\":3510:3534  stakeDetails[msg.sender] */\n      0x00\n        /* \"Staking.sol\":3523:3533  msg.sender */\n      caller\n        /* \"Staking.sol\":3510:3534  stakeDetails[msg.sender] */\n      0xffffffffffffffffffffffffffffffffffffffff\n      and\n      0xffffffffffffffffffffffffffffffffffffffff\n      and\n      dup2\n      mstore\n      0x20\n      add\n      swap1\n      dup2\n      mstore\n      0x20\n      add\n      0x00\n      keccak256\n        /* \"Staking.sol\":3510:3537  stakeDetails[msg.sender][0] */\n      0x00\n        /* \"Staking.sol\":3535:3536  0 */\n      dup1\n        /* \"Staking.sol\":3510:3537  stakeDetails[msg.sender][0] */\n      dup2\n      mstore\n      0x20\n      add\n      swap1\n      dup2\n      mstore\n      0x20\n      add\n      0x00\n      keccak256\n        /* \"Staking.sol\":3510:3544  stakeDetails[msg.sender][0].amount */\n      0x01\n      add\n      sload\n        /* \"Staking.sol\":3456:3545  IERC20(poolInfo[0].tokenAddress).transfer(msg.sender, stakeDetails[msg.sender][0].amount) */\n      mload(0x40)\n      dup4\n      0xffffffff\n      and\n      0xe0\n      shl\n      dup2\n      mstore\n      0x04\n      add\n      tag_198\n      swap3\n      swap2\n      swap1\n      tag_199\n      jump\t// in\n    tag_198:\n      0x20\n      mload(0x40)\n      dup1\n      dup4\n      sub\n      dup2\n      0x00\n      dup8\n      dup1\n      extcodesize\n      iszero\n      dup1\n      iszero\n      tag_200\n      jumpi\n      0x00\n      dup1\n      revert\n    tag_200:\n      pop\n      gas\n      call\n      iszero\n      dup1\n      iszero\n      tag_202\n      jumpi\n      returndatasize\n      0x00\n      dup1\n      returndatacopy\n      revert(0x00, returndatasize)\n    tag_202:\n      pop\n      pop\n      pop\n      pop\n      mload(0x40)\n      returndatasize\n      not(0x1f)\n      0x1f\n      dup3\n      add\n      and\n      dup3\n      add\n      dup1\n      0x40\n      mstore\n      pop\n      dup2\n      add\n      swap1\n      tag_203\n      swap2\n      swap1\n      tag_204\n      jump\t// in\n    tag_203:\n      pop\n        /* \"Staking.sol\":3571:3643  UnStake(msg.sender, stakeDetails[msg.sender][0].amount, block.timestamp) */\n      0x54a9763035584fc4fcad1bc4e0e7a83f93e016f50ae32bd527530a77257393ee\n        /* \"Staking.sol\":3579:3589  msg.sender */\n      caller\n        /* \"Staking.sol\":3591:3603  stakeDetails */\n      0x07\n        /* \"Staking.sol\":3591:3615  stakeDetails[msg.sender] */\n      0x00\n        /* \"Staking.sol\":3604:3614  msg.sender */\n      caller\n        /* \"Staking.sol\":3591:3615  stakeDetails[msg.sender] */\n      0xffffffffffffffffffffffffffffffffffffffff\n      and\n      0xffffffffffffffffffffffffffffffffffffffff\n      and\n      dup2\n      mstore\n      0x20\n      add\n      swap1\n      dup2\n      mstore\n      0x20\n      add\n      0x00\n      keccak256\n        /* \"Staking.sol\":3591:3618  stakeDetails[msg.sender][0] */\n      0x00\n        /* \"Staking.sol\":3616:3617  0 */\n      dup1\n        /* \"Staking.sol\":3591:3618  stakeDetails[msg.sender][0] */\n      dup2\n      mstore\n      0x20\n      add\n      swap1\n      dup2\n      mstore\n      0x20\n      add\n      0x00\n      keccak256\n        /* \"Staking.sol\":3591:3625  stakeDetails[msg.sender][0].amount */\n      0x01\n      add\n      sload\n        /* \"Staking.sol\":3627:3642  block.timestamp */\n      timestamp\n        /* \"Staking.sol\":3571:3643  UnStake(msg.sender, stakeDetails[msg.sender][0].amount, block.timestamp) */\n      mload(0x40)\n      tag_205\n      swap4\n      swap3\n      swap2\n      swap1\n      tag_206\n      jump\t// in\n    tag_205:\n      mload(0x40)\n      dup1\n      swap2\n      sub\n      swap1\n      log1\n        /* \"Staking.sol\":3696:3708  stakeDetails */\n      0x07\n        /* \"Staking.sol\":3696:3720  stakeDetails[msg.sender] */\n      0x00\n        /* \"Staking.sol\":3709:3719  msg.sender */\n      caller\n        /* \"Staking.sol\":3696:3720  stakeDetails[msg.sender] */\n      0xffffffffffffffffffffffffffffffffffffffff\n      and\n      0xffffffffffffffffffffffffffffffffffffffff\n      and\n      dup2\n      mstore\n      0x20\n      add\n      swap1\n      dup2\n      mstore\n      0x20\n      add\n      0x00\n      keccak256\n        /* \"Staking.sol\":3696:3723  stakeDetails[msg.sender][0] */\n      0x00\n        /* \"Staking.sol\":3721:3722  0 */\n      dup1\n        /* \"Staking.sol\":3696:3723  stakeDetails[msg.sender][0] */\n      dup2\n      mstore\n      0x20\n      add\n      swap1\n      dup2\n      mstore\n      0x20\n      add\n      0x00\n      keccak256\n        /* \"Staking.sol\":3696:3730  stakeDetails[msg.sender][0].amount */\n      0x01\n      add\n      sload\n        /* \"Staking.sol\":3664:3672  poolInfo */\n      0x04\n        /* \"Staking.sol\":3673:3674  0 */\n      0x00\n        /* \"Staking.sol\":3664:3675  poolInfo[0] */\n      dup2\n      sload\n      dup2\n      lt\n      tag_207\n      jumpi\n      tag_208\n      tag_138\n      jump\t// in\n    tag_208:\n    tag_207:\n      swap1\n      0x00\n      mstore\n      keccak256(0x00, 0x20)\n      swap1\n      0x06\n      mul\n      add\n        /* \"Staking.sol\":3664:3692  poolInfo[0].totalStakeAmount */\n      0x02\n      add\n      0x00\n        /* \"Staking.sol\":3664:3730  poolInfo[0].totalStakeAmount -= stakeDetails[msg.sender][0].amount */\n      dup3\n      dup3\n      sload\n      tag_210\n      swap2\n      swap1\n      tag_132\n      jump\t// in\n    tag_210:\n      swap3\n      pop\n      pop\n      dup2\n      swap1\n      sstore\n      pop\n        /* \"Staking.sol\":3755:3764  uint256 i */\n      0x00\n        /* \"Staking.sol\":3751:4064  for(uint256 i = 0; i < userPoolIds[msg.sender].length; i++){\r... */\n    tag_211:\n        /* \"Staking.sol\":3774:3785  userPoolIds */\n      0x05\n        /* \"Staking.sol\":3774:3797  userPoolIds[msg.sender] */\n      0x00\n        /* \"Staking.sol\":3786:3796  msg.sender */\n      caller\n        /* \"Staking.sol\":3774:3797  userPoolIds[msg.sender] */\n      0xffffffffffffffffffffffffffffffffffffffff\n      and\n      0xffffffffffffffffffffffffffffffffffffffff\n      and\n      dup2\n      mstore\n      0x20\n      add\n      swap1\n      dup2\n      mstore\n      0x20\n      add\n      0x00\n      keccak256\n        /* \"Staking.sol\":3774:3804  userPoolIds[msg.sender].length */\n      dup1\n      sload\n      swap1\n      pop\n        /* \"Staking.sol\":3770:3771  i */\n      dup2\n        /* \"Staking.sol\":3770:3804  i < userPoolIds[msg.sender].length */\n      lt\n        /* \"Staking.sol\":3751:4064  for(uint256 i = 0; i < userPoolIds[msg.sender].length; i++){\r... */\n      iszero\n      tag_212\n      jumpi\n        /* \"Staking.sol\":3858:3859  0 */\n      0x00\n        /* \"Staking.sol\":3828:3839  userPoolIds */\n      0x05\n        /* \"Staking.sol\":3828:3851  userPoolIds[msg.sender] */\n      0x00\n        /* \"Staking.sol\":3840:3850  msg.sender */\n      caller\n        /* \"Staking.sol\":3828:3851  userPoolIds[msg.sender] */\n      0xffffffffffffffffffffffffffffffffffffffff\n      and\n      0xffffffffffffffffffffffffffffffffffffffff\n      and\n      dup2\n      mstore\n      0x20\n      add\n      swap1\n      dup2\n      mstore\n      0x20\n      add\n      0x00\n      keccak256\n        /* \"Staking.sol\":3852:3853  i */\n      dup3\n        /* \"Staking.sol\":3828:3854  userPoolIds[msg.sender][i] */\n      dup2\n      sload\n      dup2\n      lt\n      tag_214\n      jumpi\n      tag_215\n      tag_138\n      jump\t// in\n    tag_215:\n    tag_214:\n      swap1\n      0x00\n      mstore\n      keccak256(0x00, 0x20)\n      add\n      sload\n        /* \"Staking.sol\":3828:3859  userPoolIds[msg.sender][i] == 0 */\n      eq\n        /* \"Staking.sol\":3825:4053  if(userPoolIds[msg.sender][i] == 0){\r... */\n      iszero\n      tag_217\n      jumpi\n        /* \"Staking.sol\":3908:3919  userPoolIds */\n      0x05\n        /* \"Staking.sol\":3908:3931  userPoolIds[msg.sender] */\n      0x00\n        /* \"Staking.sol\":3920:3930  msg.sender */\n      caller\n        /* \"Staking.sol\":3908:3931  userPoolIds[msg.sender] */\n      0xffffffffffffffffffffffffffffffffffffffff\n      and\n      0xffffffffffffffffffffffffffffffffffffffff\n      and\n      dup2\n      mstore\n      0x20\n      add\n      swap1\n      dup2\n      mstore\n      0x20\n      add\n      0x00\n      keccak256\n        /* \"Staking.sol\":3963:3964  1 */\n      0x01\n        /* \"Staking.sol\":3932:3943  userPoolIds */\n      0x05\n        /* \"Staking.sol\":3932:3955  userPoolIds[msg.sender] */\n      0x00\n        /* \"Staking.sol\":3944:3954  msg.sender */\n      caller\n        /* \"Staking.sol\":3932:3955  userPoolIds[msg.sender] */\n      0xffffffffffffffffffffffffffffffffffffffff\n      and\n      0xffffffffffffffffffffffffffffffffffffffff\n      and\n      dup2\n      mstore\n      0x20\n      add\n      swap1\n      dup2\n      mstore\n      0x20\n      add\n      0x00\n      keccak256\n        /* \"Staking.sol\":3932:3962  userPoolIds[msg.sender].length */\n      dup1\n      sload\n      swap1\n      pop\n        /* \"Staking.sol\":3932:3964  userPoolIds[msg.sender].length-1 */\n      tag_218\n      swap2\n      swap1\n      tag_132\n      jump\t// in\n    tag_218:\n        /* \"Staking.sol\":3908:3965  userPoolIds[msg.sender][userPoolIds[msg.sender].length-1] */\n      dup2\n      sload\n      dup2\n      lt\n      tag_219\n      jumpi\n      tag_220\n      tag_138\n      jump\t// in\n    tag_220:\n    tag_219:\n      swap1\n      0x00\n      mstore\n      keccak256(0x00, 0x20)\n      add\n      sload\n        /* \"Staking.sol\":3879:3890  userPoolIds */\n      0x05\n        /* \"Staking.sol\":3879:3902  userPoolIds[msg.sender] */\n      0x00\n        /* \"Staking.sol\":3891:3901  msg.sender */\n      caller\n        /* \"Staking.sol\":3879:3902  userPoolIds[msg.sender] */\n      0xffffffffffffffffffffffffffffffffffffffff\n      and\n      0xffffffffffffffffffffffffffffffffffffffff\n      and\n      dup2\n      mstore\n      0x20\n      add\n      swap1\n      dup2\n      mstore\n      0x20\n      add\n      0x00\n      keccak256\n        /* \"Staking.sol\":3903:3904  i */\n      dup3\n        /* \"Staking.sol\":3879:3905  userPoolIds[msg.sender][i] */\n      dup2\n      sload\n      dup2\n      lt\n      tag_222\n      jumpi\n      tag_223\n      tag_138\n      jump\t// in\n    tag_223:\n    tag_222:\n      swap1\n      0x00\n      mstore\n      keccak256(0x00, 0x20)\n      add\n        /* \"Staking.sol\":3879:3965  userPoolIds[msg.sender][i] = userPoolIds[msg.sender][userPoolIds[msg.sender].length-1] */\n      dup2\n      swap1\n      sstore\n      pop\n        /* \"Staking.sol\":3984:3995  userPoolIds */\n      0x05\n        /* \"Staking.sol\":3984:4007  userPoolIds[msg.sender] */\n      0x00\n        /* \"Staking.sol\":3996:4006  msg.sender */\n      caller\n        /* \"Staking.sol\":3984:4007  userPoolIds[msg.sender] */\n      0xffffffffffffffffffffffffffffffffffffffff\n      and\n      0xffffffffffffffffffffffffffffffffffffffff\n      and\n      dup2\n      mstore\n      0x20\n      add\n      swap1\n      dup2\n      mstore\n      0x20\n      add\n      0x00\n      keccak256\n        /* \"Staking.sol\":3984:4013  userPoolIds[msg.sender].pop() */\n      dup1\n      sload\n      dup1\n      tag_225\n      jumpi\n      tag_226\n      tag_227\n      jump\t// in\n    tag_226:\n    tag_225:\n      0x01\n      swap1\n      sub\n      dup2\n      dup2\n      swap1\n      0x00\n      mstore\n      keccak256(0x00, 0x20)\n      add\n      0x00\n      swap1\n      sstore\n      swap1\n      sstore\n        /* \"Staking.sol\":4032:4037  break */\n      jump(tag_212)\n        /* \"Staking.sol\":3825:4053  if(userPoolIds[msg.sender][i] == 0){\r... */\n    tag_217:\n        /* \"Staking.sol\":3806:3809  i++ */\n      dup1\n      dup1\n      tag_229\n      swap1\n      tag_230\n      jump\t// in\n    tag_229:\n      swap2\n      pop\n      pop\n        /* \"Staking.sol\":3751:4064  for(uint256 i = 0; i < userPoolIds[msg.sender].length; i++){\r... */\n      jump(tag_211)\n    tag_212:\n      pop\n        /* \"Staking.sol\":4083:4095  stakeDetails */\n      0x07\n        /* \"Staking.sol\":4083:4107  stakeDetails[msg.sender] */\n      0x00\n        /* \"Staking.sol\":4096:4106  msg.sender */\n      caller\n        /* \"Staking.sol\":4083:4107  stakeDetails[msg.sender] */\n      0xffffffffffffffffffffffffffffffffffffffff\n      and\n      0xffffffffffffffffffffffffffffffffffffffff\n      and\n      dup2\n      mstore\n      0x20\n      add\n      swap1\n      dup2\n      mstore\n      0x20\n      add\n      0x00\n      keccak256\n        /* \"Staking.sol\":4083:4110  stakeDetails[msg.sender][0] */\n      0x00\n        /* \"Staking.sol\":4108:4109  0 */\n      dup1\n        /* \"Staking.sol\":4083:4110  stakeDetails[msg.sender][0] */\n      dup2\n      mstore\n      0x20\n      add\n      swap1\n      dup2\n      mstore\n      0x20\n      add\n      0x00\n      keccak256\n      0x00\n        /* \"Staking.sol\":4076:4110  delete stakeDetails[msg.sender][0] */\n      dup1\n      dup3\n      add\n      exp(0x0100, 0x00)\n      dup2\n      sload\n      swap1\n      0xff\n      mul\n      not\n      and\n      swap1\n      sstore\n      0x01\n      dup3\n      add\n      0x00\n      swap1\n      sstore\n      0x02\n      dup3\n      add\n      0x00\n      swap1\n      sstore\n      0x03\n      dup3\n      add\n      0x00\n      swap1\n      sstore\n      pop\n      pop\n        /* \"Staking.sol\":3241:4118  function unStake() public {\r... */\n      jump\t// out\n        /* \"@openzeppelin/contracts/access/Ownable.sol\":1201:1286  function owner() public view virtual returns (address) {... */\n    tag_83:\n        /* \"@openzeppelin/contracts/access/Ownable.sol\":1247:1254  address */\n      0x00\n        /* \"@openzeppelin/contracts/access/Ownable.sol\":1273:1279  _owner */\n      dup1\n      0x00\n      swap1\n      sload\n      swap1\n      0x0100\n      exp\n      swap1\n      div\n      0xffffffffffffffffffffffffffffffffffffffff\n      and\n        /* \"@openzeppelin/contracts/access/Ownable.sol\":1266:1279  return _owner */\n      swap1\n      pop\n        /* \"@openzeppelin/contracts/access/Ownable.sol\":1201:1286  function owner() public view virtual returns (address) {... */\n      swap1\n      jump\t// out\n        /* \"Staking.sol\":2173:3229  function stake(uint256 _amount) public payable {\r... */\n    tag_88:\n        /* \"Staking.sol\":2240:2252  stakeDetails */\n      0x07\n        /* \"Staking.sol\":2240:2264  stakeDetails[msg.sender] */\n      0x00\n        /* \"Staking.sol\":2253:2263  msg.sender */\n      caller\n        /* \"Staking.sol\":2240:2264  stakeDetails[msg.sender] */\n      0xffffffffffffffffffffffffffffffffffffffff\n      and\n      0xffffffffffffffffffffffffffffffffffffffff\n      and\n      dup2\n      mstore\n      0x20\n      add\n      swap1\n      dup2\n      mstore\n      0x20\n      add\n      0x00\n      keccak256\n        /* \"Staking.sol\":2240:2267  stakeDetails[msg.sender][0] */\n      0x00\n        /* \"Staking.sol\":2265:2266  0 */\n      dup1\n        /* \"Staking.sol\":2240:2267  stakeDetails[msg.sender][0] */\n      dup2\n      mstore\n      0x20\n      add\n      swap1\n      dup2\n      mstore\n      0x20\n      add\n      0x00\n      keccak256\n        /* \"Staking.sol\":2240:2275  stakeDetails[msg.sender][0].isExist */\n      0x00\n      add\n      0x00\n      swap1\n      sload\n      swap1\n      0x0100\n      exp\n      swap1\n      div\n      0xff\n      and\n        /* \"Staking.sol\":2239:2275  !stakeDetails[msg.sender][0].isExist */\n      iszero\n        /* \"Staking.sol\":2231:2298  require(!stakeDetails[msg.sender][0].isExist, \"You already staked\") */\n      tag_233\n      jumpi\n      mload(0x40)\n      0x08c379a000000000000000000000000000000000000000000000000000000000\n      dup2\n      mstore\n      0x04\n      add\n      tag_234\n      swap1\n      tag_235\n      jump\t// in\n    tag_234:\n      mload(0x40)\n      dup1\n      swap2\n      sub\n      swap1\n      revert\n    tag_233:\n        /* \"Staking.sol\":2318:2326  poolInfo */\n      0x04\n        /* \"Staking.sol\":2327:2328  0 */\n      0x00\n        /* \"Staking.sol\":2318:2329  poolInfo[0] */\n      dup2\n      sload\n      dup2\n      lt\n      tag_236\n      jumpi\n      tag_237\n      tag_138\n      jump\t// in\n    tag_237:\n    tag_236:\n      swap1\n      0x00\n      mstore\n      keccak256(0x00, 0x20)\n      swap1\n      0x06\n      mul\n      add\n        /* \"Staking.sol\":2318:2341  poolInfo[0].isPoolPause */\n      0x04\n      add\n      0x00\n      swap1\n      sload\n      swap1\n      0x0100\n      exp\n      swap1\n      div\n      0xff\n      and\n        /* \"Staking.sol\":2317:2341  !poolInfo[0].isPoolPause */\n      iszero\n        /* \"Staking.sol\":2309:2375  require(!poolInfo[0].isPoolPause , \"You can't stake in this pool\") */\n      tag_239\n      jumpi\n      mload(0x40)\n      0x08c379a000000000000000000000000000000000000000000000000000000000\n      dup2\n      mstore\n      0x04\n      add\n      tag_240\n      swap1\n      tag_241\n      jump\t// in\n    tag_240:\n      mload(0x40)\n      dup1\n      swap2\n      sub\n      swap1\n      revert\n    tag_239:\n        /* \"Staking.sol\":2477:2484  _amount */\n      dup1\n        /* \"Staking.sol\":2411:2419  poolInfo */\n      0x04\n        /* \"Staking.sol\":2420:2421  0 */\n      0x00\n        /* \"Staking.sol\":2411:2422  poolInfo[0] */\n      dup2\n      sload\n      dup2\n      lt\n      tag_242\n      jumpi\n      tag_243\n      tag_138\n      jump\t// in\n    tag_243:\n    tag_242:\n      swap1\n      0x00\n      mstore\n      keccak256(0x00, 0x20)\n      swap1\n      0x06\n      mul\n      add\n        /* \"Staking.sol\":2411:2435  poolInfo[0].tokenAddress */\n      0x00\n      add\n      0x00\n      swap1\n      sload\n      swap1\n      0x0100\n      exp\n      swap1\n      div\n      0xffffffffffffffffffffffffffffffffffffffff\n      and\n        /* \"Staking.sol\":2404:2446  IERC20(poolInfo[0].tokenAddress).allowance */\n      0xffffffffffffffffffffffffffffffffffffffff\n      and\n      0xdd62ed3e\n        /* \"Staking.sol\":2447:2457  msg.sender */\n      caller\n        /* \"Staking.sol\":2467:2471  this */\n      address\n        /* \"Staking.sol\":2404:2473  IERC20(poolInfo[0].tokenAddress).allowance(msg.sender, address(this)) */\n      mload(0x40)\n      dup4\n      0xffffffff\n      and\n      0xe0\n      shl\n      dup2\n      mstore\n      0x04\n      add\n      tag_245\n      swap3\n      swap2\n      swap1\n      tag_246\n      jump\t// in\n    tag_245:\n      0x20\n      mload(0x40)\n      dup1\n      dup4\n      sub\n      dup2\n      dup7\n      dup1\n      extcodesize\n      iszero\n      dup1\n      iszero\n      tag_247\n      jumpi\n      0x00\n      dup1\n      revert\n    tag_247:\n      pop\n      gas\n      staticcall\n      iszero\n      dup1\n      iszero\n      tag_249\n      jumpi\n      returndatasize\n      0x00\n      dup1\n      returndatacopy\n      revert(0x00, returndatasize)\n    tag_249:\n      pop\n      pop\n      pop\n      pop\n      mload(0x40)\n      returndatasize\n      not(0x1f)\n      0x1f\n      dup3\n      add\n      and\n      dup3\n      add\n      dup1\n      0x40\n      mstore\n      pop\n      dup2\n      add\n      swap1\n      tag_250\n      swap2\n      swap1\n      tag_251\n      jump\t// in\n    tag_250:\n        /* \"Staking.sol\":2404:2484  IERC20(poolInfo[0].tokenAddress).allowance(msg.sender, address(this)) >= _amount */\n      lt\n      iszero\n        /* \"Staking.sol\":2396:2508  require(IERC20(poolInfo[0].tokenAddress).allowance(msg.sender, address(this)) >= _amount, \"Tokens not approved\") */\n      tag_252\n      jumpi\n      mload(0x40)\n      0x08c379a000000000000000000000000000000000000000000000000000000000\n      dup2\n      mstore\n      0x04\n      add\n      tag_253\n      swap1\n      tag_254\n      jump\t// in\n    tag_253:\n      mload(0x40)\n      dup1\n      swap2\n      sub\n      swap1\n      revert\n    tag_252:\n        /* \"Staking.sol\":2526:2534  poolInfo */\n      0x04\n        /* \"Staking.sol\":2535:2536  0 */\n      0x00\n        /* \"Staking.sol\":2526:2537  poolInfo[0] */\n      dup2\n      sload\n      dup2\n      lt\n      tag_255\n      jumpi\n      tag_256\n      tag_138\n      jump\t// in\n    tag_256:\n    tag_255:\n      swap1\n      0x00\n      mstore\n      keccak256(0x00, 0x20)\n      swap1\n      0x06\n      mul\n      add\n        /* \"Staking.sol\":2526:2550  poolInfo[0].tokenAddress */\n      0x00\n      add\n      0x00\n      swap1\n      sload\n      swap1\n      0x0100\n      exp\n      swap1\n      div\n      0xffffffffffffffffffffffffffffffffffffffff\n      and\n        /* \"Staking.sol\":2519:2564  IERC20(poolInfo[0].tokenAddress).transferFrom */\n      0xffffffffffffffffffffffffffffffffffffffff\n      and\n      0x23b872dd\n        /* \"Staking.sol\":2565:2575  msg.sender */\n      caller\n        /* \"Staking.sol\":2585:2589  this */\n      address\n        /* \"Staking.sol\":2592:2599  _amount */\n      dup5\n        /* \"Staking.sol\":2519:2600  IERC20(poolInfo[0].tokenAddress).transferFrom(msg.sender, address(this), _amount) */\n      mload(0x40)\n      dup5\n      0xffffffff\n      and\n      0xe0\n      shl\n      dup2\n      mstore\n      0x04\n      add\n      tag_258\n      swap4\n      swap3\n      swap2\n      swap1\n      tag_259\n      jump\t// in\n    tag_258:\n      0x20\n      mload(0x40)\n      dup1\n      dup4\n      sub\n      dup2\n      0x00\n      dup8\n      dup1\n      extcodesize\n      iszero\n      dup1\n      iszero\n      tag_260\n      jumpi\n      0x00\n      dup1\n      revert\n    tag_260:\n      pop\n      gas\n      call\n      iszero\n      dup1\n      iszero\n      tag_262\n      jumpi\n      returndatasize\n      0x00\n      dup1\n      returndatacopy\n      revert(0x00, returndatasize)\n    tag_262:\n      pop\n      pop\n      pop\n      pop\n      mload(0x40)\n      returndatasize\n      not(0x1f)\n      0x1f\n      dup3\n      add\n      and\n      dup3\n      add\n      dup1\n      0x40\n      mstore\n      pop\n      dup2\n      add\n      swap1\n      tag_263\n      swap2\n      swap1\n      tag_204\n      jump\t// in\n    tag_263:\n      pop\n        /* \"Staking.sol\":2681:2692  dailyCapAmt */\n      sload(0x02)\n        /* \"Staking.sol\":2670:2677  _amount */\n      dup2\n        /* \"Staking.sol\":2629:2637  dailyCap */\n      0x06\n        /* \"Staking.sol\":2629:2664  dailyCap[(block.timestamp) / 86400] */\n      0x00\n        /* \"Staking.sol\":2658:2663  86400 */\n      0x015180\n        /* \"Staking.sol\":2639:2654  block.timestamp */\n      timestamp\n        /* \"Staking.sol\":2638:2663  (block.timestamp) / 86400 */\n      tag_264\n      swap2\n      swap1\n      tag_143\n      jump\t// in\n    tag_264:\n        /* \"Staking.sol\":2629:2664  dailyCap[(block.timestamp) / 86400] */\n      dup2\n      mstore\n      0x20\n      add\n      swap1\n      dup2\n      mstore\n      0x20\n      add\n      0x00\n      keccak256\n        /* \"Staking.sol\":2629:2667  dailyCap[(block.timestamp) / 86400][0] */\n      0x00\n        /* \"Staking.sol\":2665:2666  0 */\n      dup1\n        /* \"Staking.sol\":2629:2667  dailyCap[(block.timestamp) / 86400][0] */\n      dup2\n      mstore\n      0x20\n      add\n      swap1\n      dup2\n      mstore\n      0x20\n      add\n      0x00\n      keccak256\n      sload\n        /* \"Staking.sol\":2629:2677  dailyCap[(block.timestamp) / 86400][0] + _amount */\n      tag_265\n      swap2\n      swap1\n      tag_266\n      jump\t// in\n    tag_265:\n        /* \"Staking.sol\":2629:2692  dailyCap[(block.timestamp) / 86400][0] + _amount <= dailyCapAmt */\n      gt\n      iszero\n        /* \"Staking.sol\":2621:2716  require(dailyCap[(block.timestamp) / 86400][0] + _amount <= dailyCapAmt, \"Daily limit reached\") */\n      tag_267\n      jumpi\n      mload(0x40)\n      0x08c379a000000000000000000000000000000000000000000000000000000000\n      dup2\n      mstore\n      0x04\n      add\n      tag_268\n      swap1\n      tag_269\n      jump\t// in\n    tag_268:\n      mload(0x40)\n      dup1\n      swap2\n      sub\n      swap1\n      revert\n    tag_267:\n        /* \"Staking.sol\":2746:2760  minStakeAmount */\n      sload(0x01)\n        /* \"Staking.sol\":2735:2742  _amount */\n      dup2\n        /* \"Staking.sol\":2735:2760  _amount >= minStakeAmount */\n      lt\n      iszero\n        /* \"Staking.sol\":2727:2800  require(_amount >= minStakeAmount, \"Staking amount is less then minimum\") */\n      tag_270\n      jumpi\n      mload(0x40)\n      0x08c379a000000000000000000000000000000000000000000000000000000000\n      dup2\n      mstore\n      0x04\n      add\n      tag_271\n      swap1\n      tag_272\n      jump\t// in\n    tag_271:\n      mload(0x40)\n      dup1\n      swap2\n      sub\n      swap1\n      revert\n    tag_270:\n        /* \"Staking.sol\":2851:3004  StakeStruct({\r... */\n      mload(0x40)\n      dup1\n      0x80\n      add\n      0x40\n      mstore\n      dup1\n        /* \"Staking.sol\":2888:2892  true */\n      0x01\n        /* \"Staking.sol\":2851:3004  StakeStruct({\r... */\n      iszero\n      iszero\n      dup2\n      mstore\n      0x20\n      add\n        /* \"Staking.sol\":2917:2924  _amount */\n      dup3\n        /* \"Staking.sol\":2851:3004  StakeStruct({\r... */\n      dup2\n      mstore\n      0x20\n      add\n        /* \"Staking.sol\":2950:2965  block.timestamp */\n      timestamp\n        /* \"Staking.sol\":2851:3004  StakeStruct({\r... */\n      dup2\n      mstore\n      0x20\n      add\n        /* \"Staking.sol\":2991:2992  0 */\n      0x00\n        /* \"Staking.sol\":2851:3004  StakeStruct({\r... */\n      dup2\n      mstore\n      pop\n        /* \"Staking.sol\":2821:2833  stakeDetails */\n      0x07\n        /* \"Staking.sol\":2821:2845  stakeDetails[msg.sender] */\n      0x00\n        /* \"Staking.sol\":2834:2844  msg.sender */\n      caller\n        /* \"Staking.sol\":2821:2845  stakeDetails[msg.sender] */\n      0xffffffffffffffffffffffffffffffffffffffff\n      and\n      0xffffffffffffffffffffffffffffffffffffffff\n      and\n      dup2\n      mstore\n      0x20\n      add\n      swap1\n      dup2\n      mstore\n      0x20\n      add\n      0x00\n      keccak256\n        /* \"Staking.sol\":2821:2848  stakeDetails[msg.sender][0] */\n      0x00\n        /* \"Staking.sol\":2846:2847  0 */\n      dup1\n        /* \"Staking.sol\":2821:2848  stakeDetails[msg.sender][0] */\n      dup2\n      mstore\n      0x20\n      add\n      swap1\n      dup2\n      mstore\n      0x20\n      add\n      0x00\n      keccak256\n        /* \"Staking.sol\":2821:3004  stakeDetails[msg.sender][0] = StakeStruct({\r... */\n      0x00\n      dup3\n      add\n      mload\n      dup2\n      0x00\n      add\n      exp(0x0100, 0x00)\n      dup2\n      sload\n      dup2\n      0xff\n      mul\n      not\n      and\n      swap1\n      dup4\n      iszero\n      iszero\n      mul\n      or\n      swap1\n      sstore\n      pop\n      0x20\n      dup3\n      add\n      mload\n      dup2\n      0x01\n      add\n      sstore\n      0x40\n      dup3\n      add\n      mload\n      dup2\n      0x02\n      add\n      sstore\n      0x60\n      dup3\n      add\n      mload\n      dup2\n      0x03\n      add\n      sstore\n      swap1\n      pop\n      pop\n        /* \"Staking.sol\":3060:3067  _amount */\n      dup1\n        /* \"Staking.sol\":3017:3025  dailyCap */\n      0x06\n        /* \"Staking.sol\":3017:3052  dailyCap[(block.timestamp) / 86400] */\n      0x00\n        /* \"Staking.sol\":3046:3051  86400 */\n      0x015180\n        /* \"Staking.sol\":3027:3042  block.timestamp */\n      timestamp\n        /* \"Staking.sol\":3026:3051  (block.timestamp) / 86400 */\n      tag_273\n      swap2\n      swap1\n      tag_143\n      jump\t// in\n    tag_273:\n        /* \"Staking.sol\":3017:3052  dailyCap[(block.timestamp) / 86400] */\n      dup2\n      mstore\n      0x20\n      add\n      swap1\n      dup2\n      mstore\n      0x20\n      add\n      0x00\n      keccak256\n        /* \"Staking.sol\":3017:3055  dailyCap[(block.timestamp) / 86400][0] */\n      0x00\n        /* \"Staking.sol\":3053:3054  0 */\n      dup1\n        /* \"Staking.sol\":3017:3055  dailyCap[(block.timestamp) / 86400][0] */\n      dup2\n      mstore\n      0x20\n      add\n      swap1\n      dup2\n      mstore\n      0x20\n      add\n      0x00\n      keccak256\n      0x00\n        /* \"Staking.sol\":3017:3067  dailyCap[(block.timestamp) / 86400][0]  += _amount */\n      dup3\n      dup3\n      sload\n      tag_274\n      swap2\n      swap1\n      tag_266\n      jump\t// in\n    tag_274:\n      swap3\n      pop\n      pop\n      dup2\n      swap1\n      sstore\n      pop\n        /* \"Staking.sol\":3110:3117  _amount */\n      dup1\n        /* \"Staking.sol\":3078:3086  poolInfo */\n      0x04\n        /* \"Staking.sol\":3087:3088  0 */\n      0x00\n        /* \"Staking.sol\":3078:3089  poolInfo[0] */\n      dup2\n      sload\n      dup2\n      lt\n      tag_275\n      jumpi\n      tag_276\n      tag_138\n      jump\t// in\n    tag_276:\n    tag_275:\n      swap1\n      0x00\n      mstore\n      keccak256(0x00, 0x20)\n      swap1\n      0x06\n      mul\n      add\n        /* \"Staking.sol\":3078:3106  poolInfo[0].totalStakeAmount */\n      0x02\n      add\n      0x00\n        /* \"Staking.sol\":3078:3117  poolInfo[0].totalStakeAmount += _amount */\n      dup3\n      dup3\n      sload\n      tag_278\n      swap2\n      swap1\n      tag_266\n      jump\t// in\n    tag_278:\n      swap3\n      pop\n      pop\n      dup2\n      swap1\n      sstore\n      pop\n        /* \"Staking.sol\":3128:3139  userPoolIds */\n      0x05\n        /* \"Staking.sol\":3128:3151  userPoolIds[msg.sender] */\n      0x00\n        /* \"Staking.sol\":3140:3150  msg.sender */\n      caller\n        /* \"Staking.sol\":3128:3151  userPoolIds[msg.sender] */\n      0xffffffffffffffffffffffffffffffffffffffff\n      and\n      0xffffffffffffffffffffffffffffffffffffffff\n      and\n      dup2\n      mstore\n      0x20\n      add\n      swap1\n      dup2\n      mstore\n      0x20\n      add\n      0x00\n      keccak256\n        /* \"Staking.sol\":3157:3158  0 */\n      0x00\n        /* \"Staking.sol\":3128:3159  userPoolIds[msg.sender].push(0) */\n      swap1\n      dup1\n      0x01\n      dup2\n      sload\n      add\n      dup1\n      dup3\n      sstore\n      dup1\n      swap2\n      pop\n      pop\n      0x01\n      swap1\n      sub\n      swap1\n      0x00\n      mstore\n      keccak256(0x00, 0x20)\n      add\n      0x00\n      swap1\n      swap2\n      swap1\n      swap2\n      swap1\n      swap2\n      pop\n      sstore\n        /* \"Staking.sol\":3175:3221  Stake(msg.sender, _amount, 0, block.timestamp) */\n      0xf556991011e831bcfac4f406d547e5e32cdd98267efab83935230d5f8d02c446\n        /* \"Staking.sol\":3181:3191  msg.sender */\n      caller\n        /* \"Staking.sol\":3193:3200  _amount */\n      dup3\n        /* \"Staking.sol\":3202:3203  0 */\n      0x00\n        /* \"Staking.sol\":3205:3220  block.timestamp */\n      timestamp\n        /* \"Staking.sol\":3175:3221  Stake(msg.sender, _amount, 0, block.timestamp) */\n      mload(0x40)\n      tag_280\n      swap5\n      swap4\n      swap3\n      swap2\n      swap1\n      tag_281\n      jump\t// in\n    tag_280:\n      mload(0x40)\n      dup1\n      swap2\n      sub\n      swap1\n      log1\n        /* \"Staking.sol\":2173:3229  function stake(uint256 _amount) public payable {\r... */\n      pop\n      jump\t// out\n        /* \"Staking.sol\":5808:5963  function depositRewardToken(uint256 _amount) public onlyOwner {\r... */\n    tag_92:\n        /* \"@openzeppelin/contracts/access/Ownable.sol\":1094:1107  _checkOwner() */\n      tag_283\n        /* \"@openzeppelin/contracts/access/Ownable.sol\":1094:1105  _checkOwner */\n      tag_169\n        /* \"@openzeppelin/contracts/access/Ownable.sol\":1094:1107  _checkOwner() */\n      jump\t// in\n    tag_283:\n        /* \"Staking.sol\":5888:5896  poolInfo */\n      0x04\n        /* \"Staking.sol\":5897:5898  0 */\n      0x00\n        /* \"Staking.sol\":5888:5899  poolInfo[0] */\n      dup2\n      sload\n      dup2\n      lt\n      tag_285\n      jumpi\n      tag_286\n      tag_138\n      jump\t// in\n    tag_286:\n    tag_285:\n      swap1\n      0x00\n      mstore\n      keccak256(0x00, 0x20)\n      swap1\n      0x06\n      mul\n      add\n        /* \"Staking.sol\":5888:5913  poolInfo[0].rewardAddress */\n      0x01\n      add\n      0x00\n      swap1\n      sload\n      swap1\n      0x0100\n      exp\n      swap1\n      div\n      0xffffffffffffffffffffffffffffffffffffffff\n      and\n        /* \"Staking.sol\":5881:5923  IERC20(poolInfo[0].rewardAddress).transfer */\n      0xffffffffffffffffffffffffffffffffffffffff\n      and\n      0xa9059cbb\n        /* \"Staking.sol\":5932:5936  this */\n      address\n        /* \"Staking.sol\":5939:5946  _amount */\n      dup4\n        /* \"Staking.sol\":5881:5947  IERC20(poolInfo[0].rewardAddress).transfer(address(this), _amount) */\n      mload(0x40)\n      dup4\n      0xffffffff\n      and\n      0xe0\n      shl\n      dup2\n      mstore\n      0x04\n      add\n      tag_288\n      swap3\n      swap2\n      swap1\n      tag_199\n      jump\t// in\n    tag_288:\n      0x20\n      mload(0x40)\n      dup1\n      dup4\n      sub\n      dup2\n      0x00\n      dup8\n      dup1\n      extcodesize\n      iszero\n      dup1\n      iszero\n      tag_289\n      jumpi\n      0x00\n      dup1\n      revert\n    tag_289:\n      pop\n      gas\n      call\n      iszero\n      dup1\n      iszero\n      tag_291\n      jumpi\n      returndatasize\n      0x00\n      dup1\n      returndatacopy\n      revert(0x00, returndatasize)\n    tag_291:\n      pop\n      pop\n      pop\n      pop\n      mload(0x40)\n      returndatasize\n      not(0x1f)\n      0x1f\n      dup3\n      add\n      and\n      dup3\n      add\n      dup1\n      0x40\n      mstore\n      pop\n      dup2\n      add\n      swap1\n      tag_292\n      swap2\n      swap1\n      tag_204\n      jump\t// in\n    tag_292:\n      pop\n        /* \"Staking.sol\":5808:5963  function depositRewardToken(uint256 _amount) public onlyOwner {\r... */\n      pop\n      jump\t// out\n        /* \"Staking.sol\":4126:4228  function changeDailyCapLimit (uint256 _limit) public onlyOwner {\r... */\n    tag_96:\n        /* \"@openzeppelin/contracts/access/Ownable.sol\":1094:1107  _checkOwner() */\n      tag_294\n        /* \"@openzeppelin/contracts/access/Ownable.sol\":1094:1105  _checkOwner */\n      tag_169\n        /* \"@openzeppelin/contracts/access/Ownable.sol\":1094:1107  _checkOwner() */\n      jump\t// in\n    tag_294:\n        /* \"Staking.sol\":4214:4220  _limit */\n      dup1\n        /* \"Staking.sol\":4200:4211  dailyCapAmt */\n      0x02\n        /* \"Staking.sol\":4200:4220  dailyCapAmt = _limit */\n      dup2\n      swap1\n      sstore\n      pop\n        /* \"Staking.sol\":4126:4228  function changeDailyCapLimit (uint256 _limit) public onlyOwner {\r... */\n      pop\n      jump\t// out\n        /* \"Staking.sol\":1974:2165  function poolPauseUnPause() public onlyOwner {\r... */\n    tag_99:\n        /* \"@openzeppelin/contracts/access/Ownable.sol\":1094:1107  _checkOwner() */\n      tag_297\n        /* \"@openzeppelin/contracts/access/Ownable.sol\":1094:1105  _checkOwner */\n      tag_169\n        /* \"@openzeppelin/contracts/access/Ownable.sol\":1094:1107  _checkOwner() */\n      jump\t// in\n    tag_297:\n        /* \"Staking.sol\":2070:2071  0 */\n      0x00\n        /* \"Staking.sol\":2038:2046  poolInfo */\n      0x04\n        /* \"Staking.sol\":2047:2048  0 */\n      0x00\n        /* \"Staking.sol\":2038:2049  poolInfo[0] */\n      dup2\n      sload\n      dup2\n      lt\n      tag_299\n      jumpi\n      tag_300\n      tag_138\n      jump\t// in\n    tag_300:\n    tag_299:\n      swap1\n      0x00\n      mstore\n      keccak256(0x00, 0x20)\n      swap1\n      0x06\n      mul\n      add\n        /* \"Staking.sol\":2038:2066  poolInfo[0].totalStakeAmount */\n      0x02\n      add\n      sload\n        /* \"Staking.sol\":2038:2071  poolInfo[0].totalStakeAmount == 0 */\n      eq\n        /* \"Staking.sol\":2030:2096  require(poolInfo[0].totalStakeAmount == 0 , \"Cannot cancel pool!\") */\n      tag_302\n      jumpi\n      mload(0x40)\n      0x08c379a000000000000000000000000000000000000000000000000000000000\n      dup2\n      mstore\n      0x04\n      add\n      tag_303\n      swap1\n      tag_304\n      jump\t// in\n    tag_303:\n      mload(0x40)\n      dup1\n      swap2\n      sub\n      swap1\n      revert\n    tag_302:\n        /* \"Staking.sol\":2134:2142  poolInfo */\n      0x04\n        /* \"Staking.sol\":2143:2144  0 */\n      0x00\n        /* \"Staking.sol\":2134:2145  poolInfo[0] */\n      dup2\n      sload\n      dup2\n      lt\n      tag_305\n      jumpi\n      tag_306\n      tag_138\n      jump\t// in\n    tag_306:\n    tag_305:\n      swap1\n      0x00\n      mstore\n      keccak256(0x00, 0x20)\n      swap1\n      0x06\n      mul\n      add\n        /* \"Staking.sol\":2134:2157  poolInfo[0].isPoolPause */\n      0x04\n      add\n      0x00\n      swap1\n      sload\n      swap1\n      0x0100\n      exp\n      swap1\n      div\n      0xff\n      and\n        /* \"Staking.sol\":2133:2157  !poolInfo[0].isPoolPause */\n      iszero\n        /* \"Staking.sol\":2107:2115  poolInfo */\n      0x04\n        /* \"Staking.sol\":2116:2117  0 */\n      0x00\n        /* \"Staking.sol\":2107:2118  poolInfo[0] */\n      dup2\n      sload\n      dup2\n      lt\n      tag_308\n      jumpi\n      tag_309\n      tag_138\n      jump\t// in\n    tag_309:\n    tag_308:\n      swap1\n      0x00\n      mstore\n      keccak256(0x00, 0x20)\n      swap1\n      0x06\n      mul\n      add\n        /* \"Staking.sol\":2107:2130  poolInfo[0].isPoolPause */\n      0x04\n      add\n      0x00\n        /* \"Staking.sol\":2107:2157  poolInfo[0].isPoolPause = !poolInfo[0].isPoolPause */\n      0x0100\n      exp\n      dup2\n      sload\n      dup2\n      0xff\n      mul\n      not\n      and\n      swap1\n      dup4\n      iszero\n      iszero\n      mul\n      or\n      swap1\n      sstore\n      pop\n        /* \"Staking.sol\":1974:2165  function poolPauseUnPause() public onlyOwner {\r... */\n      jump\t// out\n        /* \"Staking.sol\":4236:4347  function changeMinStakeAmt (uint256 _minAmount) public onlyOwner {\r... */\n    tag_103:\n        /* \"@openzeppelin/contracts/access/Ownable.sol\":1094:1107  _checkOwner() */\n      tag_312\n        /* \"@openzeppelin/contracts/access/Ownable.sol\":1094:1105  _checkOwner */\n      tag_169\n        /* \"@openzeppelin/contracts/access/Ownable.sol\":1094:1107  _checkOwner() */\n      jump\t// in\n    tag_312:\n        /* \"Staking.sol\":4329:4339  _minAmount */\n      dup1\n        /* \"Staking.sol\":4312:4326  minStakeAmount */\n      0x01\n        /* \"Staking.sol\":4312:4339  minStakeAmount = _minAmount */\n      dup2\n      swap1\n      sstore\n      pop\n        /* \"Staking.sol\":4236:4347  function changeMinStakeAmt (uint256 _minAmount) public onlyOwner {\r... */\n      pop\n      jump\t// out\n        /* \"Staking.sol\":6723:6823  function checkPoolPause() public view returns(bool){\r... */\n    tag_106:\n        /* \"Staking.sol\":6769:6773  bool */\n      0x00\n        /* \"Staking.sol\":6792:6800  poolInfo */\n      0x04\n        /* \"Staking.sol\":6801:6802  0 */\n      0x00\n        /* \"Staking.sol\":6792:6803  poolInfo[0] */\n      dup2\n      sload\n      dup2\n      lt\n      tag_315\n      jumpi\n      tag_316\n      tag_138\n      jump\t// in\n    tag_316:\n    tag_315:\n      swap1\n      0x00\n      mstore\n      keccak256(0x00, 0x20)\n      swap1\n      0x06\n      mul\n      add\n        /* \"Staking.sol\":6792:6815  poolInfo[0].isPoolPause */\n      0x04\n      add\n      0x00\n      swap1\n      sload\n      swap1\n      0x0100\n      exp\n      swap1\n      div\n      0xff\n      and\n        /* \"Staking.sol\":6785:6815  return poolInfo[0].isPoolPause */\n      swap1\n      pop\n        /* \"Staking.sol\":6723:6823  function checkPoolPause() public view returns(bool){\r... */\n      swap1\n      jump\t// out\n        /* \"Staking.sol\":281:335  uint256 public minStakeAmount = 1000000000000000000000 */\n    tag_110:\n      sload(0x01)\n      dup2\n      jump\t// out\n        /* \"@openzeppelin/contracts/access/Ownable.sol\":2081:2279  function transferOwnership(address newOwner) public virtual onlyOwner {... */\n    tag_115:\n        /* \"@openzeppelin/contracts/access/Ownable.sol\":1094:1107  _checkOwner() */\n      tag_319\n        /* \"@openzeppelin/contracts/access/Ownable.sol\":1094:1105  _checkOwner */\n      tag_169\n        /* \"@openzeppelin/contracts/access/Ownable.sol\":1094:1107  _checkOwner() */\n      jump\t// in\n    tag_319:\n        /* \"@openzeppelin/contracts/access/Ownable.sol\":2189:2190  0 */\n      0x00\n        /* \"@openzeppelin/contracts/access/Ownable.sol\":2169:2191  newOwner != address(0) */\n      0xffffffffffffffffffffffffffffffffffffffff\n      and\n        /* \"@openzeppelin/contracts/access/Ownable.sol\":2169:2177  newOwner */\n      dup2\n        /* \"@openzeppelin/contracts/access/Ownable.sol\":2169:2191  newOwner != address(0) */\n      0xffffffffffffffffffffffffffffffffffffffff\n      and\n      eq\n      iszero\n        /* \"@openzeppelin/contracts/access/Ownable.sol\":2161:2234  require(newOwner != address(0), \"Ownable: new owner is the zero address\") */\n      tag_321\n      jumpi\n      mload(0x40)\n      0x08c379a000000000000000000000000000000000000000000000000000000000\n      dup2\n      mstore\n      0x04\n      add\n      tag_322\n      swap1\n      tag_323\n      jump\t// in\n    tag_322:\n      mload(0x40)\n      dup1\n      swap2\n      sub\n      swap1\n      revert\n    tag_321:\n        /* \"@openzeppelin/contracts/access/Ownable.sol\":2244:2272  _transferOwnership(newOwner) */\n      tag_324\n        /* \"@openzeppelin/contracts/access/Ownable.sol\":2263:2271  newOwner */\n      dup2\n        /* \"@openzeppelin/contracts/access/Ownable.sol\":2244:2262  _transferOwnership */\n      tag_187\n        /* \"@openzeppelin/contracts/access/Ownable.sol\":2244:2272  _transferOwnership(newOwner) */\n      jump\t// in\n    tag_324:\n        /* \"@openzeppelin/contracts/access/Ownable.sol\":2081:2279  function transferOwnership(address newOwner) public virtual onlyOwner {... */\n      pop\n      jump\t// out\n        /* \"Staking.sol\":6461:6588  function getStakeDetails(address _user) public view returns(StakeStruct memory){\r... */\n    tag_119:\n        /* \"Staking.sol\":6521:6539  StakeStruct memory */\n      tag_325\n      tag_326\n      jump\t// in\n    tag_325:\n        /* \"Staking.sol\":6558:6570  stakeDetails */\n      0x07\n        /* \"Staking.sol\":6558:6577  stakeDetails[_user] */\n      0x00\n        /* \"Staking.sol\":6571:6576  _user */\n      dup4\n        /* \"Staking.sol\":6558:6577  stakeDetails[_user] */\n      0xffffffffffffffffffffffffffffffffffffffff\n      and\n      0xffffffffffffffffffffffffffffffffffffffff\n      and\n      dup2\n      mstore\n      0x20\n      add\n      swap1\n      dup2\n      mstore\n      0x20\n      add\n      0x00\n      keccak256\n        /* \"Staking.sol\":6558:6580  stakeDetails[_user][0] */\n      0x00\n        /* \"Staking.sol\":6578:6579  0 */\n      dup1\n        /* \"Staking.sol\":6558:6580  stakeDetails[_user][0] */\n      dup2\n      mstore\n      0x20\n      add\n      swap1\n      dup2\n      mstore\n      0x20\n      add\n      0x00\n      keccak256\n        /* \"Staking.sol\":6551:6580  return stakeDetails[_user][0] */\n      mload(0x40)\n      dup1\n      0x80\n      add\n      0x40\n      mstore\n      swap1\n      dup2\n      0x00\n      dup3\n      add\n      0x00\n      swap1\n      sload\n      swap1\n      0x0100\n      exp\n      swap1\n      div\n      0xff\n      and\n      iszero\n      iszero\n      iszero\n      iszero\n      dup2\n      mstore\n      0x20\n      add\n      0x01\n      dup3\n      add\n      sload\n      dup2\n      mstore\n      0x20\n      add\n      0x02\n      dup3\n      add\n      sload\n      dup2\n      mstore\n      0x20\n      add\n      0x03\n      dup3\n      add\n      sload\n      dup2\n      mstore\n      pop\n      pop\n      swap1\n      pop\n        /* \"Staking.sol\":6461:6588  function getStakeDetails(address _user) public view returns(StakeStruct memory){\r... */\n      swap2\n      swap1\n      pop\n      jump\t// out\n        /* \"Staking.sol\":5971:6202  function transferTokens(uint256 _amount) public onlyOwner {\r... */\n    tag_125:\n        /* \"@openzeppelin/contracts/access/Ownable.sol\":1094:1107  _checkOwner() */\n      tag_329\n        /* \"@openzeppelin/contracts/access/Ownable.sol\":1094:1105  _checkOwner */\n      tag_169\n        /* \"@openzeppelin/contracts/access/Ownable.sol\":1094:1107  _checkOwner() */\n      jump\t// in\n    tag_329:\n        /* \"Staking.sol\":6085:6086  0 */\n      0x00\n        /* \"Staking.sol\":6048:6087  poolInfo[0].rewardAddress != address(0) */\n      0xffffffffffffffffffffffffffffffffffffffff\n      and\n        /* \"Staking.sol\":6048:6056  poolInfo */\n      0x04\n        /* \"Staking.sol\":6057:6058  0 */\n      0x00\n        /* \"Staking.sol\":6048:6059  poolInfo[0] */\n      dup2\n      sload\n      dup2\n      lt\n      tag_331\n      jumpi\n      tag_332\n      tag_138\n      jump\t// in\n    tag_332:\n    tag_331:\n      swap1\n      0x00\n      mstore\n      keccak256(0x00, 0x20)\n      swap1\n      0x06\n      mul\n      add\n        /* \"Staking.sol\":6048:6073  poolInfo[0].rewardAddress */\n      0x01\n      add\n      0x00\n      swap1\n      sload\n      swap1\n      0x0100\n      exp\n      swap1\n      div\n      0xffffffffffffffffffffffffffffffffffffffff\n      and\n        /* \"Staking.sol\":6048:6087  poolInfo[0].rewardAddress != address(0) */\n      0xffffffffffffffffffffffffffffffffffffffff\n      and\n      eq\n      iszero\n        /* \"Staking.sol\":6040:6120  require(poolInfo[0].rewardAddress != address(0),\"You can't transfer the tokens\") */\n      tag_334\n      jumpi\n      mload(0x40)\n      0x08c379a000000000000000000000000000000000000000000000000000000000\n      dup2\n      mstore\n      0x04\n      add\n      tag_335\n      swap1\n      tag_336\n      jump\t// in\n    tag_335:\n      mload(0x40)\n      dup1\n      swap2\n      sub\n      swap1\n      revert\n    tag_334:\n        /* \"Staking.sol\":6138:6146  poolInfo */\n      0x04\n        /* \"Staking.sol\":6147:6148  0 */\n      0x00\n        /* \"Staking.sol\":6138:6149  poolInfo[0] */\n      dup2\n      sload\n      dup2\n      lt\n      tag_337\n      jumpi\n      tag_338\n      tag_138\n      jump\t// in\n    tag_338:\n    tag_337:\n      swap1\n      0x00\n      mstore\n      keccak256(0x00, 0x20)\n      swap1\n      0x06\n      mul\n      add\n        /* \"Staking.sol\":6138:6163  poolInfo[0].rewardAddress */\n      0x01\n      add\n      0x00\n      swap1\n      sload\n      swap1\n      0x0100\n      exp\n      swap1\n      div\n      0xffffffffffffffffffffffffffffffffffffffff\n      and\n        /* \"Staking.sol\":6131:6173  IERC20(poolInfo[0].rewardAddress).transfer */\n      0xffffffffffffffffffffffffffffffffffffffff\n      and\n      0xa9059cbb\n        /* \"Staking.sol\":6174:6184  msg.sender */\n      caller\n        /* \"Staking.sol\":6186:6193  _amount */\n      dup4\n        /* \"Staking.sol\":6131:6194  IERC20(poolInfo[0].rewardAddress).transfer(msg.sender, _amount) */\n      mload(0x40)\n      dup4\n      0xffffffff\n      and\n      0xe0\n      shl\n      dup2\n      mstore\n      0x04\n      add\n      tag_340\n      swap3\n      swap2\n      swap1\n      tag_199\n      jump\t// in\n    tag_340:\n      0x20\n      mload(0x40)\n      dup1\n      dup4\n      sub\n      dup2\n      0x00\n      dup8\n      dup1\n      extcodesize\n      iszero\n      dup1\n      iszero\n      tag_341\n      jumpi\n      0x00\n      dup1\n      revert\n    tag_341:\n      pop\n      gas\n      call\n      iszero\n      dup1\n      iszero\n      tag_343\n      jumpi\n      returndatasize\n      0x00\n      dup1\n      returndatacopy\n      revert(0x00, returndatasize)\n    tag_343:\n      pop\n      pop\n      pop\n      pop\n      mload(0x40)\n      returndatasize\n      not(0x1f)\n      0x1f\n      dup3\n      add\n      and\n      dup3\n      add\n      dup1\n      0x40\n      mstore\n      pop\n      dup2\n      add\n      swap1\n      tag_344\n      swap2\n      swap1\n      tag_204\n      jump\t// in\n    tag_344:\n      pop\n        /* \"Staking.sol\":5971:6202  function transferTokens(uint256 _amount) public onlyOwner {\r... */\n      pop\n      jump\t// out\n        /* \"Staking.sol\":4467:4871  function _withdraw(address _user) internal {\r... */\n    tag_148:\n        /* \"Staking.sol\":4555:4556  0 */\n      0x00\n        /* \"Staking.sol\":4529:4552  getCurrentReward(_user) */\n      tag_346\n        /* \"Staking.sol\":4546:4551  _user */\n      dup3\n        /* \"Staking.sol\":4529:4545  getCurrentReward */\n      tag_63\n        /* \"Staking.sol\":4529:4552  getCurrentReward(_user) */\n      jump\t// in\n    tag_346:\n        /* \"Staking.sol\":4529:4556  getCurrentReward(_user) > 0 */\n      gt\n        /* \"Staking.sol\":4521:4580  require(getCurrentReward(_user) > 0, \"Nothing to withdraw\") */\n      tag_347\n      jumpi\n      mload(0x40)\n      0x08c379a000000000000000000000000000000000000000000000000000000000\n      dup2\n      mstore\n      0x04\n      add\n      tag_348\n      swap1\n      tag_349\n      jump\t// in\n    tag_348:\n      mload(0x40)\n      dup1\n      swap2\n      sub\n      swap1\n      revert\n    tag_347:\n        /* \"Staking.sol\":4591:4612  uint256 harvestAmount */\n      0x00\n        /* \"Staking.sol\":4615:4638  getCurrentReward(_user) */\n      tag_350\n        /* \"Staking.sol\":4632:4637  _user */\n      dup3\n        /* \"Staking.sol\":4615:4631  getCurrentReward */\n      tag_63\n        /* \"Staking.sol\":4615:4638  getCurrentReward(_user) */\n      jump\t// in\n    tag_350:\n        /* \"Staking.sol\":4591:4638  uint256 harvestAmount = getCurrentReward(_user) */\n      swap1\n      pop\n        /* \"Staking.sol\":4666:4674  poolInfo */\n      0x04\n        /* \"Staking.sol\":4675:4676  0 */\n      0x00\n        /* \"Staking.sol\":4666:4677  poolInfo[0] */\n      dup2\n      sload\n      dup2\n      lt\n      tag_351\n      jumpi\n      tag_352\n      tag_138\n      jump\t// in\n    tag_352:\n    tag_351:\n      swap1\n      0x00\n      mstore\n      keccak256(0x00, 0x20)\n      swap1\n      0x06\n      mul\n      add\n        /* \"Staking.sol\":4666:4691  poolInfo[0].rewardAddress */\n      0x01\n      add\n      0x00\n      swap1\n      sload\n      swap1\n      0x0100\n      exp\n      swap1\n      div\n      0xffffffffffffffffffffffffffffffffffffffff\n      and\n        /* \"Staking.sol\":4659:4701  IERC20(poolInfo[0].rewardAddress).transfer */\n      0xffffffffffffffffffffffffffffffffffffffff\n      and\n      0xa9059cbb\n        /* \"Staking.sol\":4702:4712  msg.sender */\n      caller\n        /* \"Staking.sol\":4714:4727  harvestAmount */\n      dup4\n        /* \"Staking.sol\":4659:4728  IERC20(poolInfo[0].rewardAddress).transfer(msg.sender, harvestAmount) */\n      mload(0x40)\n      dup4\n      0xffffffff\n      and\n      0xe0\n      shl\n      dup2\n      mstore\n      0x04\n      add\n      tag_354\n      swap3\n      swap2\n      swap1\n      tag_199\n      jump\t// in\n    tag_354:\n      0x20\n      mload(0x40)\n      dup1\n      dup4\n      sub\n      dup2\n      0x00\n      dup8\n      dup1\n      extcodesize\n      iszero\n      dup1\n      iszero\n      tag_355\n      jumpi\n      0x00\n      dup1\n      revert\n    tag_355:\n      pop\n      gas\n      call\n      iszero\n      dup1\n      iszero\n      tag_357\n      jumpi\n      returndatasize\n      0x00\n      dup1\n      returndatacopy\n      revert(0x00, returndatasize)\n    tag_357:\n      pop\n      pop\n      pop\n      pop\n      mload(0x40)\n      returndatasize\n      not(0x1f)\n      0x1f\n      dup3\n      add\n      and\n      dup3\n      add\n      dup1\n      0x40\n      mstore\n      pop\n      dup2\n      add\n      swap1\n      tag_358\n      swap2\n      swap1\n      tag_204\n      jump\t// in\n    tag_358:\n      pop\n        /* \"Staking.sol\":4785:4798  harvestAmount */\n      dup1\n        /* \"Staking.sol\":4749:4761  stakeDetails */\n      0x07\n        /* \"Staking.sol\":4749:4768  stakeDetails[_user] */\n      0x00\n        /* \"Staking.sol\":4762:4767  _user */\n      dup5\n        /* \"Staking.sol\":4749:4768  stakeDetails[_user] */\n      0xffffffffffffffffffffffffffffffffffffffff\n      and\n      0xffffffffffffffffffffffffffffffffffffffff\n      and\n      dup2\n      mstore\n      0x20\n      add\n      swap1\n      dup2\n      mstore\n      0x20\n      add\n      0x00\n      keccak256\n        /* \"Staking.sol\":4749:4771  stakeDetails[_user][0] */\n      0x00\n        /* \"Staking.sol\":4769:4770  0 */\n      dup1\n        /* \"Staking.sol\":4749:4771  stakeDetails[_user][0] */\n      dup2\n      mstore\n      0x20\n      add\n      swap1\n      dup2\n      mstore\n      0x20\n      add\n      0x00\n      keccak256\n        /* \"Staking.sol\":4749:4781  stakeDetails[_user][0].withdrawn */\n      0x03\n      add\n      0x00\n        /* \"Staking.sol\":4749:4798  stakeDetails[_user][0].withdrawn += harvestAmount */\n      dup3\n      dup3\n      sload\n      tag_359\n      swap2\n      swap1\n      tag_266\n      jump\t// in\n    tag_359:\n      swap3\n      pop\n      pop\n      dup2\n      swap1\n      sstore\n      pop\n        /* \"Staking.sol\":4814:4863  Withdrawal(_user, harvestAmount, block.timestamp) */\n      0xdf273cb619d95419a9cd0ec88123a0538c85064229baa6363788f743fff90deb\n        /* \"Staking.sol\":4825:4830  _user */\n      dup3\n        /* \"Staking.sol\":4832:4845  harvestAmount */\n      dup3\n        /* \"Staking.sol\":4847:4862  block.timestamp */\n      timestamp\n        /* \"Staking.sol\":4814:4863  Withdrawal(_user, harvestAmount, block.timestamp) */\n      mload(0x40)\n      tag_360\n      swap4\n      swap3\n      swap2\n      swap1\n      tag_206\n      jump\t// in\n    tag_360:\n      mload(0x40)\n      dup1\n      swap2\n      sub\n      swap1\n      log1\n        /* \"Staking.sol\":4510:4871  {\r... */\n      pop\n        /* \"Staking.sol\":4467:4871  function _withdraw(address _user) internal {\r... */\n      pop\n      jump\t// out\n        /* \"@openzeppelin/contracts/access/Ownable.sol\":1359:1489  function _checkOwner() internal view virtual {... */\n    tag_169:\n        /* \"@openzeppelin/contracts/access/Ownable.sol\":1433:1445  _msgSender() */\n      tag_362\n        /* \"@openzeppelin/contracts/access/Ownable.sol\":1433:1443  _msgSender */\n      tag_363\n        /* \"@openzeppelin/contracts/access/Ownable.sol\":1433:1445  _msgSender() */\n      jump\t// in\n    tag_362:\n        /* \"@openzeppelin/contracts/access/Ownable.sol\":1422:1445  owner() == _msgSender() */\n      0xffffffffffffffffffffffffffffffffffffffff\n      and\n        /* \"@openzeppelin/contracts/access/Ownable.sol\":1422:1429  owner() */\n      tag_364\n        /* \"@openzeppelin/contracts/access/Ownable.sol\":1422:1427  owner */\n      tag_83\n        /* \"@openzeppelin/contracts/access/Ownable.sol\":1422:1429  owner() */\n      jump\t// in\n    tag_364:\n        /* \"@openzeppelin/contracts/access/Ownable.sol\":1422:1445  owner() == _msgSender() */\n      0xffffffffffffffffffffffffffffffffffffffff\n      and\n      eq\n        /* \"@openzeppelin/contracts/access/Ownable.sol\":1414:1482  require(owner() == _msgSender(), \"Ownable: caller is not the owner\") */\n      tag_365\n      jumpi\n      mload(0x40)\n      0x08c379a000000000000000000000000000000000000000000000000000000000\n      dup2\n      mstore\n      0x04\n      add\n      tag_366\n      swap1\n      tag_367\n      jump\t// in\n    tag_366:\n      mload(0x40)\n      dup1\n      swap2\n      sub\n      swap1\n      revert\n    tag_365:\n        /* \"@openzeppelin/contracts/access/Ownable.sol\":1359:1489  function _checkOwner() internal view virtual {... */\n      jump\t// out\n        /* \"@openzeppelin/contracts/access/Ownable.sol\":2433:2620  function _transferOwnership(address newOwner) internal virtual {... */\n    tag_187:\n        /* \"@openzeppelin/contracts/access/Ownable.sol\":2506:2522  address oldOwner */\n      0x00\n        /* \"@openzeppelin/contracts/access/Ownable.sol\":2525:2531  _owner */\n      dup1\n      0x00\n      swap1\n      sload\n      swap1\n      0x0100\n      exp\n      swap1\n      div\n      0xffffffffffffffffffffffffffffffffffffffff\n      and\n        /* \"@openzeppelin/contracts/access/Ownable.sol\":2506:2531  address oldOwner = _owner */\n      swap1\n      pop\n        /* \"@openzeppelin/contracts/access/Ownable.sol\":2550:2558  newOwner */\n      dup2\n        /* \"@openzeppelin/contracts/access/Ownable.sol\":2541:2547  _owner */\n      0x00\n      dup1\n        /* \"@openzeppelin/contracts/access/Ownable.sol\":2541:2558  _owner = newOwner */\n      0x0100\n      exp\n      dup2\n      sload\n      dup2\n      0xffffffffffffffffffffffffffffffffffffffff\n      mul\n      not\n      and\n      swap1\n      dup4\n      0xffffffffffffffffffffffffffffffffffffffff\n      and\n      mul\n      or\n      swap1\n      sstore\n      pop\n        /* \"@openzeppelin/contracts/access/Ownable.sol\":2604:2612  newOwner */\n      dup2\n        /* \"@openzeppelin/contracts/access/Ownable.sol\":2573:2613  OwnershipTransferred(oldOwner, newOwner) */\n      0xffffffffffffffffffffffffffffffffffffffff\n      and\n        /* \"@openzeppelin/contracts/access/Ownable.sol\":2594:2602  oldOwner */\n      dup2\n        /* \"@openzeppelin/contracts/access/Ownable.sol\":2573:2613  OwnershipTransferred(oldOwner, newOwner) */\n      0xffffffffffffffffffffffffffffffffffffffff\n      and\n      0x8be0079c531659141344cd1fd0a4f28419497f9722a3daafe3b4186f6b6457e0\n      mload(0x40)\n      mload(0x40)\n      dup1\n      swap2\n      sub\n      swap1\n      log3\n        /* \"@openzeppelin/contracts/access/Ownable.sol\":2496:2620  {... */\n      pop\n        /* \"@openzeppelin/contracts/access/Ownable.sol\":2433:2620  function _transferOwnership(address newOwner) internal virtual {... */\n      pop\n      jump\t// out\n        /* \"@openzeppelin/contracts/utils/Context.sol\":640:736  function _msgSender() internal view virtual returns (address) {... */\n    tag_363:\n        /* \"@openzeppelin/contracts/utils/Context.sol\":693:700  address */\n      0x00\n        /* \"@openzeppelin/contracts/utils/Context.sol\":719:729  msg.sender */\n      caller\n        /* \"@openzeppelin/contracts/utils/Context.sol\":712:729  return msg.sender */\n      swap1\n      pop\n        /* \"@openzeppelin/contracts/utils/Context.sol\":640:736  function _msgSender() internal view virtual returns (address) {... */\n      swap1\n      jump\t// out\n    tag_156:\n      mload(0x40)\n      dup1\n      0xc0\n      add\n      0x40\n      mstore\n      dup1\n      and(0xffffffffffffffffffffffffffffffffffffffff, 0x00)\n      dup2\n      mstore\n      0x20\n      add\n      and(0xffffffffffffffffffffffffffffffffffffffff, 0x00)\n      dup2\n      mstore\n      0x20\n      add\n      0x00\n      dup2\n      mstore\n      0x20\n      add\n      0x60\n      dup2\n      mstore\n      0x20\n      add\n      iszero(iszero(0x00))\n      dup2\n      mstore\n      0x20\n      add\n      0x00\n      dup2\n      mstore\n      pop\n      swap1\n      jump\t// out\n    tag_182:\n      dup3\n      dup1\n      sload\n      tag_370\n      swap1\n      tag_162\n      jump\t// in\n    tag_370:\n      swap1\n      0x00\n      mstore\n      keccak256(0x00, 0x20)\n      swap1\n      0x1f\n      add\n      0x20\n      swap1\n      div\n      dup2\n      add\n      swap3\n      dup3\n      tag_372\n      jumpi\n      0x00\n      dup6\n      sstore\n      jump(tag_371)\n    tag_372:\n      dup3\n      0x1f\n      lt\n      tag_373\n      jumpi\n      dup1\n      mload\n      not(0xff)\n      and\n      dup4\n      dup1\n      add\n      or\n      dup6\n      sstore\n      jump(tag_371)\n    tag_373:\n      dup3\n      dup1\n      add\n      0x01\n      add\n      dup6\n      sstore\n      dup3\n      iszero\n      tag_371\n      jumpi\n      swap2\n      dup3\n      add\n    tag_374:\n      dup3\n      dup2\n      gt\n      iszero\n      tag_375\n      jumpi\n      dup3\n      mload\n      dup3\n      sstore\n      swap2\n      0x20\n      add\n      swap2\n      swap1\n      0x01\n      add\n      swap1\n      jump(tag_374)\n    tag_375:\n    tag_371:\n      pop\n      swap1\n      pop\n      tag_376\n      swap2\n      swap1\n      tag_377\n      jump\t// in\n    tag_376:\n      pop\n      swap1\n      jump\t// out\n    tag_326:\n      mload(0x40)\n      dup1\n      0x80\n      add\n      0x40\n      mstore\n      dup1\n      iszero(iszero(0x00))\n      dup2\n      mstore\n      0x20\n      add\n      0x00\n      dup2\n      mstore\n      0x20\n      add\n      0x00\n      dup2\n      mstore\n      0x20\n      add\n      0x00\n      dup2\n      mstore\n      pop\n      swap1\n      jump\t// out\n    tag_377:\n    tag_378:\n      dup1\n      dup3\n      gt\n      iszero\n      tag_379\n      jumpi\n      0x00\n      dup2\n      0x00\n      swap1\n      sstore\n      pop\n      0x01\n      add\n      jump(tag_378)\n    tag_379:\n      pop\n      swap1\n      jump\t// out\n        /* \"#utility.yul\":7:419   */\n    tag_381:\n        /* \"#utility.yul\":85:90   */\n      0x00\n        /* \"#utility.yul\":110:176   */\n      tag_383\n        /* \"#utility.yul\":126:175   */\n      tag_384\n        /* \"#utility.yul\":168:174   */\n      dup5\n        /* \"#utility.yul\":126:175   */\n      tag_385\n      jump\t// in\n    tag_384:\n        /* \"#utility.yul\":110:176   */\n      tag_386\n      jump\t// in\n    tag_383:\n        /* \"#utility.yul\":101:176   */\n      swap1\n      pop\n        /* \"#utility.yul\":199:205   */\n      dup3\n        /* \"#utility.yul\":192:197   */\n      dup2\n        /* \"#utility.yul\":185:206   */\n      mstore\n        /* \"#utility.yul\":237:241   */\n      0x20\n        /* \"#utility.yul\":230:235   */\n      dup2\n        /* \"#utility.yul\":226:242   */\n      add\n        /* \"#utility.yul\":275:278   */\n      dup5\n        /* \"#utility.yul\":266:272   */\n      dup5\n        /* \"#utility.yul\":261:264   */\n      dup5\n        /* \"#utility.yul\":257:273   */\n      add\n        /* \"#utility.yul\":254:279   */\n      gt\n        /* \"#utility.yul\":251:363   */\n      iszero\n      tag_387\n      jumpi\n        /* \"#utility.yul\":282:361   */\n      tag_388\n      tag_389\n      jump\t// in\n    tag_388:\n        /* \"#utility.yul\":251:363   */\n    tag_387:\n        /* \"#utility.yul\":372:413   */\n      tag_390\n        /* \"#utility.yul\":406:412   */\n      dup5\n        /* \"#utility.yul\":401:404   */\n      dup3\n        /* \"#utility.yul\":396:399   */\n      dup6\n        /* \"#utility.yul\":372:413   */\n      tag_391\n      jump\t// in\n    tag_390:\n        /* \"#utility.yul\":91:419   */\n      pop\n        /* \"#utility.yul\":7:419   */\n      swap4\n      swap3\n      pop\n      pop\n      pop\n      jump\t// out\n        /* \"#utility.yul\":425:564   */\n    tag_392:\n        /* \"#utility.yul\":471:476   */\n      0x00\n        /* \"#utility.yul\":509:515   */\n      dup2\n        /* \"#utility.yul\":496:516   */\n      calldataload\n        /* \"#utility.yul\":487:516   */\n      swap1\n      pop\n        /* \"#utility.yul\":525:558   */\n      tag_394\n        /* \"#utility.yul\":552:557   */\n      dup2\n        /* \"#utility.yul\":525:558   */\n      tag_395\n      jump\t// in\n    tag_394:\n        /* \"#utility.yul\":425:564   */\n      swap3\n      swap2\n      pop\n      pop\n      jump\t// out\n        /* \"#utility.yul\":570:707   */\n    tag_396:\n        /* \"#utility.yul\":624:629   */\n      0x00\n        /* \"#utility.yul\":655:661   */\n      dup2\n        /* \"#utility.yul\":649:662   */\n      mload\n        /* \"#utility.yul\":640:662   */\n      swap1\n      pop\n        /* \"#utility.yul\":671:701   */\n      tag_398\n        /* \"#utility.yul\":695:700   */\n      dup2\n        /* \"#utility.yul\":671:701   */\n      tag_399\n      jump\t// in\n    tag_398:\n        /* \"#utility.yul\":570:707   */\n      swap3\n      swap2\n      pop\n      pop\n      jump\t// out\n        /* \"#utility.yul\":727:1067   */\n    tag_400:\n        /* \"#utility.yul\":783:788   */\n      0x00\n        /* \"#utility.yul\":832:835   */\n      dup3\n        /* \"#utility.yul\":825:829   */\n      0x1f\n        /* \"#utility.yul\":817:823   */\n      dup4\n        /* \"#utility.yul\":813:830   */\n      add\n        /* \"#utility.yul\":809:836   */\n      slt\n        /* \"#utility.yul\":799:921   */\n      tag_402\n      jumpi\n        /* \"#utility.yul\":840:919   */\n      tag_403\n      tag_404\n      jump\t// in\n    tag_403:\n        /* \"#utility.yul\":799:921   */\n    tag_402:\n        /* \"#utility.yul\":957:963   */\n      dup2\n        /* \"#utility.yul\":944:964   */\n      calldataload\n        /* \"#utility.yul\":982:1061   */\n      tag_405\n        /* \"#utility.yul\":1057:1060   */\n      dup5\n        /* \"#utility.yul\":1049:1055   */\n      dup3\n        /* \"#utility.yul\":1042:1046   */\n      0x20\n        /* \"#utility.yul\":1034:1040   */\n      dup7\n        /* \"#utility.yul\":1030:1047   */\n      add\n        /* \"#utility.yul\":982:1061   */\n      tag_381\n      jump\t// in\n    tag_405:\n        /* \"#utility.yul\":973:1061   */\n      swap2\n      pop\n        /* \"#utility.yul\":789:1067   */\n      pop\n        /* \"#utility.yul\":727:1067   */\n      swap3\n      swap2\n      pop\n      pop\n      jump\t// out\n        /* \"#utility.yul\":1073:1212   */\n    tag_406:\n        /* \"#utility.yul\":1119:1124   */\n      0x00\n        /* \"#utility.yul\":1157:1163   */\n      dup2\n        /* \"#utility.yul\":1144:1164   */\n      calldataload\n        /* \"#utility.yul\":1135:1164   */\n      swap1\n      pop\n        /* \"#utility.yul\":1173:1206   */\n      tag_408\n        /* \"#utility.yul\":1200:1205   */\n      dup2\n        /* \"#utility.yul\":1173:1206   */\n      tag_409\n      jump\t// in\n    tag_408:\n        /* \"#utility.yul\":1073:1212   */\n      swap3\n      swap2\n      pop\n      pop\n      jump\t// out\n        /* \"#utility.yul\":1218:1361   */\n    tag_410:\n        /* \"#utility.yul\":1275:1280   */\n      0x00\n        /* \"#utility.yul\":1306:1312   */\n      dup2\n        /* \"#utility.yul\":1300:1313   */\n      mload\n        /* \"#utility.yul\":1291:1313   */\n      swap1\n      pop\n        /* \"#utility.yul\":1322:1355   */\n      tag_412\n        /* \"#utility.yul\":1349:1354   */\n      dup2\n        /* \"#utility.yul\":1322:1355   */\n      tag_409\n      jump\t// in\n    tag_412:\n        /* \"#utility.yul\":1218:1361   */\n      swap3\n      swap2\n      pop\n      pop\n      jump\t// out\n        /* \"#utility.yul\":1367:1696   */\n    tag_41:\n        /* \"#utility.yul\":1426:1432   */\n      0x00\n        /* \"#utility.yul\":1475:1477   */\n      0x20\n        /* \"#utility.yul\":1463:1472   */\n      dup3\n        /* \"#utility.yul\":1454:1461   */\n      dup5\n        /* \"#utility.yul\":1450:1473   */\n      sub\n        /* \"#utility.yul\":1446:1478   */\n      slt\n        /* \"#utility.yul\":1443:1562   */\n      iszero\n      tag_414\n      jumpi\n        /* \"#utility.yul\":1481:1560   */\n      tag_415\n      tag_416\n      jump\t// in\n    tag_415:\n        /* \"#utility.yul\":1443:1562   */\n    tag_414:\n        /* \"#utility.yul\":1601:1602   */\n      0x00\n        /* \"#utility.yul\":1626:1679   */\n      tag_417\n        /* \"#utility.yul\":1671:1678   */\n      dup5\n        /* \"#utility.yul\":1662:1668   */\n      dup3\n        /* \"#utility.yul\":1651:1660   */\n      dup6\n        /* \"#utility.yul\":1647:1669   */\n      add\n        /* \"#utility.yul\":1626:1679   */\n      tag_392\n      jump\t// in\n    tag_417:\n        /* \"#utility.yul\":1616:1679   */\n      swap2\n      pop\n        /* \"#utility.yul\":1572:1689   */\n      pop\n        /* \"#utility.yul\":1367:1696   */\n      swap3\n      swap2\n      pop\n      pop\n      jump\t// out\n        /* \"#utility.yul\":1702:2647   */\n    tag_73:\n        /* \"#utility.yul\":1798:1804   */\n      0x00\n        /* \"#utility.yul\":1806:1812   */\n      dup1\n        /* \"#utility.yul\":1814:1820   */\n      0x00\n        /* \"#utility.yul\":1822:1828   */\n      dup1\n        /* \"#utility.yul\":1871:1874   */\n      0x80\n        /* \"#utility.yul\":1859:1868   */\n      dup6\n        /* \"#utility.yul\":1850:1857   */\n      dup8\n        /* \"#utility.yul\":1846:1869   */\n      sub\n        /* \"#utility.yul\":1842:1875   */\n      slt\n        /* \"#utility.yul\":1839:1959   */\n      iszero\n      tag_419\n      jumpi\n        /* \"#utility.yul\":1878:1957   */\n      tag_420\n      tag_416\n      jump\t// in\n    tag_420:\n        /* \"#utility.yul\":1839:1959   */\n    tag_419:\n        /* \"#utility.yul\":1998:1999   */\n      0x00\n        /* \"#utility.yul\":2023:2076   */\n      tag_421\n        /* \"#utility.yul\":2068:2075   */\n      dup8\n        /* \"#utility.yul\":2059:2065   */\n      dup3\n        /* \"#utility.yul\":2048:2057   */\n      dup9\n        /* \"#utility.yul\":2044:2066   */\n      add\n        /* \"#utility.yul\":2023:2076   */\n      tag_392\n      jump\t// in\n    tag_421:\n        /* \"#utility.yul\":2013:2076   */\n      swap5\n      pop\n        /* \"#utility.yul\":1969:2086   */\n      pop\n        /* \"#utility.yul\":2125:2127   */\n      0x20\n        /* \"#utility.yul\":2151:2204   */\n      tag_422\n        /* \"#utility.yul\":2196:2203   */\n      dup8\n        /* \"#utility.yul\":2187:2193   */\n      dup3\n        /* \"#utility.yul\":2176:2185   */\n      dup9\n        /* \"#utility.yul\":2172:2194   */\n      add\n        /* \"#utility.yul\":2151:2204   */\n      tag_392\n      jump\t// in\n    tag_422:\n        /* \"#utility.yul\":2141:2204   */\n      swap4\n      pop\n        /* \"#utility.yul\":2096:2214   */\n      pop\n        /* \"#utility.yul\":2281:2283   */\n      0x40\n        /* \"#utility.yul\":2270:2279   */\n      dup6\n        /* \"#utility.yul\":2266:2284   */\n      add\n        /* \"#utility.yul\":2253:2285   */\n      calldataload\n        /* \"#utility.yul\":2312:2330   */\n      0xffffffffffffffff\n        /* \"#utility.yul\":2304:2310   */\n      dup2\n        /* \"#utility.yul\":2301:2331   */\n      gt\n        /* \"#utility.yul\":2298:2415   */\n      iszero\n      tag_423\n      jumpi\n        /* \"#utility.yul\":2334:2413   */\n      tag_424\n      tag_425\n      jump\t// in\n    tag_424:\n        /* \"#utility.yul\":2298:2415   */\n    tag_423:\n        /* \"#utility.yul\":2439:2502   */\n      tag_426\n        /* \"#utility.yul\":2494:2501   */\n      dup8\n        /* \"#utility.yul\":2485:2491   */\n      dup3\n        /* \"#utility.yul\":2474:2483   */\n      dup9\n        /* \"#utility.yul\":2470:2492   */\n      add\n        /* \"#utility.yul\":2439:2502   */\n      tag_400\n      jump\t// in\n    tag_426:\n        /* \"#utility.yul\":2429:2502   */\n      swap3\n      pop\n        /* \"#utility.yul\":2224:2512   */\n      pop\n        /* \"#utility.yul\":2551:2553   */\n      0x60\n        /* \"#utility.yul\":2577:2630   */\n      tag_427\n        /* \"#utility.yul\":2622:2629   */\n      dup8\n        /* \"#utility.yul\":2613:2619   */\n      dup3\n        /* \"#utility.yul\":2602:2611   */\n      dup9\n        /* \"#utility.yul\":2598:2620   */\n      add\n        /* \"#utility.yul\":2577:2630   */\n      tag_406\n      jump\t// in\n    tag_427:\n        /* \"#utility.yul\":2567:2630   */\n      swap2\n      pop\n        /* \"#utility.yul\":2522:2640   */\n      pop\n        /* \"#utility.yul\":1702:2647   */\n      swap3\n      swap6\n      swap2\n      swap5\n      pop\n      swap3\n      pop\n      jump\t// out\n        /* \"#utility.yul\":2653:2998   */\n    tag_204:\n        /* \"#utility.yul\":2720:2726   */\n      0x00\n        /* \"#utility.yul\":2769:2771   */\n      0x20\n        /* \"#utility.yul\":2757:2766   */\n      dup3\n        /* \"#utility.yul\":2748:2755   */\n      dup5\n        /* \"#utility.yul\":2744:2767   */\n      sub\n        /* \"#utility.yul\":2740:2772   */\n      slt\n        /* \"#utility.yul\":2737:2856   */\n      iszero\n      tag_429\n      jumpi\n        /* \"#utility.yul\":2775:2854   */\n      tag_430\n      tag_416\n      jump\t// in\n    tag_430:\n        /* \"#utility.yul\":2737:2856   */\n    tag_429:\n        /* \"#utility.yul\":2895:2896   */\n      0x00\n        /* \"#utility.yul\":2920:2981   */\n      tag_431\n        /* \"#utility.yul\":2973:2980   */\n      dup5\n        /* \"#utility.yul\":2964:2970   */\n      dup3\n        /* \"#utility.yul\":2953:2962   */\n      dup6\n        /* \"#utility.yul\":2949:2971   */\n      add\n        /* \"#utility.yul\":2920:2981   */\n      tag_396\n      jump\t// in\n    tag_431:\n        /* \"#utility.yul\":2910:2981   */\n      swap2\n      pop\n        /* \"#utility.yul\":2866:2991   */\n      pop\n        /* \"#utility.yul\":2653:2998   */\n      swap3\n      swap2\n      pop\n      pop\n      jump\t// out\n        /* \"#utility.yul\":3004:3333   */\n    tag_30:\n        /* \"#utility.yul\":3063:3069   */\n      0x00\n        /* \"#utility.yul\":3112:3114   */\n      0x20\n        /* \"#utility.yul\":3100:3109   */\n      dup3\n        /* \"#utility.yul\":3091:3098   */\n      dup5\n        /* \"#utility.yul\":3087:3110   */\n      sub\n        /* \"#utility.yul\":3083:3115   */\n      slt\n        /* \"#utility.yul\":3080:3199   */\n      iszero\n      tag_433\n      jumpi\n        /* \"#utility.yul\":3118:3197   */\n      tag_434\n      tag_416\n      jump\t// in\n    tag_434:\n        /* \"#utility.yul\":3080:3199   */\n    tag_433:\n        /* \"#utility.yul\":3238:3239   */\n      0x00\n        /* \"#utility.yul\":3263:3316   */\n      tag_435\n        /* \"#utility.yul\":3308:3315   */\n      dup5\n        /* \"#utility.yul\":3299:3305   */\n      dup3\n        /* \"#utility.yul\":3288:3297   */\n      dup6\n        /* \"#utility.yul\":3284:3306   */\n      add\n        /* \"#utility.yul\":3263:3316   */\n      tag_406\n      jump\t// in\n    tag_435:\n        /* \"#utility.yul\":3253:3316   */\n      swap2\n      pop\n        /* \"#utility.yul\":3209:3326   */\n      pop\n        /* \"#utility.yul\":3004:3333   */\n      swap3\n      swap2\n      pop\n      pop\n      jump\t// out\n        /* \"#utility.yul\":3339:3690   */\n    tag_251:\n        /* \"#utility.yul\":3409:3415   */\n      0x00\n        /* \"#utility.yul\":3458:3460   */\n      0x20\n        /* \"#utility.yul\":3446:3455   */\n      dup3\n        /* \"#utility.yul\":3437:3444   */\n      dup5\n        /* \"#utility.yul\":3433:3456   */\n      sub\n        /* \"#utility.yul\":3429:3461   */\n      slt\n        /* \"#utility.yul\":3426:3545   */\n      iszero\n      tag_437\n      jumpi\n        /* \"#utility.yul\":3464:3543   */\n      tag_438\n      tag_416\n      jump\t// in\n    tag_438:\n        /* \"#utility.yul\":3426:3545   */\n    tag_437:\n        /* \"#utility.yul\":3584:3585   */\n      0x00\n        /* \"#utility.yul\":3609:3673   */\n      tag_439\n        /* \"#utility.yul\":3665:3672   */\n      dup5\n        /* \"#utility.yul\":3656:3662   */\n      dup3\n        /* \"#utility.yul\":3645:3654   */\n      dup6\n        /* \"#utility.yul\":3641:3663   */\n      add\n        /* \"#utility.yul\":3609:3673   */\n      tag_410\n      jump\t// in\n    tag_439:\n        /* \"#utility.yul\":3599:3673   */\n      swap2\n      pop\n        /* \"#utility.yul\":3555:3683   */\n      pop\n        /* \"#utility.yul\":3339:3690   */\n      swap3\n      swap2\n      pop\n      pop\n      jump\t// out\n        /* \"#utility.yul\":3696:3875   */\n    tag_440:\n        /* \"#utility.yul\":3765:3775   */\n      0x00\n        /* \"#utility.yul\":3786:3832   */\n      tag_442\n        /* \"#utility.yul\":3828:3831   */\n      dup4\n        /* \"#utility.yul\":3820:3826   */\n      dup4\n        /* \"#utility.yul\":3786:3832   */\n      tag_443\n      jump\t// in\n    tag_442:\n        /* \"#utility.yul\":3864:3868   */\n      0x20\n        /* \"#utility.yul\":3859:3862   */\n      dup4\n        /* \"#utility.yul\":3855:3869   */\n      add\n        /* \"#utility.yul\":3841:3869   */\n      swap1\n      pop\n        /* \"#utility.yul\":3696:3875   */\n      swap3\n      swap2\n      pop\n      pop\n      jump\t// out\n        /* \"#utility.yul\":3881:3989   */\n    tag_444:\n        /* \"#utility.yul\":3958:3982   */\n      tag_446\n        /* \"#utility.yul\":3976:3981   */\n      dup2\n        /* \"#utility.yul\":3958:3982   */\n      tag_447\n      jump\t// in\n    tag_446:\n        /* \"#utility.yul\":3953:3956   */\n      dup3\n        /* \"#utility.yul\":3946:3983   */\n      mstore\n        /* \"#utility.yul\":3881:3989   */\n      pop\n      pop\n      jump\t// out\n        /* \"#utility.yul\":3995:4113   */\n    tag_448:\n        /* \"#utility.yul\":4082:4106   */\n      tag_450\n        /* \"#utility.yul\":4100:4105   */\n      dup2\n        /* \"#utility.yul\":4082:4106   */\n      tag_447\n      jump\t// in\n    tag_450:\n        /* \"#utility.yul\":4077:4080   */\n      dup3\n        /* \"#utility.yul\":4070:4107   */\n      mstore\n        /* \"#utility.yul\":3995:4113   */\n      pop\n      pop\n      jump\t// out\n        /* \"#utility.yul\":4149:4881   */\n    tag_451:\n        /* \"#utility.yul\":4268:4271   */\n      0x00\n        /* \"#utility.yul\":4297:4351   */\n      tag_453\n        /* \"#utility.yul\":4345:4350   */\n      dup3\n        /* \"#utility.yul\":4297:4351   */\n      tag_454\n      jump\t// in\n    tag_453:\n        /* \"#utility.yul\":4367:4453   */\n      tag_455\n        /* \"#utility.yul\":4446:4452   */\n      dup2\n        /* \"#utility.yul\":4441:4444   */\n      dup6\n        /* \"#utility.yul\":4367:4453   */\n      tag_456\n      jump\t// in\n    tag_455:\n        /* \"#utility.yul\":4360:4453   */\n      swap4\n      pop\n        /* \"#utility.yul\":4477:4533   */\n      tag_457\n        /* \"#utility.yul\":4527:4532   */\n      dup4\n        /* \"#utility.yul\":4477:4533   */\n      tag_458\n      jump\t// in\n    tag_457:\n        /* \"#utility.yul\":4556:4563   */\n      dup1\n        /* \"#utility.yul\":4587:4588   */\n      0x00\n        /* \"#utility.yul\":4572:4856   */\n    tag_459:\n        /* \"#utility.yul\":4597:4603   */\n      dup4\n        /* \"#utility.yul\":4594:4595   */\n      dup2\n        /* \"#utility.yul\":4591:4604   */\n      lt\n        /* \"#utility.yul\":4572:4856   */\n      iszero\n      tag_461\n      jumpi\n        /* \"#utility.yul\":4673:4679   */\n      dup2\n        /* \"#utility.yul\":4667:4680   */\n      mload\n        /* \"#utility.yul\":4700:4763   */\n      tag_462\n        /* \"#utility.yul\":4759:4762   */\n      dup9\n        /* \"#utility.yul\":4744:4757   */\n      dup3\n        /* \"#utility.yul\":4700:4763   */\n      tag_440\n      jump\t// in\n    tag_462:\n        /* \"#utility.yul\":4693:4763   */\n      swap8\n      pop\n        /* \"#utility.yul\":4786:4846   */\n      tag_463\n        /* \"#utility.yul\":4839:4845   */\n      dup4\n        /* \"#utility.yul\":4786:4846   */\n      tag_464\n      jump\t// in\n    tag_463:\n        /* \"#utility.yul\":4776:4846   */\n      swap3\n      pop\n        /* \"#utility.yul\":4632:4856   */\n      pop\n        /* \"#utility.yul\":4619:4620   */\n      0x01\n        /* \"#utility.yul\":4616:4617   */\n      dup2\n        /* \"#utility.yul\":4612:4621   */\n      add\n        /* \"#utility.yul\":4607:4621   */\n      swap1\n      pop\n        /* \"#utility.yul\":4572:4856   */\n      jump(tag_459)\n    tag_461:\n        /* \"#utility.yul\":4576:4590   */\n      pop\n        /* \"#utility.yul\":4872:4875   */\n      dup6\n        /* \"#utility.yul\":4865:4875   */\n      swap4\n      pop\n        /* \"#utility.yul\":4273:4881   */\n      pop\n      pop\n      pop\n        /* \"#utility.yul\":4149:4881   */\n      swap3\n      swap2\n      pop\n      pop\n      jump\t// out\n        /* \"#utility.yul\":4887:4986   */\n    tag_465:\n        /* \"#utility.yul\":4958:4979   */\n      tag_467\n        /* \"#utility.yul\":4973:4978   */\n      dup2\n        /* \"#utility.yul\":4958:4979   */\n      tag_468\n      jump\t// in\n    tag_467:\n        /* \"#utility.yul\":4953:4956   */\n      dup3\n        /* \"#utility.yul\":4946:4980   */\n      mstore\n        /* \"#utility.yul\":4887:4986   */\n      pop\n      pop\n      jump\t// out\n        /* \"#utility.yul\":4992:5101   */\n    tag_469:\n        /* \"#utility.yul\":5073:5094   */\n      tag_471\n        /* \"#utility.yul\":5088:5093   */\n      dup2\n        /* \"#utility.yul\":5073:5094   */\n      tag_468\n      jump\t// in\n    tag_471:\n        /* \"#utility.yul\":5068:5071   */\n      dup3\n        /* \"#utility.yul\":5061:5095   */\n      mstore\n        /* \"#utility.yul\":4992:5101   */\n      pop\n      pop\n      jump\t// out\n        /* \"#utility.yul\":5107:5254   */\n    tag_472:\n        /* \"#utility.yul\":5202:5247   */\n      tag_474\n        /* \"#utility.yul\":5241:5246   */\n      dup2\n        /* \"#utility.yul\":5202:5247   */\n      tag_475\n      jump\t// in\n    tag_474:\n        /* \"#utility.yul\":5197:5200   */\n      dup3\n        /* \"#utility.yul\":5190:5248   */\n      mstore\n        /* \"#utility.yul\":5107:5254   */\n      pop\n      pop\n      jump\t// out\n        /* \"#utility.yul\":5260:5604   */\n    tag_476:\n        /* \"#utility.yul\":5338:5341   */\n      0x00\n        /* \"#utility.yul\":5366:5405   */\n      tag_478\n        /* \"#utility.yul\":5399:5404   */\n      dup3\n        /* \"#utility.yul\":5366:5405   */\n      tag_479\n      jump\t// in\n    tag_478:\n        /* \"#utility.yul\":5421:5482   */\n      tag_480\n        /* \"#utility.yul\":5475:5481   */\n      dup2\n        /* \"#utility.yul\":5470:5473   */\n      dup6\n        /* \"#utility.yul\":5421:5482   */\n      tag_481\n      jump\t// in\n    tag_480:\n        /* \"#utility.yul\":5414:5482   */\n      swap4\n      pop\n        /* \"#utility.yul\":5491:5543   */\n      tag_482\n        /* \"#utility.yul\":5536:5542   */\n      dup2\n        /* \"#utility.yul\":5531:5534   */\n      dup6\n        /* \"#utility.yul\":5524:5528   */\n      0x20\n        /* \"#utility.yul\":5517:5522   */\n      dup7\n        /* \"#utility.yul\":5513:5529   */\n      add\n        /* \"#utility.yul\":5491:5543   */\n      tag_483\n      jump\t// in\n    tag_482:\n        /* \"#utility.yul\":5568:5597   */\n      tag_484\n        /* \"#utility.yul\":5590:5596   */\n      dup2\n        /* \"#utility.yul\":5568:5597   */\n      tag_485\n      jump\t// in\n    tag_484:\n        /* \"#utility.yul\":5563:5566   */\n      dup5\n        /* \"#utility.yul\":5559:5598   */\n      add\n        /* \"#utility.yul\":5552:5598   */\n      swap2\n      pop\n        /* \"#utility.yul\":5342:5604   */\n      pop\n        /* \"#utility.yul\":5260:5604   */\n      swap3\n      swap2\n      pop\n      pop\n      jump\t// out\n        /* \"#utility.yul\":5610:5976   */\n    tag_486:\n        /* \"#utility.yul\":5752:5755   */\n      0x00\n        /* \"#utility.yul\":5773:5840   */\n      tag_488\n        /* \"#utility.yul\":5837:5839   */\n      0x12\n        /* \"#utility.yul\":5832:5835   */\n      dup4\n        /* \"#utility.yul\":5773:5840   */\n      tag_489\n      jump\t// in\n    tag_488:\n        /* \"#utility.yul\":5766:5840   */\n      swap2\n      pop\n        /* \"#utility.yul\":5849:5942   */\n      tag_490\n        /* \"#utility.yul\":5938:5941   */\n      dup3\n        /* \"#utility.yul\":5849:5942   */\n      tag_491\n      jump\t// in\n    tag_490:\n        /* \"#utility.yul\":5967:5969   */\n      0x20\n        /* \"#utility.yul\":5962:5965   */\n      dup3\n        /* \"#utility.yul\":5958:5970   */\n      add\n        /* \"#utility.yul\":5951:5970   */\n      swap1\n      pop\n        /* \"#utility.yul\":5610:5976   */\n      swap2\n      swap1\n      pop\n      jump\t// out\n        /* \"#utility.yul\":5982:6348   */\n    tag_492:\n        /* \"#utility.yul\":6124:6127   */\n      0x00\n        /* \"#utility.yul\":6145:6212   */\n      tag_494\n        /* \"#utility.yul\":6209:6211   */\n      0x13\n        /* \"#utility.yul\":6204:6207   */\n      dup4\n        /* \"#utility.yul\":6145:6212   */\n      tag_489\n      jump\t// in\n    tag_494:\n        /* \"#utility.yul\":6138:6212   */\n      swap2\n      pop\n        /* \"#utility.yul\":6221:6314   */\n      tag_495\n        /* \"#utility.yul\":6310:6313   */\n      dup3\n        /* \"#utility.yul\":6221:6314   */\n      tag_496\n      jump\t// in\n    tag_495:\n        /* \"#utility.yul\":6339:6341   */\n      0x20\n        /* \"#utility.yul\":6334:6337   */\n      dup3\n        /* \"#utility.yul\":6330:6342   */\n      add\n        /* \"#utility.yul\":6323:6342   */\n      swap1\n      pop\n        /* \"#utility.yul\":5982:6348   */\n      swap2\n      swap1\n      pop\n      jump\t// out\n        /* \"#utility.yul\":6354:6720   */\n    tag_497:\n        /* \"#utility.yul\":6496:6499   */\n      0x00\n        /* \"#utility.yul\":6517:6584   */\n      tag_499\n        /* \"#utility.yul\":6581:6583   */\n      0x13\n        /* \"#utility.yul\":6576:6579   */\n      dup4\n        /* \"#utility.yul\":6517:6584   */\n      tag_489\n      jump\t// in\n    tag_499:\n        /* \"#utility.yul\":6510:6584   */\n      swap2\n      pop\n        /* \"#utility.yul\":6593:6686   */\n      tag_500\n        /* \"#utility.yul\":6682:6685   */\n      dup3\n        /* \"#utility.yul\":6593:6686   */\n      tag_501\n      jump\t// in\n    tag_500:\n        /* \"#utility.yul\":6711:6713   */\n      0x20\n        /* \"#utility.yul\":6706:6709   */\n      dup3\n        /* \"#utility.yul\":6702:6714   */\n      add\n        /* \"#utility.yul\":6695:6714   */\n      swap1\n      pop\n        /* \"#utility.yul\":6354:6720   */\n      swap2\n      swap1\n      pop\n      jump\t// out\n        /* \"#utility.yul\":6726:7092   */\n    tag_502:\n        /* \"#utility.yul\":6868:6871   */\n      0x00\n        /* \"#utility.yul\":6889:6956   */\n      tag_504\n        /* \"#utility.yul\":6953:6955   */\n      0x26\n        /* \"#utility.yul\":6948:6951   */\n      dup4\n        /* \"#utility.yul\":6889:6956   */\n      tag_489\n      jump\t// in\n    tag_504:\n        /* \"#utility.yul\":6882:6956   */\n      swap2\n      pop\n        /* \"#utility.yul\":6965:7058   */\n      tag_505\n        /* \"#utility.yul\":7054:7057   */\n      dup3\n        /* \"#utility.yul\":6965:7058   */\n      tag_506\n      jump\t// in\n    tag_505:\n        /* \"#utility.yul\":7083:7085   */\n      0x40\n        /* \"#utility.yul\":7078:7081   */\n      dup3\n        /* \"#utility.yul\":7074:7086   */\n      add\n        /* \"#utility.yul\":7067:7086   */\n      swap1\n      pop\n        /* \"#utility.yul\":6726:7092   */\n      swap2\n      swap1\n      pop\n      jump\t// out\n        /* \"#utility.yul\":7098:7464   */\n    tag_507:\n        /* \"#utility.yul\":7240:7243   */\n      0x00\n        /* \"#utility.yul\":7261:7328   */\n      tag_509\n        /* \"#utility.yul\":7325:7327   */\n      0x13\n        /* \"#utility.yul\":7320:7323   */\n      dup4\n        /* \"#utility.yul\":7261:7328   */\n      tag_489\n      jump\t// in\n    tag_509:\n        /* \"#utility.yul\":7254:7328   */\n      swap2\n      pop\n        /* \"#utility.yul\":7337:7430   */\n      tag_510\n        /* \"#utility.yul\":7426:7429   */\n      dup3\n        /* \"#utility.yul\":7337:7430   */\n      tag_511\n      jump\t// in\n    tag_510:\n        /* \"#utility.yul\":7455:7457   */\n      0x20\n        /* \"#utility.yul\":7450:7453   */\n      dup3\n        /* \"#utility.yul\":7446:7458   */\n      add\n        /* \"#utility.yul\":7439:7458   */\n      swap1\n      pop\n        /* \"#utility.yul\":7098:7464   */\n      swap2\n      swap1\n      pop\n      jump\t// out\n        /* \"#utility.yul\":7470:7836   */\n    tag_512:\n        /* \"#utility.yul\":7612:7615   */\n      0x00\n        /* \"#utility.yul\":7633:7700   */\n      tag_514\n        /* \"#utility.yul\":7697:7699   */\n      0x1c\n        /* \"#utility.yul\":7692:7695   */\n      dup4\n        /* \"#utility.yul\":7633:7700   */\n      tag_489\n      jump\t// in\n    tag_514:\n        /* \"#utility.yul\":7626:7700   */\n      swap2\n      pop\n        /* \"#utility.yul\":7709:7802   */\n      tag_515\n        /* \"#utility.yul\":7798:7801   */\n      dup3\n        /* \"#utility.yul\":7709:7802   */\n      tag_516\n      jump\t// in\n    tag_515:\n        /* \"#utility.yul\":7827:7829   */\n      0x20\n        /* \"#utility.yul\":7822:7825   */\n      dup3\n        /* \"#utility.yul\":7818:7830   */\n      add\n        /* \"#utility.yul\":7811:7830   */\n      swap1\n      pop\n        /* \"#utility.yul\":7470:7836   */\n      swap2\n      swap1\n      pop\n      jump\t// out\n        /* \"#utility.yul\":7842:8208   */\n    tag_517:\n        /* \"#utility.yul\":7984:7987   */\n      0x00\n        /* \"#utility.yul\":8005:8072   */\n      tag_519\n        /* \"#utility.yul\":8069:8071   */\n      0x16\n        /* \"#utility.yul\":8064:8067   */\n      dup4\n        /* \"#utility.yul\":8005:8072   */\n      tag_489\n      jump\t// in\n    tag_519:\n        /* \"#utility.yul\":7998:8072   */\n      swap2\n      pop\n        /* \"#utility.yul\":8081:8174   */\n      tag_520\n        /* \"#utility.yul\":8170:8173   */\n      dup3\n        /* \"#utility.yul\":8081:8174   */\n      tag_521\n      jump\t// in\n    tag_520:\n        /* \"#utility.yul\":8199:8201   */\n      0x20\n        /* \"#utility.yul\":8194:8197   */\n      dup3\n        /* \"#utility.yul\":8190:8202   */\n      add\n        /* \"#utility.yul\":8183:8202   */\n      swap1\n      pop\n        /* \"#utility.yul\":7842:8208   */\n      swap2\n      swap1\n      pop\n      jump\t// out\n        /* \"#utility.yul\":8214:8580   */\n    tag_522:\n        /* \"#utility.yul\":8356:8359   */\n      0x00\n        /* \"#utility.yul\":8377:8444   */\n      tag_524\n        /* \"#utility.yul\":8441:8443   */\n      0x15\n        /* \"#utility.yul\":8436:8439   */\n      dup4\n        /* \"#utility.yul\":8377:8444   */\n      tag_489\n      jump\t// in\n    tag_524:\n        /* \"#utility.yul\":8370:8444   */\n      swap2\n      pop\n        /* \"#utility.yul\":8453:8546   */\n      tag_525\n        /* \"#utility.yul\":8542:8545   */\n      dup3\n        /* \"#utility.yul\":8453:8546   */\n      tag_526\n      jump\t// in\n    tag_525:\n        /* \"#utility.yul\":8571:8573   */\n      0x20\n        /* \"#utility.yul\":8566:8569   */\n      dup3\n        /* \"#utility.yul\":8562:8574   */\n      add\n        /* \"#utility.yul\":8555:8574   */\n      swap1\n      pop\n        /* \"#utility.yul\":8214:8580   */\n      swap2\n      swap1\n      pop\n      jump\t// out\n        /* \"#utility.yul\":8586:8952   */\n    tag_527:\n        /* \"#utility.yul\":8728:8731   */\n      0x00\n        /* \"#utility.yul\":8749:8816   */\n      tag_529\n        /* \"#utility.yul\":8813:8815   */\n      0x20\n        /* \"#utility.yul\":8808:8811   */\n      dup4\n        /* \"#utility.yul\":8749:8816   */\n      tag_489\n      jump\t// in\n    tag_529:\n        /* \"#utility.yul\":8742:8816   */\n      swap2\n      pop\n        /* \"#utility.yul\":8825:8918   */\n      tag_530\n        /* \"#utility.yul\":8914:8917   */\n      dup3\n        /* \"#utility.yul\":8825:8918   */\n      tag_531\n      jump\t// in\n    tag_530:\n        /* \"#utility.yul\":8943:8945   */\n      0x20\n        /* \"#utility.yul\":8938:8941   */\n      dup3\n        /* \"#utility.yul\":8934:8946   */\n      add\n        /* \"#utility.yul\":8927:8946   */\n      swap1\n      pop\n        /* \"#utility.yul\":8586:8952   */\n      swap2\n      swap1\n      pop\n      jump\t// out\n        /* \"#utility.yul\":8958:9324   */\n    tag_532:\n        /* \"#utility.yul\":9100:9103   */\n      0x00\n        /* \"#utility.yul\":9121:9188   */\n      tag_534\n        /* \"#utility.yul\":9185:9187   */\n      0x0c\n        /* \"#utility.yul\":9180:9183   */\n      dup4\n        /* \"#utility.yul\":9121:9188   */\n      tag_489\n      jump\t// in\n    tag_534:\n        /* \"#utility.yul\":9114:9188   */\n      swap2\n      pop\n        /* \"#utility.yul\":9197:9290   */\n      tag_535\n        /* \"#utility.yul\":9286:9289   */\n      dup3\n        /* \"#utility.yul\":9197:9290   */\n      tag_536\n      jump\t// in\n    tag_535:\n        /* \"#utility.yul\":9315:9317   */\n      0x20\n        /* \"#utility.yul\":9310:9313   */\n      dup3\n        /* \"#utility.yul\":9306:9318   */\n      add\n        /* \"#utility.yul\":9299:9318   */\n      swap1\n      pop\n        /* \"#utility.yul\":8958:9324   */\n      swap2\n      swap1\n      pop\n      jump\t// out\n        /* \"#utility.yul\":9330:9696   */\n    tag_537:\n        /* \"#utility.yul\":9472:9475   */\n      0x00\n        /* \"#utility.yul\":9493:9560   */\n      tag_539\n        /* \"#utility.yul\":9557:9559   */\n      0x23\n        /* \"#utility.yul\":9552:9555   */\n      dup4\n        /* \"#utility.yul\":9493:9560   */\n      tag_489\n      jump\t// in\n    tag_539:\n        /* \"#utility.yul\":9486:9560   */\n      swap2\n      pop\n        /* \"#utility.yul\":9569:9662   */\n      tag_540\n        /* \"#utility.yul\":9658:9661   */\n      dup3\n        /* \"#utility.yul\":9569:9662   */\n      tag_541\n      jump\t// in\n    tag_540:\n        /* \"#utility.yul\":9687:9689   */\n      0x40\n        /* \"#utility.yul\":9682:9685   */\n      dup3\n        /* \"#utility.yul\":9678:9690   */\n      add\n        /* \"#utility.yul\":9671:9690   */\n      swap1\n      pop\n        /* \"#utility.yul\":9330:9696   */\n      swap2\n      swap1\n      pop\n      jump\t// out\n        /* \"#utility.yul\":9702:10068   */\n    tag_542:\n        /* \"#utility.yul\":9844:9847   */\n      0x00\n        /* \"#utility.yul\":9865:9932   */\n      tag_544\n        /* \"#utility.yul\":9929:9931   */\n      0x12\n        /* \"#utility.yul\":9924:9927   */\n      dup4\n        /* \"#utility.yul\":9865:9932   */\n      tag_489\n      jump\t// in\n    tag_544:\n        /* \"#utility.yul\":9858:9932   */\n      swap2\n      pop\n        /* \"#utility.yul\":9941:10034   */\n      tag_545\n        /* \"#utility.yul\":10030:10033   */\n      dup3\n        /* \"#utility.yul\":9941:10034   */\n      tag_546\n      jump\t// in\n    tag_545:\n        /* \"#utility.yul\":10059:10061   */\n      0x20\n        /* \"#utility.yul\":10054:10057   */\n      dup3\n        /* \"#utility.yul\":10050:10062   */\n      add\n        /* \"#utility.yul\":10043:10062   */\n      swap1\n      pop\n        /* \"#utility.yul\":9702:10068   */\n      swap2\n      swap1\n      pop\n      jump\t// out\n        /* \"#utility.yul\":10074:10440   */\n    tag_547:\n        /* \"#utility.yul\":10216:10219   */\n      0x00\n        /* \"#utility.yul\":10237:10304   */\n      tag_549\n        /* \"#utility.yul\":10301:10303   */\n      0x1d\n        /* \"#utility.yul\":10296:10299   */\n      dup4\n        /* \"#utility.yul\":10237:10304   */\n      tag_489\n      jump\t// in\n    tag_549:\n        /* \"#utility.yul\":10230:10304   */\n      swap2\n      pop\n        /* \"#utility.yul\":10313:10406   */\n      tag_550\n        /* \"#utility.yul\":10402:10405   */\n      dup3\n        /* \"#utility.yul\":10313:10406   */\n      tag_551\n      jump\t// in\n    tag_550:\n        /* \"#utility.yul\":10431:10433   */\n      0x20\n        /* \"#utility.yul\":10426:10429   */\n      dup3\n        /* \"#utility.yul\":10422:10434   */\n      add\n        /* \"#utility.yul\":10415:10434   */\n      swap1\n      pop\n        /* \"#utility.yul\":10074:10440   */\n      swap2\n      swap1\n      pop\n      jump\t// out\n        /* \"#utility.yul\":10446:10812   */\n    tag_552:\n        /* \"#utility.yul\":10588:10591   */\n      0x00\n        /* \"#utility.yul\":10609:10676   */\n      tag_554\n        /* \"#utility.yul\":10673:10675   */\n      0x13\n        /* \"#utility.yul\":10668:10671   */\n      dup4\n        /* \"#utility.yul\":10609:10676   */\n      tag_489\n      jump\t// in\n    tag_554:\n        /* \"#utility.yul\":10602:10676   */\n      swap2\n      pop\n        /* \"#utility.yul\":10685:10778   */\n      tag_555\n        /* \"#utility.yul\":10774:10777   */\n      dup3\n        /* \"#utility.yul\":10685:10778   */\n      tag_556\n      jump\t// in\n    tag_555:\n        /* \"#utility.yul\":10803:10805   */\n      0x20\n        /* \"#utility.yul\":10798:10801   */\n      dup3\n        /* \"#utility.yul\":10794:10806   */\n      add\n        /* \"#utility.yul\":10787:10806   */\n      swap1\n      pop\n        /* \"#utility.yul\":10446:10812   */\n      swap2\n      swap1\n      pop\n      jump\t// out\n        /* \"#utility.yul\":10892:12227   */\n    tag_557:\n        /* \"#utility.yul\":11015:11018   */\n      0x00\n        /* \"#utility.yul\":11051:11055   */\n      0xc0\n        /* \"#utility.yul\":11046:11049   */\n      dup4\n        /* \"#utility.yul\":11042:11056   */\n      add\n        /* \"#utility.yul\":11146:11150   */\n      0x00\n        /* \"#utility.yul\":11139:11144   */\n      dup4\n        /* \"#utility.yul\":11135:11151   */\n      add\n        /* \"#utility.yul\":11129:11152   */\n      mload\n        /* \"#utility.yul\":11165:11228   */\n      tag_559\n        /* \"#utility.yul\":11222:11226   */\n      0x00\n        /* \"#utility.yul\":11217:11220   */\n      dup7\n        /* \"#utility.yul\":11213:11227   */\n      add\n        /* \"#utility.yul\":11199:11211   */\n      dup3\n        /* \"#utility.yul\":11165:11228   */\n      tag_444\n      jump\t// in\n    tag_559:\n        /* \"#utility.yul\":11066:11238   */\n      pop\n        /* \"#utility.yul\":11329:11333   */\n      0x20\n        /* \"#utility.yul\":11322:11327   */\n      dup4\n        /* \"#utility.yul\":11318:11334   */\n      add\n        /* \"#utility.yul\":11312:11335   */\n      mload\n        /* \"#utility.yul\":11348:11411   */\n      tag_560\n        /* \"#utility.yul\":11405:11409   */\n      0x20\n        /* \"#utility.yul\":11400:11403   */\n      dup7\n        /* \"#utility.yul\":11396:11410   */\n      add\n        /* \"#utility.yul\":11382:11394   */\n      dup3\n        /* \"#utility.yul\":11348:11411   */\n      tag_444\n      jump\t// in\n    tag_560:\n        /* \"#utility.yul\":11248:11421   */\n      pop\n        /* \"#utility.yul\":11515:11519   */\n      0x40\n        /* \"#utility.yul\":11508:11513   */\n      dup4\n        /* \"#utility.yul\":11504:11520   */\n      add\n        /* \"#utility.yul\":11498:11521   */\n      mload\n        /* \"#utility.yul\":11534:11597   */\n      tag_561\n        /* \"#utility.yul\":11591:11595   */\n      0x40\n        /* \"#utility.yul\":11586:11589   */\n      dup7\n        /* \"#utility.yul\":11582:11596   */\n      add\n        /* \"#utility.yul\":11568:11580   */\n      dup3\n        /* \"#utility.yul\":11534:11597   */\n      tag_443\n      jump\t// in\n    tag_561:\n        /* \"#utility.yul\":11431:11607   */\n      pop\n        /* \"#utility.yul\":11689:11693   */\n      0x60\n        /* \"#utility.yul\":11682:11687   */\n      dup4\n        /* \"#utility.yul\":11678:11694   */\n      add\n        /* \"#utility.yul\":11672:11695   */\n      mload\n        /* \"#utility.yul\":11742:11745   */\n      dup5\n        /* \"#utility.yul\":11736:11740   */\n      dup3\n        /* \"#utility.yul\":11732:11746   */\n      sub\n        /* \"#utility.yul\":11725:11729   */\n      0x60\n        /* \"#utility.yul\":11720:11723   */\n      dup7\n        /* \"#utility.yul\":11716:11730   */\n      add\n        /* \"#utility.yul\":11709:11747   */\n      mstore\n        /* \"#utility.yul\":11768:11841   */\n      tag_562\n        /* \"#utility.yul\":11836:11840   */\n      dup3\n        /* \"#utility.yul\":11822:11834   */\n      dup3\n        /* \"#utility.yul\":11768:11841   */\n      tag_476\n      jump\t// in\n    tag_562:\n        /* \"#utility.yul\":11760:11841   */\n      swap2\n      pop\n        /* \"#utility.yul\":11617:11852   */\n      pop\n        /* \"#utility.yul\":11941:11945   */\n      0x80\n        /* \"#utility.yul\":11934:11939   */\n      dup4\n        /* \"#utility.yul\":11930:11946   */\n      add\n        /* \"#utility.yul\":11924:11947   */\n      mload\n        /* \"#utility.yul\":11960:12017   */\n      tag_563\n        /* \"#utility.yul\":12011:12015   */\n      0x80\n        /* \"#utility.yul\":12006:12009   */\n      dup7\n        /* \"#utility.yul\":12002:12016   */\n      add\n        /* \"#utility.yul\":11988:12000   */\n      dup3\n        /* \"#utility.yul\":11960:12017   */\n      tag_465\n      jump\t// in\n    tag_563:\n        /* \"#utility.yul\":11862:12027   */\n      pop\n        /* \"#utility.yul\":12108:12112   */\n      0xa0\n        /* \"#utility.yul\":12101:12106   */\n      dup4\n        /* \"#utility.yul\":12097:12113   */\n      add\n        /* \"#utility.yul\":12091:12114   */\n      mload\n        /* \"#utility.yul\":12127:12190   */\n      tag_564\n        /* \"#utility.yul\":12184:12188   */\n      0xa0\n        /* \"#utility.yul\":12179:12182   */\n      dup7\n        /* \"#utility.yul\":12175:12189   */\n      add\n        /* \"#utility.yul\":12161:12173   */\n      dup3\n        /* \"#utility.yul\":12127:12190   */\n      tag_443\n      jump\t// in\n    tag_564:\n        /* \"#utility.yul\":12037:12200   */\n      pop\n        /* \"#utility.yul\":12217:12221   */\n      dup1\n        /* \"#utility.yul\":12210:12221   */\n      swap2\n      pop\n        /* \"#utility.yul\":11020:12227   */\n      pop\n        /* \"#utility.yul\":10892:12227   */\n      swap3\n      swap2\n      pop\n      pop\n      jump\t// out\n        /* \"#utility.yul\":12309:13179   */\n    tag_565:\n        /* \"#utility.yul\":12462:12466   */\n      0x80\n        /* \"#utility.yul\":12457:12460   */\n      dup3\n        /* \"#utility.yul\":12453:12467   */\n      add\n        /* \"#utility.yul\":12552:12556   */\n      0x00\n        /* \"#utility.yul\":12545:12550   */\n      dup3\n        /* \"#utility.yul\":12541:12557   */\n      add\n        /* \"#utility.yul\":12535:12558   */\n      mload\n        /* \"#utility.yul\":12571:12628   */\n      tag_567\n        /* \"#utility.yul\":12622:12626   */\n      0x00\n        /* \"#utility.yul\":12617:12620   */\n      dup6\n        /* \"#utility.yul\":12613:12627   */\n      add\n        /* \"#utility.yul\":12599:12611   */\n      dup3\n        /* \"#utility.yul\":12571:12628   */\n      tag_465\n      jump\t// in\n    tag_567:\n        /* \"#utility.yul\":12477:12638   */\n      pop\n        /* \"#utility.yul\":12722:12726   */\n      0x20\n        /* \"#utility.yul\":12715:12720   */\n      dup3\n        /* \"#utility.yul\":12711:12727   */\n      add\n        /* \"#utility.yul\":12705:12728   */\n      mload\n        /* \"#utility.yul\":12741:12804   */\n      tag_568\n        /* \"#utility.yul\":12798:12802   */\n      0x20\n        /* \"#utility.yul\":12793:12796   */\n      dup6\n        /* \"#utility.yul\":12789:12803   */\n      add\n        /* \"#utility.yul\":12775:12787   */\n      dup3\n        /* \"#utility.yul\":12741:12804   */\n      tag_443\n      jump\t// in\n    tag_568:\n        /* \"#utility.yul\":12648:12814   */\n      pop\n        /* \"#utility.yul\":12901:12905   */\n      0x40\n        /* \"#utility.yul\":12894:12899   */\n      dup3\n        /* \"#utility.yul\":12890:12906   */\n      add\n        /* \"#utility.yul\":12884:12907   */\n      mload\n        /* \"#utility.yul\":12920:12983   */\n      tag_569\n        /* \"#utility.yul\":12977:12981   */\n      0x40\n        /* \"#utility.yul\":12972:12975   */\n      dup6\n        /* \"#utility.yul\":12968:12982   */\n      add\n        /* \"#utility.yul\":12954:12966   */\n      dup3\n        /* \"#utility.yul\":12920:12983   */\n      tag_443\n      jump\t// in\n    tag_569:\n        /* \"#utility.yul\":12824:12993   */\n      pop\n        /* \"#utility.yul\":13080:13084   */\n      0x60\n        /* \"#utility.yul\":13073:13078   */\n      dup3\n        /* \"#utility.yul\":13069:13085   */\n      add\n        /* \"#utility.yul\":13063:13086   */\n      mload\n        /* \"#utility.yul\":13099:13162   */\n      tag_570\n        /* \"#utility.yul\":13156:13160   */\n      0x60\n        /* \"#utility.yul\":13151:13154   */\n      dup6\n        /* \"#utility.yul\":13147:13161   */\n      add\n        /* \"#utility.yul\":13133:13145   */\n      dup3\n        /* \"#utility.yul\":13099:13162   */\n      tag_443\n      jump\t// in\n    tag_570:\n        /* \"#utility.yul\":13003:13172   */\n      pop\n        /* \"#utility.yul\":12431:13179   */\n      pop\n        /* \"#utility.yul\":12309:13179   */\n      pop\n      pop\n      jump\t// out\n        /* \"#utility.yul\":13185:13293   */\n    tag_443:\n        /* \"#utility.yul\":13262:13286   */\n      tag_572\n        /* \"#utility.yul\":13280:13285   */\n      dup2\n        /* \"#utility.yul\":13262:13286   */\n      tag_573\n      jump\t// in\n    tag_572:\n        /* \"#utility.yul\":13257:13260   */\n      dup3\n        /* \"#utility.yul\":13250:13287   */\n      mstore\n        /* \"#utility.yul\":13185:13293   */\n      pop\n      pop\n      jump\t// out\n        /* \"#utility.yul\":13299:13417   */\n    tag_574:\n        /* \"#utility.yul\":13386:13410   */\n      tag_576\n        /* \"#utility.yul\":13404:13409   */\n      dup2\n        /* \"#utility.yul\":13386:13410   */\n      tag_573\n      jump\t// in\n    tag_576:\n        /* \"#utility.yul\":13381:13384   */\n      dup3\n        /* \"#utility.yul\":13374:13411   */\n      mstore\n        /* \"#utility.yul\":13299:13417   */\n      pop\n      pop\n      jump\t// out\n        /* \"#utility.yul\":13423:13645   */\n    tag_85:\n        /* \"#utility.yul\":13516:13520   */\n      0x00\n        /* \"#utility.yul\":13554:13556   */\n      0x20\n        /* \"#utility.yul\":13543:13552   */\n      dup3\n        /* \"#utility.yul\":13539:13557   */\n      add\n        /* \"#utility.yul\":13531:13557   */\n      swap1\n      pop\n        /* \"#utility.yul\":13567:13638   */\n      tag_578\n        /* \"#utility.yul\":13635:13636   */\n      0x00\n        /* \"#utility.yul\":13624:13633   */\n      dup4\n        /* \"#utility.yul\":13620:13637   */\n      add\n        /* \"#utility.yul\":13611:13617   */\n      dup5\n        /* \"#utility.yul\":13567:13638   */\n      tag_448\n      jump\t// in\n    tag_578:\n        /* \"#utility.yul\":13423:13645   */\n      swap3\n      swap2\n      pop\n      pop\n      jump\t// out\n        /* \"#utility.yul\":13651:13983   */\n    tag_246:\n        /* \"#utility.yul\":13772:13776   */\n      0x00\n        /* \"#utility.yul\":13810:13812   */\n      0x40\n        /* \"#utility.yul\":13799:13808   */\n      dup3\n        /* \"#utility.yul\":13795:13813   */\n      add\n        /* \"#utility.yul\":13787:13813   */\n      swap1\n      pop\n        /* \"#utility.yul\":13823:13894   */\n      tag_580\n        /* \"#utility.yul\":13891:13892   */\n      0x00\n        /* \"#utility.yul\":13880:13889   */\n      dup4\n        /* \"#utility.yul\":13876:13893   */\n      add\n        /* \"#utility.yul\":13867:13873   */\n      dup6\n        /* \"#utility.yul\":13823:13894   */\n      tag_448\n      jump\t// in\n    tag_580:\n        /* \"#utility.yul\":13904:13976   */\n      tag_581\n        /* \"#utility.yul\":13972:13974   */\n      0x20\n        /* \"#utility.yul\":13961:13970   */\n      dup4\n        /* \"#utility.yul\":13957:13975   */\n      add\n        /* \"#utility.yul\":13948:13954   */\n      dup5\n        /* \"#utility.yul\":13904:13976   */\n      tag_448\n      jump\t// in\n    tag_581:\n        /* \"#utility.yul\":13651:13983   */\n      swap4\n      swap3\n      pop\n      pop\n      pop\n      jump\t// out\n        /* \"#utility.yul\":13989:14431   */\n    tag_259:\n        /* \"#utility.yul\":14138:14142   */\n      0x00\n        /* \"#utility.yul\":14176:14178   */\n      0x60\n        /* \"#utility.yul\":14165:14174   */\n      dup3\n        /* \"#utility.yul\":14161:14179   */\n      add\n        /* \"#utility.yul\":14153:14179   */\n      swap1\n      pop\n        /* \"#utility.yul\":14189:14260   */\n      tag_583\n        /* \"#utility.yul\":14257:14258   */\n      0x00\n        /* \"#utility.yul\":14246:14255   */\n      dup4\n        /* \"#utility.yul\":14242:14259   */\n      add\n        /* \"#utility.yul\":14233:14239   */\n      dup7\n        /* \"#utility.yul\":14189:14260   */\n      tag_448\n      jump\t// in\n    tag_583:\n        /* \"#utility.yul\":14270:14342   */\n      tag_584\n        /* \"#utility.yul\":14338:14340   */\n      0x20\n        /* \"#utility.yul\":14327:14336   */\n      dup4\n        /* \"#utility.yul\":14323:14341   */\n      add\n        /* \"#utility.yul\":14314:14320   */\n      dup6\n        /* \"#utility.yul\":14270:14342   */\n      tag_448\n      jump\t// in\n    tag_584:\n        /* \"#utility.yul\":14352:14424   */\n      tag_585\n        /* \"#utility.yul\":14420:14422   */\n      0x40\n        /* \"#utility.yul\":14409:14418   */\n      dup4\n        /* \"#utility.yul\":14405:14423   */\n      add\n        /* \"#utility.yul\":14396:14402   */\n      dup5\n        /* \"#utility.yul\":14352:14424   */\n      tag_574\n      jump\t// in\n    tag_585:\n        /* \"#utility.yul\":13989:14431   */\n      swap5\n      swap4\n      pop\n      pop\n      pop\n      pop\n      jump\t// out\n        /* \"#utility.yul\":14437:14769   */\n    tag_199:\n        /* \"#utility.yul\":14558:14562   */\n      0x00\n        /* \"#utility.yul\":14596:14598   */\n      0x40\n        /* \"#utility.yul\":14585:14594   */\n      dup3\n        /* \"#utility.yul\":14581:14599   */\n      add\n        /* \"#utility.yul\":14573:14599   */\n      swap1\n      pop\n        /* \"#utility.yul\":14609:14680   */\n      tag_587\n        /* \"#utility.yul\":14677:14678   */\n      0x00\n        /* \"#utility.yul\":14666:14675   */\n      dup4\n        /* \"#utility.yul\":14662:14679   */\n      add\n        /* \"#utility.yul\":14653:14659   */\n      dup6\n        /* \"#utility.yul\":14609:14680   */\n      tag_448\n      jump\t// in\n    tag_587:\n        /* \"#utility.yul\":14690:14762   */\n      tag_588\n        /* \"#utility.yul\":14758:14760   */\n      0x20\n        /* \"#utility.yul\":14747:14756   */\n      dup4\n        /* \"#utility.yul\":14743:14761   */\n      add\n        /* \"#utility.yul\":14734:14740   */\n      dup5\n        /* \"#utility.yul\":14690:14762   */\n      tag_574\n      jump\t// in\n    tag_588:\n        /* \"#utility.yul\":14437:14769   */\n      swap4\n      swap3\n      pop\n      pop\n      pop\n      jump\t// out\n        /* \"#utility.yul\":14775:15344   */\n    tag_281:\n        /* \"#utility.yul\":14960:14964   */\n      0x00\n        /* \"#utility.yul\":14998:15001   */\n      0x80\n        /* \"#utility.yul\":14987:14996   */\n      dup3\n        /* \"#utility.yul\":14983:15002   */\n      add\n        /* \"#utility.yul\":14975:15002   */\n      swap1\n      pop\n        /* \"#utility.yul\":15012:15083   */\n      tag_590\n        /* \"#utility.yul\":15080:15081   */\n      0x00\n        /* \"#utility.yul\":15069:15078   */\n      dup4\n        /* \"#utility.yul\":15065:15082   */\n      add\n        /* \"#utility.yul\":15056:15062   */\n      dup8\n        /* \"#utility.yul\":15012:15083   */\n      tag_448\n      jump\t// in\n    tag_590:\n        /* \"#utility.yul\":15093:15165   */\n      tag_591\n        /* \"#utility.yul\":15161:15163   */\n      0x20\n        /* \"#utility.yul\":15150:15159   */\n      dup4\n        /* \"#utility.yul\":15146:15164   */\n      add\n        /* \"#utility.yul\":15137:15143   */\n      dup7\n        /* \"#utility.yul\":15093:15165   */\n      tag_574\n      jump\t// in\n    tag_591:\n        /* \"#utility.yul\":15175:15255   */\n      tag_592\n        /* \"#utility.yul\":15251:15253   */\n      0x40\n        /* \"#utility.yul\":15240:15249   */\n      dup4\n        /* \"#utility.yul\":15236:15254   */\n      add\n        /* \"#utility.yul\":15227:15233   */\n      dup6\n        /* \"#utility.yul\":15175:15255   */\n      tag_472\n      jump\t// in\n    tag_592:\n        /* \"#utility.yul\":15265:15337   */\n      tag_593\n        /* \"#utility.yul\":15333:15335   */\n      0x60\n        /* \"#utility.yul\":15322:15331   */\n      dup4\n        /* \"#utility.yul\":15318:15336   */\n      add\n        /* \"#utility.yul\":15309:15315   */\n      dup5\n        /* \"#utility.yul\":15265:15337   */\n      tag_574\n      jump\t// in\n    tag_593:\n        /* \"#utility.yul\":14775:15344   */\n      swap6\n      swap5\n      pop\n      pop\n      pop\n      pop\n      pop\n      jump\t// out\n        /* \"#utility.yul\":15350:15792   */\n    tag_206:\n        /* \"#utility.yul\":15499:15503   */\n      0x00\n        /* \"#utility.yul\":15537:15539   */\n      0x60\n        /* \"#utility.yul\":15526:15535   */\n      dup3\n        /* \"#utility.yul\":15522:15540   */\n      add\n        /* \"#utility.yul\":15514:15540   */\n      swap1\n      pop\n        /* \"#utility.yul\":15550:15621   */\n      tag_595\n        /* \"#utility.yul\":15618:15619   */\n      0x00\n        /* \"#utility.yul\":15607:15616   */\n      dup4\n        /* \"#utility.yul\":15603:15620   */\n      add\n        /* \"#utility.yul\":15594:15600   */\n      dup7\n        /* \"#utility.yul\":15550:15621   */\n      tag_448\n      jump\t// in\n    tag_595:\n        /* \"#utility.yul\":15631:15703   */\n      tag_596\n        /* \"#utility.yul\":15699:15701   */\n      0x20\n        /* \"#utility.yul\":15688:15697   */\n      dup4\n        /* \"#utility.yul\":15684:15702   */\n      add\n        /* \"#utility.yul\":15675:15681   */\n      dup6\n        /* \"#utility.yul\":15631:15703   */\n      tag_574\n      jump\t// in\n    tag_596:\n        /* \"#utility.yul\":15713:15785   */\n      tag_597\n        /* \"#utility.yul\":15781:15783   */\n      0x40\n        /* \"#utility.yul\":15770:15779   */\n      dup4\n        /* \"#utility.yul\":15766:15784   */\n      add\n        /* \"#utility.yul\":15757:15763   */\n      dup5\n        /* \"#utility.yul\":15713:15785   */\n      tag_574\n      jump\t// in\n    tag_597:\n        /* \"#utility.yul\":15350:15792   */\n      swap5\n      swap4\n      pop\n      pop\n      pop\n      pop\n      jump\t// out\n        /* \"#utility.yul\":15798:16171   */\n    tag_44:\n        /* \"#utility.yul\":15941:15945   */\n      0x00\n        /* \"#utility.yul\":15979:15981   */\n      0x20\n        /* \"#utility.yul\":15968:15977   */\n      dup3\n        /* \"#utility.yul\":15964:15982   */\n      add\n        /* \"#utility.yul\":15956:15982   */\n      swap1\n      pop\n        /* \"#utility.yul\":16028:16037   */\n      dup2\n        /* \"#utility.yul\":16022:16026   */\n      dup2\n        /* \"#utility.yul\":16018:16038   */\n      sub\n        /* \"#utility.yul\":16014:16015   */\n      0x00\n        /* \"#utility.yul\":16003:16012   */\n      dup4\n        /* \"#utility.yul\":15999:16016   */\n      add\n        /* \"#utility.yul\":15992:16039   */\n      mstore\n        /* \"#utility.yul\":16056:16164   */\n      tag_599\n        /* \"#utility.yul\":16159:16163   */\n      dup2\n        /* \"#utility.yul\":16150:16156   */\n      dup5\n        /* \"#utility.yul\":16056:16164   */\n      tag_451\n      jump\t// in\n    tag_599:\n        /* \"#utility.yul\":16048:16164   */\n      swap1\n      pop\n        /* \"#utility.yul\":15798:16171   */\n      swap3\n      swap2\n      pop\n      pop\n      jump\t// out\n        /* \"#utility.yul\":16177:16387   */\n    tag_54:\n        /* \"#utility.yul\":16264:16268   */\n      0x00\n        /* \"#utility.yul\":16302:16304   */\n      0x20\n        /* \"#utility.yul\":16291:16300   */\n      dup3\n        /* \"#utility.yul\":16287:16305   */\n      add\n        /* \"#utility.yul\":16279:16305   */\n      swap1\n      pop\n        /* \"#utility.yul\":16315:16380   */\n      tag_601\n        /* \"#utility.yul\":16377:16378   */\n      0x00\n        /* \"#utility.yul\":16366:16375   */\n      dup4\n        /* \"#utility.yul\":16362:16379   */\n      add\n        /* \"#utility.yul\":16353:16359   */\n      dup5\n        /* \"#utility.yul\":16315:16380   */\n      tag_469\n      jump\t// in\n    tag_601:\n        /* \"#utility.yul\":16177:16387   */\n      swap3\n      swap2\n      pop\n      pop\n      jump\t// out\n        /* \"#utility.yul\":16393:16812   */\n    tag_191:\n        /* \"#utility.yul\":16559:16563   */\n      0x00\n        /* \"#utility.yul\":16597:16599   */\n      0x20\n        /* \"#utility.yul\":16586:16595   */\n      dup3\n        /* \"#utility.yul\":16582:16600   */\n      add\n        /* \"#utility.yul\":16574:16600   */\n      swap1\n      pop\n        /* \"#utility.yul\":16646:16655   */\n      dup2\n        /* \"#utility.yul\":16640:16644   */\n      dup2\n        /* \"#utility.yul\":16636:16656   */\n      sub\n        /* \"#utility.yul\":16632:16633   */\n      0x00\n        /* \"#utility.yul\":16621:16630   */\n      dup4\n        /* \"#utility.yul\":16617:16634   */\n      add\n        /* \"#utility.yul\":16610:16657   */\n      mstore\n        /* \"#utility.yul\":16674:16805   */\n      tag_603\n        /* \"#utility.yul\":16800:16804   */\n      dup2\n        /* \"#utility.yul\":16674:16805   */\n      tag_486\n      jump\t// in\n    tag_603:\n        /* \"#utility.yul\":16666:16805   */\n      swap1\n      pop\n        /* \"#utility.yul\":16393:16812   */\n      swap2\n      swap1\n      pop\n      jump\t// out\n        /* \"#utility.yul\":16818:17237   */\n    tag_254:\n        /* \"#utility.yul\":16984:16988   */\n      0x00\n        /* \"#utility.yul\":17022:17024   */\n      0x20\n        /* \"#utility.yul\":17011:17020   */\n      dup3\n        /* \"#utility.yul\":17007:17025   */\n      add\n        /* \"#utility.yul\":16999:17025   */\n      swap1\n      pop\n        /* \"#utility.yul\":17071:17080   */\n      dup2\n        /* \"#utility.yul\":17065:17069   */\n      dup2\n        /* \"#utility.yul\":17061:17081   */\n      sub\n        /* \"#utility.yul\":17057:17058   */\n      0x00\n        /* \"#utility.yul\":17046:17055   */\n      dup4\n        /* \"#utility.yul\":17042:17059   */\n      add\n        /* \"#utility.yul\":17035:17082   */\n      mstore\n        /* \"#utility.yul\":17099:17230   */\n      tag_605\n        /* \"#utility.yul\":17225:17229   */\n      dup2\n        /* \"#utility.yul\":17099:17230   */\n      tag_492\n      jump\t// in\n    tag_605:\n        /* \"#utility.yul\":17091:17230   */\n      swap1\n      pop\n        /* \"#utility.yul\":16818:17237   */\n      swap2\n      swap1\n      pop\n      jump\t// out\n        /* \"#utility.yul\":17243:17662   */\n    tag_349:\n        /* \"#utility.yul\":17409:17413   */\n      0x00\n        /* \"#utility.yul\":17447:17449   */\n      0x20\n        /* \"#utility.yul\":17436:17445   */\n      dup3\n        /* \"#utility.yul\":17432:17450   */\n      add\n        /* \"#utility.yul\":17424:17450   */\n      swap1\n      pop\n        /* \"#utility.yul\":17496:17505   */\n      dup2\n        /* \"#utility.yul\":17490:17494   */\n      dup2\n        /* \"#utility.yul\":17486:17506   */\n      sub\n        /* \"#utility.yul\":17482:17483   */\n      0x00\n        /* \"#utility.yul\":17471:17480   */\n      dup4\n        /* \"#utility.yul\":17467:17484   */\n      add\n        /* \"#utility.yul\":17460:17507   */\n      mstore\n        /* \"#utility.yul\":17524:17655   */\n      tag_607\n        /* \"#utility.yul\":17650:17654   */\n      dup2\n        /* \"#utility.yul\":17524:17655   */\n      tag_497\n      jump\t// in\n    tag_607:\n        /* \"#utility.yul\":17516:17655   */\n      swap1\n      pop\n        /* \"#utility.yul\":17243:17662   */\n      swap2\n      swap1\n      pop\n      jump\t// out\n        /* \"#utility.yul\":17668:18087   */\n    tag_323:\n        /* \"#utility.yul\":17834:17838   */\n      0x00\n        /* \"#utility.yul\":17872:17874   */\n      0x20\n        /* \"#utility.yul\":17861:17870   */\n      dup3\n        /* \"#utility.yul\":17857:17875   */\n      add\n        /* \"#utility.yul\":17849:17875   */\n      swap1\n      pop\n        /* \"#utility.yul\":17921:17930   */\n      dup2\n        /* \"#utility.yul\":17915:17919   */\n      dup2\n        /* \"#utility.yul\":17911:17931   */\n      sub\n        /* \"#utility.yul\":17907:17908   */\n      0x00\n        /* \"#utility.yul\":17896:17905   */\n      dup4\n        /* \"#utility.yul\":17892:17909   */\n      add\n        /* \"#utility.yul\":17885:17932   */\n      mstore\n        /* \"#utility.yul\":17949:18080   */\n      tag_609\n        /* \"#utility.yul\":18075:18079   */\n      dup2\n        /* \"#utility.yul\":17949:18080   */\n      tag_502\n      jump\t// in\n    tag_609:\n        /* \"#utility.yul\":17941:18080   */\n      swap1\n      pop\n        /* \"#utility.yul\":17668:18087   */\n      swap2\n      swap1\n      pop\n      jump\t// out\n        /* \"#utility.yul\":18093:18512   */\n    tag_269:\n        /* \"#utility.yul\":18259:18263   */\n      0x00\n        /* \"#utility.yul\":18297:18299   */\n      0x20\n        /* \"#utility.yul\":18286:18295   */\n      dup3\n        /* \"#utility.yul\":18282:18300   */\n      add\n        /* \"#utility.yul\":18274:18300   */\n      swap1\n      pop\n        /* \"#utility.yul\":18346:18355   */\n      dup2\n        /* \"#utility.yul\":18340:18344   */\n      dup2\n        /* \"#utility.yul\":18336:18356   */\n      sub\n        /* \"#utility.yul\":18332:18333   */\n      0x00\n        /* \"#utility.yul\":18321:18330   */\n      dup4\n        /* \"#utility.yul\":18317:18334   */\n      add\n        /* \"#utility.yul\":18310:18357   */\n      mstore\n        /* \"#utility.yul\":18374:18505   */\n      tag_611\n        /* \"#utility.yul\":18500:18504   */\n      dup2\n        /* \"#utility.yul\":18374:18505   */\n      tag_507\n      jump\t// in\n    tag_611:\n        /* \"#utility.yul\":18366:18505   */\n      swap1\n      pop\n        /* \"#utility.yul\":18093:18512   */\n      swap2\n      swap1\n      pop\n      jump\t// out\n        /* \"#utility.yul\":18518:18937   */\n    tag_241:\n        /* \"#utility.yul\":18684:18688   */\n      0x00\n        /* \"#utility.yul\":18722:18724   */\n      0x20\n        /* \"#utility.yul\":18711:18720   */\n      dup3\n        /* \"#utility.yul\":18707:18725   */\n      add\n        /* \"#utility.yul\":18699:18725   */\n      swap1\n      pop\n        /* \"#utility.yul\":18771:18780   */\n      dup2\n        /* \"#utility.yul\":18765:18769   */\n      dup2\n        /* \"#utility.yul\":18761:18781   */\n      sub\n        /* \"#utility.yul\":18757:18758   */\n      0x00\n        /* \"#utility.yul\":18746:18755   */\n      dup4\n        /* \"#utility.yul\":18742:18759   */\n      add\n        /* \"#utility.yul\":18735:18782   */\n      mstore\n        /* \"#utility.yul\":18799:18930   */\n      tag_613\n        /* \"#utility.yul\":18925:18929   */\n      dup2\n        /* \"#utility.yul\":18799:18930   */\n      tag_512\n      jump\t// in\n    tag_613:\n        /* \"#utility.yul\":18791:18930   */\n      swap1\n      pop\n        /* \"#utility.yul\":18518:18937   */\n      swap2\n      swap1\n      pop\n      jump\t// out\n        /* \"#utility.yul\":18943:19362   */\n    tag_179:\n        /* \"#utility.yul\":19109:19113   */\n      0x00\n        /* \"#utility.yul\":19147:19149   */\n      0x20\n        /* \"#utility.yul\":19136:19145   */\n      dup3\n        /* \"#utility.yul\":19132:19150   */\n      add\n        /* \"#utility.yul\":19124:19150   */\n      swap1\n      pop\n        /* \"#utility.yul\":19196:19205   */\n      dup2\n        /* \"#utility.yul\":19190:19194   */\n      dup2\n        /* \"#utility.yul\":19186:19206   */\n      sub\n        /* \"#utility.yul\":19182:19183   */\n      0x00\n        /* \"#utility.yul\":19171:19180   */\n      dup4\n        /* \"#utility.yul\":19167:19184   */\n      add\n        /* \"#utility.yul\":19160:19207   */\n      mstore\n        /* \"#utility.yul\":19224:19355   */\n      tag_615\n        /* \"#utility.yul\":19350:19354   */\n      dup2\n        /* \"#utility.yul\":19224:19355   */\n      tag_517\n      jump\t// in\n    tag_615:\n        /* \"#utility.yul\":19216:19355   */\n      swap1\n      pop\n        /* \"#utility.yul\":18943:19362   */\n      swap2\n      swap1\n      pop\n      jump\t// out\n        /* \"#utility.yul\":19368:19787   */\n    tag_176:\n        /* \"#utility.yul\":19534:19538   */\n      0x00\n        /* \"#utility.yul\":19572:19574   */\n      0x20\n        /* \"#utility.yul\":19561:19570   */\n      dup3\n        /* \"#utility.yul\":19557:19575   */\n      add\n        /* \"#utility.yul\":19549:19575   */\n      swap1\n      pop\n        /* \"#utility.yul\":19621:19630   */\n      dup2\n        /* \"#utility.yul\":19615:19619   */\n      dup2\n        /* \"#utility.yul\":19611:19631   */\n      sub\n        /* \"#utility.yul\":19607:19608   */\n      0x00\n        /* \"#utility.yul\":19596:19605   */\n      dup4\n        /* \"#utility.yul\":19592:19609   */\n      add\n        /* \"#utility.yul\":19585:19632   */\n      mstore\n        /* \"#utility.yul\":19649:19780   */\n      tag_617\n        /* \"#utility.yul\":19775:19779   */\n      dup2\n        /* \"#utility.yul\":19649:19780   */\n      tag_522\n      jump\t// in\n    tag_617:\n        /* \"#utility.yul\":19641:19780   */\n      swap1\n      pop\n        /* \"#utility.yul\":19368:19787   */\n      swap2\n      swap1\n      pop\n      jump\t// out\n        /* \"#utility.yul\":19793:20212   */\n    tag_367:\n        /* \"#utility.yul\":19959:19963   */\n      0x00\n        /* \"#utility.yul\":19997:19999   */\n      0x20\n        /* \"#utility.yul\":19986:19995   */\n      dup3\n        /* \"#utility.yul\":19982:20000   */\n      add\n        /* \"#utility.yul\":19974:20000   */\n      swap1\n      pop\n        /* \"#utility.yul\":20046:20055   */\n      dup2\n        /* \"#utility.yul\":20040:20044   */\n      dup2\n        /* \"#utility.yul\":20036:20056   */\n      sub\n        /* \"#utility.yul\":20032:20033   */\n      0x00\n        /* \"#utility.yul\":20021:20030   */\n      dup4\n        /* \"#utility.yul\":20017:20034   */\n      add\n        /* \"#utility.yul\":20010:20057   */\n      mstore\n        /* \"#utility.yul\":20074:20205   */\n      tag_619\n        /* \"#utility.yul\":20200:20204   */\n      dup2\n        /* \"#utility.yul\":20074:20205   */\n      tag_527\n      jump\t// in\n    tag_619:\n        /* \"#utility.yul\":20066:20205   */\n      swap1\n      pop\n        /* \"#utility.yul\":19793:20212   */\n      swap2\n      swap1\n      pop\n      jump\t// out\n        /* \"#utility.yul\":20218:20637   */\n    tag_173:\n        /* \"#utility.yul\":20384:20388   */\n      0x00\n        /* \"#utility.yul\":20422:20424   */\n      0x20\n        /* \"#utility.yul\":20411:20420   */\n      dup3\n        /* \"#utility.yul\":20407:20425   */\n      add\n        /* \"#utility.yul\":20399:20425   */\n      swap1\n      pop\n        /* \"#utility.yul\":20471:20480   */\n      dup2\n        /* \"#utility.yul\":20465:20469   */\n      dup2\n        /* \"#utility.yul\":20461:20481   */\n      sub\n        /* \"#utility.yul\":20457:20458   */\n      0x00\n        /* \"#utility.yul\":20446:20455   */\n      dup4\n        /* \"#utility.yul\":20442:20459   */\n      add\n        /* \"#utility.yul\":20435:20482   */\n      mstore\n        /* \"#utility.yul\":20499:20630   */\n      tag_621\n        /* \"#utility.yul\":20625:20629   */\n      dup2\n        /* \"#utility.yul\":20499:20630   */\n      tag_532\n      jump\t// in\n    tag_621:\n        /* \"#utility.yul\":20491:20630   */\n      swap1\n      pop\n        /* \"#utility.yul\":20218:20637   */\n      swap2\n      swap1\n      pop\n      jump\t// out\n        /* \"#utility.yul\":20643:21062   */\n    tag_272:\n        /* \"#utility.yul\":20809:20813   */\n      0x00\n        /* \"#utility.yul\":20847:20849   */\n      0x20\n        /* \"#utility.yul\":20836:20845   */\n      dup3\n        /* \"#utility.yul\":20832:20850   */\n      add\n        /* \"#utility.yul\":20824:20850   */\n      swap1\n      pop\n        /* \"#utility.yul\":20896:20905   */\n      dup2\n        /* \"#utility.yul\":20890:20894   */\n      dup2\n        /* \"#utility.yul\":20886:20906   */\n      sub\n        /* \"#utility.yul\":20882:20883   */\n      0x00\n        /* \"#utility.yul\":20871:20880   */\n      dup4\n        /* \"#utility.yul\":20867:20884   */\n      add\n        /* \"#utility.yul\":20860:20907   */\n      mstore\n        /* \"#utility.yul\":20924:21055   */\n      tag_623\n        /* \"#utility.yul\":21050:21054   */\n      dup2\n        /* \"#utility.yul\":20924:21055   */\n      tag_537\n      jump\t// in\n    tag_623:\n        /* \"#utility.yul\":20916:21055   */\n      swap1\n      pop\n        /* \"#utility.yul\":20643:21062   */\n      swap2\n      swap1\n      pop\n      jump\t// out\n        /* \"#utility.yul\":21068:21487   */\n    tag_235:\n        /* \"#utility.yul\":21234:21238   */\n      0x00\n        /* \"#utility.yul\":21272:21274   */\n      0x20\n        /* \"#utility.yul\":21261:21270   */\n      dup3\n        /* \"#utility.yul\":21257:21275   */\n      add\n        /* \"#utility.yul\":21249:21275   */\n      swap1\n      pop\n        /* \"#utility.yul\":21321:21330   */\n      dup2\n        /* \"#utility.yul\":21315:21319   */\n      dup2\n        /* \"#utility.yul\":21311:21331   */\n      sub\n        /* \"#utility.yul\":21307:21308   */\n      0x00\n        /* \"#utility.yul\":21296:21305   */\n      dup4\n        /* \"#utility.yul\":21292:21309   */\n      add\n        /* \"#utility.yul\":21285:21332   */\n      mstore\n        /* \"#utility.yul\":21349:21480   */\n      tag_625\n        /* \"#utility.yul\":21475:21479   */\n      dup2\n        /* \"#utility.yul\":21349:21480   */\n      tag_542\n      jump\t// in\n    tag_625:\n        /* \"#utility.yul\":21341:21480   */\n      swap1\n      pop\n        /* \"#utility.yul\":21068:21487   */\n      swap2\n      swap1\n      pop\n      jump\t// out\n        /* \"#utility.yul\":21493:21912   */\n    tag_336:\n        /* \"#utility.yul\":21659:21663   */\n      0x00\n        /* \"#utility.yul\":21697:21699   */\n      0x20\n        /* \"#utility.yul\":21686:21695   */\n      dup3\n        /* \"#utility.yul\":21682:21700   */\n      add\n        /* \"#utility.yul\":21674:21700   */\n      swap1\n      pop\n        /* \"#utility.yul\":21746:21755   */\n      dup2\n        /* \"#utility.yul\":21740:21744   */\n      dup2\n        /* \"#utility.yul\":21736:21756   */\n      sub\n        /* \"#utility.yul\":21732:21733   */\n      0x00\n        /* \"#utility.yul\":21721:21730   */\n      dup4\n        /* \"#utility.yul\":21717:21734   */\n      add\n        /* \"#utility.yul\":21710:21757   */\n      mstore\n        /* \"#utility.yul\":21774:21905   */\n      tag_627\n        /* \"#utility.yul\":21900:21904   */\n      dup2\n        /* \"#utility.yul\":21774:21905   */\n      tag_547\n      jump\t// in\n    tag_627:\n        /* \"#utility.yul\":21766:21905   */\n      swap1\n      pop\n        /* \"#utility.yul\":21493:21912   */\n      swap2\n      swap1\n      pop\n      jump\t// out\n        /* \"#utility.yul\":21918:22337   */\n    tag_304:\n        /* \"#utility.yul\":22084:22088   */\n      0x00\n        /* \"#utility.yul\":22122:22124   */\n      0x20\n        /* \"#utility.yul\":22111:22120   */\n      dup3\n        /* \"#utility.yul\":22107:22125   */\n      add\n        /* \"#utility.yul\":22099:22125   */\n      swap1\n      pop\n        /* \"#utility.yul\":22171:22180   */\n      dup2\n        /* \"#utility.yul\":22165:22169   */\n      dup2\n        /* \"#utility.yul\":22161:22181   */\n      sub\n        /* \"#utility.yul\":22157:22158   */\n      0x00\n        /* \"#utility.yul\":22146:22155   */\n      dup4\n        /* \"#utility.yul\":22142:22159   */\n      add\n        /* \"#utility.yul\":22135:22182   */\n      mstore\n        /* \"#utility.yul\":22199:22330   */\n      tag_629\n        /* \"#utility.yul\":22325:22329   */\n      dup2\n        /* \"#utility.yul\":22199:22330   */\n      tag_552\n      jump\t// in\n    tag_629:\n        /* \"#utility.yul\":22191:22330   */\n      swap1\n      pop\n        /* \"#utility.yul\":21918:22337   */\n      swap2\n      swap1\n      pop\n      jump\t// out\n        /* \"#utility.yul\":22343:22724   */\n    tag_69:\n        /* \"#utility.yul\":22490:22494   */\n      0x00\n        /* \"#utility.yul\":22528:22530   */\n      0x20\n        /* \"#utility.yul\":22517:22526   */\n      dup3\n        /* \"#utility.yul\":22513:22531   */\n      add\n        /* \"#utility.yul\":22505:22531   */\n      swap1\n      pop\n        /* \"#utility.yul\":22577:22586   */\n      dup2\n        /* \"#utility.yul\":22571:22575   */\n      dup2\n        /* \"#utility.yul\":22567:22587   */\n      sub\n        /* \"#utility.yul\":22563:22564   */\n      0x00\n        /* \"#utility.yul\":22552:22561   */\n      dup4\n        /* \"#utility.yul\":22548:22565   */\n      add\n        /* \"#utility.yul\":22541:22588   */\n      mstore\n        /* \"#utility.yul\":22605:22717   */\n      tag_631\n        /* \"#utility.yul\":22712:22716   */\n      dup2\n        /* \"#utility.yul\":22703:22709   */\n      dup5\n        /* \"#utility.yul\":22605:22717   */\n      tag_557\n      jump\t// in\n    tag_631:\n        /* \"#utility.yul\":22597:22717   */\n      swap1\n      pop\n        /* \"#utility.yul\":22343:22724   */\n      swap3\n      swap2\n      pop\n      pop\n      jump\t// out\n        /* \"#utility.yul\":22730:23065   */\n    tag_121:\n        /* \"#utility.yul\":22879:22883   */\n      0x00\n        /* \"#utility.yul\":22917:22920   */\n      0x80\n        /* \"#utility.yul\":22906:22915   */\n      dup3\n        /* \"#utility.yul\":22902:22921   */\n      add\n        /* \"#utility.yul\":22894:22921   */\n      swap1\n      pop\n        /* \"#utility.yul\":22931:23058   */\n      tag_633\n        /* \"#utility.yul\":23055:23056   */\n      0x00\n        /* \"#utility.yul\":23044:23053   */\n      dup4\n        /* \"#utility.yul\":23040:23057   */\n      add\n        /* \"#utility.yul\":23031:23037   */\n      dup5\n        /* \"#utility.yul\":22931:23058   */\n      tag_565\n      jump\t// in\n    tag_633:\n        /* \"#utility.yul\":22730:23065   */\n      swap3\n      swap2\n      pop\n      pop\n      jump\t// out\n        /* \"#utility.yul\":23071:23293   */\n    tag_33:\n        /* \"#utility.yul\":23164:23168   */\n      0x00\n        /* \"#utility.yul\":23202:23204   */\n      0x20\n        /* \"#utility.yul\":23191:23200   */\n      dup3\n        /* \"#utility.yul\":23187:23205   */\n      add\n        /* \"#utility.yul\":23179:23205   */\n      swap1\n      pop\n        /* \"#utility.yul\":23215:23286   */\n      tag_635\n        /* \"#utility.yul\":23283:23284   */\n      0x00\n        /* \"#utility.yul\":23272:23281   */\n      dup4\n        /* \"#utility.yul\":23268:23285   */\n      add\n        /* \"#utility.yul\":23259:23265   */\n      dup5\n        /* \"#utility.yul\":23215:23286   */\n      tag_574\n      jump\t// in\n    tag_635:\n        /* \"#utility.yul\":23071:23293   */\n      swap3\n      swap2\n      pop\n      pop\n      jump\t// out\n        /* \"#utility.yul\":23299:23428   */\n    tag_386:\n        /* \"#utility.yul\":23333:23339   */\n      0x00\n        /* \"#utility.yul\":23360:23380   */\n      tag_637\n      tag_638\n      jump\t// in\n    tag_637:\n        /* \"#utility.yul\":23350:23380   */\n      swap1\n      pop\n        /* \"#utility.yul\":23389:23422   */\n      tag_639\n        /* \"#utility.yul\":23417:23421   */\n      dup3\n        /* \"#utility.yul\":23409:23415   */\n      dup3\n        /* \"#utility.yul\":23389:23422   */\n      tag_640\n      jump\t// in\n    tag_639:\n        /* \"#utility.yul\":23299:23428   */\n      swap2\n      swap1\n      pop\n      jump\t// out\n        /* \"#utility.yul\":23434:23509   */\n    tag_638:\n        /* \"#utility.yul\":23467:23473   */\n      0x00\n        /* \"#utility.yul\":23500:23502   */\n      0x40\n        /* \"#utility.yul\":23494:23503   */\n      mload\n        /* \"#utility.yul\":23484:23503   */\n      swap1\n      pop\n        /* \"#utility.yul\":23434:23509   */\n      swap1\n      jump\t// out\n        /* \"#utility.yul\":23515:23823   */\n    tag_385:\n        /* \"#utility.yul\":23577:23581   */\n      0x00\n        /* \"#utility.yul\":23667:23685   */\n      0xffffffffffffffff\n        /* \"#utility.yul\":23659:23665   */\n      dup3\n        /* \"#utility.yul\":23656:23686   */\n      gt\n        /* \"#utility.yul\":23653:23709   */\n      iszero\n      tag_643\n      jumpi\n        /* \"#utility.yul\":23689:23707   */\n      tag_644\n      tag_645\n      jump\t// in\n    tag_644:\n        /* \"#utility.yul\":23653:23709   */\n    tag_643:\n        /* \"#utility.yul\":23727:23756   */\n      tag_646\n        /* \"#utility.yul\":23749:23755   */\n      dup3\n        /* \"#utility.yul\":23727:23756   */\n      tag_485\n      jump\t// in\n    tag_646:\n        /* \"#utility.yul\":23719:23756   */\n      swap1\n      pop\n        /* \"#utility.yul\":23811:23815   */\n      0x20\n        /* \"#utility.yul\":23805:23809   */\n      dup2\n        /* \"#utility.yul\":23801:23816   */\n      add\n        /* \"#utility.yul\":23793:23816   */\n      swap1\n      pop\n        /* \"#utility.yul\":23515:23823   */\n      swap2\n      swap1\n      pop\n      jump\t// out\n        /* \"#utility.yul\":23829:23961   */\n    tag_458:\n        /* \"#utility.yul\":23896:23900   */\n      0x00\n        /* \"#utility.yul\":23919:23922   */\n      dup2\n        /* \"#utility.yul\":23911:23922   */\n      swap1\n      pop\n        /* \"#utility.yul\":23949:23953   */\n      0x20\n        /* \"#utility.yul\":23944:23947   */\n      dup3\n        /* \"#utility.yul\":23940:23954   */\n      add\n        /* \"#utility.yul\":23932:23954   */\n      swap1\n      pop\n        /* \"#utility.yul\":23829:23961   */\n      swap2\n      swap1\n      pop\n      jump\t// out\n        /* \"#utility.yul\":23967:24081   */\n    tag_454:\n        /* \"#utility.yul\":24034:24040   */\n      0x00\n        /* \"#utility.yul\":24068:24073   */\n      dup2\n        /* \"#utility.yul\":24062:24074   */\n      mload\n        /* \"#utility.yul\":24052:24074   */\n      swap1\n      pop\n        /* \"#utility.yul\":23967:24081   */\n      swap2\n      swap1\n      pop\n      jump\t// out\n        /* \"#utility.yul\":24087:24186   */\n    tag_479:\n        /* \"#utility.yul\":24139:24145   */\n      0x00\n        /* \"#utility.yul\":24173:24178   */\n      dup2\n        /* \"#utility.yul\":24167:24179   */\n      mload\n        /* \"#utility.yul\":24157:24179   */\n      swap1\n      pop\n        /* \"#utility.yul\":24087:24186   */\n      swap2\n      swap1\n      pop\n      jump\t// out\n        /* \"#utility.yul\":24192:24305   */\n    tag_464:\n        /* \"#utility.yul\":24262:24266   */\n      0x00\n        /* \"#utility.yul\":24294:24298   */\n      0x20\n        /* \"#utility.yul\":24289:24292   */\n      dup3\n        /* \"#utility.yul\":24285:24299   */\n      add\n        /* \"#utility.yul\":24277:24299   */\n      swap1\n      pop\n        /* \"#utility.yul\":24192:24305   */\n      swap2\n      swap1\n      pop\n      jump\t// out\n        /* \"#utility.yul\":24311:24495   */\n    tag_456:\n        /* \"#utility.yul\":24410:24421   */\n      0x00\n        /* \"#utility.yul\":24444:24450   */\n      dup3\n        /* \"#utility.yul\":24439:24442   */\n      dup3\n        /* \"#utility.yul\":24432:24451   */\n      mstore\n        /* \"#utility.yul\":24484:24488   */\n      0x20\n        /* \"#utility.yul\":24479:24482   */\n      dup3\n        /* \"#utility.yul\":24475:24489   */\n      add\n        /* \"#utility.yul\":24460:24489   */\n      swap1\n      pop\n        /* \"#utility.yul\":24311:24495   */\n      swap3\n      swap2\n      pop\n      pop\n      jump\t// out\n        /* \"#utility.yul\":24501:24660   */\n    tag_481:\n        /* \"#utility.yul\":24575:24586   */\n      0x00\n        /* \"#utility.yul\":24609:24615   */\n      dup3\n        /* \"#utility.yul\":24604:24607   */\n      dup3\n        /* \"#utility.yul\":24597:24616   */\n      mstore\n        /* \"#utility.yul\":24649:24653   */\n      0x20\n        /* \"#utility.yul\":24644:24647   */\n      dup3\n        /* \"#utility.yul\":24640:24654   */\n      add\n        /* \"#utility.yul\":24625:24654   */\n      swap1\n      pop\n        /* \"#utility.yul\":24501:24660   */\n      swap3\n      swap2\n      pop\n      pop\n      jump\t// out\n        /* \"#utility.yul\":24666:24835   */\n    tag_489:\n        /* \"#utility.yul\":24750:24761   */\n      0x00\n        /* \"#utility.yul\":24784:24790   */\n      dup3\n        /* \"#utility.yul\":24779:24782   */\n      dup3\n        /* \"#utility.yul\":24772:24791   */\n      mstore\n        /* \"#utility.yul\":24824:24828   */\n      0x20\n        /* \"#utility.yul\":24819:24822   */\n      dup3\n        /* \"#utility.yul\":24815:24829   */\n      add\n        /* \"#utility.yul\":24800:24829   */\n      swap1\n      pop\n        /* \"#utility.yul\":24666:24835   */\n      swap3\n      swap2\n      pop\n      pop\n      jump\t// out\n        /* \"#utility.yul\":24841:25146   */\n    tag_266:\n        /* \"#utility.yul\":24881:24884   */\n      0x00\n        /* \"#utility.yul\":24900:24920   */\n      tag_655\n        /* \"#utility.yul\":24918:24919   */\n      dup3\n        /* \"#utility.yul\":24900:24920   */\n      tag_573\n      jump\t// in\n    tag_655:\n        /* \"#utility.yul\":24895:24920   */\n      swap2\n      pop\n        /* \"#utility.yul\":24934:24954   */\n      tag_656\n        /* \"#utility.yul\":24952:24953   */\n      dup4\n        /* \"#utility.yul\":24934:24954   */\n      tag_573\n      jump\t// in\n    tag_656:\n        /* \"#utility.yul\":24929:24954   */\n      swap3\n      pop\n        /* \"#utility.yul\":25088:25089   */\n      dup3\n        /* \"#utility.yul\":25020:25086   */\n      0xffffffffffffffffffffffffffffffffffffffffffffffffffffffffffffffff\n        /* \"#utility.yul\":25016:25090   */\n      sub\n        /* \"#utility.yul\":25013:25014   */\n      dup3\n        /* \"#utility.yul\":25010:25091   */\n      gt\n        /* \"#utility.yul\":25007:25114   */\n      iszero\n      tag_657\n      jumpi\n        /* \"#utility.yul\":25094:25112   */\n      tag_658\n      tag_659\n      jump\t// in\n    tag_658:\n        /* \"#utility.yul\":25007:25114   */\n    tag_657:\n        /* \"#utility.yul\":25138:25139   */\n      dup3\n        /* \"#utility.yul\":25135:25136   */\n      dup3\n        /* \"#utility.yul\":25131:25140   */\n      add\n        /* \"#utility.yul\":25124:25140   */\n      swap1\n      pop\n        /* \"#utility.yul\":24841:25146   */\n      swap3\n      swap2\n      pop\n      pop\n      jump\t// out\n        /* \"#utility.yul\":25152:25337   */\n    tag_143:\n        /* \"#utility.yul\":25192:25193   */\n      0x00\n        /* \"#utility.yul\":25209:25229   */\n      tag_661\n        /* \"#utility.yul\":25227:25228   */\n      dup3\n        /* \"#utility.yul\":25209:25229   */\n      tag_573\n      jump\t// in\n    tag_661:\n        /* \"#utility.yul\":25204:25229   */\n      swap2\n      pop\n        /* \"#utility.yul\":25243:25263   */\n      tag_662\n        /* \"#utility.yul\":25261:25262   */\n      dup4\n        /* \"#utility.yul\":25243:25263   */\n      tag_573\n      jump\t// in\n    tag_662:\n        /* \"#utility.yul\":25238:25263   */\n      swap3\n      pop\n        /* \"#utility.yul\":25282:25283   */\n      dup3\n        /* \"#utility.yul\":25272:25307   */\n      tag_663\n      jumpi\n        /* \"#utility.yul\":25287:25305   */\n      tag_664\n      tag_665\n      jump\t// in\n    tag_664:\n        /* \"#utility.yul\":25272:25307   */\n    tag_663:\n        /* \"#utility.yul\":25329:25330   */\n      dup3\n        /* \"#utility.yul\":25326:25327   */\n      dup3\n        /* \"#utility.yul\":25322:25331   */\n      div\n        /* \"#utility.yul\":25317:25331   */\n      swap1\n      pop\n        /* \"#utility.yul\":25152:25337   */\n      swap3\n      swap2\n      pop\n      pop\n      jump\t// out\n        /* \"#utility.yul\":25343:25691   */\n    tag_141:\n        /* \"#utility.yul\":25383:25390   */\n      0x00\n        /* \"#utility.yul\":25406:25426   */\n      tag_667\n        /* \"#utility.yul\":25424:25425   */\n      dup3\n        /* \"#utility.yul\":25406:25426   */\n      tag_573\n      jump\t// in\n    tag_667:\n        /* \"#utility.yul\":25401:25426   */\n      swap2\n      pop\n        /* \"#utility.yul\":25440:25460   */\n      tag_668\n        /* \"#utility.yul\":25458:25459   */\n      dup4\n        /* \"#utility.yul\":25440:25460   */\n      tag_573\n      jump\t// in\n    tag_668:\n        /* \"#utility.yul\":25435:25460   */\n      swap3\n      pop\n        /* \"#utility.yul\":25628:25629   */\n      dup2\n        /* \"#utility.yul\":25560:25626   */\n      0xffffffffffffffffffffffffffffffffffffffffffffffffffffffffffffffff\n        /* \"#utility.yul\":25556:25630   */\n      div\n        /* \"#utility.yul\":25553:25554   */\n      dup4\n        /* \"#utility.yul\":25550:25631   */\n      gt\n        /* \"#utility.yul\":25545:25546   */\n      dup3\n        /* \"#utility.yul\":25538:25547   */\n      iszero\n        /* \"#utility.yul\":25531:25548   */\n      iszero\n        /* \"#utility.yul\":25527:25632   */\n      and\n        /* \"#utility.yul\":25524:25655   */\n      iszero\n      tag_669\n      jumpi\n        /* \"#utility.yul\":25635:25653   */\n      tag_670\n      tag_659\n      jump\t// in\n    tag_670:\n        /* \"#utility.yul\":25524:25655   */\n    tag_669:\n        /* \"#utility.yul\":25683:25684   */\n      dup3\n        /* \"#utility.yul\":25680:25681   */\n      dup3\n        /* \"#utility.yul\":25676:25685   */\n      mul\n        /* \"#utility.yul\":25665:25685   */\n      swap1\n      pop\n        /* \"#utility.yul\":25343:25691   */\n      swap3\n      swap2\n      pop\n      pop\n      jump\t// out\n        /* \"#utility.yul\":25697:25888   */\n    tag_132:\n        /* \"#utility.yul\":25737:25741   */\n      0x00\n        /* \"#utility.yul\":25757:25777   */\n      tag_672\n        /* \"#utility.yul\":25775:25776   */\n      dup3\n        /* \"#utility.yul\":25757:25777   */\n      tag_573\n      jump\t// in\n    tag_672:\n        /* \"#utility.yul\":25752:25777   */\n      swap2\n      pop\n        /* \"#utility.yul\":25791:25811   */\n      tag_673\n        /* \"#utility.yul\":25809:25810   */\n      dup4\n        /* \"#utility.yul\":25791:25811   */\n      tag_573\n      jump\t// in\n    tag_673:\n        /* \"#utility.yul\":25786:25811   */\n      swap3\n      pop\n        /* \"#utility.yul\":25830:25831   */\n      dup3\n        /* \"#utility.yul\":25827:25828   */\n      dup3\n        /* \"#utility.yul\":25824:25832   */\n      lt\n        /* \"#utility.yul\":25821:25855   */\n      iszero\n      tag_674\n      jumpi\n        /* \"#utility.yul\":25835:25853   */\n      tag_675\n      tag_659\n      jump\t// in\n    tag_675:\n        /* \"#utility.yul\":25821:25855   */\n    tag_674:\n        /* \"#utility.yul\":25880:25881   */\n      dup3\n        /* \"#utility.yul\":25877:25878   */\n      dup3\n        /* \"#utility.yul\":25873:25882   */\n      sub\n        /* \"#utility.yul\":25865:25882   */\n      swap1\n      pop\n        /* \"#utility.yul\":25697:25888   */\n      swap3\n      swap2\n      pop\n      pop\n      jump\t// out\n        /* \"#utility.yul\":25894:25990   */\n    tag_447:\n        /* \"#utility.yul\":25931:25938   */\n      0x00\n        /* \"#utility.yul\":25960:25984   */\n      tag_677\n        /* \"#utility.yul\":25978:25983   */\n      dup3\n        /* \"#utility.yul\":25960:25984   */\n      tag_678\n      jump\t// in\n    tag_677:\n        /* \"#utility.yul\":25949:25984   */\n      swap1\n      pop\n        /* \"#utility.yul\":25894:25990   */\n      swap2\n      swap1\n      pop\n      jump\t// out\n        /* \"#utility.yul\":25996:26086   */\n    tag_468:\n        /* \"#utility.yul\":26030:26037   */\n      0x00\n        /* \"#utility.yul\":26073:26078   */\n      dup2\n        /* \"#utility.yul\":26066:26079   */\n      iszero\n        /* \"#utility.yul\":26059:26080   */\n      iszero\n        /* \"#utility.yul\":26048:26080   */\n      swap1\n      pop\n        /* \"#utility.yul\":25996:26086   */\n      swap2\n      swap1\n      pop\n      jump\t// out\n        /* \"#utility.yul\":26092:26218   */\n    tag_678:\n        /* \"#utility.yul\":26129:26136   */\n      0x00\n        /* \"#utility.yul\":26169:26211   */\n      0xffffffffffffffffffffffffffffffffffffffff\n        /* \"#utility.yul\":26162:26167   */\n      dup3\n        /* \"#utility.yul\":26158:26212   */\n      and\n        /* \"#utility.yul\":26147:26212   */\n      swap1\n      pop\n        /* \"#utility.yul\":26092:26218   */\n      swap2\n      swap1\n      pop\n      jump\t// out\n        /* \"#utility.yul\":26224:26301   */\n    tag_573:\n        /* \"#utility.yul\":26261:26268   */\n      0x00\n        /* \"#utility.yul\":26290:26295   */\n      dup2\n        /* \"#utility.yul\":26279:26295   */\n      swap1\n      pop\n        /* \"#utility.yul\":26224:26301   */\n      swap2\n      swap1\n      pop\n      jump\t// out\n        /* \"#utility.yul\":26307:26428   */\n    tag_475:\n        /* \"#utility.yul\":26365:26374   */\n      0x00\n        /* \"#utility.yul\":26398:26422   */\n      tag_683\n        /* \"#utility.yul\":26416:26421   */\n      dup3\n        /* \"#utility.yul\":26398:26422   */\n      tag_573\n      jump\t// in\n    tag_683:\n        /* \"#utility.yul\":26385:26422   */\n      swap1\n      pop\n        /* \"#utility.yul\":26307:26428   */\n      swap2\n      swap1\n      pop\n      jump\t// out\n        /* \"#utility.yul\":26434:26588   */\n    tag_391:\n        /* \"#utility.yul\":26518:26524   */\n      dup3\n        /* \"#utility.yul\":26513:26516   */\n      dup2\n        /* \"#utility.yul\":26508:26511   */\n      dup4\n        /* \"#utility.yul\":26495:26525   */\n      calldatacopy\n        /* \"#utility.yul\":26580:26581   */\n      0x00\n        /* \"#utility.yul\":26571:26577   */\n      dup4\n        /* \"#utility.yul\":26566:26569   */\n      dup4\n        /* \"#utility.yul\":26562:26578   */\n      add\n        /* \"#utility.yul\":26555:26582   */\n      mstore\n        /* \"#utility.yul\":26434:26588   */\n      pop\n      pop\n      pop\n      jump\t// out\n        /* \"#utility.yul\":26594:26901   */\n    tag_483:\n        /* \"#utility.yul\":26662:26663   */\n      0x00\n        /* \"#utility.yul\":26672:26785   */\n    tag_686:\n        /* \"#utility.yul\":26686:26692   */\n      dup4\n        /* \"#utility.yul\":26683:26684   */\n      dup2\n        /* \"#utility.yul\":26680:26693   */\n      lt\n        /* \"#utility.yul\":26672:26785   */\n      iszero\n      tag_688\n      jumpi\n        /* \"#utility.yul\":26771:26772   */\n      dup1\n        /* \"#utility.yul\":26766:26769   */\n      dup3\n        /* \"#utility.yul\":26762:26773   */\n      add\n        /* \"#utility.yul\":26756:26774   */\n      mload\n        /* \"#utility.yul\":26752:26753   */\n      dup2\n        /* \"#utility.yul\":26747:26750   */\n      dup5\n        /* \"#utility.yul\":26743:26754   */\n      add\n        /* \"#utility.yul\":26736:26775   */\n      mstore\n        /* \"#utility.yul\":26708:26710   */\n      0x20\n        /* \"#utility.yul\":26705:26706   */\n      dup2\n        /* \"#utility.yul\":26701:26711   */\n      add\n        /* \"#utility.yul\":26696:26711   */\n      swap1\n      pop\n        /* \"#utility.yul\":26672:26785   */\n      jump(tag_686)\n    tag_688:\n        /* \"#utility.yul\":26803:26809   */\n      dup4\n        /* \"#utility.yul\":26800:26801   */\n      dup2\n        /* \"#utility.yul\":26797:26810   */\n      gt\n        /* \"#utility.yul\":26794:26895   */\n      iszero\n      tag_689\n      jumpi\n        /* \"#utility.yul\":26883:26884   */\n      0x00\n        /* \"#utility.yul\":26874:26880   */\n      dup5\n        /* \"#utility.yul\":26869:26872   */\n      dup5\n        /* \"#utility.yul\":26865:26881   */\n      add\n        /* \"#utility.yul\":26858:26885   */\n      mstore\n        /* \"#utility.yul\":26794:26895   */\n    tag_689:\n        /* \"#utility.yul\":26643:26901   */\n      pop\n        /* \"#utility.yul\":26594:26901   */\n      pop\n      pop\n      pop\n      jump\t// out\n        /* \"#utility.yul\":26907:27227   */\n    tag_162:\n        /* \"#utility.yul\":26951:26957   */\n      0x00\n        /* \"#utility.yul\":26988:26989   */\n      0x02\n        /* \"#utility.yul\":26982:26986   */\n      dup3\n        /* \"#utility.yul\":26978:26990   */\n      div\n        /* \"#utility.yul\":26968:26990   */\n      swap1\n      pop\n        /* \"#utility.yul\":27035:27036   */\n      0x01\n        /* \"#utility.yul\":27029:27033   */\n      dup3\n        /* \"#utility.yul\":27025:27037   */\n      and\n        /* \"#utility.yul\":27056:27074   */\n      dup1\n        /* \"#utility.yul\":27046:27127   */\n      tag_691\n      jumpi\n        /* \"#utility.yul\":27112:27116   */\n      0x7f\n        /* \"#utility.yul\":27104:27110   */\n      dup3\n        /* \"#utility.yul\":27100:27117   */\n      and\n        /* \"#utility.yul\":27090:27117   */\n      swap2\n      pop\n        /* \"#utility.yul\":27046:27127   */\n    tag_691:\n        /* \"#utility.yul\":27174:27176   */\n      0x20\n        /* \"#utility.yul\":27166:27172   */\n      dup3\n        /* \"#utility.yul\":27163:27177   */\n      lt\n        /* \"#utility.yul\":27143:27161   */\n      dup2\n        /* \"#utility.yul\":27140:27178   */\n      eq\n        /* \"#utility.yul\":27137:27221   */\n      iszero\n      tag_692\n      jumpi\n        /* \"#utility.yul\":27193:27211   */\n      tag_693\n      tag_694\n      jump\t// in\n    tag_693:\n        /* \"#utility.yul\":27137:27221   */\n    tag_692:\n        /* \"#utility.yul\":26958:27227   */\n      pop\n        /* \"#utility.yul\":26907:27227   */\n      swap2\n      swap1\n      pop\n      jump\t// out\n        /* \"#utility.yul\":27233:27514   */\n    tag_640:\n        /* \"#utility.yul\":27316:27343   */\n      tag_696\n        /* \"#utility.yul\":27338:27342   */\n      dup3\n        /* \"#utility.yul\":27316:27343   */\n      tag_485\n      jump\t// in\n    tag_696:\n        /* \"#utility.yul\":27308:27314   */\n      dup2\n        /* \"#utility.yul\":27304:27344   */\n      add\n        /* \"#utility.yul\":27446:27452   */\n      dup2\n        /* \"#utility.yul\":27434:27444   */\n      dup2\n        /* \"#utility.yul\":27431:27453   */\n      lt\n        /* \"#utility.yul\":27410:27428   */\n      0xffffffffffffffff\n        /* \"#utility.yul\":27398:27408   */\n      dup3\n        /* \"#utility.yul\":27395:27429   */\n      gt\n        /* \"#utility.yul\":27392:27454   */\n      or\n        /* \"#utility.yul\":27389:27477   */\n      iszero\n      tag_697\n      jumpi\n        /* \"#utility.yul\":27457:27475   */\n      tag_698\n      tag_645\n      jump\t// in\n    tag_698:\n        /* \"#utility.yul\":27389:27477   */\n    tag_697:\n        /* \"#utility.yul\":27497:27507   */\n      dup1\n        /* \"#utility.yul\":27493:27495   */\n      0x40\n        /* \"#utility.yul\":27486:27508   */\n      mstore\n        /* \"#utility.yul\":27276:27514   */\n      pop\n        /* \"#utility.yul\":27233:27514   */\n      pop\n      pop\n      jump\t// out\n        /* \"#utility.yul\":27520:27753   */\n    tag_230:\n        /* \"#utility.yul\":27559:27562   */\n      0x00\n        /* \"#utility.yul\":27582:27606   */\n      tag_700\n        /* \"#utility.yul\":27600:27605   */\n      dup3\n        /* \"#utility.yul\":27582:27606   */\n      tag_573\n      jump\t// in\n    tag_700:\n        /* \"#utility.yul\":27573:27606   */\n      swap2\n      pop\n        /* \"#utility.yul\":27628:27694   */\n      0xffffffffffffffffffffffffffffffffffffffffffffffffffffffffffffffff\n        /* \"#utility.yul\":27621:27626   */\n      dup3\n        /* \"#utility.yul\":27618:27695   */\n      eq\n        /* \"#utility.yul\":27615:27718   */\n      iszero\n      tag_701\n      jumpi\n        /* \"#utility.yul\":27698:27716   */\n      tag_702\n      tag_659\n      jump\t// in\n    tag_702:\n        /* \"#utility.yul\":27615:27718   */\n    tag_701:\n        /* \"#utility.yul\":27745:27746   */\n      0x01\n        /* \"#utility.yul\":27738:27743   */\n      dup3\n        /* \"#utility.yul\":27734:27747   */\n      add\n        /* \"#utility.yul\":27727:27747   */\n      swap1\n      pop\n        /* \"#utility.yul\":27520:27753   */\n      swap2\n      swap1\n      pop\n      jump\t// out\n        /* \"#utility.yul\":27759:27939   */\n    tag_659:\n        /* \"#utility.yul\":27807:27884   */\n      0x4e487b7100000000000000000000000000000000000000000000000000000000\n        /* \"#utility.yul\":27804:27805   */\n      0x00\n        /* \"#utility.yul\":27797:27885   */\n      mstore\n        /* \"#utility.yul\":27904:27908   */\n      0x11\n        /* \"#utility.yul\":27901:27902   */\n      0x04\n        /* \"#utility.yul\":27894:27909   */\n      mstore\n        /* \"#utility.yul\":27928:27932   */\n      0x24\n        /* \"#utility.yul\":27925:27926   */\n      0x00\n        /* \"#utility.yul\":27918:27933   */\n      revert\n        /* \"#utility.yul\":27945:28125   */\n    tag_665:\n        /* \"#utility.yul\":27993:28070   */\n      0x4e487b7100000000000000000000000000000000000000000000000000000000\n        /* \"#utility.yul\":27990:27991   */\n      0x00\n        /* \"#utility.yul\":27983:28071   */\n      mstore\n        /* \"#utility.yul\":28090:28094   */\n      0x12\n        /* \"#utility.yul\":28087:28088   */\n      0x04\n        /* \"#utility.yul\":28080:28095   */\n      mstore\n        /* \"#utility.yul\":28114:28118   */\n      0x24\n        /* \"#utility.yul\":28111:28112   */\n      0x00\n        /* \"#utility.yul\":28104:28119   */\n      revert\n        /* \"#utility.yul\":28131:28311   */\n    tag_694:\n        /* \"#utility.yul\":28179:28256   */\n      0x4e487b7100000000000000000000000000000000000000000000000000000000\n        /* \"#utility.yul\":28176:28177   */\n      0x00\n        /* \"#utility.yul\":28169:28257   */\n      mstore\n        /* \"#utility.yul\":28276:28280   */\n      0x22\n        /* \"#utility.yul\":28273:28274   */\n      0x04\n        /* \"#utility.yul\":28266:28281   */\n      mstore\n        /* \"#utility.yul\":28300:28304   */\n      0x24\n        /* \"#utility.yul\":28297:28298   */\n      0x00\n        /* \"#utility.yul\":28290:28305   */\n      revert\n        /* \"#utility.yul\":28317:28497   */\n    tag_227:\n        /* \"#utility.yul\":28365:28442   */\n      0x4e487b7100000000000000000000000000000000000000000000000000000000\n        /* \"#utility.yul\":28362:28363   */\n      0x00\n        /* \"#utility.yul\":28355:28443   */\n      mstore\n        /* \"#utility.yul\":28462:28466   */\n      0x31\n        /* \"#utility.yul\":28459:28460   */\n      0x04\n        /* \"#utility.yul\":28452:28467   */\n      mstore\n        /* \"#utility.yul\":28486:28490   */\n      0x24\n        /* \"#utility.yul\":28483:28484   */\n      0x00\n        /* \"#utility.yul\":28476:28491   */\n      revert\n        /* \"#utility.yul\":28503:28683   */\n    tag_138:\n        /* \"#utility.yul\":28551:28628   */\n      0x4e487b7100000000000000000000000000000000000000000000000000000000\n        /* \"#utility.yul\":28548:28549   */\n      0x00\n        /* \"#utility.yul\":28541:28629   */\n      mstore\n        /* \"#utility.yul\":28648:28652   */\n      0x32\n        /* \"#utility.yul\":28645:28646   */\n      0x04\n        /* \"#utility.yul\":28638:28653   */\n      mstore\n        /* \"#utility.yul\":28672:28676   */\n      0x24\n        /* \"#utility.yul\":28669:28670   */\n      0x00\n        /* \"#utility.yul\":28662:28677   */\n      revert\n        /* \"#utility.yul\":28689:28869   */\n    tag_645:\n        /* \"#utility.yul\":28737:28814   */\n      0x4e487b7100000000000000000000000000000000000000000000000000000000\n        /* \"#utility.yul\":28734:28735   */\n      0x00\n        /* \"#utility.yul\":28727:28815   */\n      mstore\n        /* \"#utility.yul\":28834:28838   */\n      0x41\n        /* \"#utility.yul\":28831:28832   */\n      0x04\n        /* \"#utility.yul\":28824:28839   */\n      mstore\n        /* \"#utility.yul\":28858:28862   */\n      0x24\n        /* \"#utility.yul\":28855:28856   */\n      0x00\n        /* \"#utility.yul\":28848:28863   */\n      revert\n        /* \"#utility.yul\":28875:28992   */\n    tag_404:\n        /* \"#utility.yul\":28984:28985   */\n      0x00\n        /* \"#utility.yul\":28981:28982   */\n      dup1\n        /* \"#utility.yul\":28974:28986   */\n      revert\n        /* \"#utility.yul\":28998:29115   */\n    tag_389:\n        /* \"#utility.yul\":29107:29108   */\n      0x00\n        /* \"#utility.yul\":29104:29105   */\n      dup1\n        /* \"#utility.yul\":29097:29109   */\n      revert\n        /* \"#utility.yul\":29121:29238   */\n    tag_425:\n        /* \"#utility.yul\":29230:29231   */\n      0x00\n        /* \"#utility.yul\":29227:29228   */\n      dup1\n        /* \"#utility.yul\":29220:29232   */\n      revert\n        /* \"#utility.yul\":29244:29361   */\n    tag_416:\n        /* \"#utility.yul\":29353:29354   */\n      0x00\n        /* \"#utility.yul\":29350:29351   */\n      dup1\n        /* \"#utility.yul\":29343:29355   */\n      revert\n        /* \"#utility.yul\":29367:29469   */\n    tag_485:\n        /* \"#utility.yul\":29408:29414   */\n      0x00\n        /* \"#utility.yul\":29459:29461   */\n      0x1f\n        /* \"#utility.yul\":29455:29462   */\n      not\n        /* \"#utility.yul\":29450:29452   */\n      0x1f\n        /* \"#utility.yul\":29443:29448   */\n      dup4\n        /* \"#utility.yul\":29439:29453   */\n      add\n        /* \"#utility.yul\":29435:29463   */\n      and\n        /* \"#utility.yul\":29425:29463   */\n      swap1\n      pop\n        /* \"#utility.yul\":29367:29469   */\n      swap2\n      swap1\n      pop\n      jump\t// out\n        /* \"#utility.yul\":29475:29643   */\n    tag_491:\n        /* \"#utility.yul\":29615:29635   */\n      0x596f7520617265206e6f74207374616b65640000000000000000000000000000\n        /* \"#utility.yul\":29611:29612   */\n      0x00\n        /* \"#utility.yul\":29603:29609   */\n      dup3\n        /* \"#utility.yul\":29599:29613   */\n      add\n        /* \"#utility.yul\":29592:29636   */\n      mstore\n        /* \"#utility.yul\":29475:29643   */\n      pop\n      jump\t// out\n        /* \"#utility.yul\":29649:29818   */\n    tag_496:\n        /* \"#utility.yul\":29789:29810   */\n      0x546f6b656e73206e6f7420617070726f76656400000000000000000000000000\n        /* \"#utility.yul\":29785:29786   */\n      0x00\n        /* \"#utility.yul\":29777:29783   */\n      dup3\n        /* \"#utility.yul\":29773:29787   */\n      add\n        /* \"#utility.yul\":29766:29811   */\n      mstore\n        /* \"#utility.yul\":29649:29818   */\n      pop\n      jump\t// out\n        /* \"#utility.yul\":29824:29993   */\n    tag_501:\n        /* \"#utility.yul\":29964:29985   */\n      0x4e6f7468696e6720746f20776974686472617700000000000000000000000000\n        /* \"#utility.yul\":29960:29961   */\n      0x00\n        /* \"#utility.yul\":29952:29958   */\n      dup3\n        /* \"#utility.yul\":29948:29962   */\n      add\n        /* \"#utility.yul\":29941:29986   */\n      mstore\n        /* \"#utility.yul\":29824:29993   */\n      pop\n      jump\t// out\n        /* \"#utility.yul\":29999:30224   */\n    tag_506:\n        /* \"#utility.yul\":30139:30173   */\n      0x4f776e61626c653a206e6577206f776e657220697320746865207a65726f2061\n        /* \"#utility.yul\":30135:30136   */\n      0x00\n        /* \"#utility.yul\":30127:30133   */\n      dup3\n        /* \"#utility.yul\":30123:30137   */\n      add\n        /* \"#utility.yul\":30116:30174   */\n      mstore\n        /* \"#utility.yul\":30208:30216   */\n      0x6464726573730000000000000000000000000000000000000000000000000000\n        /* \"#utility.yul\":30203:30205   */\n      0x20\n        /* \"#utility.yul\":30195:30201   */\n      dup3\n        /* \"#utility.yul\":30191:30206   */\n      add\n        /* \"#utility.yul\":30184:30217   */\n      mstore\n        /* \"#utility.yul\":29999:30224   */\n      pop\n      jump\t// out\n        /* \"#utility.yul\":30230:30399   */\n    tag_511:\n        /* \"#utility.yul\":30370:30391   */\n      0x4461696c79206c696d6974207265616368656400000000000000000000000000\n        /* \"#utility.yul\":30366:30367   */\n      0x00\n        /* \"#utility.yul\":30358:30364   */\n      dup3\n        /* \"#utility.yul\":30354:30368   */\n      add\n        /* \"#utility.yul\":30347:30392   */\n      mstore\n        /* \"#utility.yul\":30230:30399   */\n      pop\n      jump\t// out\n        /* \"#utility.yul\":30405:30583   */\n    tag_516:\n        /* \"#utility.yul\":30545:30575   */\n      0x596f752063616e2774207374616b6520696e207468697320706f6f6c00000000\n        /* \"#utility.yul\":30541:30542   */\n      0x00\n        /* \"#utility.yul\":30533:30539   */\n      dup3\n        /* \"#utility.yul\":30529:30543   */\n      add\n        /* \"#utility.yul\":30522:30576   */\n      mstore\n        /* \"#utility.yul\":30405:30583   */\n      pop\n      jump\t// out\n        /* \"#utility.yul\":30589:30761   */\n    tag_521:\n        /* \"#utility.yul\":30729:30753   */\n      0x496e76616c696420726577617264206164647265737300000000000000000000\n        /* \"#utility.yul\":30725:30726   */\n      0x00\n        /* \"#utility.yul\":30717:30723   */\n      dup3\n        /* \"#utility.yul\":30713:30727   */\n      add\n        /* \"#utility.yul\":30706:30754   */\n      mstore\n        /* \"#utility.yul\":30589:30761   */\n      pop\n      jump\t// out\n        /* \"#utility.yul\":30767:30938   */\n    tag_526:\n        /* \"#utility.yul\":30907:30930   */\n      0x496e76616c6964207374616b6520616464726573730000000000000000000000\n        /* \"#utility.yul\":30903:30904   */\n      0x00\n        /* \"#utility.yul\":30895:30901   */\n      dup3\n        /* \"#utility.yul\":30891:30905   */\n      add\n        /* \"#utility.yul\":30884:30931   */\n      mstore\n        /* \"#utility.yul\":30767:30938   */\n      pop\n      jump\t// out\n        /* \"#utility.yul\":30944:31126   */\n    tag_531:\n        /* \"#utility.yul\":31084:31118   */\n      0x4f776e61626c653a2063616c6c6572206973206e6f7420746865206f776e6572\n        /* \"#utility.yul\":31080:31081   */\n      0x00\n        /* \"#utility.yul\":31072:31078   */\n      dup3\n        /* \"#utility.yul\":31068:31082   */\n      add\n        /* \"#utility.yul\":31061:31119   */\n      mstore\n        /* \"#utility.yul\":30944:31126   */\n      pop\n      jump\t// out\n        /* \"#utility.yul\":31132:31294   */\n    tag_536:\n        /* \"#utility.yul\":31272:31286   */\n      0x506f6f6c20657869737473210000000000000000000000000000000000000000\n        /* \"#utility.yul\":31268:31269   */\n      0x00\n        /* \"#utility.yul\":31260:31266   */\n      dup3\n        /* \"#utility.yul\":31256:31270   */\n      add\n        /* \"#utility.yul\":31249:31287   */\n      mstore\n        /* \"#utility.yul\":31132:31294   */\n      pop\n      jump\t// out\n        /* \"#utility.yul\":31300:31522   */\n    tag_541:\n        /* \"#utility.yul\":31440:31474   */\n      0x5374616b696e6720616d6f756e74206973206c657373207468656e206d696e69\n        /* \"#utility.yul\":31436:31437   */\n      0x00\n        /* \"#utility.yul\":31428:31434   */\n      dup3\n        /* \"#utility.yul\":31424:31438   */\n      add\n        /* \"#utility.yul\":31417:31475   */\n      mstore\n        /* \"#utility.yul\":31509:31514   */\n      0x6d756d0000000000000000000000000000000000000000000000000000000000\n        /* \"#utility.yul\":31504:31506   */\n      0x20\n        /* \"#utility.yul\":31496:31502   */\n      dup3\n        /* \"#utility.yul\":31492:31507   */\n      add\n        /* \"#utility.yul\":31485:31515   */\n      mstore\n        /* \"#utility.yul\":31300:31522   */\n      pop\n      jump\t// out\n        /* \"#utility.yul\":31528:31696   */\n    tag_546:\n        /* \"#utility.yul\":31668:31688   */\n      0x596f7520616c7265616479207374616b65640000000000000000000000000000\n        /* \"#utility.yul\":31664:31665   */\n      0x00\n        /* \"#utility.yul\":31656:31662   */\n      dup3\n        /* \"#utility.yul\":31652:31666   */\n      add\n        /* \"#utility.yul\":31645:31689   */\n      mstore\n        /* \"#utility.yul\":31528:31696   */\n      pop\n      jump\t// out\n        /* \"#utility.yul\":31702:31881   */\n    tag_551:\n        /* \"#utility.yul\":31842:31873   */\n      0x596f752063616e2774207472616e736665722074686520746f6b656e73000000\n        /* \"#utility.yul\":31838:31839   */\n      0x00\n        /* \"#utility.yul\":31830:31836   */\n      dup3\n        /* \"#utility.yul\":31826:31840   */\n      add\n        /* \"#utility.yul\":31819:31874   */\n      mstore\n        /* \"#utility.yul\":31702:31881   */\n      pop\n      jump\t// out\n        /* \"#utility.yul\":31887:32056   */\n    tag_556:\n        /* \"#utility.yul\":32027:32048   */\n      0x43616e6e6f742063616e63656c20706f6f6c2100000000000000000000000000\n        /* \"#utility.yul\":32023:32024   */\n      0x00\n        /* \"#utility.yul\":32015:32021   */\n      dup3\n        /* \"#utility.yul\":32011:32025   */\n      add\n        /* \"#utility.yul\":32004:32049   */\n      mstore\n        /* \"#utility.yul\":31887:32056   */\n      pop\n      jump\t// out\n        /* \"#utility.yul\":32062:32184   */\n    tag_395:\n        /* \"#utility.yul\":32135:32159   */\n      tag_729\n        /* \"#utility.yul\":32153:32158   */\n      dup2\n        /* \"#utility.yul\":32135:32159   */\n      tag_447\n      jump\t// in\n    tag_729:\n        /* \"#utility.yul\":32128:32133   */\n      dup2\n        /* \"#utility.yul\":32125:32160   */\n      eq\n        /* \"#utility.yul\":32115:32178   */\n      tag_730\n      jumpi\n        /* \"#utility.yul\":32174:32175   */\n      0x00\n        /* \"#utility.yul\":32171:32172   */\n      dup1\n        /* \"#utility.yul\":32164:32176   */\n      revert\n        /* \"#utility.yul\":32115:32178   */\n    tag_730:\n        /* \"#utility.yul\":32062:32184   */\n      pop\n      jump\t// out\n        /* \"#utility.yul\":32190:32306   */\n    tag_399:\n        /* \"#utility.yul\":32260:32281   */\n      tag_732\n        /* \"#utility.yul\":32275:32280   */\n      dup2\n        /* \"#utility.yul\":32260:32281   */\n      tag_468\n      jump\t// in\n    tag_732:\n        /* \"#utility.yul\":32253:32258   */\n      dup2\n        /* \"#utility.yul\":32250:32282   */\n      eq\n        /* \"#utility.yul\":32240:32300   */\n      tag_733\n      jumpi\n        /* \"#utility.yul\":32296:32297   */\n      0x00\n        /* \"#utility.yul\":32293:32294   */\n      dup1\n        /* \"#utility.yul\":32286:32298   */\n      revert\n        /* \"#utility.yul\":32240:32300   */\n    tag_733:\n        /* \"#utility.yul\":32190:32306   */\n      pop\n      jump\t// out\n        /* \"#utility.yul\":32312:32434   */\n    tag_409:\n        /* \"#utility.yul\":32385:32409   */\n      tag_735\n        /* \"#utility.yul\":32403:32408   */\n      dup2\n        /* \"#utility.yul\":32385:32409   */\n      tag_573\n      jump\t// in\n    tag_735:\n        /* \"#utility.yul\":32378:32383   */\n      dup2\n        /* \"#utility.yul\":32375:32410   */\n      eq\n        /* \"#utility.yul\":32365:32428   */\n      tag_736\n      jumpi\n        /* \"#utility.yul\":32424:32425   */\n      0x00\n        /* \"#utility.yul\":32421:32422   */\n      dup1\n        /* \"#utility.yul\":32414:32426   */\n      revert\n        /* \"#utility.yul\":32365:32428   */\n    tag_736:\n        /* \"#utility.yul\":32312:32434   */\n      pop\n      jump\t// out\n\n    auxdata: 0xa26469706673582212201f06b3bb70cbf479653ad61214e73d733c1669d7d0aa27885486081c3db5325c64736f6c63430008070033\n}\n",
				"bytecode": {
					"linkReferences": {},
					"object": "6080604052683635c9adc5dea0000060015569d3c21bcecceda10000006002556000600360006101000a81548160ff0219169083151502179055503480156200004757600080fd5b50620000686200005c6200006e60201b60201c565b6200007660201b60201c565b6200013a565b600033905090565b60008060009054906101000a900473ffffffffffffffffffffffffffffffffffffffff169050816000806101000a81548173ffffffffffffffffffffffffffffffffffffffff021916908373ffffffffffffffffffffffffffffffffffffffff1602179055508173ffffffffffffffffffffffffffffffffffffffff168173ffffffffffffffffffffffffffffffffffffffff167f8be0079c531659141344cd1fd0a4f28419497f9722a3daafe3b4186f6b6457e060405160405180910390a35050565b61328a806200014a6000396000f3fe6080604052600436106101355760003560e01c80638da5cb5b116100ab578063e36c723b1161006f578063e36c723b146103f3578063e7732d0a1461041c578063f188768414610447578063f2fde38b14610472578063f41322ac1461049b578063fd9a4e61146104d857610135565b80638da5cb5b14610343578063a694fc3a1461036e578063c089bd741461038a578063d21cb76e146103b3578063da906bf6146103dc57610135565b80634b0cd1f3116100fd5780634b0cd1f3146102475780634d307e3f1461028457806360246c88146102c157806360c18315146102ec578063715018a61461031557806373cf575a1461032c57610135565b80630d2f03741461013a57806314e1b95b1461017757806320867caa146101a257806334381749146101df5780633ccfd60b1461021c575b600080fd5b34801561014657600080fd5b50610161600480360381019061015c919061237e565b610501565b60405161016e9190612b12565b60405180910390f35b34801561018357600080fd5b5061018c61052f565b6040516101999190612b12565b60405180910390f35b3480156101ae57600080fd5b506101c960048036038101906101c491906122a1565b610535565b6040516101d691906128d8565b60405180910390f35b3480156101eb57600080fd5b50610206600480360381019061020191906122a1565b6105cc565b6040516102139190612b12565b60405180910390f35b34801561022857600080fd5b5061023161076d565b60405161023e91906128fa565b60405180910390f35b34801561025357600080fd5b5061026e600480360381019061026991906122a1565b61077f565b60405161027b9190612b12565b60405180910390f35b34801561029057600080fd5b506102ab60048036038101906102a691906122a1565b6107cb565b6040516102b89190612b12565b60405180910390f35b3480156102cd57600080fd5b506102d661089f565b6040516102e39190612ad5565b60405180910390f35b3480156102f857600080fd5b50610313600480360381019061030e91906122ce565b610a47565b005b34801561032157600080fd5b5061032a610d09565b005b34801561033857600080fd5b50610341610d1d565b005b34801561034f57600080fd5b506103586112d6565b60405161036591906127b8565b60405180910390f35b6103886004803603810190610383919061237e565b6112ff565b005b34801561039657600080fd5b506103b160048036038101906103ac919061237e565b6118a8565b005b3480156103bf57600080fd5b506103da60048036038101906103d5919061237e565b611987565b005b3480156103e857600080fd5b506103f1611999565b005b3480156103ff57600080fd5b5061041a6004803603810190610415919061237e565b611a7e565b005b34801561042857600080fd5b50610431611a90565b60405161043e91906128fa565b60405180910390f35b34801561045357600080fd5b5061045c611acb565b6040516104699190612b12565b60405180910390f35b34801561047e57600080fd5b50610499600480360381019061049491906122a1565b611ad1565b005b3480156104a757600080fd5b506104c260048036038101906104bd91906122a1565b611b55565b6040516104cf9190612af7565b60405180910390f35b3480156104e457600080fd5b506104ff60048036038101906104fa919061237e565b611bf8565b005b6000600660008381526020019081526020016000206000808152602001908152602001600020549050919050565b60025481565b6060600560008373ffffffffffffffffffffffffffffffffffffffff1673ffffffffffffffffffffffffffffffffffffffff1681526020019081526020016000208054806020026020016040519081016040528092919081815260200182805480156105c057602002820191906000526020600020905b8154815260200190600101908083116105ac575b50505050509050919050565b60008060b4426105dc9190612cca565b90506000600760008573ffffffffffffffffffffffffffffffffffffffff1673ffffffffffffffffffffffffffffffffffffffff1681526020019081526020016000206000808152602001908152602001600020600201548211156106a157600760008573ffffffffffffffffffffffffffffffffffffffff1673ffffffffffffffffffffffffffffffffffffffff1681526020019081526020016000206000808152602001908152602001600020600201548261069a9190612cca565b90506106ac565b600092505050610768565b6000606460046000815481106106c5576106c4612f02565b5b906000526020600020906006020160050154600760008873ffffffffffffffffffffffffffffffffffffffff1673ffffffffffffffffffffffffffffffffffffffff1681526020019081526020016000206000808152602001908152602001600020600101546107359190612c70565b61073f9190612c3f565b905060006301e1338083836107549190612c70565b61075e9190612c3f565b9050809450505050505b919050565b600061077833611d8d565b6001905090565b6000600560008373ffffffffffffffffffffffffffffffffffffffff1673ffffffffffffffffffffffffffffffffffffffff168152602001908152602001600020805490509050919050565b600080600760008473ffffffffffffffffffffffffffffffffffffffff1673ffffffffffffffffffffffffffffffffffffffff1681526020019081526020016000206000808152602001908152602001600020600101541461089557600760008373ffffffffffffffffffffffffffffffffffffffff1673ffffffffffffffffffffffffffffffffffffffff168152602001908152602001600020600080815260200190815260200160002060030154610884836105cc565b61088e9190612cca565b905061089a565b600090505b919050565b6108a76120ac565b60046000815481106108bc576108bb612f02565b5b90600052602060002090600602016040518060c00160405290816000820160009054906101000a900473ffffffffffffffffffffffffffffffffffffffff1673ffffffffffffffffffffffffffffffffffffffff1673ffffffffffffffffffffffffffffffffffffffff1681526020016001820160009054906101000a900473ffffffffffffffffffffffffffffffffffffffff1673ffffffffffffffffffffffffffffffffffffffff1673ffffffffffffffffffffffffffffffffffffffff1681526020016002820154815260200160038201805461099b90612d9a565b80601f01602080910402602001604051908101604052809291908181526020018280546109c790612d9a565b8015610a145780601f106109e957610100808354040283529160200191610a14565b820191906000526020600020905b8154815290600101906020018083116109f757829003601f168201915b505050505081526020016004820160009054906101000a900460ff16151515158152602001600582015481525050905090565b610a4f611f62565b600360009054906101000a900460ff1615610a9f576040517f08c379a0000000000000000000000000000000000000000000000000000000008152600401610a9690612a35565b60405180910390fd5b600073ffffffffffffffffffffffffffffffffffffffff168473ffffffffffffffffffffffffffffffffffffffff161415610b0f576040517f08c379a0000000000000000000000000000000000000000000000000000000008152600401610b06906129f5565b60405180910390fd5b600073ffffffffffffffffffffffffffffffffffffffff168373ffffffffffffffffffffffffffffffffffffffff161415610b7f576040517f08c379a0000000000000000000000000000000000000000000000000000000008152600401610b76906129d5565b60405180910390fd5b60046040518060c001604052808673ffffffffffffffffffffffffffffffffffffffff1681526020018573ffffffffffffffffffffffffffffffffffffffff1681526020016000815260200184815260200160001515815260200183815250908060018154018082558091505060019003906000526020600020906006020160009091909190915060008201518160000160006101000a81548173ffffffffffffffffffffffffffffffffffffffff021916908373ffffffffffffffffffffffffffffffffffffffff16021790555060208201518160010160006101000a81548173ffffffffffffffffffffffffffffffffffffffff021916908373ffffffffffffffffffffffffffffffffffffffff160217905550604082015181600201556060820151816003019080519060200190610cbb929190612110565b5060808201518160040160006101000a81548160ff02191690831515021790555060a0820151816005015550506001600360006101000a81548160ff02191690831515021790555050505050565b610d11611f62565b610d1b6000611fe0565b565b600760003373ffffffffffffffffffffffffffffffffffffffff1673ffffffffffffffffffffffffffffffffffffffff168152602001908152602001600020600080815260200190815260200160002060000160009054906101000a900460ff16610dbd576040517f08c379a0000000000000000000000000000000000000000000000000000000008152600401610db490612915565b60405180910390fd5b6000610dc8336107cb565b1115610dd857610dd733611d8d565b5b6004600081548110610ded57610dec612f02565b5b906000526020600020906006020160000160009054906101000a900473ffffffffffffffffffffffffffffffffffffffff1673ffffffffffffffffffffffffffffffffffffffff1663a9059cbb33600760003373ffffffffffffffffffffffffffffffffffffffff1673ffffffffffffffffffffffffffffffffffffffff1681526020019081526020016000206000808152602001908152602001600020600101546040518363ffffffff1660e01b8152600401610eac929190612833565b602060405180830381600087803b158015610ec657600080fd5b505af1158015610eda573d6000803e3d6000fd5b505050506040513d601f19601f82011682018060405250810190610efe9190612351565b507f54a9763035584fc4fcad1bc4e0e7a83f93e016f50ae32bd527530a77257393ee33600760003373ffffffffffffffffffffffffffffffffffffffff1673ffffffffffffffffffffffffffffffffffffffff16815260200190815260200160002060008081526020019081526020016000206001015442604051610f85939291906128a1565b60405180910390a1600760003373ffffffffffffffffffffffffffffffffffffffff1673ffffffffffffffffffffffffffffffffffffffff1681526020019081526020016000206000808152602001908152602001600020600101546004600081548110610ff657610ff5612f02565b5b906000526020600020906006020160020160008282546110169190612cca565b9250508190555060005b600560003373ffffffffffffffffffffffffffffffffffffffff1673ffffffffffffffffffffffffffffffffffffffff16815260200190815260200160002080549050811015611254576000600560003373ffffffffffffffffffffffffffffffffffffffff1673ffffffffffffffffffffffffffffffffffffffff16815260200190815260200160002082815481106110bd576110bc612f02565b5b9060005260206000200154141561124157600560003373ffffffffffffffffffffffffffffffffffffffff1673ffffffffffffffffffffffffffffffffffffffff1681526020019081526020016000206001600560003373ffffffffffffffffffffffffffffffffffffffff1673ffffffffffffffffffffffffffffffffffffffff1681526020019081526020016000208054905061115c9190612cca565b8154811061116d5761116c612f02565b5b9060005260206000200154600560003373ffffffffffffffffffffffffffffffffffffffff1673ffffffffffffffffffffffffffffffffffffffff16815260200190815260200160002082815481106111c9576111c8612f02565b5b9060005260206000200181905550600560003373ffffffffffffffffffffffffffffffffffffffff1673ffffffffffffffffffffffffffffffffffffffff16815260200190815260200160002080548061122657611225612ed3565b5b60019003818190600052602060002001600090559055611254565b808061124c90612dfd565b915050611020565b50600760003373ffffffffffffffffffffffffffffffffffffffff1673ffffffffffffffffffffffffffffffffffffffff1681526020019081526020016000206000808152602001908152602001600020600080820160006101000a81549060ff02191690556001820160009055600282016000905560038201600090555050565b60008060009054906101000a900473ffffffffffffffffffffffffffffffffffffffff16905090565b600760003373ffffffffffffffffffffffffffffffffffffffff1673ffffffffffffffffffffffffffffffffffffffff168152602001908152602001600020600080815260200190815260200160002060000160009054906101000a900460ff16156113a0576040517f08c379a000000000000000000000000000000000000000000000000000000000815260040161139790612a75565b60405180910390fd5b60046000815481106113b5576113b4612f02565b5b906000526020600020906006020160040160009054906101000a900460ff1615611414576040517f08c379a000000000000000000000000000000000000000000000000000000000815260040161140b906129b5565b60405180910390fd5b80600460008154811061142a57611429612f02565b5b906000526020600020906006020160000160009054906101000a900473ffffffffffffffffffffffffffffffffffffffff1673ffffffffffffffffffffffffffffffffffffffff1663dd62ed3e33306040518363ffffffff1660e01b81526004016114969291906127d3565b60206040518083038186803b1580156114ae57600080fd5b505afa1580156114c2573d6000803e3d6000fd5b505050506040513d601f19601f820116820180604052508101906114e691906123ab565b1015611527576040517f08c379a000000000000000000000000000000000000000000000000000000000815260040161151e90612935565b60405180910390fd5b600460008154811061153c5761153b612f02565b5b906000526020600020906006020160000160009054906101000a900473ffffffffffffffffffffffffffffffffffffffff1673ffffffffffffffffffffffffffffffffffffffff166323b872dd3330846040518463ffffffff1660e01b81526004016115aa939291906127fc565b602060405180830381600087803b1580156115c457600080fd5b505af11580156115d8573d6000803e3d6000fd5b505050506040513d601f19601f820116820180604052508101906115fc9190612351565b50600254816006600062015180426116149190612c3f565b815260200190815260200160002060008081526020019081526020016000205461163e9190612be9565b111561167f576040517f08c379a000000000000000000000000000000000000000000000000000000000815260040161167690612995565b60405180910390fd5b6001548110156116c4576040517f08c379a00000000000000000000000000000000000000000000000000000000081526004016116bb90612a55565b60405180910390fd5b60405180608001604052806001151581526020018281526020014281526020016000815250600760003373ffffffffffffffffffffffffffffffffffffffff1673ffffffffffffffffffffffffffffffffffffffff168152602001908152602001600020600080815260200190815260200160002060008201518160000160006101000a81548160ff0219169083151502179055506020820151816001015560408201518160020155606082015181600301559050508060066000620151804261178e9190612c3f565b8152602001908152602001600020600080815260200190815260200160002060008282546117bc9190612be9565b925050819055508060046000815481106117d9576117d8612f02565b5b906000526020600020906006020160020160008282546117f99190612be9565b92505081905550600560003373ffffffffffffffffffffffffffffffffffffffff1673ffffffffffffffffffffffffffffffffffffffff168152602001908152602001600020600090806001815401808255809150506001900390600052602060002001600090919091909150557ff556991011e831bcfac4f406d547e5e32cdd98267efab83935230d5f8d02c446338260004260405161189d949392919061285c565b60405180910390a150565b6118b0611f62565b60046000815481106118c5576118c4612f02565b5b906000526020600020906006020160010160009054906101000a900473ffffffffffffffffffffffffffffffffffffffff1673ffffffffffffffffffffffffffffffffffffffff1663a9059cbb30836040518363ffffffff1660e01b8152600401611931929190612833565b602060405180830381600087803b15801561194b57600080fd5b505af115801561195f573d6000803e3d6000fd5b505050506040513d601f19601f820116820180604052508101906119839190612351565b5050565b61198f611f62565b8060028190555050565b6119a1611f62565b600060046000815481106119b8576119b7612f02565b5b90600052602060002090600602016002015414611a0a576040517f08c379a0000000000000000000000000000000000000000000000000000000008152600401611a0190612ab5565b60405180910390fd5b6004600081548110611a1f57611a1e612f02565b5b906000526020600020906006020160040160009054906101000a900460ff16156004600081548110611a5457611a53612f02565b5b906000526020600020906006020160040160006101000a81548160ff021916908315150217905550565b611a86611f62565b8060018190555050565b60006004600081548110611aa757611aa6612f02565b5b906000526020600020906006020160040160009054906101000a900460ff16905090565b60015481565b611ad9611f62565b600073ffffffffffffffffffffffffffffffffffffffff168173ffffffffffffffffffffffffffffffffffffffff161415611b49576040517f08c379a0000000000000000000000000000000000000000000000000000000008152600401611b4090612975565b60405180910390fd5b611b5281611fe0565b50565b611b5d612196565b600760008373ffffffffffffffffffffffffffffffffffffffff1673ffffffffffffffffffffffffffffffffffffffff16815260200190815260200160002060008081526020019081526020016000206040518060800160405290816000820160009054906101000a900460ff1615151515815260200160018201548152602001600282015481526020016003820154815250509050919050565b611c00611f62565b600073ffffffffffffffffffffffffffffffffffffffff166004600081548110611c2d57611c2c612f02565b5b906000526020600020906006020160010160009054906101000a900473ffffffffffffffffffffffffffffffffffffffff1673ffffffffffffffffffffffffffffffffffffffff161415611cb6576040517f08c379a0000000000000000000000000000000000000000000000000000000008152600401611cad90612a95565b60405180910390fd5b6004600081548110611ccb57611cca612f02565b5b906000526020600020906006020160010160009054906101000a900473ffffffffffffffffffffffffffffffffffffffff1673ffffffffffffffffffffffffffffffffffffffff1663a9059cbb33836040518363ffffffff1660e01b8152600401611d37929190612833565b602060405180830381600087803b158015611d5157600080fd5b505af1158015611d65573d6000803e3d6000fd5b505050506040513d601f19601f82011682018060405250810190611d899190612351565b5050565b6000611d98826107cb565b11611dd8576040517f08c379a0000000000000000000000000000000000000000000000000000000008152600401611dcf90612955565b60405180910390fd5b6000611de3826107cb565b90506004600081548110611dfa57611df9612f02565b5b906000526020600020906006020160010160009054906101000a900473ffffffffffffffffffffffffffffffffffffffff1673ffffffffffffffffffffffffffffffffffffffff1663a9059cbb33836040518363ffffffff1660e01b8152600401611e66929190612833565b602060405180830381600087803b158015611e8057600080fd5b505af1158015611e94573d6000803e3d6000fd5b505050506040513d601f19601f82011682018060405250810190611eb89190612351565b5080600760008473ffffffffffffffffffffffffffffffffffffffff1673ffffffffffffffffffffffffffffffffffffffff16815260200190815260200160002060008081526020019081526020016000206003016000828254611f1c9190612be9565b925050819055507fdf273cb619d95419a9cd0ec88123a0538c85064229baa6363788f743fff90deb828242604051611f56939291906128a1565b60405180910390a15050565b611f6a6120a4565b73ffffffffffffffffffffffffffffffffffffffff16611f886112d6565b73ffffffffffffffffffffffffffffffffffffffff1614611fde576040517f08c379a0000000000000000000000000000000000000000000000000000000008152600401611fd590612a15565b60405180910390fd5b565b60008060009054906101000a900473ffffffffffffffffffffffffffffffffffffffff169050816000806101000a81548173ffffffffffffffffffffffffffffffffffffffff021916908373ffffffffffffffffffffffffffffffffffffffff1602179055508173ffffffffffffffffffffffffffffffffffffffff168173ffffffffffffffffffffffffffffffffffffffff167f8be0079c531659141344cd1fd0a4f28419497f9722a3daafe3b4186f6b6457e060405160405180910390a35050565b600033905090565b6040518060c00160405280600073ffffffffffffffffffffffffffffffffffffffff168152602001600073ffffffffffffffffffffffffffffffffffffffff1681526020016000815260200160608152602001600015158152602001600081525090565b82805461211c90612d9a565b90600052602060002090601f01602090048101928261213e5760008555612185565b82601f1061215757805160ff1916838001178555612185565b82800160010185558215612185579182015b82811115612184578251825591602001919060010190612169565b5b50905061219291906121c0565b5090565b60405180608001604052806000151581526020016000815260200160008152602001600081525090565b5b808211156121d95760008160009055506001016121c1565b5090565b60006121f06121eb84612b52565b612b2d565b90508281526020810184848401111561220c5761220b612f65565b5b612217848285612d58565b509392505050565b60008135905061222e8161320f565b92915050565b60008151905061224381613226565b92915050565b600082601f83011261225e5761225d612f60565b5b813561226e8482602086016121dd565b91505092915050565b6000813590506122868161323d565b92915050565b60008151905061229b8161323d565b92915050565b6000602082840312156122b7576122b6612f6f565b5b60006122c58482850161221f565b91505092915050565b600080600080608085870312156122e8576122e7612f6f565b5b60006122f68782880161221f565b94505060206123078782880161221f565b935050604085013567ffffffffffffffff81111561232857612327612f6a565b5b61233487828801612249565b925050606061234587828801612277565b91505092959194509250565b60006020828403121561236757612366612f6f565b5b600061237584828501612234565b91505092915050565b60006020828403121561239457612393612f6f565b5b60006123a284828501612277565b91505092915050565b6000602082840312156123c1576123c0612f6f565b5b60006123cf8482850161228c565b91505092915050565b60006123e4838361279a565b60208301905092915050565b6123f981612cfe565b82525050565b61240881612cfe565b82525050565b600061241982612b93565b6124238185612bb6565b935061242e83612b83565b8060005b8381101561245f57815161244688826123d8565b975061245183612ba9565b925050600181019050612432565b5085935050505092915050565b61247581612d10565b82525050565b61248481612d10565b82525050565b61249381612d46565b82525050565b60006124a482612b9e565b6124ae8185612bc7565b93506124be818560208601612d67565b6124c781612f74565b840191505092915050565b60006124df601283612bd8565b91506124ea82612f85565b602082019050919050565b6000612502601383612bd8565b915061250d82612fae565b602082019050919050565b6000612525601383612bd8565b915061253082612fd7565b602082019050919050565b6000612548602683612bd8565b915061255382613000565b604082019050919050565b600061256b601383612bd8565b91506125768261304f565b602082019050919050565b600061258e601c83612bd8565b915061259982613078565b602082019050919050565b60006125b1601683612bd8565b91506125bc826130a1565b602082019050919050565b60006125d4601583612bd8565b91506125df826130ca565b602082019050919050565b60006125f7602083612bd8565b9150612602826130f3565b602082019050919050565b600061261a600c83612bd8565b91506126258261311c565b602082019050919050565b600061263d602383612bd8565b915061264882613145565b604082019050919050565b6000612660601283612bd8565b915061266b82613194565b602082019050919050565b6000612683601d83612bd8565b915061268e826131bd565b602082019050919050565b60006126a6601383612bd8565b91506126b1826131e6565b602082019050919050565b600060c0830160008301516126d460008601826123f0565b5060208301516126e760208601826123f0565b5060408301516126fa604086018261279a565b50606083015184820360608601526127128282612499565b9150506080830151612727608086018261246c565b5060a083015161273a60a086018261279a565b508091505092915050565b60808201600082015161275b600085018261246c565b50602082015161276e602085018261279a565b506040820151612781604085018261279a565b506060820151612794606085018261279a565b50505050565b6127a381612d3c565b82525050565b6127b281612d3c565b82525050565b60006020820190506127cd60008301846123ff565b92915050565b60006040820190506127e860008301856123ff565b6127f560208301846123ff565b9392505050565b600060608201905061281160008301866123ff565b61281e60208301856123ff565b61282b60408301846127a9565b949350505050565b600060408201905061284860008301856123ff565b61285560208301846127a9565b9392505050565b600060808201905061287160008301876123ff565b61287e60208301866127a9565b61288b604083018561248a565b61289860608301846127a9565b95945050505050565b60006060820190506128b660008301866123ff565b6128c360208301856127a9565b6128d060408301846127a9565b949350505050565b600060208201905081810360008301526128f2818461240e565b905092915050565b600060208201905061290f600083018461247b565b92915050565b6000602082019050818103600083015261292e816124d2565b9050919050565b6000602082019050818103600083015261294e816124f5565b9050919050565b6000602082019050818103600083015261296e81612518565b9050919050565b6000602082019050818103600083015261298e8161253b565b9050919050565b600060208201905081810360008301526129ae8161255e565b9050919050565b600060208201905081810360008301526129ce81612581565b9050919050565b600060208201905081810360008301526129ee816125a4565b9050919050565b60006020820190508181036000830152612a0e816125c7565b9050919050565b60006020820190508181036000830152612a2e816125ea565b9050919050565b60006020820190508181036000830152612a4e8161260d565b9050919050565b60006020820190508181036000830152612a6e81612630565b9050919050565b60006020820190508181036000830152612a8e81612653565b9050919050565b60006020820190508181036000830152612aae81612676565b9050919050565b60006020820190508181036000830152612ace81612699565b9050919050565b60006020820190508181036000830152612aef81846126bc565b905092915050565b6000608082019050612b0c6000830184612745565b92915050565b6000602082019050612b2760008301846127a9565b92915050565b6000612b37612b48565b9050612b438282612dcc565b919050565b6000604051905090565b600067ffffffffffffffff821115612b6d57612b6c612f31565b5b612b7682612f74565b9050602081019050919050565b6000819050602082019050919050565b600081519050919050565b600081519050919050565b6000602082019050919050565b600082825260208201905092915050565b600082825260208201905092915050565b600082825260208201905092915050565b6000612bf482612d3c565b9150612bff83612d3c565b9250827fffffffffffffffffffffffffffffffffffffffffffffffffffffffffffffffff03821115612c3457612c33612e46565b5b828201905092915050565b6000612c4a82612d3c565b9150612c5583612d3c565b925082612c6557612c64612e75565b5b828204905092915050565b6000612c7b82612d3c565b9150612c8683612d3c565b9250817fffffffffffffffffffffffffffffffffffffffffffffffffffffffffffffffff0483118215151615612cbf57612cbe612e46565b5b828202905092915050565b6000612cd582612d3c565b9150612ce083612d3c565b925082821015612cf357612cf2612e46565b5b828203905092915050565b6000612d0982612d1c565b9050919050565b60008115159050919050565b600073ffffffffffffffffffffffffffffffffffffffff82169050919050565b6000819050919050565b6000612d5182612d3c565b9050919050565b82818337600083830152505050565b60005b83811015612d85578082015181840152602081019050612d6a565b83811115612d94576000848401525b50505050565b60006002820490506001821680612db257607f821691505b60208210811415612dc657612dc5612ea4565b5b50919050565b612dd582612f74565b810181811067ffffffffffffffff82111715612df457612df3612f31565b5b80604052505050565b6000612e0882612d3c565b91507fffffffffffffffffffffffffffffffffffffffffffffffffffffffffffffffff821415612e3b57612e3a612e46565b5b600182019050919050565b7f4e487b7100000000000000000000000000000000000000000000000000000000600052601160045260246000fd5b7f4e487b7100000000000000000000000000000000000000000000000000000000600052601260045260246000fd5b7f4e487b7100000000000000000000000000000000000000000000000000000000600052602260045260246000fd5b7f4e487b7100000000000000000000000000000000000000000000000000000000600052603160045260246000fd5b7f4e487b7100000000000000000000000000000000000000000000000000000000600052603260045260246000fd5b7f4e487b7100000000000000000000000000000000000000000000000000000000600052604160045260246000fd5b600080fd5b600080fd5b600080fd5b600080fd5b6000601f19601f8301169050919050565b7f596f7520617265206e6f74207374616b65640000000000000000000000000000600082015250565b7f546f6b656e73206e6f7420617070726f76656400000000000000000000000000600082015250565b7f4e6f7468696e6720746f20776974686472617700000000000000000000000000600082015250565b7f4f776e61626c653a206e6577206f776e657220697320746865207a65726f206160008201527f6464726573730000000000000000000000000000000000000000000000000000602082015250565b7f4461696c79206c696d6974207265616368656400000000000000000000000000600082015250565b7f596f752063616e2774207374616b6520696e207468697320706f6f6c00000000600082015250565b7f496e76616c696420726577617264206164647265737300000000000000000000600082015250565b7f496e76616c6964207374616b6520616464726573730000000000000000000000600082015250565b7f4f776e61626c653a2063616c6c6572206973206e6f7420746865206f776e6572600082015250565b7f506f6f6c20657869737473210000000000000000000000000000000000000000600082015250565b7f5374616b696e6720616d6f756e74206973206c657373207468656e206d696e6960008201527f6d756d0000000000000000000000000000000000000000000000000000000000602082015250565b7f596f7520616c7265616479207374616b65640000000000000000000000000000600082015250565b7f596f752063616e2774207472616e736665722074686520746f6b656e73000000600082015250565b7f43616e6e6f742063616e63656c20706f6f6c2100000000000000000000000000600082015250565b61321881612cfe565b811461322357600080fd5b50565b61322f81612d10565b811461323a57600080fd5b50565b61324681612d3c565b811461325157600080fd5b5056fea26469706673582212201f06b3bb70cbf479653ad61214e73d733c1669d7d0aa27885486081c3db5325c64736f6c63430008070033",
					"opcodes": "PUSH1 0x80 PUSH1 0x40 MSTORE PUSH9 0x3635C9ADC5DEA00000 PUSH1 0x1 SSTORE PUSH10 0xD3C21BCECCEDA1000000 PUSH1 0x2 SSTORE PUSH1 0x0 PUSH1 0x3 PUSH1 0x0 PUSH2 0x100 EXP DUP2 SLOAD DUP2 PUSH1 0xFF MUL NOT AND SWAP1 DUP4 ISZERO ISZERO MUL OR SWAP1 SSTORE POP CALLVALUE DUP1 ISZERO PUSH3 0x47 JUMPI PUSH1 0x0 DUP1 REVERT JUMPDEST POP PUSH3 0x68 PUSH3 0x5C PUSH3 0x6E PUSH1 0x20 SHL PUSH1 0x20 SHR JUMP JUMPDEST PUSH3 0x76 PUSH1 0x20 SHL PUSH1 0x20 SHR JUMP JUMPDEST PUSH3 0x13A JUMP JUMPDEST PUSH1 0x0 CALLER SWAP1 POP SWAP1 JUMP JUMPDEST PUSH1 0x0 DUP1 PUSH1 0x0 SWAP1 SLOAD SWAP1 PUSH2 0x100 EXP SWAP1 DIV PUSH20 0xFFFFFFFFFFFFFFFFFFFFFFFFFFFFFFFFFFFFFFFF AND SWAP1 POP DUP2 PUSH1 0x0 DUP1 PUSH2 0x100 EXP DUP2 SLOAD DUP2 PUSH20 0xFFFFFFFFFFFFFFFFFFFFFFFFFFFFFFFFFFFFFFFF MUL NOT AND SWAP1 DUP4 PUSH20 0xFFFFFFFFFFFFFFFFFFFFFFFFFFFFFFFFFFFFFFFF AND MUL OR SWAP1 SSTORE POP DUP2 PUSH20 0xFFFFFFFFFFFFFFFFFFFFFFFFFFFFFFFFFFFFFFFF AND DUP2 PUSH20 0xFFFFFFFFFFFFFFFFFFFFFFFFFFFFFFFFFFFFFFFF AND PUSH32 0x8BE0079C531659141344CD1FD0A4F28419497F9722A3DAAFE3B4186F6B6457E0 PUSH1 0x40 MLOAD PUSH1 0x40 MLOAD DUP1 SWAP2 SUB SWAP1 LOG3 POP POP JUMP JUMPDEST PUSH2 0x328A DUP1 PUSH3 0x14A PUSH1 0x0 CODECOPY PUSH1 0x0 RETURN INVALID PUSH1 0x80 PUSH1 0x40 MSTORE PUSH1 0x4 CALLDATASIZE LT PUSH2 0x135 JUMPI PUSH1 0x0 CALLDATALOAD PUSH1 0xE0 SHR DUP1 PUSH4 0x8DA5CB5B GT PUSH2 0xAB JUMPI DUP1 PUSH4 0xE36C723B GT PUSH2 0x6F JUMPI DUP1 PUSH4 0xE36C723B EQ PUSH2 0x3F3 JUMPI DUP1 PUSH4 0xE7732D0A EQ PUSH2 0x41C JUMPI DUP1 PUSH4 0xF1887684 EQ PUSH2 0x447 JUMPI DUP1 PUSH4 0xF2FDE38B EQ PUSH2 0x472 JUMPI DUP1 PUSH4 0xF41322AC EQ PUSH2 0x49B JUMPI DUP1 PUSH4 0xFD9A4E61 EQ PUSH2 0x4D8 JUMPI PUSH2 0x135 JUMP JUMPDEST DUP1 PUSH4 0x8DA5CB5B EQ PUSH2 0x343 JUMPI DUP1 PUSH4 0xA694FC3A EQ PUSH2 0x36E JUMPI DUP1 PUSH4 0xC089BD74 EQ PUSH2 0x38A JUMPI DUP1 PUSH4 0xD21CB76E EQ PUSH2 0x3B3 JUMPI DUP1 PUSH4 0xDA906BF6 EQ PUSH2 0x3DC JUMPI PUSH2 0x135 JUMP JUMPDEST DUP1 PUSH4 0x4B0CD1F3 GT PUSH2 0xFD JUMPI DUP1 PUSH4 0x4B0CD1F3 EQ PUSH2 0x247 JUMPI DUP1 PUSH4 0x4D307E3F EQ PUSH2 0x284 JUMPI DUP1 PUSH4 0x60246C88 EQ PUSH2 0x2C1 JUMPI DUP1 PUSH4 0x60C18315 EQ PUSH2 0x2EC JUMPI DUP1 PUSH4 0x715018A6 EQ PUSH2 0x315 JUMPI DUP1 PUSH4 0x73CF575A EQ PUSH2 0x32C JUMPI PUSH2 0x135 JUMP JUMPDEST DUP1 PUSH4 0xD2F0374 EQ PUSH2 0x13A JUMPI DUP1 PUSH4 0x14E1B95B EQ PUSH2 0x177 JUMPI DUP1 PUSH4 0x20867CAA EQ PUSH2 0x1A2 JUMPI DUP1 PUSH4 0x34381749 EQ PUSH2 0x1DF JUMPI DUP1 PUSH4 0x3CCFD60B EQ PUSH2 0x21C JUMPI JUMPDEST PUSH1 0x0 DUP1 REVERT JUMPDEST CALLVALUE DUP1 ISZERO PUSH2 0x146 JUMPI PUSH1 0x0 DUP1 REVERT JUMPDEST POP PUSH2 0x161 PUSH1 0x4 DUP1 CALLDATASIZE SUB DUP2 ADD SWAP1 PUSH2 0x15C SWAP2 SWAP1 PUSH2 0x237E JUMP JUMPDEST PUSH2 0x501 JUMP JUMPDEST PUSH1 0x40 MLOAD PUSH2 0x16E SWAP2 SWAP1 PUSH2 0x2B12 JUMP JUMPDEST PUSH1 0x40 MLOAD DUP1 SWAP2 SUB SWAP1 RETURN JUMPDEST CALLVALUE DUP1 ISZERO PUSH2 0x183 JUMPI PUSH1 0x0 DUP1 REVERT JUMPDEST POP PUSH2 0x18C PUSH2 0x52F JUMP JUMPDEST PUSH1 0x40 MLOAD PUSH2 0x199 SWAP2 SWAP1 PUSH2 0x2B12 JUMP JUMPDEST PUSH1 0x40 MLOAD DUP1 SWAP2 SUB SWAP1 RETURN JUMPDEST CALLVALUE DUP1 ISZERO PUSH2 0x1AE JUMPI PUSH1 0x0 DUP1 REVERT JUMPDEST POP PUSH2 0x1C9 PUSH1 0x4 DUP1 CALLDATASIZE SUB DUP2 ADD SWAP1 PUSH2 0x1C4 SWAP2 SWAP1 PUSH2 0x22A1 JUMP JUMPDEST PUSH2 0x535 JUMP JUMPDEST PUSH1 0x40 MLOAD PUSH2 0x1D6 SWAP2 SWAP1 PUSH2 0x28D8 JUMP JUMPDEST PUSH1 0x40 MLOAD DUP1 SWAP2 SUB SWAP1 RETURN JUMPDEST CALLVALUE DUP1 ISZERO PUSH2 0x1EB JUMPI PUSH1 0x0 DUP1 REVERT JUMPDEST POP PUSH2 0x206 PUSH1 0x4 DUP1 CALLDATASIZE SUB DUP2 ADD SWAP1 PUSH2 0x201 SWAP2 SWAP1 PUSH2 0x22A1 JUMP JUMPDEST PUSH2 0x5CC JUMP JUMPDEST PUSH1 0x40 MLOAD PUSH2 0x213 SWAP2 SWAP1 PUSH2 0x2B12 JUMP JUMPDEST PUSH1 0x40 MLOAD DUP1 SWAP2 SUB SWAP1 RETURN JUMPDEST CALLVALUE DUP1 ISZERO PUSH2 0x228 JUMPI PUSH1 0x0 DUP1 REVERT JUMPDEST POP PUSH2 0x231 PUSH2 0x76D JUMP JUMPDEST PUSH1 0x40 MLOAD PUSH2 0x23E SWAP2 SWAP1 PUSH2 0x28FA JUMP JUMPDEST PUSH1 0x40 MLOAD DUP1 SWAP2 SUB SWAP1 RETURN JUMPDEST CALLVALUE DUP1 ISZERO PUSH2 0x253 JUMPI PUSH1 0x0 DUP1 REVERT JUMPDEST POP PUSH2 0x26E PUSH1 0x4 DUP1 CALLDATASIZE SUB DUP2 ADD SWAP1 PUSH2 0x269 SWAP2 SWAP1 PUSH2 0x22A1 JUMP JUMPDEST PUSH2 0x77F JUMP JUMPDEST PUSH1 0x40 MLOAD PUSH2 0x27B SWAP2 SWAP1 PUSH2 0x2B12 JUMP JUMPDEST PUSH1 0x40 MLOAD DUP1 SWAP2 SUB SWAP1 RETURN JUMPDEST CALLVALUE DUP1 ISZERO PUSH2 0x290 JUMPI PUSH1 0x0 DUP1 REVERT JUMPDEST POP PUSH2 0x2AB PUSH1 0x4 DUP1 CALLDATASIZE SUB DUP2 ADD SWAP1 PUSH2 0x2A6 SWAP2 SWAP1 PUSH2 0x22A1 JUMP JUMPDEST PUSH2 0x7CB JUMP JUMPDEST PUSH1 0x40 MLOAD PUSH2 0x2B8 SWAP2 SWAP1 PUSH2 0x2B12 JUMP JUMPDEST PUSH1 0x40 MLOAD DUP1 SWAP2 SUB SWAP1 RETURN JUMPDEST CALLVALUE DUP1 ISZERO PUSH2 0x2CD JUMPI PUSH1 0x0 DUP1 REVERT JUMPDEST POP PUSH2 0x2D6 PUSH2 0x89F JUMP JUMPDEST PUSH1 0x40 MLOAD PUSH2 0x2E3 SWAP2 SWAP1 PUSH2 0x2AD5 JUMP JUMPDEST PUSH1 0x40 MLOAD DUP1 SWAP2 SUB SWAP1 RETURN JUMPDEST CALLVALUE DUP1 ISZERO PUSH2 0x2F8 JUMPI PUSH1 0x0 DUP1 REVERT JUMPDEST POP PUSH2 0x313 PUSH1 0x4 DUP1 CALLDATASIZE SUB DUP2 ADD SWAP1 PUSH2 0x30E SWAP2 SWAP1 PUSH2 0x22CE JUMP JUMPDEST PUSH2 0xA47 JUMP JUMPDEST STOP JUMPDEST CALLVALUE DUP1 ISZERO PUSH2 0x321 JUMPI PUSH1 0x0 DUP1 REVERT JUMPDEST POP PUSH2 0x32A PUSH2 0xD09 JUMP JUMPDEST STOP JUMPDEST CALLVALUE DUP1 ISZERO PUSH2 0x338 JUMPI PUSH1 0x0 DUP1 REVERT JUMPDEST POP PUSH2 0x341 PUSH2 0xD1D JUMP JUMPDEST STOP JUMPDEST CALLVALUE DUP1 ISZERO PUSH2 0x34F JUMPI PUSH1 0x0 DUP1 REVERT JUMPDEST POP PUSH2 0x358 PUSH2 0x12D6 JUMP JUMPDEST PUSH1 0x40 MLOAD PUSH2 0x365 SWAP2 SWAP1 PUSH2 0x27B8 JUMP JUMPDEST PUSH1 0x40 MLOAD DUP1 SWAP2 SUB SWAP1 RETURN JUMPDEST PUSH2 0x388 PUSH1 0x4 DUP1 CALLDATASIZE SUB DUP2 ADD SWAP1 PUSH2 0x383 SWAP2 SWAP1 PUSH2 0x237E JUMP JUMPDEST PUSH2 0x12FF JUMP JUMPDEST STOP JUMPDEST CALLVALUE DUP1 ISZERO PUSH2 0x396 JUMPI PUSH1 0x0 DUP1 REVERT JUMPDEST POP PUSH2 0x3B1 PUSH1 0x4 DUP1 CALLDATASIZE SUB DUP2 ADD SWAP1 PUSH2 0x3AC SWAP2 SWAP1 PUSH2 0x237E JUMP JUMPDEST PUSH2 0x18A8 JUMP JUMPDEST STOP JUMPDEST CALLVALUE DUP1 ISZERO PUSH2 0x3BF JUMPI PUSH1 0x0 DUP1 REVERT JUMPDEST POP PUSH2 0x3DA PUSH1 0x4 DUP1 CALLDATASIZE SUB DUP2 ADD SWAP1 PUSH2 0x3D5 SWAP2 SWAP1 PUSH2 0x237E JUMP JUMPDEST PUSH2 0x1987 JUMP JUMPDEST STOP JUMPDEST CALLVALUE DUP1 ISZERO PUSH2 0x3E8 JUMPI PUSH1 0x0 DUP1 REVERT JUMPDEST POP PUSH2 0x3F1 PUSH2 0x1999 JUMP JUMPDEST STOP JUMPDEST CALLVALUE DUP1 ISZERO PUSH2 0x3FF JUMPI PUSH1 0x0 DUP1 REVERT JUMPDEST POP PUSH2 0x41A PUSH1 0x4 DUP1 CALLDATASIZE SUB DUP2 ADD SWAP1 PUSH2 0x415 SWAP2 SWAP1 PUSH2 0x237E JUMP JUMPDEST PUSH2 0x1A7E JUMP JUMPDEST STOP JUMPDEST CALLVALUE DUP1 ISZERO PUSH2 0x428 JUMPI PUSH1 0x0 DUP1 REVERT JUMPDEST POP PUSH2 0x431 PUSH2 0x1A90 JUMP JUMPDEST PUSH1 0x40 MLOAD PUSH2 0x43E SWAP2 SWAP1 PUSH2 0x28FA JUMP JUMPDEST PUSH1 0x40 MLOAD DUP1 SWAP2 SUB SWAP1 RETURN JUMPDEST CALLVALUE DUP1 ISZERO PUSH2 0x453 JUMPI PUSH1 0x0 DUP1 REVERT JUMPDEST POP PUSH2 0x45C PUSH2 0x1ACB JUMP JUMPDEST PUSH1 0x40 MLOAD PUSH2 0x469 SWAP2 SWAP1 PUSH2 0x2B12 JUMP JUMPDEST PUSH1 0x40 MLOAD DUP1 SWAP2 SUB SWAP1 RETURN JUMPDEST CALLVALUE DUP1 ISZERO PUSH2 0x47E JUMPI PUSH1 0x0 DUP1 REVERT JUMPDEST POP PUSH2 0x499 PUSH1 0x4 DUP1 CALLDATASIZE SUB DUP2 ADD SWAP1 PUSH2 0x494 SWAP2 SWAP1 PUSH2 0x22A1 JUMP JUMPDEST PUSH2 0x1AD1 JUMP JUMPDEST STOP JUMPDEST CALLVALUE DUP1 ISZERO PUSH2 0x4A7 JUMPI PUSH1 0x0 DUP1 REVERT JUMPDEST POP PUSH2 0x4C2 PUSH1 0x4 DUP1 CALLDATASIZE SUB DUP2 ADD SWAP1 PUSH2 0x4BD SWAP2 SWAP1 PUSH2 0x22A1 JUMP JUMPDEST PUSH2 0x1B55 JUMP JUMPDEST PUSH1 0x40 MLOAD PUSH2 0x4CF SWAP2 SWAP1 PUSH2 0x2AF7 JUMP JUMPDEST PUSH1 0x40 MLOAD DUP1 SWAP2 SUB SWAP1 RETURN JUMPDEST CALLVALUE DUP1 ISZERO PUSH2 0x4E4 JUMPI PUSH1 0x0 DUP1 REVERT JUMPDEST POP PUSH2 0x4FF PUSH1 0x4 DUP1 CALLDATASIZE SUB DUP2 ADD SWAP1 PUSH2 0x4FA SWAP2 SWAP1 PUSH2 0x237E JUMP JUMPDEST PUSH2 0x1BF8 JUMP JUMPDEST STOP JUMPDEST PUSH1 0x0 PUSH1 0x6 PUSH1 0x0 DUP4 DUP2 MSTORE PUSH1 0x20 ADD SWAP1 DUP2 MSTORE PUSH1 0x20 ADD PUSH1 0x0 KECCAK256 PUSH1 0x0 DUP1 DUP2 MSTORE PUSH1 0x20 ADD SWAP1 DUP2 MSTORE PUSH1 0x20 ADD PUSH1 0x0 KECCAK256 SLOAD SWAP1 POP SWAP2 SWAP1 POP JUMP JUMPDEST PUSH1 0x2 SLOAD DUP2 JUMP JUMPDEST PUSH1 0x60 PUSH1 0x5 PUSH1 0x0 DUP4 PUSH20 0xFFFFFFFFFFFFFFFFFFFFFFFFFFFFFFFFFFFFFFFF AND PUSH20 0xFFFFFFFFFFFFFFFFFFFFFFFFFFFFFFFFFFFFFFFF AND DUP2 MSTORE PUSH1 0x20 ADD SWAP1 DUP2 MSTORE PUSH1 0x20 ADD PUSH1 0x0 KECCAK256 DUP1 SLOAD DUP1 PUSH1 0x20 MUL PUSH1 0x20 ADD PUSH1 0x40 MLOAD SWAP1 DUP2 ADD PUSH1 0x40 MSTORE DUP1 SWAP3 SWAP2 SWAP1 DUP2 DUP2 MSTORE PUSH1 0x20 ADD DUP3 DUP1 SLOAD DUP1 ISZERO PUSH2 0x5C0 JUMPI PUSH1 0x20 MUL DUP3 ADD SWAP2 SWAP1 PUSH1 0x0 MSTORE PUSH1 0x20 PUSH1 0x0 KECCAK256 SWAP1 JUMPDEST DUP2 SLOAD DUP2 MSTORE PUSH1 0x20 ADD SWAP1 PUSH1 0x1 ADD SWAP1 DUP1 DUP4 GT PUSH2 0x5AC JUMPI JUMPDEST POP POP POP POP POP SWAP1 POP SWAP2 SWAP1 POP JUMP JUMPDEST PUSH1 0x0 DUP1 PUSH1 0xB4 TIMESTAMP PUSH2 0x5DC SWAP2 SWAP1 PUSH2 0x2CCA JUMP JUMPDEST SWAP1 POP PUSH1 0x0 PUSH1 0x7 PUSH1 0x0 DUP6 PUSH20 0xFFFFFFFFFFFFFFFFFFFFFFFFFFFFFFFFFFFFFFFF AND PUSH20 0xFFFFFFFFFFFFFFFFFFFFFFFFFFFFFFFFFFFFFFFF AND DUP2 MSTORE PUSH1 0x20 ADD SWAP1 DUP2 MSTORE PUSH1 0x20 ADD PUSH1 0x0 KECCAK256 PUSH1 0x0 DUP1 DUP2 MSTORE PUSH1 0x20 ADD SWAP1 DUP2 MSTORE PUSH1 0x20 ADD PUSH1 0x0 KECCAK256 PUSH1 0x2 ADD SLOAD DUP3 GT ISZERO PUSH2 0x6A1 JUMPI PUSH1 0x7 PUSH1 0x0 DUP6 PUSH20 0xFFFFFFFFFFFFFFFFFFFFFFFFFFFFFFFFFFFFFFFF AND PUSH20 0xFFFFFFFFFFFFFFFFFFFFFFFFFFFFFFFFFFFFFFFF AND DUP2 MSTORE PUSH1 0x20 ADD SWAP1 DUP2 MSTORE PUSH1 0x20 ADD PUSH1 0x0 KECCAK256 PUSH1 0x0 DUP1 DUP2 MSTORE PUSH1 0x20 ADD SWAP1 DUP2 MSTORE PUSH1 0x20 ADD PUSH1 0x0 KECCAK256 PUSH1 0x2 ADD SLOAD DUP3 PUSH2 0x69A SWAP2 SWAP1 PUSH2 0x2CCA JUMP JUMPDEST SWAP1 POP PUSH2 0x6AC JUMP JUMPDEST PUSH1 0x0 SWAP3 POP POP POP PUSH2 0x768 JUMP JUMPDEST PUSH1 0x0 PUSH1 0x64 PUSH1 0x4 PUSH1 0x0 DUP2 SLOAD DUP2 LT PUSH2 0x6C5 JUMPI PUSH2 0x6C4 PUSH2 0x2F02 JUMP JUMPDEST JUMPDEST SWAP1 PUSH1 0x0 MSTORE PUSH1 0x20 PUSH1 0x0 KECCAK256 SWAP1 PUSH1 0x6 MUL ADD PUSH1 0x5 ADD SLOAD PUSH1 0x7 PUSH1 0x0 DUP9 PUSH20 0xFFFFFFFFFFFFFFFFFFFFFFFFFFFFFFFFFFFFFFFF AND PUSH20 0xFFFFFFFFFFFFFFFFFFFFFFFFFFFFFFFFFFFFFFFF AND DUP2 MSTORE PUSH1 0x20 ADD SWAP1 DUP2 MSTORE PUSH1 0x20 ADD PUSH1 0x0 KECCAK256 PUSH1 0x0 DUP1 DUP2 MSTORE PUSH1 0x20 ADD SWAP1 DUP2 MSTORE PUSH1 0x20 ADD PUSH1 0x0 KECCAK256 PUSH1 0x1 ADD SLOAD PUSH2 0x735 SWAP2 SWAP1 PUSH2 0x2C70 JUMP JUMPDEST PUSH2 0x73F SWAP2 SWAP1 PUSH2 0x2C3F JUMP JUMPDEST SWAP1 POP PUSH1 0x0 PUSH4 0x1E13380 DUP4 DUP4 PUSH2 0x754 SWAP2 SWAP1 PUSH2 0x2C70 JUMP JUMPDEST PUSH2 0x75E SWAP2 SWAP1 PUSH2 0x2C3F JUMP JUMPDEST SWAP1 POP DUP1 SWAP5 POP POP POP POP POP JUMPDEST SWAP2 SWAP1 POP JUMP JUMPDEST PUSH1 0x0 PUSH2 0x778 CALLER PUSH2 0x1D8D JUMP JUMPDEST PUSH1 0x1 SWAP1 POP SWAP1 JUMP JUMPDEST PUSH1 0x0 PUSH1 0x5 PUSH1 0x0 DUP4 PUSH20 0xFFFFFFFFFFFFFFFFFFFFFFFFFFFFFFFFFFFFFFFF AND PUSH20 0xFFFFFFFFFFFFFFFFFFFFFFFFFFFFFFFFFFFFFFFF AND DUP2 MSTORE PUSH1 0x20 ADD SWAP1 DUP2 MSTORE PUSH1 0x20 ADD PUSH1 0x0 KECCAK256 DUP1 SLOAD SWAP1 POP SWAP1 POP SWAP2 SWAP1 POP JUMP JUMPDEST PUSH1 0x0 DUP1 PUSH1 0x7 PUSH1 0x0 DUP5 PUSH20 0xFFFFFFFFFFFFFFFFFFFFFFFFFFFFFFFFFFFFFFFF AND PUSH20 0xFFFFFFFFFFFFFFFFFFFFFFFFFFFFFFFFFFFFFFFF AND DUP2 MSTORE PUSH1 0x20 ADD SWAP1 DUP2 MSTORE PUSH1 0x20 ADD PUSH1 0x0 KECCAK256 PUSH1 0x0 DUP1 DUP2 MSTORE PUSH1 0x20 ADD SWAP1 DUP2 MSTORE PUSH1 0x20 ADD PUSH1 0x0 KECCAK256 PUSH1 0x1 ADD SLOAD EQ PUSH2 0x895 JUMPI PUSH1 0x7 PUSH1 0x0 DUP4 PUSH20 0xFFFFFFFFFFFFFFFFFFFFFFFFFFFFFFFFFFFFFFFF AND PUSH20 0xFFFFFFFFFFFFFFFFFFFFFFFFFFFFFFFFFFFFFFFF AND DUP2 MSTORE PUSH1 0x20 ADD SWAP1 DUP2 MSTORE PUSH1 0x20 ADD PUSH1 0x0 KECCAK256 PUSH1 0x0 DUP1 DUP2 MSTORE PUSH1 0x20 ADD SWAP1 DUP2 MSTORE PUSH1 0x20 ADD PUSH1 0x0 KECCAK256 PUSH1 0x3 ADD SLOAD PUSH2 0x884 DUP4 PUSH2 0x5CC JUMP JUMPDEST PUSH2 0x88E SWAP2 SWAP1 PUSH2 0x2CCA JUMP JUMPDEST SWAP1 POP PUSH2 0x89A JUMP JUMPDEST PUSH1 0x0 SWAP1 POP JUMPDEST SWAP2 SWAP1 POP JUMP JUMPDEST PUSH2 0x8A7 PUSH2 0x20AC JUMP JUMPDEST PUSH1 0x4 PUSH1 0x0 DUP2 SLOAD DUP2 LT PUSH2 0x8BC JUMPI PUSH2 0x8BB PUSH2 0x2F02 JUMP JUMPDEST JUMPDEST SWAP1 PUSH1 0x0 MSTORE PUSH1 0x20 PUSH1 0x0 KECCAK256 SWAP1 PUSH1 0x6 MUL ADD PUSH1 0x40 MLOAD DUP1 PUSH1 0xC0 ADD PUSH1 0x40 MSTORE SWAP1 DUP2 PUSH1 0x0 DUP3 ADD PUSH1 0x0 SWAP1 SLOAD SWAP1 PUSH2 0x100 EXP SWAP1 DIV PUSH20 0xFFFFFFFFFFFFFFFFFFFFFFFFFFFFFFFFFFFFFFFF AND PUSH20 0xFFFFFFFFFFFFFFFFFFFFFFFFFFFFFFFFFFFFFFFF AND PUSH20 0xFFFFFFFFFFFFFFFFFFFFFFFFFFFFFFFFFFFFFFFF AND DUP2 MSTORE PUSH1 0x20 ADD PUSH1 0x1 DUP3 ADD PUSH1 0x0 SWAP1 SLOAD SWAP1 PUSH2 0x100 EXP SWAP1 DIV PUSH20 0xFFFFFFFFFFFFFFFFFFFFFFFFFFFFFFFFFFFFFFFF AND PUSH20 0xFFFFFFFFFFFFFFFFFFFFFFFFFFFFFFFFFFFFFFFF AND PUSH20 0xFFFFFFFFFFFFFFFFFFFFFFFFFFFFFFFFFFFFFFFF AND DUP2 MSTORE PUSH1 0x20 ADD PUSH1 0x2 DUP3 ADD SLOAD DUP2 MSTORE PUSH1 0x20 ADD PUSH1 0x3 DUP3 ADD DUP1 SLOAD PUSH2 0x99B SWAP1 PUSH2 0x2D9A JUMP JUMPDEST DUP1 PUSH1 0x1F ADD PUSH1 0x20 DUP1 SWAP2 DIV MUL PUSH1 0x20 ADD PUSH1 0x40 MLOAD SWAP1 DUP2 ADD PUSH1 0x40 MSTORE DUP1 SWAP3 SWAP2 SWAP1 DUP2 DUP2 MSTORE PUSH1 0x20 ADD DUP3 DUP1 SLOAD PUSH2 0x9C7 SWAP1 PUSH2 0x2D9A JUMP JUMPDEST DUP1 ISZERO PUSH2 0xA14 JUMPI DUP1 PUSH1 0x1F LT PUSH2 0x9E9 JUMPI PUSH2 0x100 DUP1 DUP4 SLOAD DIV MUL DUP4 MSTORE SWAP2 PUSH1 0x20 ADD SWAP2 PUSH2 0xA14 JUMP JUMPDEST DUP3 ADD SWAP2 SWAP1 PUSH1 0x0 MSTORE PUSH1 0x20 PUSH1 0x0 KECCAK256 SWAP1 JUMPDEST DUP2 SLOAD DUP2 MSTORE SWAP1 PUSH1 0x1 ADD SWAP1 PUSH1 0x20 ADD DUP1 DUP4 GT PUSH2 0x9F7 JUMPI DUP3 SWAP1 SUB PUSH1 0x1F AND DUP3 ADD SWAP2 JUMPDEST POP POP POP POP POP DUP2 MSTORE PUSH1 0x20 ADD PUSH1 0x4 DUP3 ADD PUSH1 0x0 SWAP1 SLOAD SWAP1 PUSH2 0x100 EXP SWAP1 DIV PUSH1 0xFF AND ISZERO ISZERO ISZERO ISZERO DUP2 MSTORE PUSH1 0x20 ADD PUSH1 0x5 DUP3 ADD SLOAD DUP2 MSTORE POP POP SWAP1 POP SWAP1 JUMP JUMPDEST PUSH2 0xA4F PUSH2 0x1F62 JUMP JUMPDEST PUSH1 0x3 PUSH1 0x0 SWAP1 SLOAD SWAP1 PUSH2 0x100 EXP SWAP1 DIV PUSH1 0xFF AND ISZERO PUSH2 0xA9F JUMPI PUSH1 0x40 MLOAD PUSH32 0x8C379A000000000000000000000000000000000000000000000000000000000 DUP2 MSTORE PUSH1 0x4 ADD PUSH2 0xA96 SWAP1 PUSH2 0x2A35 JUMP JUMPDEST PUSH1 0x40 MLOAD DUP1 SWAP2 SUB SWAP1 REVERT JUMPDEST PUSH1 0x0 PUSH20 0xFFFFFFFFFFFFFFFFFFFFFFFFFFFFFFFFFFFFFFFF AND DUP5 PUSH20 0xFFFFFFFFFFFFFFFFFFFFFFFFFFFFFFFFFFFFFFFF AND EQ ISZERO PUSH2 0xB0F JUMPI PUSH1 0x40 MLOAD PUSH32 0x8C379A000000000000000000000000000000000000000000000000000000000 DUP2 MSTORE PUSH1 0x4 ADD PUSH2 0xB06 SWAP1 PUSH2 0x29F5 JUMP JUMPDEST PUSH1 0x40 MLOAD DUP1 SWAP2 SUB SWAP1 REVERT JUMPDEST PUSH1 0x0 PUSH20 0xFFFFFFFFFFFFFFFFFFFFFFFFFFFFFFFFFFFFFFFF AND DUP4 PUSH20 0xFFFFFFFFFFFFFFFFFFFFFFFFFFFFFFFFFFFFFFFF AND EQ ISZERO PUSH2 0xB7F JUMPI PUSH1 0x40 MLOAD PUSH32 0x8C379A000000000000000000000000000000000000000000000000000000000 DUP2 MSTORE PUSH1 0x4 ADD PUSH2 0xB76 SWAP1 PUSH2 0x29D5 JUMP JUMPDEST PUSH1 0x40 MLOAD DUP1 SWAP2 SUB SWAP1 REVERT JUMPDEST PUSH1 0x4 PUSH1 0x40 MLOAD DUP1 PUSH1 0xC0 ADD PUSH1 0x40 MSTORE DUP1 DUP7 PUSH20 0xFFFFFFFFFFFFFFFFFFFFFFFFFFFFFFFFFFFFFFFF AND DUP2 MSTORE PUSH1 0x20 ADD DUP6 PUSH20 0xFFFFFFFFFFFFFFFFFFFFFFFFFFFFFFFFFFFFFFFF AND DUP2 MSTORE PUSH1 0x20 ADD PUSH1 0x0 DUP2 MSTORE PUSH1 0x20 ADD DUP5 DUP2 MSTORE PUSH1 0x20 ADD PUSH1 0x0 ISZERO ISZERO DUP2 MSTORE PUSH1 0x20 ADD DUP4 DUP2 MSTORE POP SWAP1 DUP1 PUSH1 0x1 DUP2 SLOAD ADD DUP1 DUP3 SSTORE DUP1 SWAP2 POP POP PUSH1 0x1 SWAP1 SUB SWAP1 PUSH1 0x0 MSTORE PUSH1 0x20 PUSH1 0x0 KECCAK256 SWAP1 PUSH1 0x6 MUL ADD PUSH1 0x0 SWAP1 SWAP2 SWAP1 SWAP2 SWAP1 SWAP2 POP PUSH1 0x0 DUP3 ADD MLOAD DUP2 PUSH1 0x0 ADD PUSH1 0x0 PUSH2 0x100 EXP DUP2 SLOAD DUP2 PUSH20 0xFFFFFFFFFFFFFFFFFFFFFFFFFFFFFFFFFFFFFFFF MUL NOT AND SWAP1 DUP4 PUSH20 0xFFFFFFFFFFFFFFFFFFFFFFFFFFFFFFFFFFFFFFFF AND MUL OR SWAP1 SSTORE POP PUSH1 0x20 DUP3 ADD MLOAD DUP2 PUSH1 0x1 ADD PUSH1 0x0 PUSH2 0x100 EXP DUP2 SLOAD DUP2 PUSH20 0xFFFFFFFFFFFFFFFFFFFFFFFFFFFFFFFFFFFFFFFF MUL NOT AND SWAP1 DUP4 PUSH20 0xFFFFFFFFFFFFFFFFFFFFFFFFFFFFFFFFFFFFFFFF AND MUL OR SWAP1 SSTORE POP PUSH1 0x40 DUP3 ADD MLOAD DUP2 PUSH1 0x2 ADD SSTORE PUSH1 0x60 DUP3 ADD MLOAD DUP2 PUSH1 0x3 ADD SWAP1 DUP1 MLOAD SWAP1 PUSH1 0x20 ADD SWAP1 PUSH2 0xCBB SWAP3 SWAP2 SWAP1 PUSH2 0x2110 JUMP JUMPDEST POP PUSH1 0x80 DUP3 ADD MLOAD DUP2 PUSH1 0x4 ADD PUSH1 0x0 PUSH2 0x100 EXP DUP2 SLOAD DUP2 PUSH1 0xFF MUL NOT AND SWAP1 DUP4 ISZERO ISZERO MUL OR SWAP1 SSTORE POP PUSH1 0xA0 DUP3 ADD MLOAD DUP2 PUSH1 0x5 ADD SSTORE POP POP PUSH1 0x1 PUSH1 0x3 PUSH1 0x0 PUSH2 0x100 EXP DUP2 SLOAD DUP2 PUSH1 0xFF MUL NOT AND SWAP1 DUP4 ISZERO ISZERO MUL OR SWAP1 SSTORE POP POP POP POP POP JUMP JUMPDEST PUSH2 0xD11 PUSH2 0x1F62 JUMP JUMPDEST PUSH2 0xD1B PUSH1 0x0 PUSH2 0x1FE0 JUMP JUMPDEST JUMP JUMPDEST PUSH1 0x7 PUSH1 0x0 CALLER PUSH20 0xFFFFFFFFFFFFFFFFFFFFFFFFFFFFFFFFFFFFFFFF AND PUSH20 0xFFFFFFFFFFFFFFFFFFFFFFFFFFFFFFFFFFFFFFFF AND DUP2 MSTORE PUSH1 0x20 ADD SWAP1 DUP2 MSTORE PUSH1 0x20 ADD PUSH1 0x0 KECCAK256 PUSH1 0x0 DUP1 DUP2 MSTORE PUSH1 0x20 ADD SWAP1 DUP2 MSTORE PUSH1 0x20 ADD PUSH1 0x0 KECCAK256 PUSH1 0x0 ADD PUSH1 0x0 SWAP1 SLOAD SWAP1 PUSH2 0x100 EXP SWAP1 DIV PUSH1 0xFF AND PUSH2 0xDBD JUMPI PUSH1 0x40 MLOAD PUSH32 0x8C379A000000000000000000000000000000000000000000000000000000000 DUP2 MSTORE PUSH1 0x4 ADD PUSH2 0xDB4 SWAP1 PUSH2 0x2915 JUMP JUMPDEST PUSH1 0x40 MLOAD DUP1 SWAP2 SUB SWAP1 REVERT JUMPDEST PUSH1 0x0 PUSH2 0xDC8 CALLER PUSH2 0x7CB JUMP JUMPDEST GT ISZERO PUSH2 0xDD8 JUMPI PUSH2 0xDD7 CALLER PUSH2 0x1D8D JUMP JUMPDEST JUMPDEST PUSH1 0x4 PUSH1 0x0 DUP2 SLOAD DUP2 LT PUSH2 0xDED JUMPI PUSH2 0xDEC PUSH2 0x2F02 JUMP JUMPDEST JUMPDEST SWAP1 PUSH1 0x0 MSTORE PUSH1 0x20 PUSH1 0x0 KECCAK256 SWAP1 PUSH1 0x6 MUL ADD PUSH1 0x0 ADD PUSH1 0x0 SWAP1 SLOAD SWAP1 PUSH2 0x100 EXP SWAP1 DIV PUSH20 0xFFFFFFFFFFFFFFFFFFFFFFFFFFFFFFFFFFFFFFFF AND PUSH20 0xFFFFFFFFFFFFFFFFFFFFFFFFFFFFFFFFFFFFFFFF AND PUSH4 0xA9059CBB CALLER PUSH1 0x7 PUSH1 0x0 CALLER PUSH20 0xFFFFFFFFFFFFFFFFFFFFFFFFFFFFFFFFFFFFFFFF AND PUSH20 0xFFFFFFFFFFFFFFFFFFFFFFFFFFFFFFFFFFFFFFFF AND DUP2 MSTORE PUSH1 0x20 ADD SWAP1 DUP2 MSTORE PUSH1 0x20 ADD PUSH1 0x0 KECCAK256 PUSH1 0x0 DUP1 DUP2 MSTORE PUSH1 0x20 ADD SWAP1 DUP2 MSTORE PUSH1 0x20 ADD PUSH1 0x0 KECCAK256 PUSH1 0x1 ADD SLOAD PUSH1 0x40 MLOAD DUP4 PUSH4 0xFFFFFFFF AND PUSH1 0xE0 SHL DUP2 MSTORE PUSH1 0x4 ADD PUSH2 0xEAC SWAP3 SWAP2 SWAP1 PUSH2 0x2833 JUMP JUMPDEST PUSH1 0x20 PUSH1 0x40 MLOAD DUP1 DUP4 SUB DUP2 PUSH1 0x0 DUP8 DUP1 EXTCODESIZE ISZERO DUP1 ISZERO PUSH2 0xEC6 JUMPI PUSH1 0x0 DUP1 REVERT JUMPDEST POP GAS CALL ISZERO DUP1 ISZERO PUSH2 0xEDA JUMPI RETURNDATASIZE PUSH1 0x0 DUP1 RETURNDATACOPY RETURNDATASIZE PUSH1 0x0 REVERT JUMPDEST POP POP POP POP PUSH1 0x40 MLOAD RETURNDATASIZE PUSH1 0x1F NOT PUSH1 0x1F DUP3 ADD AND DUP3 ADD DUP1 PUSH1 0x40 MSTORE POP DUP2 ADD SWAP1 PUSH2 0xEFE SWAP2 SWAP1 PUSH2 0x2351 JUMP JUMPDEST POP PUSH32 0x54A9763035584FC4FCAD1BC4E0E7A83F93E016F50AE32BD527530A77257393EE CALLER PUSH1 0x7 PUSH1 0x0 CALLER PUSH20 0xFFFFFFFFFFFFFFFFFFFFFFFFFFFFFFFFFFFFFFFF AND PUSH20 0xFFFFFFFFFFFFFFFFFFFFFFFFFFFFFFFFFFFFFFFF AND DUP2 MSTORE PUSH1 0x20 ADD SWAP1 DUP2 MSTORE PUSH1 0x20 ADD PUSH1 0x0 KECCAK256 PUSH1 0x0 DUP1 DUP2 MSTORE PUSH1 0x20 ADD SWAP1 DUP2 MSTORE PUSH1 0x20 ADD PUSH1 0x0 KECCAK256 PUSH1 0x1 ADD SLOAD TIMESTAMP PUSH1 0x40 MLOAD PUSH2 0xF85 SWAP4 SWAP3 SWAP2 SWAP1 PUSH2 0x28A1 JUMP JUMPDEST PUSH1 0x40 MLOAD DUP1 SWAP2 SUB SWAP1 LOG1 PUSH1 0x7 PUSH1 0x0 CALLER PUSH20 0xFFFFFFFFFFFFFFFFFFFFFFFFFFFFFFFFFFFFFFFF AND PUSH20 0xFFFFFFFFFFFFFFFFFFFFFFFFFFFFFFFFFFFFFFFF AND DUP2 MSTORE PUSH1 0x20 ADD SWAP1 DUP2 MSTORE PUSH1 0x20 ADD PUSH1 0x0 KECCAK256 PUSH1 0x0 DUP1 DUP2 MSTORE PUSH1 0x20 ADD SWAP1 DUP2 MSTORE PUSH1 0x20 ADD PUSH1 0x0 KECCAK256 PUSH1 0x1 ADD SLOAD PUSH1 0x4 PUSH1 0x0 DUP2 SLOAD DUP2 LT PUSH2 0xFF6 JUMPI PUSH2 0xFF5 PUSH2 0x2F02 JUMP JUMPDEST JUMPDEST SWAP1 PUSH1 0x0 MSTORE PUSH1 0x20 PUSH1 0x0 KECCAK256 SWAP1 PUSH1 0x6 MUL ADD PUSH1 0x2 ADD PUSH1 0x0 DUP3 DUP3 SLOAD PUSH2 0x1016 SWAP2 SWAP1 PUSH2 0x2CCA JUMP JUMPDEST SWAP3 POP POP DUP2 SWAP1 SSTORE POP PUSH1 0x0 JUMPDEST PUSH1 0x5 PUSH1 0x0 CALLER PUSH20 0xFFFFFFFFFFFFFFFFFFFFFFFFFFFFFFFFFFFFFFFF AND PUSH20 0xFFFFFFFFFFFFFFFFFFFFFFFFFFFFFFFFFFFFFFFF AND DUP2 MSTORE PUSH1 0x20 ADD SWAP1 DUP2 MSTORE PUSH1 0x20 ADD PUSH1 0x0 KECCAK256 DUP1 SLOAD SWAP1 POP DUP2 LT ISZERO PUSH2 0x1254 JUMPI PUSH1 0x0 PUSH1 0x5 PUSH1 0x0 CALLER PUSH20 0xFFFFFFFFFFFFFFFFFFFFFFFFFFFFFFFFFFFFFFFF AND PUSH20 0xFFFFFFFFFFFFFFFFFFFFFFFFFFFFFFFFFFFFFFFF AND DUP2 MSTORE PUSH1 0x20 ADD SWAP1 DUP2 MSTORE PUSH1 0x20 ADD PUSH1 0x0 KECCAK256 DUP3 DUP2 SLOAD DUP2 LT PUSH2 0x10BD JUMPI PUSH2 0x10BC PUSH2 0x2F02 JUMP JUMPDEST JUMPDEST SWAP1 PUSH1 0x0 MSTORE PUSH1 0x20 PUSH1 0x0 KECCAK256 ADD SLOAD EQ ISZERO PUSH2 0x1241 JUMPI PUSH1 0x5 PUSH1 0x0 CALLER PUSH20 0xFFFFFFFFFFFFFFFFFFFFFFFFFFFFFFFFFFFFFFFF AND PUSH20 0xFFFFFFFFFFFFFFFFFFFFFFFFFFFFFFFFFFFFFFFF AND DUP2 MSTORE PUSH1 0x20 ADD SWAP1 DUP2 MSTORE PUSH1 0x20 ADD PUSH1 0x0 KECCAK256 PUSH1 0x1 PUSH1 0x5 PUSH1 0x0 CALLER PUSH20 0xFFFFFFFFFFFFFFFFFFFFFFFFFFFFFFFFFFFFFFFF AND PUSH20 0xFFFFFFFFFFFFFFFFFFFFFFFFFFFFFFFFFFFFFFFF AND DUP2 MSTORE PUSH1 0x20 ADD SWAP1 DUP2 MSTORE PUSH1 0x20 ADD PUSH1 0x0 KECCAK256 DUP1 SLOAD SWAP1 POP PUSH2 0x115C SWAP2 SWAP1 PUSH2 0x2CCA JUMP JUMPDEST DUP2 SLOAD DUP2 LT PUSH2 0x116D JUMPI PUSH2 0x116C PUSH2 0x2F02 JUMP JUMPDEST JUMPDEST SWAP1 PUSH1 0x0 MSTORE PUSH1 0x20 PUSH1 0x0 KECCAK256 ADD SLOAD PUSH1 0x5 PUSH1 0x0 CALLER PUSH20 0xFFFFFFFFFFFFFFFFFFFFFFFFFFFFFFFFFFFFFFFF AND PUSH20 0xFFFFFFFFFFFFFFFFFFFFFFFFFFFFFFFFFFFFFFFF AND DUP2 MSTORE PUSH1 0x20 ADD SWAP1 DUP2 MSTORE PUSH1 0x20 ADD PUSH1 0x0 KECCAK256 DUP3 DUP2 SLOAD DUP2 LT PUSH2 0x11C9 JUMPI PUSH2 0x11C8 PUSH2 0x2F02 JUMP JUMPDEST JUMPDEST SWAP1 PUSH1 0x0 MSTORE PUSH1 0x20 PUSH1 0x0 KECCAK256 ADD DUP2 SWAP1 SSTORE POP PUSH1 0x5 PUSH1 0x0 CALLER PUSH20 0xFFFFFFFFFFFFFFFFFFFFFFFFFFFFFFFFFFFFFFFF AND PUSH20 0xFFFFFFFFFFFFFFFFFFFFFFFFFFFFFFFFFFFFFFFF AND DUP2 MSTORE PUSH1 0x20 ADD SWAP1 DUP2 MSTORE PUSH1 0x20 ADD PUSH1 0x0 KECCAK256 DUP1 SLOAD DUP1 PUSH2 0x1226 JUMPI PUSH2 0x1225 PUSH2 0x2ED3 JUMP JUMPDEST JUMPDEST PUSH1 0x1 SWAP1 SUB DUP2 DUP2 SWAP1 PUSH1 0x0 MSTORE PUSH1 0x20 PUSH1 0x0 KECCAK256 ADD PUSH1 0x0 SWAP1 SSTORE SWAP1 SSTORE PUSH2 0x1254 JUMP JUMPDEST DUP1 DUP1 PUSH2 0x124C SWAP1 PUSH2 0x2DFD JUMP JUMPDEST SWAP2 POP POP PUSH2 0x1020 JUMP JUMPDEST POP PUSH1 0x7 PUSH1 0x0 CALLER PUSH20 0xFFFFFFFFFFFFFFFFFFFFFFFFFFFFFFFFFFFFFFFF AND PUSH20 0xFFFFFFFFFFFFFFFFFFFFFFFFFFFFFFFFFFFFFFFF AND DUP2 MSTORE PUSH1 0x20 ADD SWAP1 DUP2 MSTORE PUSH1 0x20 ADD PUSH1 0x0 KECCAK256 PUSH1 0x0 DUP1 DUP2 MSTORE PUSH1 0x20 ADD SWAP1 DUP2 MSTORE PUSH1 0x20 ADD PUSH1 0x0 KECCAK256 PUSH1 0x0 DUP1 DUP3 ADD PUSH1 0x0 PUSH2 0x100 EXP DUP2 SLOAD SWAP1 PUSH1 0xFF MUL NOT AND SWAP1 SSTORE PUSH1 0x1 DUP3 ADD PUSH1 0x0 SWAP1 SSTORE PUSH1 0x2 DUP3 ADD PUSH1 0x0 SWAP1 SSTORE PUSH1 0x3 DUP3 ADD PUSH1 0x0 SWAP1 SSTORE POP POP JUMP JUMPDEST PUSH1 0x0 DUP1 PUSH1 0x0 SWAP1 SLOAD SWAP1 PUSH2 0x100 EXP SWAP1 DIV PUSH20 0xFFFFFFFFFFFFFFFFFFFFFFFFFFFFFFFFFFFFFFFF AND SWAP1 POP SWAP1 JUMP JUMPDEST PUSH1 0x7 PUSH1 0x0 CALLER PUSH20 0xFFFFFFFFFFFFFFFFFFFFFFFFFFFFFFFFFFFFFFFF AND PUSH20 0xFFFFFFFFFFFFFFFFFFFFFFFFFFFFFFFFFFFFFFFF AND DUP2 MSTORE PUSH1 0x20 ADD SWAP1 DUP2 MSTORE PUSH1 0x20 ADD PUSH1 0x0 KECCAK256 PUSH1 0x0 DUP1 DUP2 MSTORE PUSH1 0x20 ADD SWAP1 DUP2 MSTORE PUSH1 0x20 ADD PUSH1 0x0 KECCAK256 PUSH1 0x0 ADD PUSH1 0x0 SWAP1 SLOAD SWAP1 PUSH2 0x100 EXP SWAP1 DIV PUSH1 0xFF AND ISZERO PUSH2 0x13A0 JUMPI PUSH1 0x40 MLOAD PUSH32 0x8C379A000000000000000000000000000000000000000000000000000000000 DUP2 MSTORE PUSH1 0x4 ADD PUSH2 0x1397 SWAP1 PUSH2 0x2A75 JUMP JUMPDEST PUSH1 0x40 MLOAD DUP1 SWAP2 SUB SWAP1 REVERT JUMPDEST PUSH1 0x4 PUSH1 0x0 DUP2 SLOAD DUP2 LT PUSH2 0x13B5 JUMPI PUSH2 0x13B4 PUSH2 0x2F02 JUMP JUMPDEST JUMPDEST SWAP1 PUSH1 0x0 MSTORE PUSH1 0x20 PUSH1 0x0 KECCAK256 SWAP1 PUSH1 0x6 MUL ADD PUSH1 0x4 ADD PUSH1 0x0 SWAP1 SLOAD SWAP1 PUSH2 0x100 EXP SWAP1 DIV PUSH1 0xFF AND ISZERO PUSH2 0x1414 JUMPI PUSH1 0x40 MLOAD PUSH32 0x8C379A000000000000000000000000000000000000000000000000000000000 DUP2 MSTORE PUSH1 0x4 ADD PUSH2 0x140B SWAP1 PUSH2 0x29B5 JUMP JUMPDEST PUSH1 0x40 MLOAD DUP1 SWAP2 SUB SWAP1 REVERT JUMPDEST DUP1 PUSH1 0x4 PUSH1 0x0 DUP2 SLOAD DUP2 LT PUSH2 0x142A JUMPI PUSH2 0x1429 PUSH2 0x2F02 JUMP JUMPDEST JUMPDEST SWAP1 PUSH1 0x0 MSTORE PUSH1 0x20 PUSH1 0x0 KECCAK256 SWAP1 PUSH1 0x6 MUL ADD PUSH1 0x0 ADD PUSH1 0x0 SWAP1 SLOAD SWAP1 PUSH2 0x100 EXP SWAP1 DIV PUSH20 0xFFFFFFFFFFFFFFFFFFFFFFFFFFFFFFFFFFFFFFFF AND PUSH20 0xFFFFFFFFFFFFFFFFFFFFFFFFFFFFFFFFFFFFFFFF AND PUSH4 0xDD62ED3E CALLER ADDRESS PUSH1 0x40 MLOAD DUP4 PUSH4 0xFFFFFFFF AND PUSH1 0xE0 SHL DUP2 MSTORE PUSH1 0x4 ADD PUSH2 0x1496 SWAP3 SWAP2 SWAP1 PUSH2 0x27D3 JUMP JUMPDEST PUSH1 0x20 PUSH1 0x40 MLOAD DUP1 DUP4 SUB DUP2 DUP7 DUP1 EXTCODESIZE ISZERO DUP1 ISZERO PUSH2 0x14AE JUMPI PUSH1 0x0 DUP1 REVERT JUMPDEST POP GAS STATICCALL ISZERO DUP1 ISZERO PUSH2 0x14C2 JUMPI RETURNDATASIZE PUSH1 0x0 DUP1 RETURNDATACOPY RETURNDATASIZE PUSH1 0x0 REVERT JUMPDEST POP POP POP POP PUSH1 0x40 MLOAD RETURNDATASIZE PUSH1 0x1F NOT PUSH1 0x1F DUP3 ADD AND DUP3 ADD DUP1 PUSH1 0x40 MSTORE POP DUP2 ADD SWAP1 PUSH2 0x14E6 SWAP2 SWAP1 PUSH2 0x23AB JUMP JUMPDEST LT ISZERO PUSH2 0x1527 JUMPI PUSH1 0x40 MLOAD PUSH32 0x8C379A000000000000000000000000000000000000000000000000000000000 DUP2 MSTORE PUSH1 0x4 ADD PUSH2 0x151E SWAP1 PUSH2 0x2935 JUMP JUMPDEST PUSH1 0x40 MLOAD DUP1 SWAP2 SUB SWAP1 REVERT JUMPDEST PUSH1 0x4 PUSH1 0x0 DUP2 SLOAD DUP2 LT PUSH2 0x153C JUMPI PUSH2 0x153B PUSH2 0x2F02 JUMP JUMPDEST JUMPDEST SWAP1 PUSH1 0x0 MSTORE PUSH1 0x20 PUSH1 0x0 KECCAK256 SWAP1 PUSH1 0x6 MUL ADD PUSH1 0x0 ADD PUSH1 0x0 SWAP1 SLOAD SWAP1 PUSH2 0x100 EXP SWAP1 DIV PUSH20 0xFFFFFFFFFFFFFFFFFFFFFFFFFFFFFFFFFFFFFFFF AND PUSH20 0xFFFFFFFFFFFFFFFFFFFFFFFFFFFFFFFFFFFFFFFF AND PUSH4 0x23B872DD CALLER ADDRESS DUP5 PUSH1 0x40 MLOAD DUP5 PUSH4 0xFFFFFFFF AND PUSH1 0xE0 SHL DUP2 MSTORE PUSH1 0x4 ADD PUSH2 0x15AA SWAP4 SWAP3 SWAP2 SWAP1 PUSH2 0x27FC JUMP JUMPDEST PUSH1 0x20 PUSH1 0x40 MLOAD DUP1 DUP4 SUB DUP2 PUSH1 0x0 DUP8 DUP1 EXTCODESIZE ISZERO DUP1 ISZERO PUSH2 0x15C4 JUMPI PUSH1 0x0 DUP1 REVERT JUMPDEST POP GAS CALL ISZERO DUP1 ISZERO PUSH2 0x15D8 JUMPI RETURNDATASIZE PUSH1 0x0 DUP1 RETURNDATACOPY RETURNDATASIZE PUSH1 0x0 REVERT JUMPDEST POP POP POP POP PUSH1 0x40 MLOAD RETURNDATASIZE PUSH1 0x1F NOT PUSH1 0x1F DUP3 ADD AND DUP3 ADD DUP1 PUSH1 0x40 MSTORE POP DUP2 ADD SWAP1 PUSH2 0x15FC SWAP2 SWAP1 PUSH2 0x2351 JUMP JUMPDEST POP PUSH1 0x2 SLOAD DUP2 PUSH1 0x6 PUSH1 0x0 PUSH3 0x15180 TIMESTAMP PUSH2 0x1614 SWAP2 SWAP1 PUSH2 0x2C3F JUMP JUMPDEST DUP2 MSTORE PUSH1 0x20 ADD SWAP1 DUP2 MSTORE PUSH1 0x20 ADD PUSH1 0x0 KECCAK256 PUSH1 0x0 DUP1 DUP2 MSTORE PUSH1 0x20 ADD SWAP1 DUP2 MSTORE PUSH1 0x20 ADD PUSH1 0x0 KECCAK256 SLOAD PUSH2 0x163E SWAP2 SWAP1 PUSH2 0x2BE9 JUMP JUMPDEST GT ISZERO PUSH2 0x167F JUMPI PUSH1 0x40 MLOAD PUSH32 0x8C379A000000000000000000000000000000000000000000000000000000000 DUP2 MSTORE PUSH1 0x4 ADD PUSH2 0x1676 SWAP1 PUSH2 0x2995 JUMP JUMPDEST PUSH1 0x40 MLOAD DUP1 SWAP2 SUB SWAP1 REVERT JUMPDEST PUSH1 0x1 SLOAD DUP2 LT ISZERO PUSH2 0x16C4 JUMPI PUSH1 0x40 MLOAD PUSH32 0x8C379A000000000000000000000000000000000000000000000000000000000 DUP2 MSTORE PUSH1 0x4 ADD PUSH2 0x16BB SWAP1 PUSH2 0x2A55 JUMP JUMPDEST PUSH1 0x40 MLOAD DUP1 SWAP2 SUB SWAP1 REVERT JUMPDEST PUSH1 0x40 MLOAD DUP1 PUSH1 0x80 ADD PUSH1 0x40 MSTORE DUP1 PUSH1 0x1 ISZERO ISZERO DUP2 MSTORE PUSH1 0x20 ADD DUP3 DUP2 MSTORE PUSH1 0x20 ADD TIMESTAMP DUP2 MSTORE PUSH1 0x20 ADD PUSH1 0x0 DUP2 MSTORE POP PUSH1 0x7 PUSH1 0x0 CALLER PUSH20 0xFFFFFFFFFFFFFFFFFFFFFFFFFFFFFFFFFFFFFFFF AND PUSH20 0xFFFFFFFFFFFFFFFFFFFFFFFFFFFFFFFFFFFFFFFF AND DUP2 MSTORE PUSH1 0x20 ADD SWAP1 DUP2 MSTORE PUSH1 0x20 ADD PUSH1 0x0 KECCAK256 PUSH1 0x0 DUP1 DUP2 MSTORE PUSH1 0x20 ADD SWAP1 DUP2 MSTORE PUSH1 0x20 ADD PUSH1 0x0 KECCAK256 PUSH1 0x0 DUP3 ADD MLOAD DUP2 PUSH1 0x0 ADD PUSH1 0x0 PUSH2 0x100 EXP DUP2 SLOAD DUP2 PUSH1 0xFF MUL NOT AND SWAP1 DUP4 ISZERO ISZERO MUL OR SWAP1 SSTORE POP PUSH1 0x20 DUP3 ADD MLOAD DUP2 PUSH1 0x1 ADD SSTORE PUSH1 0x40 DUP3 ADD MLOAD DUP2 PUSH1 0x2 ADD SSTORE PUSH1 0x60 DUP3 ADD MLOAD DUP2 PUSH1 0x3 ADD SSTORE SWAP1 POP POP DUP1 PUSH1 0x6 PUSH1 0x0 PUSH3 0x15180 TIMESTAMP PUSH2 0x178E SWAP2 SWAP1 PUSH2 0x2C3F JUMP JUMPDEST DUP2 MSTORE PUSH1 0x20 ADD SWAP1 DUP2 MSTORE PUSH1 0x20 ADD PUSH1 0x0 KECCAK256 PUSH1 0x0 DUP1 DUP2 MSTORE PUSH1 0x20 ADD SWAP1 DUP2 MSTORE PUSH1 0x20 ADD PUSH1 0x0 KECCAK256 PUSH1 0x0 DUP3 DUP3 SLOAD PUSH2 0x17BC SWAP2 SWAP1 PUSH2 0x2BE9 JUMP JUMPDEST SWAP3 POP POP DUP2 SWAP1 SSTORE POP DUP1 PUSH1 0x4 PUSH1 0x0 DUP2 SLOAD DUP2 LT PUSH2 0x17D9 JUMPI PUSH2 0x17D8 PUSH2 0x2F02 JUMP JUMPDEST JUMPDEST SWAP1 PUSH1 0x0 MSTORE PUSH1 0x20 PUSH1 0x0 KECCAK256 SWAP1 PUSH1 0x6 MUL ADD PUSH1 0x2 ADD PUSH1 0x0 DUP3 DUP3 SLOAD PUSH2 0x17F9 SWAP2 SWAP1 PUSH2 0x2BE9 JUMP JUMPDEST SWAP3 POP POP DUP2 SWAP1 SSTORE POP PUSH1 0x5 PUSH1 0x0 CALLER PUSH20 0xFFFFFFFFFFFFFFFFFFFFFFFFFFFFFFFFFFFFFFFF AND PUSH20 0xFFFFFFFFFFFFFFFFFFFFFFFFFFFFFFFFFFFFFFFF AND DUP2 MSTORE PUSH1 0x20 ADD SWAP1 DUP2 MSTORE PUSH1 0x20 ADD PUSH1 0x0 KECCAK256 PUSH1 0x0 SWAP1 DUP1 PUSH1 0x1 DUP2 SLOAD ADD DUP1 DUP3 SSTORE DUP1 SWAP2 POP POP PUSH1 0x1 SWAP1 SUB SWAP1 PUSH1 0x0 MSTORE PUSH1 0x20 PUSH1 0x0 KECCAK256 ADD PUSH1 0x0 SWAP1 SWAP2 SWAP1 SWAP2 SWAP1 SWAP2 POP SSTORE PUSH32 0xF556991011E831BCFAC4F406D547E5E32CDD98267EFAB83935230D5F8D02C446 CALLER DUP3 PUSH1 0x0 TIMESTAMP PUSH1 0x40 MLOAD PUSH2 0x189D SWAP5 SWAP4 SWAP3 SWAP2 SWAP1 PUSH2 0x285C JUMP JUMPDEST PUSH1 0x40 MLOAD DUP1 SWAP2 SUB SWAP1 LOG1 POP JUMP JUMPDEST PUSH2 0x18B0 PUSH2 0x1F62 JUMP JUMPDEST PUSH1 0x4 PUSH1 0x0 DUP2 SLOAD DUP2 LT PUSH2 0x18C5 JUMPI PUSH2 0x18C4 PUSH2 0x2F02 JUMP JUMPDEST JUMPDEST SWAP1 PUSH1 0x0 MSTORE PUSH1 0x20 PUSH1 0x0 KECCAK256 SWAP1 PUSH1 0x6 MUL ADD PUSH1 0x1 ADD PUSH1 0x0 SWAP1 SLOAD SWAP1 PUSH2 0x100 EXP SWAP1 DIV PUSH20 0xFFFFFFFFFFFFFFFFFFFFFFFFFFFFFFFFFFFFFFFF AND PUSH20 0xFFFFFFFFFFFFFFFFFFFFFFFFFFFFFFFFFFFFFFFF AND PUSH4 0xA9059CBB ADDRESS DUP4 PUSH1 0x40 MLOAD DUP4 PUSH4 0xFFFFFFFF AND PUSH1 0xE0 SHL DUP2 MSTORE PUSH1 0x4 ADD PUSH2 0x1931 SWAP3 SWAP2 SWAP1 PUSH2 0x2833 JUMP JUMPDEST PUSH1 0x20 PUSH1 0x40 MLOAD DUP1 DUP4 SUB DUP2 PUSH1 0x0 DUP8 DUP1 EXTCODESIZE ISZERO DUP1 ISZERO PUSH2 0x194B JUMPI PUSH1 0x0 DUP1 REVERT JUMPDEST POP GAS CALL ISZERO DUP1 ISZERO PUSH2 0x195F JUMPI RETURNDATASIZE PUSH1 0x0 DUP1 RETURNDATACOPY RETURNDATASIZE PUSH1 0x0 REVERT JUMPDEST POP POP POP POP PUSH1 0x40 MLOAD RETURNDATASIZE PUSH1 0x1F NOT PUSH1 0x1F DUP3 ADD AND DUP3 ADD DUP1 PUSH1 0x40 MSTORE POP DUP2 ADD SWAP1 PUSH2 0x1983 SWAP2 SWAP1 PUSH2 0x2351 JUMP JUMPDEST POP POP JUMP JUMPDEST PUSH2 0x198F PUSH2 0x1F62 JUMP JUMPDEST DUP1 PUSH1 0x2 DUP2 SWAP1 SSTORE POP POP JUMP JUMPDEST PUSH2 0x19A1 PUSH2 0x1F62 JUMP JUMPDEST PUSH1 0x0 PUSH1 0x4 PUSH1 0x0 DUP2 SLOAD DUP2 LT PUSH2 0x19B8 JUMPI PUSH2 0x19B7 PUSH2 0x2F02 JUMP JUMPDEST JUMPDEST SWAP1 PUSH1 0x0 MSTORE PUSH1 0x20 PUSH1 0x0 KECCAK256 SWAP1 PUSH1 0x6 MUL ADD PUSH1 0x2 ADD SLOAD EQ PUSH2 0x1A0A JUMPI PUSH1 0x40 MLOAD PUSH32 0x8C379A000000000000000000000000000000000000000000000000000000000 DUP2 MSTORE PUSH1 0x4 ADD PUSH2 0x1A01 SWAP1 PUSH2 0x2AB5 JUMP JUMPDEST PUSH1 0x40 MLOAD DUP1 SWAP2 SUB SWAP1 REVERT JUMPDEST PUSH1 0x4 PUSH1 0x0 DUP2 SLOAD DUP2 LT PUSH2 0x1A1F JUMPI PUSH2 0x1A1E PUSH2 0x2F02 JUMP JUMPDEST JUMPDEST SWAP1 PUSH1 0x0 MSTORE PUSH1 0x20 PUSH1 0x0 KECCAK256 SWAP1 PUSH1 0x6 MUL ADD PUSH1 0x4 ADD PUSH1 0x0 SWAP1 SLOAD SWAP1 PUSH2 0x100 EXP SWAP1 DIV PUSH1 0xFF AND ISZERO PUSH1 0x4 PUSH1 0x0 DUP2 SLOAD DUP2 LT PUSH2 0x1A54 JUMPI PUSH2 0x1A53 PUSH2 0x2F02 JUMP JUMPDEST JUMPDEST SWAP1 PUSH1 0x0 MSTORE PUSH1 0x20 PUSH1 0x0 KECCAK256 SWAP1 PUSH1 0x6 MUL ADD PUSH1 0x4 ADD PUSH1 0x0 PUSH2 0x100 EXP DUP2 SLOAD DUP2 PUSH1 0xFF MUL NOT AND SWAP1 DUP4 ISZERO ISZERO MUL OR SWAP1 SSTORE POP JUMP JUMPDEST PUSH2 0x1A86 PUSH2 0x1F62 JUMP JUMPDEST DUP1 PUSH1 0x1 DUP2 SWAP1 SSTORE POP POP JUMP JUMPDEST PUSH1 0x0 PUSH1 0x4 PUSH1 0x0 DUP2 SLOAD DUP2 LT PUSH2 0x1AA7 JUMPI PUSH2 0x1AA6 PUSH2 0x2F02 JUMP JUMPDEST JUMPDEST SWAP1 PUSH1 0x0 MSTORE PUSH1 0x20 PUSH1 0x0 KECCAK256 SWAP1 PUSH1 0x6 MUL ADD PUSH1 0x4 ADD PUSH1 0x0 SWAP1 SLOAD SWAP1 PUSH2 0x100 EXP SWAP1 DIV PUSH1 0xFF AND SWAP1 POP SWAP1 JUMP JUMPDEST PUSH1 0x1 SLOAD DUP2 JUMP JUMPDEST PUSH2 0x1AD9 PUSH2 0x1F62 JUMP JUMPDEST PUSH1 0x0 PUSH20 0xFFFFFFFFFFFFFFFFFFFFFFFFFFFFFFFFFFFFFFFF AND DUP2 PUSH20 0xFFFFFFFFFFFFFFFFFFFFFFFFFFFFFFFFFFFFFFFF AND EQ ISZERO PUSH2 0x1B49 JUMPI PUSH1 0x40 MLOAD PUSH32 0x8C379A000000000000000000000000000000000000000000000000000000000 DUP2 MSTORE PUSH1 0x4 ADD PUSH2 0x1B40 SWAP1 PUSH2 0x2975 JUMP JUMPDEST PUSH1 0x40 MLOAD DUP1 SWAP2 SUB SWAP1 REVERT JUMPDEST PUSH2 0x1B52 DUP2 PUSH2 0x1FE0 JUMP JUMPDEST POP JUMP JUMPDEST PUSH2 0x1B5D PUSH2 0x2196 JUMP JUMPDEST PUSH1 0x7 PUSH1 0x0 DUP4 PUSH20 0xFFFFFFFFFFFFFFFFFFFFFFFFFFFFFFFFFFFFFFFF AND PUSH20 0xFFFFFFFFFFFFFFFFFFFFFFFFFFFFFFFFFFFFFFFF AND DUP2 MSTORE PUSH1 0x20 ADD SWAP1 DUP2 MSTORE PUSH1 0x20 ADD PUSH1 0x0 KECCAK256 PUSH1 0x0 DUP1 DUP2 MSTORE PUSH1 0x20 ADD SWAP1 DUP2 MSTORE PUSH1 0x20 ADD PUSH1 0x0 KECCAK256 PUSH1 0x40 MLOAD DUP1 PUSH1 0x80 ADD PUSH1 0x40 MSTORE SWAP1 DUP2 PUSH1 0x0 DUP3 ADD PUSH1 0x0 SWAP1 SLOAD SWAP1 PUSH2 0x100 EXP SWAP1 DIV PUSH1 0xFF AND ISZERO ISZERO ISZERO ISZERO DUP2 MSTORE PUSH1 0x20 ADD PUSH1 0x1 DUP3 ADD SLOAD DUP2 MSTORE PUSH1 0x20 ADD PUSH1 0x2 DUP3 ADD SLOAD DUP2 MSTORE PUSH1 0x20 ADD PUSH1 0x3 DUP3 ADD SLOAD DUP2 MSTORE POP POP SWAP1 POP SWAP2 SWAP1 POP JUMP JUMPDEST PUSH2 0x1C00 PUSH2 0x1F62 JUMP JUMPDEST PUSH1 0x0 PUSH20 0xFFFFFFFFFFFFFFFFFFFFFFFFFFFFFFFFFFFFFFFF AND PUSH1 0x4 PUSH1 0x0 DUP2 SLOAD DUP2 LT PUSH2 0x1C2D JUMPI PUSH2 0x1C2C PUSH2 0x2F02 JUMP JUMPDEST JUMPDEST SWAP1 PUSH1 0x0 MSTORE PUSH1 0x20 PUSH1 0x0 KECCAK256 SWAP1 PUSH1 0x6 MUL ADD PUSH1 0x1 ADD PUSH1 0x0 SWAP1 SLOAD SWAP1 PUSH2 0x100 EXP SWAP1 DIV PUSH20 0xFFFFFFFFFFFFFFFFFFFFFFFFFFFFFFFFFFFFFFFF AND PUSH20 0xFFFFFFFFFFFFFFFFFFFFFFFFFFFFFFFFFFFFFFFF AND EQ ISZERO PUSH2 0x1CB6 JUMPI PUSH1 0x40 MLOAD PUSH32 0x8C379A000000000000000000000000000000000000000000000000000000000 DUP2 MSTORE PUSH1 0x4 ADD PUSH2 0x1CAD SWAP1 PUSH2 0x2A95 JUMP JUMPDEST PUSH1 0x40 MLOAD DUP1 SWAP2 SUB SWAP1 REVERT JUMPDEST PUSH1 0x4 PUSH1 0x0 DUP2 SLOAD DUP2 LT PUSH2 0x1CCB JUMPI PUSH2 0x1CCA PUSH2 0x2F02 JUMP JUMPDEST JUMPDEST SWAP1 PUSH1 0x0 MSTORE PUSH1 0x20 PUSH1 0x0 KECCAK256 SWAP1 PUSH1 0x6 MUL ADD PUSH1 0x1 ADD PUSH1 0x0 SWAP1 SLOAD SWAP1 PUSH2 0x100 EXP SWAP1 DIV PUSH20 0xFFFFFFFFFFFFFFFFFFFFFFFFFFFFFFFFFFFFFFFF AND PUSH20 0xFFFFFFFFFFFFFFFFFFFFFFFFFFFFFFFFFFFFFFFF AND PUSH4 0xA9059CBB CALLER DUP4 PUSH1 0x40 MLOAD DUP4 PUSH4 0xFFFFFFFF AND PUSH1 0xE0 SHL DUP2 MSTORE PUSH1 0x4 ADD PUSH2 0x1D37 SWAP3 SWAP2 SWAP1 PUSH2 0x2833 JUMP JUMPDEST PUSH1 0x20 PUSH1 0x40 MLOAD DUP1 DUP4 SUB DUP2 PUSH1 0x0 DUP8 DUP1 EXTCODESIZE ISZERO DUP1 ISZERO PUSH2 0x1D51 JUMPI PUSH1 0x0 DUP1 REVERT JUMPDEST POP GAS CALL ISZERO DUP1 ISZERO PUSH2 0x1D65 JUMPI RETURNDATASIZE PUSH1 0x0 DUP1 RETURNDATACOPY RETURNDATASIZE PUSH1 0x0 REVERT JUMPDEST POP POP POP POP PUSH1 0x40 MLOAD RETURNDATASIZE PUSH1 0x1F NOT PUSH1 0x1F DUP3 ADD AND DUP3 ADD DUP1 PUSH1 0x40 MSTORE POP DUP2 ADD SWAP1 PUSH2 0x1D89 SWAP2 SWAP1 PUSH2 0x2351 JUMP JUMPDEST POP POP JUMP JUMPDEST PUSH1 0x0 PUSH2 0x1D98 DUP3 PUSH2 0x7CB JUMP JUMPDEST GT PUSH2 0x1DD8 JUMPI PUSH1 0x40 MLOAD PUSH32 0x8C379A000000000000000000000000000000000000000000000000000000000 DUP2 MSTORE PUSH1 0x4 ADD PUSH2 0x1DCF SWAP1 PUSH2 0x2955 JUMP JUMPDEST PUSH1 0x40 MLOAD DUP1 SWAP2 SUB SWAP1 REVERT JUMPDEST PUSH1 0x0 PUSH2 0x1DE3 DUP3 PUSH2 0x7CB JUMP JUMPDEST SWAP1 POP PUSH1 0x4 PUSH1 0x0 DUP2 SLOAD DUP2 LT PUSH2 0x1DFA JUMPI PUSH2 0x1DF9 PUSH2 0x2F02 JUMP JUMPDEST JUMPDEST SWAP1 PUSH1 0x0 MSTORE PUSH1 0x20 PUSH1 0x0 KECCAK256 SWAP1 PUSH1 0x6 MUL ADD PUSH1 0x1 ADD PUSH1 0x0 SWAP1 SLOAD SWAP1 PUSH2 0x100 EXP SWAP1 DIV PUSH20 0xFFFFFFFFFFFFFFFFFFFFFFFFFFFFFFFFFFFFFFFF AND PUSH20 0xFFFFFFFFFFFFFFFFFFFFFFFFFFFFFFFFFFFFFFFF AND PUSH4 0xA9059CBB CALLER DUP4 PUSH1 0x40 MLOAD DUP4 PUSH4 0xFFFFFFFF AND PUSH1 0xE0 SHL DUP2 MSTORE PUSH1 0x4 ADD PUSH2 0x1E66 SWAP3 SWAP2 SWAP1 PUSH2 0x2833 JUMP JUMPDEST PUSH1 0x20 PUSH1 0x40 MLOAD DUP1 DUP4 SUB DUP2 PUSH1 0x0 DUP8 DUP1 EXTCODESIZE ISZERO DUP1 ISZERO PUSH2 0x1E80 JUMPI PUSH1 0x0 DUP1 REVERT JUMPDEST POP GAS CALL ISZERO DUP1 ISZERO PUSH2 0x1E94 JUMPI RETURNDATASIZE PUSH1 0x0 DUP1 RETURNDATACOPY RETURNDATASIZE PUSH1 0x0 REVERT JUMPDEST POP POP POP POP PUSH1 0x40 MLOAD RETURNDATASIZE PUSH1 0x1F NOT PUSH1 0x1F DUP3 ADD AND DUP3 ADD DUP1 PUSH1 0x40 MSTORE POP DUP2 ADD SWAP1 PUSH2 0x1EB8 SWAP2 SWAP1 PUSH2 0x2351 JUMP JUMPDEST POP DUP1 PUSH1 0x7 PUSH1 0x0 DUP5 PUSH20 0xFFFFFFFFFFFFFFFFFFFFFFFFFFFFFFFFFFFFFFFF AND PUSH20 0xFFFFFFFFFFFFFFFFFFFFFFFFFFFFFFFFFFFFFFFF AND DUP2 MSTORE PUSH1 0x20 ADD SWAP1 DUP2 MSTORE PUSH1 0x20 ADD PUSH1 0x0 KECCAK256 PUSH1 0x0 DUP1 DUP2 MSTORE PUSH1 0x20 ADD SWAP1 DUP2 MSTORE PUSH1 0x20 ADD PUSH1 0x0 KECCAK256 PUSH1 0x3 ADD PUSH1 0x0 DUP3 DUP3 SLOAD PUSH2 0x1F1C SWAP2 SWAP1 PUSH2 0x2BE9 JUMP JUMPDEST SWAP3 POP POP DUP2 SWAP1 SSTORE POP PUSH32 0xDF273CB619D95419A9CD0EC88123A0538C85064229BAA6363788F743FFF90DEB DUP3 DUP3 TIMESTAMP PUSH1 0x40 MLOAD PUSH2 0x1F56 SWAP4 SWAP3 SWAP2 SWAP1 PUSH2 0x28A1 JUMP JUMPDEST PUSH1 0x40 MLOAD DUP1 SWAP2 SUB SWAP1 LOG1 POP POP JUMP JUMPDEST PUSH2 0x1F6A PUSH2 0x20A4 JUMP JUMPDEST PUSH20 0xFFFFFFFFFFFFFFFFFFFFFFFFFFFFFFFFFFFFFFFF AND PUSH2 0x1F88 PUSH2 0x12D6 JUMP JUMPDEST PUSH20 0xFFFFFFFFFFFFFFFFFFFFFFFFFFFFFFFFFFFFFFFF AND EQ PUSH2 0x1FDE JUMPI PUSH1 0x40 MLOAD PUSH32 0x8C379A000000000000000000000000000000000000000000000000000000000 DUP2 MSTORE PUSH1 0x4 ADD PUSH2 0x1FD5 SWAP1 PUSH2 0x2A15 JUMP JUMPDEST PUSH1 0x40 MLOAD DUP1 SWAP2 SUB SWAP1 REVERT JUMPDEST JUMP JUMPDEST PUSH1 0x0 DUP1 PUSH1 0x0 SWAP1 SLOAD SWAP1 PUSH2 0x100 EXP SWAP1 DIV PUSH20 0xFFFFFFFFFFFFFFFFFFFFFFFFFFFFFFFFFFFFFFFF AND SWAP1 POP DUP2 PUSH1 0x0 DUP1 PUSH2 0x100 EXP DUP2 SLOAD DUP2 PUSH20 0xFFFFFFFFFFFFFFFFFFFFFFFFFFFFFFFFFFFFFFFF MUL NOT AND SWAP1 DUP4 PUSH20 0xFFFFFFFFFFFFFFFFFFFFFFFFFFFFFFFFFFFFFFFF AND MUL OR SWAP1 SSTORE POP DUP2 PUSH20 0xFFFFFFFFFFFFFFFFFFFFFFFFFFFFFFFFFFFFFFFF AND DUP2 PUSH20 0xFFFFFFFFFFFFFFFFFFFFFFFFFFFFFFFFFFFFFFFF AND PUSH32 0x8BE0079C531659141344CD1FD0A4F28419497F9722A3DAAFE3B4186F6B6457E0 PUSH1 0x40 MLOAD PUSH1 0x40 MLOAD DUP1 SWAP2 SUB SWAP1 LOG3 POP POP JUMP JUMPDEST PUSH1 0x0 CALLER SWAP1 POP SWAP1 JUMP JUMPDEST PUSH1 0x40 MLOAD DUP1 PUSH1 0xC0 ADD PUSH1 0x40 MSTORE DUP1 PUSH1 0x0 PUSH20 0xFFFFFFFFFFFFFFFFFFFFFFFFFFFFFFFFFFFFFFFF AND DUP2 MSTORE PUSH1 0x20 ADD PUSH1 0x0 PUSH20 0xFFFFFFFFFFFFFFFFFFFFFFFFFFFFFFFFFFFFFFFF AND DUP2 MSTORE PUSH1 0x20 ADD PUSH1 0x0 DUP2 MSTORE PUSH1 0x20 ADD PUSH1 0x60 DUP2 MSTORE PUSH1 0x20 ADD PUSH1 0x0 ISZERO ISZERO DUP2 MSTORE PUSH1 0x20 ADD PUSH1 0x0 DUP2 MSTORE POP SWAP1 JUMP JUMPDEST DUP3 DUP1 SLOAD PUSH2 0x211C SWAP1 PUSH2 0x2D9A JUMP JUMPDEST SWAP1 PUSH1 0x0 MSTORE PUSH1 0x20 PUSH1 0x0 KECCAK256 SWAP1 PUSH1 0x1F ADD PUSH1 0x20 SWAP1 DIV DUP2 ADD SWAP3 DUP3 PUSH2 0x213E JUMPI PUSH1 0x0 DUP6 SSTORE PUSH2 0x2185 JUMP JUMPDEST DUP3 PUSH1 0x1F LT PUSH2 0x2157 JUMPI DUP1 MLOAD PUSH1 0xFF NOT AND DUP4 DUP1 ADD OR DUP6 SSTORE PUSH2 0x2185 JUMP JUMPDEST DUP3 DUP1 ADD PUSH1 0x1 ADD DUP6 SSTORE DUP3 ISZERO PUSH2 0x2185 JUMPI SWAP2 DUP3 ADD JUMPDEST DUP3 DUP2 GT ISZERO PUSH2 0x2184 JUMPI DUP3 MLOAD DUP3 SSTORE SWAP2 PUSH1 0x20 ADD SWAP2 SWAP1 PUSH1 0x1 ADD SWAP1 PUSH2 0x2169 JUMP JUMPDEST JUMPDEST POP SWAP1 POP PUSH2 0x2192 SWAP2 SWAP1 PUSH2 0x21C0 JUMP JUMPDEST POP SWAP1 JUMP JUMPDEST PUSH1 0x40 MLOAD DUP1 PUSH1 0x80 ADD PUSH1 0x40 MSTORE DUP1 PUSH1 0x0 ISZERO ISZERO DUP2 MSTORE PUSH1 0x20 ADD PUSH1 0x0 DUP2 MSTORE PUSH1 0x20 ADD PUSH1 0x0 DUP2 MSTORE PUSH1 0x20 ADD PUSH1 0x0 DUP2 MSTORE POP SWAP1 JUMP JUMPDEST JUMPDEST DUP1 DUP3 GT ISZERO PUSH2 0x21D9 JUMPI PUSH1 0x0 DUP2 PUSH1 0x0 SWAP1 SSTORE POP PUSH1 0x1 ADD PUSH2 0x21C1 JUMP JUMPDEST POP SWAP1 JUMP JUMPDEST PUSH1 0x0 PUSH2 0x21F0 PUSH2 0x21EB DUP5 PUSH2 0x2B52 JUMP JUMPDEST PUSH2 0x2B2D JUMP JUMPDEST SWAP1 POP DUP3 DUP2 MSTORE PUSH1 0x20 DUP2 ADD DUP5 DUP5 DUP5 ADD GT ISZERO PUSH2 0x220C JUMPI PUSH2 0x220B PUSH2 0x2F65 JUMP JUMPDEST JUMPDEST PUSH2 0x2217 DUP5 DUP3 DUP6 PUSH2 0x2D58 JUMP JUMPDEST POP SWAP4 SWAP3 POP POP POP JUMP JUMPDEST PUSH1 0x0 DUP2 CALLDATALOAD SWAP1 POP PUSH2 0x222E DUP2 PUSH2 0x320F JUMP JUMPDEST SWAP3 SWAP2 POP POP JUMP JUMPDEST PUSH1 0x0 DUP2 MLOAD SWAP1 POP PUSH2 0x2243 DUP2 PUSH2 0x3226 JUMP JUMPDEST SWAP3 SWAP2 POP POP JUMP JUMPDEST PUSH1 0x0 DUP3 PUSH1 0x1F DUP4 ADD SLT PUSH2 0x225E JUMPI PUSH2 0x225D PUSH2 0x2F60 JUMP JUMPDEST JUMPDEST DUP2 CALLDATALOAD PUSH2 0x226E DUP5 DUP3 PUSH1 0x20 DUP7 ADD PUSH2 0x21DD JUMP JUMPDEST SWAP2 POP POP SWAP3 SWAP2 POP POP JUMP JUMPDEST PUSH1 0x0 DUP2 CALLDATALOAD SWAP1 POP PUSH2 0x2286 DUP2 PUSH2 0x323D JUMP JUMPDEST SWAP3 SWAP2 POP POP JUMP JUMPDEST PUSH1 0x0 DUP2 MLOAD SWAP1 POP PUSH2 0x229B DUP2 PUSH2 0x323D JUMP JUMPDEST SWAP3 SWAP2 POP POP JUMP JUMPDEST PUSH1 0x0 PUSH1 0x20 DUP3 DUP5 SUB SLT ISZERO PUSH2 0x22B7 JUMPI PUSH2 0x22B6 PUSH2 0x2F6F JUMP JUMPDEST JUMPDEST PUSH1 0x0 PUSH2 0x22C5 DUP5 DUP3 DUP6 ADD PUSH2 0x221F JUMP JUMPDEST SWAP2 POP POP SWAP3 SWAP2 POP POP JUMP JUMPDEST PUSH1 0x0 DUP1 PUSH1 0x0 DUP1 PUSH1 0x80 DUP6 DUP8 SUB SLT ISZERO PUSH2 0x22E8 JUMPI PUSH2 0x22E7 PUSH2 0x2F6F JUMP JUMPDEST JUMPDEST PUSH1 0x0 PUSH2 0x22F6 DUP8 DUP3 DUP9 ADD PUSH2 0x221F JUMP JUMPDEST SWAP5 POP POP PUSH1 0x20 PUSH2 0x2307 DUP8 DUP3 DUP9 ADD PUSH2 0x221F JUMP JUMPDEST SWAP4 POP POP PUSH1 0x40 DUP6 ADD CALLDATALOAD PUSH8 0xFFFFFFFFFFFFFFFF DUP2 GT ISZERO PUSH2 0x2328 JUMPI PUSH2 0x2327 PUSH2 0x2F6A JUMP JUMPDEST JUMPDEST PUSH2 0x2334 DUP8 DUP3 DUP9 ADD PUSH2 0x2249 JUMP JUMPDEST SWAP3 POP POP PUSH1 0x60 PUSH2 0x2345 DUP8 DUP3 DUP9 ADD PUSH2 0x2277 JUMP JUMPDEST SWAP2 POP POP SWAP3 SWAP6 SWAP2 SWAP5 POP SWAP3 POP JUMP JUMPDEST PUSH1 0x0 PUSH1 0x20 DUP3 DUP5 SUB SLT ISZERO PUSH2 0x2367 JUMPI PUSH2 0x2366 PUSH2 0x2F6F JUMP JUMPDEST JUMPDEST PUSH1 0x0 PUSH2 0x2375 DUP5 DUP3 DUP6 ADD PUSH2 0x2234 JUMP JUMPDEST SWAP2 POP POP SWAP3 SWAP2 POP POP JUMP JUMPDEST PUSH1 0x0 PUSH1 0x20 DUP3 DUP5 SUB SLT ISZERO PUSH2 0x2394 JUMPI PUSH2 0x2393 PUSH2 0x2F6F JUMP JUMPDEST JUMPDEST PUSH1 0x0 PUSH2 0x23A2 DUP5 DUP3 DUP6 ADD PUSH2 0x2277 JUMP JUMPDEST SWAP2 POP POP SWAP3 SWAP2 POP POP JUMP JUMPDEST PUSH1 0x0 PUSH1 0x20 DUP3 DUP5 SUB SLT ISZERO PUSH2 0x23C1 JUMPI PUSH2 0x23C0 PUSH2 0x2F6F JUMP JUMPDEST JUMPDEST PUSH1 0x0 PUSH2 0x23CF DUP5 DUP3 DUP6 ADD PUSH2 0x228C JUMP JUMPDEST SWAP2 POP POP SWAP3 SWAP2 POP POP JUMP JUMPDEST PUSH1 0x0 PUSH2 0x23E4 DUP4 DUP4 PUSH2 0x279A JUMP JUMPDEST PUSH1 0x20 DUP4 ADD SWAP1 POP SWAP3 SWAP2 POP POP JUMP JUMPDEST PUSH2 0x23F9 DUP2 PUSH2 0x2CFE JUMP JUMPDEST DUP3 MSTORE POP POP JUMP JUMPDEST PUSH2 0x2408 DUP2 PUSH2 0x2CFE JUMP JUMPDEST DUP3 MSTORE POP POP JUMP JUMPDEST PUSH1 0x0 PUSH2 0x2419 DUP3 PUSH2 0x2B93 JUMP JUMPDEST PUSH2 0x2423 DUP2 DUP6 PUSH2 0x2BB6 JUMP JUMPDEST SWAP4 POP PUSH2 0x242E DUP4 PUSH2 0x2B83 JUMP JUMPDEST DUP1 PUSH1 0x0 JUMPDEST DUP4 DUP2 LT ISZERO PUSH2 0x245F JUMPI DUP2 MLOAD PUSH2 0x2446 DUP9 DUP3 PUSH2 0x23D8 JUMP JUMPDEST SWAP8 POP PUSH2 0x2451 DUP4 PUSH2 0x2BA9 JUMP JUMPDEST SWAP3 POP POP PUSH1 0x1 DUP2 ADD SWAP1 POP PUSH2 0x2432 JUMP JUMPDEST POP DUP6 SWAP4 POP POP POP POP SWAP3 SWAP2 POP POP JUMP JUMPDEST PUSH2 0x2475 DUP2 PUSH2 0x2D10 JUMP JUMPDEST DUP3 MSTORE POP POP JUMP JUMPDEST PUSH2 0x2484 DUP2 PUSH2 0x2D10 JUMP JUMPDEST DUP3 MSTORE POP POP JUMP JUMPDEST PUSH2 0x2493 DUP2 PUSH2 0x2D46 JUMP JUMPDEST DUP3 MSTORE POP POP JUMP JUMPDEST PUSH1 0x0 PUSH2 0x24A4 DUP3 PUSH2 0x2B9E JUMP JUMPDEST PUSH2 0x24AE DUP2 DUP6 PUSH2 0x2BC7 JUMP JUMPDEST SWAP4 POP PUSH2 0x24BE DUP2 DUP6 PUSH1 0x20 DUP7 ADD PUSH2 0x2D67 JUMP JUMPDEST PUSH2 0x24C7 DUP2 PUSH2 0x2F74 JUMP JUMPDEST DUP5 ADD SWAP2 POP POP SWAP3 SWAP2 POP POP JUMP JUMPDEST PUSH1 0x0 PUSH2 0x24DF PUSH1 0x12 DUP4 PUSH2 0x2BD8 JUMP JUMPDEST SWAP2 POP PUSH2 0x24EA DUP3 PUSH2 0x2F85 JUMP JUMPDEST PUSH1 0x20 DUP3 ADD SWAP1 POP SWAP2 SWAP1 POP JUMP JUMPDEST PUSH1 0x0 PUSH2 0x2502 PUSH1 0x13 DUP4 PUSH2 0x2BD8 JUMP JUMPDEST SWAP2 POP PUSH2 0x250D DUP3 PUSH2 0x2FAE JUMP JUMPDEST PUSH1 0x20 DUP3 ADD SWAP1 POP SWAP2 SWAP1 POP JUMP JUMPDEST PUSH1 0x0 PUSH2 0x2525 PUSH1 0x13 DUP4 PUSH2 0x2BD8 JUMP JUMPDEST SWAP2 POP PUSH2 0x2530 DUP3 PUSH2 0x2FD7 JUMP JUMPDEST PUSH1 0x20 DUP3 ADD SWAP1 POP SWAP2 SWAP1 POP JUMP JUMPDEST PUSH1 0x0 PUSH2 0x2548 PUSH1 0x26 DUP4 PUSH2 0x2BD8 JUMP JUMPDEST SWAP2 POP PUSH2 0x2553 DUP3 PUSH2 0x3000 JUMP JUMPDEST PUSH1 0x40 DUP3 ADD SWAP1 POP SWAP2 SWAP1 POP JUMP JUMPDEST PUSH1 0x0 PUSH2 0x256B PUSH1 0x13 DUP4 PUSH2 0x2BD8 JUMP JUMPDEST SWAP2 POP PUSH2 0x2576 DUP3 PUSH2 0x304F JUMP JUMPDEST PUSH1 0x20 DUP3 ADD SWAP1 POP SWAP2 SWAP1 POP JUMP JUMPDEST PUSH1 0x0 PUSH2 0x258E PUSH1 0x1C DUP4 PUSH2 0x2BD8 JUMP JUMPDEST SWAP2 POP PUSH2 0x2599 DUP3 PUSH2 0x3078 JUMP JUMPDEST PUSH1 0x20 DUP3 ADD SWAP1 POP SWAP2 SWAP1 POP JUMP JUMPDEST PUSH1 0x0 PUSH2 0x25B1 PUSH1 0x16 DUP4 PUSH2 0x2BD8 JUMP JUMPDEST SWAP2 POP PUSH2 0x25BC DUP3 PUSH2 0x30A1 JUMP JUMPDEST PUSH1 0x20 DUP3 ADD SWAP1 POP SWAP2 SWAP1 POP JUMP JUMPDEST PUSH1 0x0 PUSH2 0x25D4 PUSH1 0x15 DUP4 PUSH2 0x2BD8 JUMP JUMPDEST SWAP2 POP PUSH2 0x25DF DUP3 PUSH2 0x30CA JUMP JUMPDEST PUSH1 0x20 DUP3 ADD SWAP1 POP SWAP2 SWAP1 POP JUMP JUMPDEST PUSH1 0x0 PUSH2 0x25F7 PUSH1 0x20 DUP4 PUSH2 0x2BD8 JUMP JUMPDEST SWAP2 POP PUSH2 0x2602 DUP3 PUSH2 0x30F3 JUMP JUMPDEST PUSH1 0x20 DUP3 ADD SWAP1 POP SWAP2 SWAP1 POP JUMP JUMPDEST PUSH1 0x0 PUSH2 0x261A PUSH1 0xC DUP4 PUSH2 0x2BD8 JUMP JUMPDEST SWAP2 POP PUSH2 0x2625 DUP3 PUSH2 0x311C JUMP JUMPDEST PUSH1 0x20 DUP3 ADD SWAP1 POP SWAP2 SWAP1 POP JUMP JUMPDEST PUSH1 0x0 PUSH2 0x263D PUSH1 0x23 DUP4 PUSH2 0x2BD8 JUMP JUMPDEST SWAP2 POP PUSH2 0x2648 DUP3 PUSH2 0x3145 JUMP JUMPDEST PUSH1 0x40 DUP3 ADD SWAP1 POP SWAP2 SWAP1 POP JUMP JUMPDEST PUSH1 0x0 PUSH2 0x2660 PUSH1 0x12 DUP4 PUSH2 0x2BD8 JUMP JUMPDEST SWAP2 POP PUSH2 0x266B DUP3 PUSH2 0x3194 JUMP JUMPDEST PUSH1 0x20 DUP3 ADD SWAP1 POP SWAP2 SWAP1 POP JUMP JUMPDEST PUSH1 0x0 PUSH2 0x2683 PUSH1 0x1D DUP4 PUSH2 0x2BD8 JUMP JUMPDEST SWAP2 POP PUSH2 0x268E DUP3 PUSH2 0x31BD JUMP JUMPDEST PUSH1 0x20 DUP3 ADD SWAP1 POP SWAP2 SWAP1 POP JUMP JUMPDEST PUSH1 0x0 PUSH2 0x26A6 PUSH1 0x13 DUP4 PUSH2 0x2BD8 JUMP JUMPDEST SWAP2 POP PUSH2 0x26B1 DUP3 PUSH2 0x31E6 JUMP JUMPDEST PUSH1 0x20 DUP3 ADD SWAP1 POP SWAP2 SWAP1 POP JUMP JUMPDEST PUSH1 0x0 PUSH1 0xC0 DUP4 ADD PUSH1 0x0 DUP4 ADD MLOAD PUSH2 0x26D4 PUSH1 0x0 DUP7 ADD DUP3 PUSH2 0x23F0 JUMP JUMPDEST POP PUSH1 0x20 DUP4 ADD MLOAD PUSH2 0x26E7 PUSH1 0x20 DUP7 ADD DUP3 PUSH2 0x23F0 JUMP JUMPDEST POP PUSH1 0x40 DUP4 ADD MLOAD PUSH2 0x26FA PUSH1 0x40 DUP7 ADD DUP3 PUSH2 0x279A JUMP JUMPDEST POP PUSH1 0x60 DUP4 ADD MLOAD DUP5 DUP3 SUB PUSH1 0x60 DUP7 ADD MSTORE PUSH2 0x2712 DUP3 DUP3 PUSH2 0x2499 JUMP JUMPDEST SWAP2 POP POP PUSH1 0x80 DUP4 ADD MLOAD PUSH2 0x2727 PUSH1 0x80 DUP7 ADD DUP3 PUSH2 0x246C JUMP JUMPDEST POP PUSH1 0xA0 DUP4 ADD MLOAD PUSH2 0x273A PUSH1 0xA0 DUP7 ADD DUP3 PUSH2 0x279A JUMP JUMPDEST POP DUP1 SWAP2 POP POP SWAP3 SWAP2 POP POP JUMP JUMPDEST PUSH1 0x80 DUP3 ADD PUSH1 0x0 DUP3 ADD MLOAD PUSH2 0x275B PUSH1 0x0 DUP6 ADD DUP3 PUSH2 0x246C JUMP JUMPDEST POP PUSH1 0x20 DUP3 ADD MLOAD PUSH2 0x276E PUSH1 0x20 DUP6 ADD DUP3 PUSH2 0x279A JUMP JUMPDEST POP PUSH1 0x40 DUP3 ADD MLOAD PUSH2 0x2781 PUSH1 0x40 DUP6 ADD DUP3 PUSH2 0x279A JUMP JUMPDEST POP PUSH1 0x60 DUP3 ADD MLOAD PUSH2 0x2794 PUSH1 0x60 DUP6 ADD DUP3 PUSH2 0x279A JUMP JUMPDEST POP POP POP POP JUMP JUMPDEST PUSH2 0x27A3 DUP2 PUSH2 0x2D3C JUMP JUMPDEST DUP3 MSTORE POP POP JUMP JUMPDEST PUSH2 0x27B2 DUP2 PUSH2 0x2D3C JUMP JUMPDEST DUP3 MSTORE POP POP JUMP JUMPDEST PUSH1 0x0 PUSH1 0x20 DUP3 ADD SWAP1 POP PUSH2 0x27CD PUSH1 0x0 DUP4 ADD DUP5 PUSH2 0x23FF JUMP JUMPDEST SWAP3 SWAP2 POP POP JUMP JUMPDEST PUSH1 0x0 PUSH1 0x40 DUP3 ADD SWAP1 POP PUSH2 0x27E8 PUSH1 0x0 DUP4 ADD DUP6 PUSH2 0x23FF JUMP JUMPDEST PUSH2 0x27F5 PUSH1 0x20 DUP4 ADD DUP5 PUSH2 0x23FF JUMP JUMPDEST SWAP4 SWAP3 POP POP POP JUMP JUMPDEST PUSH1 0x0 PUSH1 0x60 DUP3 ADD SWAP1 POP PUSH2 0x2811 PUSH1 0x0 DUP4 ADD DUP7 PUSH2 0x23FF JUMP JUMPDEST PUSH2 0x281E PUSH1 0x20 DUP4 ADD DUP6 PUSH2 0x23FF JUMP JUMPDEST PUSH2 0x282B PUSH1 0x40 DUP4 ADD DUP5 PUSH2 0x27A9 JUMP JUMPDEST SWAP5 SWAP4 POP POP POP POP JUMP JUMPDEST PUSH1 0x0 PUSH1 0x40 DUP3 ADD SWAP1 POP PUSH2 0x2848 PUSH1 0x0 DUP4 ADD DUP6 PUSH2 0x23FF JUMP JUMPDEST PUSH2 0x2855 PUSH1 0x20 DUP4 ADD DUP5 PUSH2 0x27A9 JUMP JUMPDEST SWAP4 SWAP3 POP POP POP JUMP JUMPDEST PUSH1 0x0 PUSH1 0x80 DUP3 ADD SWAP1 POP PUSH2 0x2871 PUSH1 0x0 DUP4 ADD DUP8 PUSH2 0x23FF JUMP JUMPDEST PUSH2 0x287E PUSH1 0x20 DUP4 ADD DUP7 PUSH2 0x27A9 JUMP JUMPDEST PUSH2 0x288B PUSH1 0x40 DUP4 ADD DUP6 PUSH2 0x248A JUMP JUMPDEST PUSH2 0x2898 PUSH1 0x60 DUP4 ADD DUP5 PUSH2 0x27A9 JUMP JUMPDEST SWAP6 SWAP5 POP POP POP POP POP JUMP JUMPDEST PUSH1 0x0 PUSH1 0x60 DUP3 ADD SWAP1 POP PUSH2 0x28B6 PUSH1 0x0 DUP4 ADD DUP7 PUSH2 0x23FF JUMP JUMPDEST PUSH2 0x28C3 PUSH1 0x20 DUP4 ADD DUP6 PUSH2 0x27A9 JUMP JUMPDEST PUSH2 0x28D0 PUSH1 0x40 DUP4 ADD DUP5 PUSH2 0x27A9 JUMP JUMPDEST SWAP5 SWAP4 POP POP POP POP JUMP JUMPDEST PUSH1 0x0 PUSH1 0x20 DUP3 ADD SWAP1 POP DUP2 DUP2 SUB PUSH1 0x0 DUP4 ADD MSTORE PUSH2 0x28F2 DUP2 DUP5 PUSH2 0x240E JUMP JUMPDEST SWAP1 POP SWAP3 SWAP2 POP POP JUMP JUMPDEST PUSH1 0x0 PUSH1 0x20 DUP3 ADD SWAP1 POP PUSH2 0x290F PUSH1 0x0 DUP4 ADD DUP5 PUSH2 0x247B JUMP JUMPDEST SWAP3 SWAP2 POP POP JUMP JUMPDEST PUSH1 0x0 PUSH1 0x20 DUP3 ADD SWAP1 POP DUP2 DUP2 SUB PUSH1 0x0 DUP4 ADD MSTORE PUSH2 0x292E DUP2 PUSH2 0x24D2 JUMP JUMPDEST SWAP1 POP SWAP2 SWAP1 POP JUMP JUMPDEST PUSH1 0x0 PUSH1 0x20 DUP3 ADD SWAP1 POP DUP2 DUP2 SUB PUSH1 0x0 DUP4 ADD MSTORE PUSH2 0x294E DUP2 PUSH2 0x24F5 JUMP JUMPDEST SWAP1 POP SWAP2 SWAP1 POP JUMP JUMPDEST PUSH1 0x0 PUSH1 0x20 DUP3 ADD SWAP1 POP DUP2 DUP2 SUB PUSH1 0x0 DUP4 ADD MSTORE PUSH2 0x296E DUP2 PUSH2 0x2518 JUMP JUMPDEST SWAP1 POP SWAP2 SWAP1 POP JUMP JUMPDEST PUSH1 0x0 PUSH1 0x20 DUP3 ADD SWAP1 POP DUP2 DUP2 SUB PUSH1 0x0 DUP4 ADD MSTORE PUSH2 0x298E DUP2 PUSH2 0x253B JUMP JUMPDEST SWAP1 POP SWAP2 SWAP1 POP JUMP JUMPDEST PUSH1 0x0 PUSH1 0x20 DUP3 ADD SWAP1 POP DUP2 DUP2 SUB PUSH1 0x0 DUP4 ADD MSTORE PUSH2 0x29AE DUP2 PUSH2 0x255E JUMP JUMPDEST SWAP1 POP SWAP2 SWAP1 POP JUMP JUMPDEST PUSH1 0x0 PUSH1 0x20 DUP3 ADD SWAP1 POP DUP2 DUP2 SUB PUSH1 0x0 DUP4 ADD MSTORE PUSH2 0x29CE DUP2 PUSH2 0x2581 JUMP JUMPDEST SWAP1 POP SWAP2 SWAP1 POP JUMP JUMPDEST PUSH1 0x0 PUSH1 0x20 DUP3 ADD SWAP1 POP DUP2 DUP2 SUB PUSH1 0x0 DUP4 ADD MSTORE PUSH2 0x29EE DUP2 PUSH2 0x25A4 JUMP JUMPDEST SWAP1 POP SWAP2 SWAP1 POP JUMP JUMPDEST PUSH1 0x0 PUSH1 0x20 DUP3 ADD SWAP1 POP DUP2 DUP2 SUB PUSH1 0x0 DUP4 ADD MSTORE PUSH2 0x2A0E DUP2 PUSH2 0x25C7 JUMP JUMPDEST SWAP1 POP SWAP2 SWAP1 POP JUMP JUMPDEST PUSH1 0x0 PUSH1 0x20 DUP3 ADD SWAP1 POP DUP2 DUP2 SUB PUSH1 0x0 DUP4 ADD MSTORE PUSH2 0x2A2E DUP2 PUSH2 0x25EA JUMP JUMPDEST SWAP1 POP SWAP2 SWAP1 POP JUMP JUMPDEST PUSH1 0x0 PUSH1 0x20 DUP3 ADD SWAP1 POP DUP2 DUP2 SUB PUSH1 0x0 DUP4 ADD MSTORE PUSH2 0x2A4E DUP2 PUSH2 0x260D JUMP JUMPDEST SWAP1 POP SWAP2 SWAP1 POP JUMP JUMPDEST PUSH1 0x0 PUSH1 0x20 DUP3 ADD SWAP1 POP DUP2 DUP2 SUB PUSH1 0x0 DUP4 ADD MSTORE PUSH2 0x2A6E DUP2 PUSH2 0x2630 JUMP JUMPDEST SWAP1 POP SWAP2 SWAP1 POP JUMP JUMPDEST PUSH1 0x0 PUSH1 0x20 DUP3 ADD SWAP1 POP DUP2 DUP2 SUB PUSH1 0x0 DUP4 ADD MSTORE PUSH2 0x2A8E DUP2 PUSH2 0x2653 JUMP JUMPDEST SWAP1 POP SWAP2 SWAP1 POP JUMP JUMPDEST PUSH1 0x0 PUSH1 0x20 DUP3 ADD SWAP1 POP DUP2 DUP2 SUB PUSH1 0x0 DUP4 ADD MSTORE PUSH2 0x2AAE DUP2 PUSH2 0x2676 JUMP JUMPDEST SWAP1 POP SWAP2 SWAP1 POP JUMP JUMPDEST PUSH1 0x0 PUSH1 0x20 DUP3 ADD SWAP1 POP DUP2 DUP2 SUB PUSH1 0x0 DUP4 ADD MSTORE PUSH2 0x2ACE DUP2 PUSH2 0x2699 JUMP JUMPDEST SWAP1 POP SWAP2 SWAP1 POP JUMP JUMPDEST PUSH1 0x0 PUSH1 0x20 DUP3 ADD SWAP1 POP DUP2 DUP2 SUB PUSH1 0x0 DUP4 ADD MSTORE PUSH2 0x2AEF DUP2 DUP5 PUSH2 0x26BC JUMP JUMPDEST SWAP1 POP SWAP3 SWAP2 POP POP JUMP JUMPDEST PUSH1 0x0 PUSH1 0x80 DUP3 ADD SWAP1 POP PUSH2 0x2B0C PUSH1 0x0 DUP4 ADD DUP5 PUSH2 0x2745 JUMP JUMPDEST SWAP3 SWAP2 POP POP JUMP JUMPDEST PUSH1 0x0 PUSH1 0x20 DUP3 ADD SWAP1 POP PUSH2 0x2B27 PUSH1 0x0 DUP4 ADD DUP5 PUSH2 0x27A9 JUMP JUMPDEST SWAP3 SWAP2 POP POP JUMP JUMPDEST PUSH1 0x0 PUSH2 0x2B37 PUSH2 0x2B48 JUMP JUMPDEST SWAP1 POP PUSH2 0x2B43 DUP3 DUP3 PUSH2 0x2DCC JUMP JUMPDEST SWAP2 SWAP1 POP JUMP JUMPDEST PUSH1 0x0 PUSH1 0x40 MLOAD SWAP1 POP SWAP1 JUMP JUMPDEST PUSH1 0x0 PUSH8 0xFFFFFFFFFFFFFFFF DUP3 GT ISZERO PUSH2 0x2B6D JUMPI PUSH2 0x2B6C PUSH2 0x2F31 JUMP JUMPDEST JUMPDEST PUSH2 0x2B76 DUP3 PUSH2 0x2F74 JUMP JUMPDEST SWAP1 POP PUSH1 0x20 DUP2 ADD SWAP1 POP SWAP2 SWAP1 POP JUMP JUMPDEST PUSH1 0x0 DUP2 SWAP1 POP PUSH1 0x20 DUP3 ADD SWAP1 POP SWAP2 SWAP1 POP JUMP JUMPDEST PUSH1 0x0 DUP2 MLOAD SWAP1 POP SWAP2 SWAP1 POP JUMP JUMPDEST PUSH1 0x0 DUP2 MLOAD SWAP1 POP SWAP2 SWAP1 POP JUMP JUMPDEST PUSH1 0x0 PUSH1 0x20 DUP3 ADD SWAP1 POP SWAP2 SWAP1 POP JUMP JUMPDEST PUSH1 0x0 DUP3 DUP3 MSTORE PUSH1 0x20 DUP3 ADD SWAP1 POP SWAP3 SWAP2 POP POP JUMP JUMPDEST PUSH1 0x0 DUP3 DUP3 MSTORE PUSH1 0x20 DUP3 ADD SWAP1 POP SWAP3 SWAP2 POP POP JUMP JUMPDEST PUSH1 0x0 DUP3 DUP3 MSTORE PUSH1 0x20 DUP3 ADD SWAP1 POP SWAP3 SWAP2 POP POP JUMP JUMPDEST PUSH1 0x0 PUSH2 0x2BF4 DUP3 PUSH2 0x2D3C JUMP JUMPDEST SWAP2 POP PUSH2 0x2BFF DUP4 PUSH2 0x2D3C JUMP JUMPDEST SWAP3 POP DUP3 PUSH32 0xFFFFFFFFFFFFFFFFFFFFFFFFFFFFFFFFFFFFFFFFFFFFFFFFFFFFFFFFFFFFFFFF SUB DUP3 GT ISZERO PUSH2 0x2C34 JUMPI PUSH2 0x2C33 PUSH2 0x2E46 JUMP JUMPDEST JUMPDEST DUP3 DUP3 ADD SWAP1 POP SWAP3 SWAP2 POP POP JUMP JUMPDEST PUSH1 0x0 PUSH2 0x2C4A DUP3 PUSH2 0x2D3C JUMP JUMPDEST SWAP2 POP PUSH2 0x2C55 DUP4 PUSH2 0x2D3C JUMP JUMPDEST SWAP3 POP DUP3 PUSH2 0x2C65 JUMPI PUSH2 0x2C64 PUSH2 0x2E75 JUMP JUMPDEST JUMPDEST DUP3 DUP3 DIV SWAP1 POP SWAP3 SWAP2 POP POP JUMP JUMPDEST PUSH1 0x0 PUSH2 0x2C7B DUP3 PUSH2 0x2D3C JUMP JUMPDEST SWAP2 POP PUSH2 0x2C86 DUP4 PUSH2 0x2D3C JUMP JUMPDEST SWAP3 POP DUP2 PUSH32 0xFFFFFFFFFFFFFFFFFFFFFFFFFFFFFFFFFFFFFFFFFFFFFFFFFFFFFFFFFFFFFFFF DIV DUP4 GT DUP3 ISZERO ISZERO AND ISZERO PUSH2 0x2CBF JUMPI PUSH2 0x2CBE PUSH2 0x2E46 JUMP JUMPDEST JUMPDEST DUP3 DUP3 MUL SWAP1 POP SWAP3 SWAP2 POP POP JUMP JUMPDEST PUSH1 0x0 PUSH2 0x2CD5 DUP3 PUSH2 0x2D3C JUMP JUMPDEST SWAP2 POP PUSH2 0x2CE0 DUP4 PUSH2 0x2D3C JUMP JUMPDEST SWAP3 POP DUP3 DUP3 LT ISZERO PUSH2 0x2CF3 JUMPI PUSH2 0x2CF2 PUSH2 0x2E46 JUMP JUMPDEST JUMPDEST DUP3 DUP3 SUB SWAP1 POP SWAP3 SWAP2 POP POP JUMP JUMPDEST PUSH1 0x0 PUSH2 0x2D09 DUP3 PUSH2 0x2D1C JUMP JUMPDEST SWAP1 POP SWAP2 SWAP1 POP JUMP JUMPDEST PUSH1 0x0 DUP2 ISZERO ISZERO SWAP1 POP SWAP2 SWAP1 POP JUMP JUMPDEST PUSH1 0x0 PUSH20 0xFFFFFFFFFFFFFFFFFFFFFFFFFFFFFFFFFFFFFFFF DUP3 AND SWAP1 POP SWAP2 SWAP1 POP JUMP JUMPDEST PUSH1 0x0 DUP2 SWAP1 POP SWAP2 SWAP1 POP JUMP JUMPDEST PUSH1 0x0 PUSH2 0x2D51 DUP3 PUSH2 0x2D3C JUMP JUMPDEST SWAP1 POP SWAP2 SWAP1 POP JUMP JUMPDEST DUP3 DUP2 DUP4 CALLDATACOPY PUSH1 0x0 DUP4 DUP4 ADD MSTORE POP POP POP JUMP JUMPDEST PUSH1 0x0 JUMPDEST DUP4 DUP2 LT ISZERO PUSH2 0x2D85 JUMPI DUP1 DUP3 ADD MLOAD DUP2 DUP5 ADD MSTORE PUSH1 0x20 DUP2 ADD SWAP1 POP PUSH2 0x2D6A JUMP JUMPDEST DUP4 DUP2 GT ISZERO PUSH2 0x2D94 JUMPI PUSH1 0x0 DUP5 DUP5 ADD MSTORE JUMPDEST POP POP POP POP JUMP JUMPDEST PUSH1 0x0 PUSH1 0x2 DUP3 DIV SWAP1 POP PUSH1 0x1 DUP3 AND DUP1 PUSH2 0x2DB2 JUMPI PUSH1 0x7F DUP3 AND SWAP2 POP JUMPDEST PUSH1 0x20 DUP3 LT DUP2 EQ ISZERO PUSH2 0x2DC6 JUMPI PUSH2 0x2DC5 PUSH2 0x2EA4 JUMP JUMPDEST JUMPDEST POP SWAP2 SWAP1 POP JUMP JUMPDEST PUSH2 0x2DD5 DUP3 PUSH2 0x2F74 JUMP JUMPDEST DUP2 ADD DUP2 DUP2 LT PUSH8 0xFFFFFFFFFFFFFFFF DUP3 GT OR ISZERO PUSH2 0x2DF4 JUMPI PUSH2 0x2DF3 PUSH2 0x2F31 JUMP JUMPDEST JUMPDEST DUP1 PUSH1 0x40 MSTORE POP POP POP JUMP JUMPDEST PUSH1 0x0 PUSH2 0x2E08 DUP3 PUSH2 0x2D3C JUMP JUMPDEST SWAP2 POP PUSH32 0xFFFFFFFFFFFFFFFFFFFFFFFFFFFFFFFFFFFFFFFFFFFFFFFFFFFFFFFFFFFFFFFF DUP3 EQ ISZERO PUSH2 0x2E3B JUMPI PUSH2 0x2E3A PUSH2 0x2E46 JUMP JUMPDEST JUMPDEST PUSH1 0x1 DUP3 ADD SWAP1 POP SWAP2 SWAP1 POP JUMP JUMPDEST PUSH32 0x4E487B7100000000000000000000000000000000000000000000000000000000 PUSH1 0x0 MSTORE PUSH1 0x11 PUSH1 0x4 MSTORE PUSH1 0x24 PUSH1 0x0 REVERT JUMPDEST PUSH32 0x4E487B7100000000000000000000000000000000000000000000000000000000 PUSH1 0x0 MSTORE PUSH1 0x12 PUSH1 0x4 MSTORE PUSH1 0x24 PUSH1 0x0 REVERT JUMPDEST PUSH32 0x4E487B7100000000000000000000000000000000000000000000000000000000 PUSH1 0x0 MSTORE PUSH1 0x22 PUSH1 0x4 MSTORE PUSH1 0x24 PUSH1 0x0 REVERT JUMPDEST PUSH32 0x4E487B7100000000000000000000000000000000000000000000000000000000 PUSH1 0x0 MSTORE PUSH1 0x31 PUSH1 0x4 MSTORE PUSH1 0x24 PUSH1 0x0 REVERT JUMPDEST PUSH32 0x4E487B7100000000000000000000000000000000000000000000000000000000 PUSH1 0x0 MSTORE PUSH1 0x32 PUSH1 0x4 MSTORE PUSH1 0x24 PUSH1 0x0 REVERT JUMPDEST PUSH32 0x4E487B7100000000000000000000000000000000000000000000000000000000 PUSH1 0x0 MSTORE PUSH1 0x41 PUSH1 0x4 MSTORE PUSH1 0x24 PUSH1 0x0 REVERT JUMPDEST PUSH1 0x0 DUP1 REVERT JUMPDEST PUSH1 0x0 DUP1 REVERT JUMPDEST PUSH1 0x0 DUP1 REVERT JUMPDEST PUSH1 0x0 DUP1 REVERT JUMPDEST PUSH1 0x0 PUSH1 0x1F NOT PUSH1 0x1F DUP4 ADD AND SWAP1 POP SWAP2 SWAP1 POP JUMP JUMPDEST PUSH32 0x596F7520617265206E6F74207374616B65640000000000000000000000000000 PUSH1 0x0 DUP3 ADD MSTORE POP JUMP JUMPDEST PUSH32 0x546F6B656E73206E6F7420617070726F76656400000000000000000000000000 PUSH1 0x0 DUP3 ADD MSTORE POP JUMP JUMPDEST PUSH32 0x4E6F7468696E6720746F20776974686472617700000000000000000000000000 PUSH1 0x0 DUP3 ADD MSTORE POP JUMP JUMPDEST PUSH32 0x4F776E61626C653A206E6577206F776E657220697320746865207A65726F2061 PUSH1 0x0 DUP3 ADD MSTORE PUSH32 0x6464726573730000000000000000000000000000000000000000000000000000 PUSH1 0x20 DUP3 ADD MSTORE POP JUMP JUMPDEST PUSH32 0x4461696C79206C696D6974207265616368656400000000000000000000000000 PUSH1 0x0 DUP3 ADD MSTORE POP JUMP JUMPDEST PUSH32 0x596F752063616E2774207374616B6520696E207468697320706F6F6C00000000 PUSH1 0x0 DUP3 ADD MSTORE POP JUMP JUMPDEST PUSH32 0x496E76616C696420726577617264206164647265737300000000000000000000 PUSH1 0x0 DUP3 ADD MSTORE POP JUMP JUMPDEST PUSH32 0x496E76616C6964207374616B6520616464726573730000000000000000000000 PUSH1 0x0 DUP3 ADD MSTORE POP JUMP JUMPDEST PUSH32 0x4F776E61626C653A2063616C6C6572206973206E6F7420746865206F776E6572 PUSH1 0x0 DUP3 ADD MSTORE POP JUMP JUMPDEST PUSH32 0x506F6F6C20657869737473210000000000000000000000000000000000000000 PUSH1 0x0 DUP3 ADD MSTORE POP JUMP JUMPDEST PUSH32 0x5374616B696E6720616D6F756E74206973206C657373207468656E206D696E69 PUSH1 0x0 DUP3 ADD MSTORE PUSH32 0x6D756D0000000000000000000000000000000000000000000000000000000000 PUSH1 0x20 DUP3 ADD MSTORE POP JUMP JUMPDEST PUSH32 0x596F7520616C7265616479207374616B65640000000000000000000000000000 PUSH1 0x0 DUP3 ADD MSTORE POP JUMP JUMPDEST PUSH32 0x596F752063616E2774207472616E736665722074686520746F6B656E73000000 PUSH1 0x0 DUP3 ADD MSTORE POP JUMP JUMPDEST PUSH32 0x43616E6E6F742063616E63656C20706F6F6C2100000000000000000000000000 PUSH1 0x0 DUP3 ADD MSTORE POP JUMP JUMPDEST PUSH2 0x3218 DUP2 PUSH2 0x2CFE JUMP JUMPDEST DUP2 EQ PUSH2 0x3223 JUMPI PUSH1 0x0 DUP1 REVERT JUMPDEST POP JUMP JUMPDEST PUSH2 0x322F DUP2 PUSH2 0x2D10 JUMP JUMPDEST DUP2 EQ PUSH2 0x323A JUMPI PUSH1 0x0 DUP1 REVERT JUMPDEST POP JUMP JUMPDEST PUSH2 0x3246 DUP2 PUSH2 0x2D3C JUMP JUMPDEST DUP2 EQ PUSH2 0x3251 JUMPI PUSH1 0x0 DUP1 REVERT JUMPDEST POP JUMP INVALID LOG2 PUSH5 0x6970667358 0x22 SLT KECCAK256 0x1F MOD 0xB3 0xBB PUSH17 0xCBF479653AD61214E73D733C1669D7D0AA 0x27 DUP9 SLOAD DUP7 ADDMOD SHR RETURNDATASIZE 0xB5 ORIGIN 0x5C PUSH5 0x736F6C6343 STOP ADDMOD SMOD STOP CALLER "
				},
				"gasEstimates": {
					"creation": {
						"codeDepositCost": "2587600",
						"executionCost": "infinite",
						"totalCost": "infinite"
					},
					"external": {
						"changeDailyCapLimit(uint256)": "24873",
						"changeMinStakeAmt(uint256)": "24806",
						"checkPoolPause()": "4720",
						"createPool(address,address,string,uint256)": "infinite",
						"dailyCapAmt()": "2475",
						"depositRewardToken(uint256)": "infinite",
						"getCurrentReward(address)": "infinite",
						"getDailyCap(uint256)": "infinite",
						"getPoolInfo()": "infinite",
						"getStakeDetails(address)": "infinite",
						"getTotalReward(address)": "infinite",
						"getUserPoolIDLength(address)": "2872",
						"getUserPoolId(address)": "infinite",
						"minStakeAmount()": "2495",
						"owner()": "2545",
						"poolPauseUnPause()": "37639",
						"renounceOwnership()": "30509",
						"stake(uint256)": "infinite",
						"transferOwnership(address)": "30835",
						"transferTokens(uint256)": "infinite",
						"unStake()": "infinite",
						"withdraw()": "infinite"
					},
					"internal": {
						"_withdraw(address)": "infinite"
					}
				},
				"methodIdentifiers": {
					"changeDailyCapLimit(uint256)": "d21cb76e",
					"changeMinStakeAmt(uint256)": "e36c723b",
					"checkPoolPause()": "e7732d0a",
					"createPool(address,address,string,uint256)": "60c18315",
					"dailyCapAmt()": "14e1b95b",
					"depositRewardToken(uint256)": "c089bd74",
					"getCurrentReward(address)": "4d307e3f",
					"getDailyCap(uint256)": "0d2f0374",
					"getPoolInfo()": "60246c88",
					"getStakeDetails(address)": "f41322ac",
					"getTotalReward(address)": "34381749",
					"getUserPoolIDLength(address)": "4b0cd1f3",
					"getUserPoolId(address)": "20867caa",
					"minStakeAmount()": "f1887684",
					"owner()": "8da5cb5b",
					"poolPauseUnPause()": "da906bf6",
					"renounceOwnership()": "715018a6",
					"stake(uint256)": "a694fc3a",
					"transferOwnership(address)": "f2fde38b",
					"transferTokens(uint256)": "fd9a4e61",
					"unStake()": "73cf575a",
					"withdraw()": "3ccfd60b"
				}
			},
			"storageLayout": {
				"storage": [
					{
						"astId": 7,
						"contract": "Staking.sol:StakeContract",
						"label": "_owner",
						"offset": 0,
						"slot": "0",
						"type": "t_address"
					},
					{
						"astId": 833,
						"contract": "Staking.sol:StakeContract",
						"label": "minStakeAmount",
						"offset": 0,
						"slot": "1",
						"type": "t_uint256"
					},
					{
						"astId": 836,
						"contract": "Staking.sol:StakeContract",
						"label": "dailyCapAmt",
						"offset": 0,
						"slot": "2",
						"type": "t_uint256"
					},
					{
						"astId": 839,
						"contract": "Staking.sol:StakeContract",
						"label": "poolCreated",
						"offset": 0,
						"slot": "3",
						"type": "t_bool"
					},
					{
						"astId": 865,
						"contract": "Staking.sol:StakeContract",
						"label": "poolInfo",
						"offset": 0,
						"slot": "4",
						"type": "t_array(t_struct(PoolStruct)852_storage)dyn_storage"
					},
					{
						"astId": 870,
						"contract": "Staking.sol:StakeContract",
						"label": "userPoolIds",
						"offset": 0,
						"slot": "5",
						"type": "t_mapping(t_address,t_array(t_uint256)dyn_storage)"
					},
					{
						"astId": 876,
						"contract": "Staking.sol:StakeContract",
						"label": "dailyCap",
						"offset": 0,
						"slot": "6",
						"type": "t_mapping(t_uint256,t_mapping(t_uint256,t_uint256))"
					},
					{
						"astId": 883,
						"contract": "Staking.sol:StakeContract",
						"label": "stakeDetails",
						"offset": 0,
						"slot": "7",
						"type": "t_mapping(t_address,t_mapping(t_uint256,t_struct(StakeStruct)861_storage))"
					}
				],
				"types": {
					"t_address": {
						"encoding": "inplace",
						"label": "address",
						"numberOfBytes": "20"
					},
					"t_array(t_struct(PoolStruct)852_storage)dyn_storage": {
						"base": "t_struct(PoolStruct)852_storage",
						"encoding": "dynamic_array",
						"label": "struct StakeContract.PoolStruct[]",
						"numberOfBytes": "32"
					},
					"t_array(t_uint256)dyn_storage": {
						"base": "t_uint256",
						"encoding": "dynamic_array",
						"label": "uint256[]",
						"numberOfBytes": "32"
					},
					"t_bool": {
						"encoding": "inplace",
						"label": "bool",
						"numberOfBytes": "1"
					},
					"t_mapping(t_address,t_array(t_uint256)dyn_storage)": {
						"encoding": "mapping",
						"key": "t_address",
						"label": "mapping(address => uint256[])",
						"numberOfBytes": "32",
						"value": "t_array(t_uint256)dyn_storage"
					},
					"t_mapping(t_address,t_mapping(t_uint256,t_struct(StakeStruct)861_storage))": {
						"encoding": "mapping",
						"key": "t_address",
						"label": "mapping(address => mapping(uint256 => struct StakeContract.StakeStruct))",
						"numberOfBytes": "32",
						"value": "t_mapping(t_uint256,t_struct(StakeStruct)861_storage)"
					},
					"t_mapping(t_uint256,t_mapping(t_uint256,t_uint256))": {
						"encoding": "mapping",
						"key": "t_uint256",
						"label": "mapping(uint256 => mapping(uint256 => uint256))",
						"numberOfBytes": "32",
						"value": "t_mapping(t_uint256,t_uint256)"
					},
					"t_mapping(t_uint256,t_struct(StakeStruct)861_storage)": {
						"encoding": "mapping",
						"key": "t_uint256",
						"label": "mapping(uint256 => struct StakeContract.StakeStruct)",
						"numberOfBytes": "32",
						"value": "t_struct(StakeStruct)861_storage"
					},
					"t_mapping(t_uint256,t_uint256)": {
						"encoding": "mapping",
						"key": "t_uint256",
						"label": "mapping(uint256 => uint256)",
						"numberOfBytes": "32",
						"value": "t_uint256"
					},
					"t_string_storage": {
						"encoding": "bytes",
						"label": "string",
						"numberOfBytes": "32"
					},
					"t_struct(PoolStruct)852_storage": {
						"encoding": "inplace",
						"label": "struct StakeContract.PoolStruct",
						"members": [
							{
								"astId": 841,
								"contract": "Staking.sol:StakeContract",
								"label": "tokenAddress",
								"offset": 0,
								"slot": "0",
								"type": "t_address"
							},
							{
								"astId": 843,
								"contract": "Staking.sol:StakeContract",
								"label": "rewardAddress",
								"offset": 0,
								"slot": "1",
								"type": "t_address"
							},
							{
								"astId": 845,
								"contract": "Staking.sol:StakeContract",
								"label": "totalStakeAmount",
								"offset": 0,
								"slot": "2",
								"type": "t_uint256"
							},
							{
								"astId": 847,
								"contract": "Staking.sol:StakeContract",
								"label": "name",
								"offset": 0,
								"slot": "3",
								"type": "t_string_storage"
							},
							{
								"astId": 849,
								"contract": "Staking.sol:StakeContract",
								"label": "isPoolPause",
								"offset": 0,
								"slot": "4",
								"type": "t_bool"
							},
							{
								"astId": 851,
								"contract": "Staking.sol:StakeContract",
								"label": "apy",
								"offset": 0,
								"slot": "5",
								"type": "t_uint256"
							}
						],
						"numberOfBytes": "192"
					},
					"t_struct(StakeStruct)861_storage": {
						"encoding": "inplace",
						"label": "struct StakeContract.StakeStruct",
						"members": [
							{
								"astId": 854,
								"contract": "Staking.sol:StakeContract",
								"label": "isExist",
								"offset": 0,
								"slot": "0",
								"type": "t_bool"
							},
							{
								"astId": 856,
								"contract": "Staking.sol:StakeContract",
								"label": "amount",
								"offset": 0,
								"slot": "1",
								"type": "t_uint256"
							},
							{
								"astId": 858,
								"contract": "Staking.sol:StakeContract",
								"label": "stakeTime",
								"offset": 0,
								"slot": "2",
								"type": "t_uint256"
							},
							{
								"astId": 860,
								"contract": "Staking.sol:StakeContract",
								"label": "withdrawn",
								"offset": 0,
								"slot": "3",
								"type": "t_uint256"
							}
						],
						"numberOfBytes": "128"
					},
					"t_uint256": {
						"encoding": "inplace",
						"label": "uint256",
						"numberOfBytes": "32"
					}
				}
			},
			"userdoc": {
				"kind": "user",
				"methods": {},
				"version": 1
			}
		}
	}
}