{
	"Staking.sol": {
		"StakeContract": {
			"abi": [
				{
					"anonymous": false,
					"inputs": [
						{
							"indexed": true,
							"internalType": "address",
							"name": "previousOwner",
							"type": "address"
						},
						{
							"indexed": true,
							"internalType": "address",
							"name": "newOwner",
							"type": "address"
						}
					],
					"name": "OwnershipTransferred",
					"type": "event"
				},
				{
					"anonymous": false,
					"inputs": [
						{
							"indexed": false,
							"internalType": "address",
							"name": "_user",
							"type": "address"
						},
						{
							"indexed": false,
							"internalType": "uint256",
							"name": "_amount",
							"type": "uint256"
						},
						{
							"indexed": false,
							"internalType": "uint256",
							"name": "_pool",
							"type": "uint256"
						},
						{
							"indexed": false,
							"internalType": "uint256",
							"name": "_time",
							"type": "uint256"
						}
					],
					"name": "Stake",
					"type": "event"
				},
				{
					"anonymous": false,
					"inputs": [
						{
							"indexed": false,
							"internalType": "address",
							"name": "_user",
							"type": "address"
						},
						{
							"indexed": false,
							"internalType": "uint256",
							"name": "_amount",
							"type": "uint256"
						},
						{
							"indexed": false,
							"internalType": "uint256",
							"name": "_time",
							"type": "uint256"
						}
					],
					"name": "UnStake",
					"type": "event"
				},
				{
					"anonymous": false,
					"inputs": [
						{
							"indexed": false,
							"internalType": "address",
							"name": "_user",
							"type": "address"
						},
						{
							"indexed": false,
							"internalType": "uint256",
							"name": "_amount",
							"type": "uint256"
						},
						{
							"indexed": false,
							"internalType": "uint256",
							"name": "_time",
							"type": "uint256"
						}
					],
					"name": "Withdrawal",
					"type": "event"
				},
				{
					"inputs": [
						{
							"internalType": "uint256",
							"name": "_limit",
							"type": "uint256"
						}
					],
					"name": "changeDailyCapLimit",
					"outputs": [],
					"stateMutability": "nonpayable",
					"type": "function"
				},
				{
					"inputs": [
						{
							"internalType": "uint256",
							"name": "_minAmount",
							"type": "uint256"
						}
					],
					"name": "changeMinStakeAmt",
					"outputs": [],
					"stateMutability": "nonpayable",
					"type": "function"
				},
				{
					"inputs": [],
					"name": "checkPoolPause",
					"outputs": [
						{
							"internalType": "bool",
							"name": "",
							"type": "bool"
						}
					],
					"stateMutability": "view",
					"type": "function"
				},
				{
					"inputs": [
						{
							"internalType": "address",
							"name": "_tokenAddress",
							"type": "address"
						},
						{
							"internalType": "address",
							"name": "_rewardAddress",
							"type": "address"
						},
						{
							"internalType": "string",
							"name": "_name",
							"type": "string"
						},
						{
							"internalType": "uint256",
							"name": "_apy",
							"type": "uint256"
						}
					],
					"name": "createPool",
					"outputs": [],
					"stateMutability": "nonpayable",
					"type": "function"
				},
				{
					"inputs": [],
					"name": "dailyCapAmt",
					"outputs": [
						{
							"internalType": "uint256",
							"name": "",
							"type": "uint256"
						}
					],
					"stateMutability": "view",
					"type": "function"
				},
				{
					"inputs": [
						{
							"internalType": "uint256",
							"name": "_amount",
							"type": "uint256"
						}
					],
					"name": "depositRewardToken",
					"outputs": [],
					"stateMutability": "nonpayable",
					"type": "function"
				},
				{
					"inputs": [
						{
							"internalType": "address",
							"name": "_user",
							"type": "address"
						}
					],
					"name": "getCurrentReward",
					"outputs": [
						{
							"internalType": "uint256",
							"name": "",
							"type": "uint256"
						}
					],
					"stateMutability": "view",
					"type": "function"
				},
				{
					"inputs": [
						{
							"internalType": "uint256",
							"name": "_time",
							"type": "uint256"
						}
					],
					"name": "getDailyCap",
					"outputs": [
						{
							"internalType": "uint256",
							"name": "",
							"type": "uint256"
						}
					],
					"stateMutability": "view",
					"type": "function"
				},
				{
					"inputs": [],
					"name": "getPoolInfo",
					"outputs": [
						{
							"components": [
								{
									"internalType": "address",
									"name": "tokenAddress",
									"type": "address"
								},
								{
									"internalType": "address",
									"name": "rewardAddress",
									"type": "address"
								},
								{
									"internalType": "uint256",
									"name": "totalStakeAmount",
									"type": "uint256"
								},
								{
									"internalType": "string",
									"name": "name",
									"type": "string"
								},
								{
									"internalType": "bool",
									"name": "isPoolPause",
									"type": "bool"
								},
								{
									"internalType": "uint256",
									"name": "apy",
									"type": "uint256"
								}
							],
							"internalType": "struct StakeContract.PoolStruct",
							"name": "",
							"type": "tuple"
						}
					],
					"stateMutability": "view",
					"type": "function"
				},
				{
					"inputs": [
						{
							"internalType": "address",
							"name": "_user",
							"type": "address"
						}
					],
					"name": "getStakeDetails",
					"outputs": [
						{
							"components": [
								{
									"internalType": "bool",
									"name": "isExist",
									"type": "bool"
								},
								{
									"internalType": "uint256",
									"name": "amount",
									"type": "uint256"
								},
								{
									"internalType": "uint256",
									"name": "stakeTime",
									"type": "uint256"
								},
								{
									"internalType": "uint256",
									"name": "withdrawn",
									"type": "uint256"
								}
							],
							"internalType": "struct StakeContract.StakeStruct",
							"name": "",
							"type": "tuple"
						}
					],
					"stateMutability": "view",
					"type": "function"
				},
				{
					"inputs": [
						{
							"internalType": "address",
							"name": "_user",
							"type": "address"
						}
					],
					"name": "getTotalReward",
					"outputs": [
						{
							"internalType": "uint256",
							"name": "",
							"type": "uint256"
						}
					],
					"stateMutability": "view",
					"type": "function"
				},
				{
					"inputs": [
						{
							"internalType": "address",
							"name": "_user",
							"type": "address"
						}
					],
					"name": "getUserPoolId",
					"outputs": [
						{
							"internalType": "uint256[]",
							"name": "",
							"type": "uint256[]"
						}
					],
					"stateMutability": "view",
					"type": "function"
				},
				{
					"inputs": [],
					"name": "minStakeAmount",
					"outputs": [
						{
							"internalType": "uint256",
							"name": "",
							"type": "uint256"
						}
					],
					"stateMutability": "view",
					"type": "function"
				},
				{
					"inputs": [],
					"name": "owner",
					"outputs": [
						{
							"internalType": "address",
							"name": "",
							"type": "address"
						}
					],
					"stateMutability": "view",
					"type": "function"
				},
				{
					"inputs": [],
					"name": "poolPauseUnPause",
					"outputs": [],
					"stateMutability": "nonpayable",
					"type": "function"
				},
				{
					"inputs": [],
					"name": "renounceOwnership",
					"outputs": [],
					"stateMutability": "nonpayable",
					"type": "function"
				},
				{
					"inputs": [
						{
							"internalType": "uint256",
							"name": "_amount",
							"type": "uint256"
						}
					],
					"name": "stake",
					"outputs": [],
					"stateMutability": "payable",
					"type": "function"
				},
				{
					"inputs": [
						{
							"internalType": "address",
							"name": "newOwner",
							"type": "address"
						}
					],
					"name": "transferOwnership",
					"outputs": [],
					"stateMutability": "nonpayable",
					"type": "function"
				},
				{
					"inputs": [
						{
							"internalType": "uint256",
							"name": "_amount",
							"type": "uint256"
						}
					],
					"name": "transferTokens",
					"outputs": [],
					"stateMutability": "nonpayable",
					"type": "function"
				},
				{
					"inputs": [],
					"name": "unStake",
					"outputs": [],
					"stateMutability": "nonpayable",
					"type": "function"
				},
				{
					"inputs": [],
					"name": "withdraw",
					"outputs": [
						{
							"internalType": "bool",
							"name": "",
							"type": "bool"
						}
					],
					"stateMutability": "nonpayable",
					"type": "function"
				}
			],
			"devdoc": {
				"kind": "dev",
				"methods": {
					"owner()": {
						"details": "Returns the address of the current owner."
					},
					"renounceOwnership()": {
						"details": "Leaves the contract without owner. It will not be possible to call `onlyOwner` functions anymore. Can only be called by the current owner. NOTE: Renouncing ownership will leave the contract without an owner, thereby removing any functionality that is only available to the owner."
					},
					"transferOwnership(address)": {
						"details": "Transfers ownership of the contract to a new account (`newOwner`). Can only be called by the current owner."
					}
				},
				"version": 1
			},
			"evm": {
				"assembly": "    /* \"Staking.sol\":305:6807  contract StakeContract is Ownable {\r... */\n  mstore(0x40, 0x80)\n    /* \"Staking.sol\":415:437  1000000000000000000000 */\n  0x3635c9adc5dea00000\n    /* \"Staking.sol\":383:437  uint256 public minStakeAmount = 1000000000000000000000 */\n  0x01\n  sstore\n    /* \"Staking.sol\":475:500  1000000000000000000000000 */\n  0xd3c21bcecceda1000000\n    /* \"Staking.sol\":446:500  uint256 public dailyCapAmt = 1000000000000000000000000 */\n  0x02\n  sstore\n    /* \"Staking.sol\":536:541  false */\n  0x00\n    /* \"Staking.sol\":509:541  bool private poolCreated = false */\n  0x03\n  exp(0x0100, 0x00)\n  dup2\n  sload\n  dup2\n  0xff\n  mul\n  not\n  and\n  swap1\n  dup4\n  iszero\n  iszero\n  mul\n  or\n  swap1\n  sstore\n  pop\n    /* \"Staking.sol\":305:6807  contract StakeContract is Ownable {\r... */\n  callvalue\n  dup1\n  iszero\n  tag_1\n  jumpi\n  0x00\n  dup1\n  revert\ntag_1:\n  pop\n    /* \"@openzeppelin/contracts/access/Ownable.sol\":936:968  _transferOwnership(_msgSender()) */\n  tag_4\n    /* \"@openzeppelin/contracts/access/Ownable.sol\":955:967  _msgSender() */\n  tag_5\n    /* \"@openzeppelin/contracts/access/Ownable.sol\":955:965  _msgSender */\n  shl(0x20, tag_6)\n    /* \"@openzeppelin/contracts/access/Ownable.sol\":955:967  _msgSender() */\n  0x20\n  shr\n  jump\t// in\ntag_5:\n    /* \"@openzeppelin/contracts/access/Ownable.sol\":936:954  _transferOwnership */\n  shl(0x20, tag_7)\n    /* \"@openzeppelin/contracts/access/Ownable.sol\":936:968  _transferOwnership(_msgSender()) */\n  0x20\n  shr\n  jump\t// in\ntag_4:\n    /* \"Staking.sol\":305:6807  contract StakeContract is Ownable {\r... */\n  jump(tag_8)\n    /* \"@openzeppelin/contracts/utils/Context.sol\":640:736  function _msgSender() internal view virtual returns (address) {... */\ntag_6:\n    /* \"@openzeppelin/contracts/utils/Context.sol\":693:700  address */\n  0x00\n    /* \"@openzeppelin/contracts/utils/Context.sol\":719:729  msg.sender */\n  caller\n    /* \"@openzeppelin/contracts/utils/Context.sol\":712:729  return msg.sender */\n  swap1\n  pop\n    /* \"@openzeppelin/contracts/utils/Context.sol\":640:736  function _msgSender() internal view virtual returns (address) {... */\n  swap1\n  jump\t// out\n    /* \"@openzeppelin/contracts/access/Ownable.sol\":2433:2620  function _transferOwnership(address newOwner) internal virtual {... */\ntag_7:\n    /* \"@openzeppelin/contracts/access/Ownable.sol\":2506:2522  address oldOwner */\n  0x00\n    /* \"@openzeppelin/contracts/access/Ownable.sol\":2525:2531  _owner */\n  dup1\n  0x00\n  swap1\n  sload\n  swap1\n  0x0100\n  exp\n  swap1\n  div\n  0xffffffffffffffffffffffffffffffffffffffff\n  and\n    /* \"@openzeppelin/contracts/access/Ownable.sol\":2506:2531  address oldOwner = _owner */\n  swap1\n  pop\n    /* \"@openzeppelin/contracts/access/Ownable.sol\":2550:2558  newOwner */\n  dup2\n    /* \"@openzeppelin/contracts/access/Ownable.sol\":2541:2547  _owner */\n  0x00\n  dup1\n    /* \"@openzeppelin/contracts/access/Ownable.sol\":2541:2558  _owner = newOwner */\n  0x0100\n  exp\n  dup2\n  sload\n  dup2\n  0xffffffffffffffffffffffffffffffffffffffff\n  mul\n  not\n  and\n  swap1\n  dup4\n  0xffffffffffffffffffffffffffffffffffffffff\n  and\n  mul\n  or\n  swap1\n  sstore\n  pop\n    /* \"@openzeppelin/contracts/access/Ownable.sol\":2604:2612  newOwner */\n  dup2\n    /* \"@openzeppelin/contracts/access/Ownable.sol\":2573:2613  OwnershipTransferred(oldOwner, newOwner) */\n  0xffffffffffffffffffffffffffffffffffffffff\n  and\n    /* \"@openzeppelin/contracts/access/Ownable.sol\":2594:2602  oldOwner */\n  dup2\n    /* \"@openzeppelin/contracts/access/Ownable.sol\":2573:2613  OwnershipTransferred(oldOwner, newOwner) */\n  0xffffffffffffffffffffffffffffffffffffffff\n  and\n  0x8be0079c531659141344cd1fd0a4f28419497f9722a3daafe3b4186f6b6457e0\n  mload(0x40)\n  mload(0x40)\n  dup1\n  swap2\n  sub\n  swap1\n  log3\n    /* \"@openzeppelin/contracts/access/Ownable.sol\":2496:2620  {... */\n  pop\n    /* \"@openzeppelin/contracts/access/Ownable.sol\":2433:2620  function _transferOwnership(address newOwner) internal virtual {... */\n  pop\n  jump\t// out\n    /* \"Staking.sol\":305:6807  contract StakeContract is Ownable {\r... */\ntag_8:\n  dataSize(sub_0)\n  dup1\n  dataOffset(sub_0)\n  0x00\n  codecopy\n  0x00\n  return\nstop\n\nsub_0: assembly {\n        /* \"Staking.sol\":305:6807  contract StakeContract is Ownable {\r... */\n      mstore(0x40, 0x80)\n      jumpi(tag_1, lt(calldatasize, 0x04))\n      shr(0xe0, calldataload(0x00))\n      dup1\n      0x8da5cb5b\n      gt\n      tag_23\n      jumpi\n      dup1\n      0xe36c723b\n      gt\n      tag_24\n      jumpi\n      dup1\n      0xe36c723b\n      eq\n      tag_17\n      jumpi\n      dup1\n      0xe7732d0a\n      eq\n      tag_18\n      jumpi\n      dup1\n      0xf1887684\n      eq\n      tag_19\n      jumpi\n      dup1\n      0xf2fde38b\n      eq\n      tag_20\n      jumpi\n      dup1\n      0xf41322ac\n      eq\n      tag_21\n      jumpi\n      dup1\n      0xfd9a4e61\n      eq\n      tag_22\n      jumpi\n      jump(tag_1)\n    tag_24:\n      dup1\n      0x8da5cb5b\n      eq\n      tag_12\n      jumpi\n      dup1\n      0xa694fc3a\n      eq\n      tag_13\n      jumpi\n      dup1\n      0xc089bd74\n      eq\n      tag_14\n      jumpi\n      dup1\n      0xd21cb76e\n      eq\n      tag_15\n      jumpi\n      dup1\n      0xda906bf6\n      eq\n      tag_16\n      jumpi\n      jump(tag_1)\n    tag_23:\n      dup1\n      0x4d307e3f\n      gt\n      tag_25\n      jumpi\n      dup1\n      0x4d307e3f\n      eq\n      tag_7\n      jumpi\n      dup1\n      0x60246c88\n      eq\n      tag_8\n      jumpi\n      dup1\n      0x60c18315\n      eq\n      tag_9\n      jumpi\n      dup1\n      0x715018a6\n      eq\n      tag_10\n      jumpi\n      dup1\n      0x73cf575a\n      eq\n      tag_11\n      jumpi\n      jump(tag_1)\n    tag_25:\n      dup1\n      0x0d2f0374\n      eq\n      tag_2\n      jumpi\n      dup1\n      0x14e1b95b\n      eq\n      tag_3\n      jumpi\n      dup1\n      0x20867caa\n      eq\n      tag_4\n      jumpi\n      dup1\n      0x34381749\n      eq\n      tag_5\n      jumpi\n      dup1\n      0x3ccfd60b\n      eq\n      tag_6\n      jumpi\n    tag_1:\n      0x00\n      dup1\n      revert\n        /* \"Staking.sol\":6326:6434  function getDailyCap(uint256 _time) public view returns(uint256){\r... */\n    tag_2:\n      callvalue\n      dup1\n      iszero\n      tag_26\n      jumpi\n      0x00\n      dup1\n      revert\n    tag_26:\n      pop\n      tag_27\n      0x04\n      dup1\n      calldatasize\n      sub\n      dup2\n      add\n      swap1\n      tag_28\n      swap2\n      swap1\n      tag_29\n      jump\t// in\n    tag_28:\n      tag_30\n      jump\t// in\n    tag_27:\n      mload(0x40)\n      tag_31\n      swap2\n      swap1\n      tag_32\n      jump\t// in\n    tag_31:\n      mload(0x40)\n      dup1\n      swap2\n      sub\n      swap1\n      return\n        /* \"Staking.sol\":446:500  uint256 public dailyCapAmt = 1000000000000000000000000 */\n    tag_3:\n      callvalue\n      dup1\n      iszero\n      tag_33\n      jumpi\n      0x00\n      dup1\n      revert\n    tag_33:\n      pop\n      tag_34\n      tag_35\n      jump\t// in\n    tag_34:\n      mload(0x40)\n      tag_36\n      swap2\n      swap1\n      tag_32\n      jump\t// in\n    tag_36:\n      mload(0x40)\n      dup1\n      swap2\n      sub\n      swap1\n      return\n        /* \"Staking.sol\":6577:6696  function getUserPoolId(address _user) public view returns(uint256[] memory){\r... */\n    tag_4:\n      callvalue\n      dup1\n      iszero\n      tag_37\n      jumpi\n      0x00\n      dup1\n      revert\n    tag_37:\n      pop\n      tag_38\n      0x04\n      dup1\n      calldatasize\n      sub\n      dup2\n      add\n      swap1\n      tag_39\n      swap2\n      swap1\n      tag_40\n      jump\t// in\n    tag_39:\n      tag_41\n      jump\t// in\n    tag_38:\n      mload(0x40)\n      tag_42\n      swap2\n      swap1\n      tag_43\n      jump\t// in\n    tag_42:\n      mload(0x40)\n      dup1\n      swap2\n      sub\n      swap1\n      return\n        /* \"Staking.sol\":4981:5525  function getTotalReward(address _user) public view returns (uint256) {\r... */\n    tag_5:\n      callvalue\n      dup1\n      iszero\n      tag_44\n      jumpi\n      0x00\n      dup1\n      revert\n    tag_44:\n      pop\n      tag_45\n      0x04\n      dup1\n      calldatasize\n      sub\n      dup2\n      add\n      swap1\n      tag_46\n      swap2\n      swap1\n      tag_40\n      jump\t// in\n    tag_46:\n      tag_47\n      jump\t// in\n    tag_45:\n      mload(0x40)\n      tag_48\n      swap2\n      swap1\n      tag_32\n      jump\t// in\n    tag_48:\n      mload(0x40)\n      dup1\n      swap2\n      sub\n      swap1\n      return\n        /* \"Staking.sol\":4457:4561  function withdraw() public returns (bool) {\r... */\n    tag_6:\n      callvalue\n      dup1\n      iszero\n      tag_49\n      jumpi\n      0x00\n      dup1\n      revert\n    tag_49:\n      pop\n      tag_50\n      tag_51\n      jump\t// in\n    tag_50:\n      mload(0x40)\n      tag_52\n      swap2\n      swap1\n      tag_53\n      jump\t// in\n    tag_52:\n      mload(0x40)\n      dup1\n      swap2\n      sub\n      swap1\n      return\n        /* \"Staking.sol\":5533:5793  function getCurrentReward(address _user) public view returns (uint256) {\r... */\n    tag_7:\n      callvalue\n      dup1\n      iszero\n      tag_54\n      jumpi\n      0x00\n      dup1\n      revert\n    tag_54:\n      pop\n      tag_55\n      0x04\n      dup1\n      calldatasize\n      sub\n      dup2\n      add\n      swap1\n      tag_56\n      swap2\n      swap1\n      tag_40\n      jump\t// in\n    tag_56:\n      tag_57\n      jump\t// in\n    tag_55:\n      mload(0x40)\n      tag_58\n      swap2\n      swap1\n      tag_32\n      jump\t// in\n    tag_58:\n      mload(0x40)\n      dup1\n      swap2\n      sub\n      swap1\n      return\n        /* \"Staking.sol\":5801:5900  function getPoolInfo() public view returns (PoolStruct memory){\r... */\n    tag_8:\n      callvalue\n      dup1\n      iszero\n      tag_59\n      jumpi\n      0x00\n      dup1\n      revert\n    tag_59:\n      pop\n      tag_60\n      tag_61\n      jump\t// in\n    tag_60:\n      mload(0x40)\n      tag_62\n      swap2\n      swap1\n      tag_63\n      jump\t// in\n    tag_62:\n      mload(0x40)\n      dup1\n      swap2\n      sub\n      swap1\n      return\n        /* \"Staking.sol\":1373:2068  function createPool(address _tokenAddress, \r... */\n    tag_9:\n      callvalue\n      dup1\n      iszero\n      tag_64\n      jumpi\n      0x00\n      dup1\n      revert\n    tag_64:\n      pop\n      tag_65\n      0x04\n      dup1\n      calldatasize\n      sub\n      dup2\n      add\n      swap1\n      tag_66\n      swap2\n      swap1\n      tag_67\n      jump\t// in\n    tag_66:\n      tag_68\n      jump\t// in\n    tag_65:\n      stop\n        /* \"@openzeppelin/contracts/access/Ownable.sol\":1831:1932  function renounceOwnership() public virtual onlyOwner {... */\n    tag_10:\n      callvalue\n      dup1\n      iszero\n      tag_69\n      jumpi\n      0x00\n      dup1\n      revert\n    tag_69:\n      pop\n      tag_70\n      tag_71\n      jump\t// in\n    tag_70:\n      stop\n        /* \"Staking.sol\":3343:4220  function unStake() public {\r... */\n    tag_11:\n      callvalue\n      dup1\n      iszero\n      tag_72\n      jumpi\n      0x00\n      dup1\n      revert\n    tag_72:\n      pop\n      tag_73\n      tag_74\n      jump\t// in\n    tag_73:\n      stop\n        /* \"@openzeppelin/contracts/access/Ownable.sol\":1201:1286  function owner() public view virtual returns (address) {... */\n    tag_12:\n      callvalue\n      dup1\n      iszero\n      tag_75\n      jumpi\n      0x00\n      dup1\n      revert\n    tag_75:\n      pop\n      tag_76\n      tag_77\n      jump\t// in\n    tag_76:\n      mload(0x40)\n      tag_78\n      swap2\n      swap1\n      tag_79\n      jump\t// in\n    tag_78:\n      mload(0x40)\n      dup1\n      swap2\n      sub\n      swap1\n      return\n        /* \"Staking.sol\":2275:3331  function stake(uint256 _amount) public payable {\r... */\n    tag_13:\n      tag_80\n      0x04\n      dup1\n      calldatasize\n      sub\n      dup2\n      add\n      swap1\n      tag_81\n      swap2\n      swap1\n      tag_29\n      jump\t// in\n    tag_81:\n      tag_82\n      jump\t// in\n    tag_80:\n      stop\n        /* \"Staking.sol\":5908:6079  function depositRewardToken(uint256 _amount) public onlyOwner {\r... */\n    tag_14:\n      callvalue\n      dup1\n      iszero\n      tag_83\n      jumpi\n      0x00\n      dup1\n      revert\n    tag_83:\n      pop\n      tag_84\n      0x04\n      dup1\n      calldatasize\n      sub\n      dup2\n      add\n      swap1\n      tag_85\n      swap2\n      swap1\n      tag_29\n      jump\t// in\n    tag_85:\n      tag_86\n      jump\t// in\n    tag_84:\n      stop\n        /* \"Staking.sol\":4228:4330  function changeDailyCapLimit (uint256 _limit) public onlyOwner {\r... */\n    tag_15:\n      callvalue\n      dup1\n      iszero\n      tag_87\n      jumpi\n      0x00\n      dup1\n      revert\n    tag_87:\n      pop\n      tag_88\n      0x04\n      dup1\n      calldatasize\n      sub\n      dup2\n      add\n      swap1\n      tag_89\n      swap2\n      swap1\n      tag_29\n      jump\t// in\n    tag_89:\n      tag_90\n      jump\t// in\n    tag_88:\n      stop\n        /* \"Staking.sol\":2076:2267  function poolPauseUnPause() public onlyOwner {\r... */\n    tag_16:\n      callvalue\n      dup1\n      iszero\n      tag_91\n      jumpi\n      0x00\n      dup1\n      revert\n    tag_91:\n      pop\n      tag_92\n      tag_93\n      jump\t// in\n    tag_92:\n      stop\n        /* \"Staking.sol\":4338:4449  function changeMinStakeAmt (uint256 _minAmount) public onlyOwner {\r... */\n    tag_17:\n      callvalue\n      dup1\n      iszero\n      tag_94\n      jumpi\n      0x00\n      dup1\n      revert\n    tag_94:\n      pop\n      tag_95\n      0x04\n      dup1\n      calldatasize\n      sub\n      dup2\n      add\n      swap1\n      tag_96\n      swap2\n      swap1\n      tag_29\n      jump\t// in\n    tag_96:\n      tag_97\n      jump\t// in\n    tag_95:\n      stop\n        /* \"Staking.sol\":6704:6804  function checkPoolPause() public view returns(bool){\r... */\n    tag_18:\n      callvalue\n      dup1\n      iszero\n      tag_98\n      jumpi\n      0x00\n      dup1\n      revert\n    tag_98:\n      pop\n      tag_99\n      tag_100\n      jump\t// in\n    tag_99:\n      mload(0x40)\n      tag_101\n      swap2\n      swap1\n      tag_53\n      jump\t// in\n    tag_101:\n      mload(0x40)\n      dup1\n      swap2\n      sub\n      swap1\n      return\n        /* \"Staking.sol\":383:437  uint256 public minStakeAmount = 1000000000000000000000 */\n    tag_19:\n      callvalue\n      dup1\n      iszero\n      tag_102\n      jumpi\n      0x00\n      dup1\n      revert\n    tag_102:\n      pop\n      tag_103\n      tag_104\n      jump\t// in\n    tag_103:\n      mload(0x40)\n      tag_105\n      swap2\n      swap1\n      tag_32\n      jump\t// in\n    tag_105:\n      mload(0x40)\n      dup1\n      swap2\n      sub\n      swap1\n      return\n        /* \"@openzeppelin/contracts/access/Ownable.sol\":2081:2279  function transferOwnership(address newOwner) public virtual onlyOwner {... */\n    tag_20:\n      callvalue\n      dup1\n      iszero\n      tag_106\n      jumpi\n      0x00\n      dup1\n      revert\n    tag_106:\n      pop\n      tag_107\n      0x04\n      dup1\n      calldatasize\n      sub\n      dup2\n      add\n      swap1\n      tag_108\n      swap2\n      swap1\n      tag_40\n      jump\t// in\n    tag_108:\n      tag_109\n      jump\t// in\n    tag_107:\n      stop\n        /* \"Staking.sol\":6442:6569  function getStakeDetails(address _user) public view returns(StakeStruct memory){\r... */\n    tag_21:\n      callvalue\n      dup1\n      iszero\n      tag_110\n      jumpi\n      0x00\n      dup1\n      revert\n    tag_110:\n      pop\n      tag_111\n      0x04\n      dup1\n      calldatasize\n      sub\n      dup2\n      add\n      swap1\n      tag_112\n      swap2\n      swap1\n      tag_40\n      jump\t// in\n    tag_112:\n      tag_113\n      jump\t// in\n    tag_111:\n      mload(0x40)\n      tag_114\n      swap2\n      swap1\n      tag_115\n      jump\t// in\n    tag_114:\n      mload(0x40)\n      dup1\n      swap2\n      sub\n      swap1\n      return\n        /* \"Staking.sol\":6087:6318  function transferTokens(uint256 _amount) public onlyOwner {\r... */\n    tag_22:\n      callvalue\n      dup1\n      iszero\n      tag_116\n      jumpi\n      0x00\n      dup1\n      revert\n    tag_116:\n      pop\n      tag_117\n      0x04\n      dup1\n      calldatasize\n      sub\n      dup2\n      add\n      swap1\n      tag_118\n      swap2\n      swap1\n      tag_29\n      jump\t// in\n    tag_118:\n      tag_119\n      jump\t// in\n    tag_117:\n      stop\n        /* \"Staking.sol\":6326:6434  function getDailyCap(uint256 _time) public view returns(uint256){\r... */\n    tag_30:\n        /* \"Staking.sol\":6382:6389  uint256 */\n      0x00\n        /* \"Staking.sol\":6408:6416  dailyCap */\n      0x06\n        /* \"Staking.sol\":6408:6423  dailyCap[_time] */\n      0x00\n        /* \"Staking.sol\":6417:6422  _time */\n      dup4\n        /* \"Staking.sol\":6408:6423  dailyCap[_time] */\n      dup2\n      mstore\n      0x20\n      add\n      swap1\n      dup2\n      mstore\n      0x20\n      add\n      0x00\n      keccak256\n        /* \"Staking.sol\":6408:6426  dailyCap[_time][0] */\n      0x00\n        /* \"Staking.sol\":6424:6425  0 */\n      dup1\n        /* \"Staking.sol\":6408:6426  dailyCap[_time][0] */\n      dup2\n      mstore\n      0x20\n      add\n      swap1\n      dup2\n      mstore\n      0x20\n      add\n      0x00\n      keccak256\n      sload\n        /* \"Staking.sol\":6401:6426  return dailyCap[_time][0] */\n      swap1\n      pop\n        /* \"Staking.sol\":6326:6434  function getDailyCap(uint256 _time) public view returns(uint256){\r... */\n      swap2\n      swap1\n      pop\n      jump\t// out\n        /* \"Staking.sol\":446:500  uint256 public dailyCapAmt = 1000000000000000000000000 */\n    tag_35:\n      sload(0x02)\n      dup2\n      jump\t// out\n        /* \"Staking.sol\":6577:6696  function getUserPoolId(address _user) public view returns(uint256[] memory){\r... */\n    tag_41:\n        /* \"Staking.sol\":6635:6651  uint256[] memory */\n      0x60\n        /* \"Staking.sol\":6670:6681  userPoolIds */\n      0x05\n        /* \"Staking.sol\":6670:6688  userPoolIds[_user] */\n      0x00\n        /* \"Staking.sol\":6682:6687  _user */\n      dup4\n        /* \"Staking.sol\":6670:6688  userPoolIds[_user] */\n      0xffffffffffffffffffffffffffffffffffffffff\n      and\n      0xffffffffffffffffffffffffffffffffffffffff\n      and\n      dup2\n      mstore\n      0x20\n      add\n      swap1\n      dup2\n      mstore\n      0x20\n      add\n      0x00\n      keccak256\n        /* \"Staking.sol\":6663:6688  return userPoolIds[_user] */\n      dup1\n      sload\n      dup1\n      0x20\n      mul\n      0x20\n      add\n      mload(0x40)\n      swap1\n      dup2\n      add\n      0x40\n      mstore\n      dup1\n      swap3\n      swap2\n      swap1\n      dup2\n      dup2\n      mstore\n      0x20\n      add\n      dup3\n      dup1\n      sload\n      dup1\n      iszero\n      tag_122\n      jumpi\n      0x20\n      mul\n      dup3\n      add\n      swap2\n      swap1\n      0x00\n      mstore\n      keccak256(0x00, 0x20)\n      swap1\n    tag_123:\n      dup2\n      sload\n      dup2\n      mstore\n      0x20\n      add\n      swap1\n      0x01\n      add\n      swap1\n      dup1\n      dup4\n      gt\n      tag_123\n      jumpi\n    tag_122:\n      pop\n      pop\n      pop\n      pop\n      pop\n      swap1\n      pop\n        /* \"Staking.sol\":6577:6696  function getUserPoolId(address _user) public view returns(uint256[] memory){\r... */\n      swap2\n      swap1\n      pop\n      jump\t// out\n        /* \"Staking.sol\":4981:5525  function getTotalReward(address _user) public view returns (uint256) {\r... */\n    tag_47:\n        /* \"Staking.sol\":5041:5048  uint256 */\n      0x00\n        /* \"Staking.sol\":5061:5077  uint256 currTime */\n      dup1\n        /* \"Staking.sol\":5099:5105  3 * 60 */\n      0xb4\n        /* \"Staking.sol\":5080:5095  block.timestamp */\n      timestamp\n        /* \"Staking.sol\":5080:5106  block.timestamp - (3 * 60) */\n      tag_125\n      swap2\n      swap1\n      tag_126\n      jump\t// in\n    tag_125:\n        /* \"Staking.sol\":5061:5106  uint256 currTime = block.timestamp - (3 * 60) */\n      swap1\n      pop\n        /* \"Staking.sol\":5117:5133  uint256 timeDiff */\n      0x00\n        /* \"Staking.sol\":5172:5184  stakeDetails */\n      0x07\n        /* \"Staking.sol\":5172:5191  stakeDetails[_user] */\n      0x00\n        /* \"Staking.sol\":5185:5190  _user */\n      dup6\n        /* \"Staking.sol\":5172:5191  stakeDetails[_user] */\n      0xffffffffffffffffffffffffffffffffffffffff\n      and\n      0xffffffffffffffffffffffffffffffffffffffff\n      and\n      dup2\n      mstore\n      0x20\n      add\n      swap1\n      dup2\n      mstore\n      0x20\n      add\n      0x00\n      keccak256\n        /* \"Staking.sol\":5172:5194  stakeDetails[_user][0] */\n      0x00\n        /* \"Staking.sol\":5192:5193  0 */\n      dup1\n        /* \"Staking.sol\":5172:5194  stakeDetails[_user][0] */\n      dup2\n      mstore\n      0x20\n      add\n      swap1\n      dup2\n      mstore\n      0x20\n      add\n      0x00\n      keccak256\n        /* \"Staking.sol\":5172:5204  stakeDetails[_user][0].stakeTime */\n      0x02\n      add\n      sload\n        /* \"Staking.sol\":5161:5169  currTime */\n      dup3\n        /* \"Staking.sol\":5161:5204  currTime > stakeDetails[_user][0].stakeTime */\n      gt\n        /* \"Staking.sol\":5158:5325  if(currTime > stakeDetails[_user][0].stakeTime){\r... */\n      iszero\n      tag_127\n      jumpi\n        /* \"Staking.sol\":5242:5254  stakeDetails */\n      0x07\n        /* \"Staking.sol\":5242:5261  stakeDetails[_user] */\n      0x00\n        /* \"Staking.sol\":5255:5260  _user */\n      dup6\n        /* \"Staking.sol\":5242:5261  stakeDetails[_user] */\n      0xffffffffffffffffffffffffffffffffffffffff\n      and\n      0xffffffffffffffffffffffffffffffffffffffff\n      and\n      dup2\n      mstore\n      0x20\n      add\n      swap1\n      dup2\n      mstore\n      0x20\n      add\n      0x00\n      keccak256\n        /* \"Staking.sol\":5242:5264  stakeDetails[_user][0] */\n      0x00\n        /* \"Staking.sol\":5262:5263  0 */\n      dup1\n        /* \"Staking.sol\":5242:5264  stakeDetails[_user][0] */\n      dup2\n      mstore\n      0x20\n      add\n      swap1\n      dup2\n      mstore\n      0x20\n      add\n      0x00\n      keccak256\n        /* \"Staking.sol\":5242:5274  stakeDetails[_user][0].stakeTime */\n      0x02\n      add\n      sload\n        /* \"Staking.sol\":5231:5239  currTime */\n      dup3\n        /* \"Staking.sol\":5231:5274  currTime - stakeDetails[_user][0].stakeTime */\n      tag_128\n      swap2\n      swap1\n      tag_126\n      jump\t// in\n    tag_128:\n        /* \"Staking.sol\":5220:5274  timeDiff = currTime - stakeDetails[_user][0].stakeTime */\n      swap1\n      pop\n        /* \"Staking.sol\":5158:5325  if(currTime > stakeDetails[_user][0].stakeTime){\r... */\n      jump(tag_129)\n    tag_127:\n        /* \"Staking.sol\":5312:5313  0 */\n      0x00\n        /* \"Staking.sol\":5305:5313  return 0 */\n      swap3\n      pop\n      pop\n      pop\n      jump(tag_124)\n        /* \"Staking.sol\":5158:5325  if(currTime > stakeDetails[_user][0].stakeTime){\r... */\n    tag_129:\n        /* \"Staking.sol\":5337:5364  uint256 yearlyHarvestAmount */\n      0x00\n        /* \"Staking.sol\":5419:5422  100 */\n      0x64\n        /* \"Staking.sol\":5400:5408  poolInfo */\n      0x04\n        /* \"Staking.sol\":5409:5410  0 */\n      0x00\n        /* \"Staking.sol\":5400:5411  poolInfo[0] */\n      dup2\n      sload\n      dup2\n      lt\n      tag_130\n      jumpi\n      tag_131\n      tag_132\n      jump\t// in\n    tag_131:\n    tag_130:\n      swap1\n      0x00\n      mstore\n      keccak256(0x00, 0x20)\n      swap1\n      0x06\n      mul\n      add\n        /* \"Staking.sol\":5400:5415  poolInfo[0].apy */\n      0x05\n      add\n      sload\n        /* \"Staking.sol\":5368:5380  stakeDetails */\n      0x07\n        /* \"Staking.sol\":5368:5387  stakeDetails[_user] */\n      0x00\n        /* \"Staking.sol\":5381:5386  _user */\n      dup9\n        /* \"Staking.sol\":5368:5387  stakeDetails[_user] */\n      0xffffffffffffffffffffffffffffffffffffffff\n      and\n      0xffffffffffffffffffffffffffffffffffffffff\n      and\n      dup2\n      mstore\n      0x20\n      add\n      swap1\n      dup2\n      mstore\n      0x20\n      add\n      0x00\n      keccak256\n        /* \"Staking.sol\":5368:5390  stakeDetails[_user][0] */\n      0x00\n        /* \"Staking.sol\":5388:5389  0 */\n      dup1\n        /* \"Staking.sol\":5368:5390  stakeDetails[_user][0] */\n      dup2\n      mstore\n      0x20\n      add\n      swap1\n      dup2\n      mstore\n      0x20\n      add\n      0x00\n      keccak256\n        /* \"Staking.sol\":5368:5397  stakeDetails[_user][0].amount */\n      0x01\n      add\n      sload\n        /* \"Staking.sol\":5368:5415  stakeDetails[_user][0].amount * poolInfo[0].apy */\n      tag_134\n      swap2\n      swap1\n      tag_135\n      jump\t// in\n    tag_134:\n        /* \"Staking.sol\":5367:5422  (stakeDetails[_user][0].amount * poolInfo[0].apy) / 100 */\n      tag_136\n      swap2\n      swap1\n      tag_137\n      jump\t// in\n    tag_136:\n        /* \"Staking.sol\":5337:5422  uint256 yearlyHarvestAmount = (stakeDetails[_user][0].amount * poolInfo[0].apy) / 100 */\n      swap1\n      pop\n        /* \"Staking.sol\":5433:5447  uint256 amount */\n      0x00\n        /* \"Staking.sol\":5485:5493  31536000 */\n      0x01e13380\n        /* \"Staking.sol\":5473:5481  timeDiff */\n      dup4\n        /* \"Staking.sol\":5451:5470  yearlyHarvestAmount */\n      dup4\n        /* \"Staking.sol\":5451:5481  yearlyHarvestAmount * timeDiff */\n      tag_138\n      swap2\n      swap1\n      tag_135\n      jump\t// in\n    tag_138:\n        /* \"Staking.sol\":5450:5493  (yearlyHarvestAmount * timeDiff) / 31536000 */\n      tag_139\n      swap2\n      swap1\n      tag_137\n      jump\t// in\n    tag_139:\n        /* \"Staking.sol\":5433:5493  uint256 amount = (yearlyHarvestAmount * timeDiff) / 31536000 */\n      swap1\n      pop\n        /* \"Staking.sol\":5511:5517  amount */\n      dup1\n        /* \"Staking.sol\":5504:5517  return amount */\n      swap5\n      pop\n      pop\n      pop\n      pop\n      pop\n        /* \"Staking.sol\":4981:5525  function getTotalReward(address _user) public view returns (uint256) {\r... */\n    tag_124:\n      swap2\n      swap1\n      pop\n      jump\t// out\n        /* \"Staking.sol\":4457:4561  function withdraw() public returns (bool) {\r... */\n    tag_51:\n        /* \"Staking.sol\":4493:4497  bool */\n      0x00\n        /* \"Staking.sol\":4510:4531  _withdraw(msg.sender) */\n      tag_141\n        /* \"Staking.sol\":4520:4530  msg.sender */\n      caller\n        /* \"Staking.sol\":4510:4519  _withdraw */\n      tag_142\n        /* \"Staking.sol\":4510:4531  _withdraw(msg.sender) */\n      jump\t// in\n    tag_141:\n        /* \"Staking.sol\":4549:4553  true */\n      0x01\n        /* \"Staking.sol\":4542:4553  return true */\n      swap1\n      pop\n        /* \"Staking.sol\":4457:4561  function withdraw() public returns (bool) {\r... */\n      swap1\n      jump\t// out\n        /* \"Staking.sol\":5533:5793  function getCurrentReward(address _user) public view returns (uint256) {\r... */\n    tag_57:\n        /* \"Staking.sol\":5595:5602  uint256 */\n      0x00\n        /* \"Staking.sol\":5651:5652  0 */\n      dup1\n        /* \"Staking.sol\":5618:5630  stakeDetails */\n      0x07\n        /* \"Staking.sol\":5618:5637  stakeDetails[_user] */\n      0x00\n        /* \"Staking.sol\":5631:5636  _user */\n      dup5\n        /* \"Staking.sol\":5618:5637  stakeDetails[_user] */\n      0xffffffffffffffffffffffffffffffffffffffff\n      and\n      0xffffffffffffffffffffffffffffffffffffffff\n      and\n      dup2\n      mstore\n      0x20\n      add\n      swap1\n      dup2\n      mstore\n      0x20\n      add\n      0x00\n      keccak256\n        /* \"Staking.sol\":5618:5640  stakeDetails[_user][0] */\n      0x00\n        /* \"Staking.sol\":5638:5639  0 */\n      dup1\n        /* \"Staking.sol\":5618:5640  stakeDetails[_user][0] */\n      dup2\n      mstore\n      0x20\n      add\n      swap1\n      dup2\n      mstore\n      0x20\n      add\n      0x00\n      keccak256\n        /* \"Staking.sol\":5618:5647  stakeDetails[_user][0].amount */\n      0x01\n      add\n      sload\n        /* \"Staking.sol\":5618:5652  stakeDetails[_user][0].amount != 0 */\n      eq\n        /* \"Staking.sol\":5615:5786  if(stakeDetails[_user][0].amount != 0){\r... */\n      tag_144\n      jumpi\n        /* \"Staking.sol\":5702:5714  stakeDetails */\n      0x07\n        /* \"Staking.sol\":5702:5721  stakeDetails[_user] */\n      0x00\n        /* \"Staking.sol\":5715:5720  _user */\n      dup4\n        /* \"Staking.sol\":5702:5721  stakeDetails[_user] */\n      0xffffffffffffffffffffffffffffffffffffffff\n      and\n      0xffffffffffffffffffffffffffffffffffffffff\n      and\n      dup2\n      mstore\n      0x20\n      add\n      swap1\n      dup2\n      mstore\n      0x20\n      add\n      0x00\n      keccak256\n        /* \"Staking.sol\":5702:5724  stakeDetails[_user][0] */\n      0x00\n        /* \"Staking.sol\":5722:5723  0 */\n      dup1\n        /* \"Staking.sol\":5702:5724  stakeDetails[_user][0] */\n      dup2\n      mstore\n      0x20\n      add\n      swap1\n      dup2\n      mstore\n      0x20\n      add\n      0x00\n      keccak256\n        /* \"Staking.sol\":5702:5734  stakeDetails[_user][0].withdrawn */\n      0x03\n      add\n      sload\n        /* \"Staking.sol\":5676:5697  getTotalReward(_user) */\n      tag_145\n        /* \"Staking.sol\":5691:5696  _user */\n      dup4\n        /* \"Staking.sol\":5676:5690  getTotalReward */\n      tag_47\n        /* \"Staking.sol\":5676:5697  getTotalReward(_user) */\n      jump\t// in\n    tag_145:\n        /* \"Staking.sol\":5675:5735  (getTotalReward(_user)) - (stakeDetails[_user][0].withdrawn) */\n      tag_146\n      swap2\n      swap1\n      tag_126\n      jump\t// in\n    tag_146:\n        /* \"Staking.sol\":5668:5735  return (getTotalReward(_user)) - (stakeDetails[_user][0].withdrawn) */\n      swap1\n      pop\n      jump(tag_143)\n        /* \"Staking.sol\":5615:5786  if(stakeDetails[_user][0].amount != 0){\r... */\n    tag_144:\n        /* \"Staking.sol\":5773:5774  0 */\n      0x00\n        /* \"Staking.sol\":5766:5774  return 0 */\n      swap1\n      pop\n        /* \"Staking.sol\":5533:5793  function getCurrentReward(address _user) public view returns (uint256) {\r... */\n    tag_143:\n      swap2\n      swap1\n      pop\n      jump\t// out\n        /* \"Staking.sol\":5801:5900  function getPoolInfo() public view returns (PoolStruct memory){\r... */\n    tag_61:\n        /* \"Staking.sol\":5845:5862  PoolStruct memory */\n      tag_148\n      tag_149\n      jump\t// in\n    tag_148:\n        /* \"Staking.sol\":5881:5889  poolInfo */\n      0x04\n        /* \"Staking.sol\":5890:5891  0 */\n      0x00\n        /* \"Staking.sol\":5881:5892  poolInfo[0] */\n      dup2\n      sload\n      dup2\n      lt\n      tag_151\n      jumpi\n      tag_152\n      tag_132\n      jump\t// in\n    tag_152:\n    tag_151:\n      swap1\n      0x00\n      mstore\n      keccak256(0x00, 0x20)\n      swap1\n      0x06\n      mul\n      add\n        /* \"Staking.sol\":5874:5892  return poolInfo[0] */\n      mload(0x40)\n      dup1\n      0xc0\n      add\n      0x40\n      mstore\n      swap1\n      dup2\n      0x00\n      dup3\n      add\n      0x00\n      swap1\n      sload\n      swap1\n      0x0100\n      exp\n      swap1\n      div\n      0xffffffffffffffffffffffffffffffffffffffff\n      and\n      0xffffffffffffffffffffffffffffffffffffffff\n      and\n      0xffffffffffffffffffffffffffffffffffffffff\n      and\n      dup2\n      mstore\n      0x20\n      add\n      0x01\n      dup3\n      add\n      0x00\n      swap1\n      sload\n      swap1\n      0x0100\n      exp\n      swap1\n      div\n      0xffffffffffffffffffffffffffffffffffffffff\n      and\n      0xffffffffffffffffffffffffffffffffffffffff\n      and\n      0xffffffffffffffffffffffffffffffffffffffff\n      and\n      dup2\n      mstore\n      0x20\n      add\n      0x02\n      dup3\n      add\n      sload\n      dup2\n      mstore\n      0x20\n      add\n      0x03\n      dup3\n      add\n      dup1\n      sload\n      tag_154\n      swap1\n      tag_155\n      jump\t// in\n    tag_154:\n      dup1\n      0x1f\n      add\n      0x20\n      dup1\n      swap2\n      div\n      mul\n      0x20\n      add\n      mload(0x40)\n      swap1\n      dup2\n      add\n      0x40\n      mstore\n      dup1\n      swap3\n      swap2\n      swap1\n      dup2\n      dup2\n      mstore\n      0x20\n      add\n      dup3\n      dup1\n      sload\n      tag_156\n      swap1\n      tag_155\n      jump\t// in\n    tag_156:\n      dup1\n      iszero\n      tag_157\n      jumpi\n      dup1\n      0x1f\n      lt\n      tag_158\n      jumpi\n      0x0100\n      dup1\n      dup4\n      sload\n      div\n      mul\n      dup4\n      mstore\n      swap2\n      0x20\n      add\n      swap2\n      jump(tag_157)\n    tag_158:\n      dup3\n      add\n      swap2\n      swap1\n      0x00\n      mstore\n      keccak256(0x00, 0x20)\n      swap1\n    tag_159:\n      dup2\n      sload\n      dup2\n      mstore\n      swap1\n      0x01\n      add\n      swap1\n      0x20\n      add\n      dup1\n      dup4\n      gt\n      tag_159\n      jumpi\n      dup3\n      swap1\n      sub\n      0x1f\n      and\n      dup3\n      add\n      swap2\n    tag_157:\n      pop\n      pop\n      pop\n      pop\n      pop\n      dup2\n      mstore\n      0x20\n      add\n      0x04\n      dup3\n      add\n      0x00\n      swap1\n      sload\n      swap1\n      0x0100\n      exp\n      swap1\n      div\n      0xff\n      and\n      iszero\n      iszero\n      iszero\n      iszero\n      dup2\n      mstore\n      0x20\n      add\n      0x05\n      dup3\n      add\n      sload\n      dup2\n      mstore\n      pop\n      pop\n      swap1\n      pop\n        /* \"Staking.sol\":5801:5900  function getPoolInfo() public view returns (PoolStruct memory){\r... */\n      swap1\n      jump\t// out\n        /* \"Staking.sol\":1373:2068  function createPool(address _tokenAddress, \r... */\n    tag_68:\n        /* \"@openzeppelin/contracts/access/Ownable.sol\":1094:1107  _checkOwner() */\n      tag_161\n        /* \"@openzeppelin/contracts/access/Ownable.sol\":1094:1105  _checkOwner */\n      tag_162\n        /* \"@openzeppelin/contracts/access/Ownable.sol\":1094:1107  _checkOwner() */\n      jump\t// in\n    tag_161:\n        /* \"Staking.sol\":1590:1601  poolCreated */\n      0x03\n      0x00\n      swap1\n      sload\n      swap1\n      0x0100\n      exp\n      swap1\n      div\n      0xff\n      and\n        /* \"Staking.sol\":1589:1601  !poolCreated */\n      iszero\n        /* \"Staking.sol\":1581:1618  require(!poolCreated, \"Pool exists!\") */\n      tag_164\n      jumpi\n      mload(0x40)\n      0x08c379a000000000000000000000000000000000000000000000000000000000\n      dup2\n      mstore\n      0x04\n      add\n      tag_165\n      swap1\n      tag_166\n      jump\t// in\n    tag_165:\n      mload(0x40)\n      dup1\n      swap2\n      sub\n      swap1\n      revert\n    tag_164:\n        /* \"Staking.sol\":1662:1663  0 */\n      0x00\n        /* \"Staking.sol\":1637:1664  _tokenAddress != address(0) */\n      0xffffffffffffffffffffffffffffffffffffffff\n      and\n        /* \"Staking.sol\":1637:1650  _tokenAddress */\n      dup5\n        /* \"Staking.sol\":1637:1664  _tokenAddress != address(0) */\n      0xffffffffffffffffffffffffffffffffffffffff\n      and\n      eq\n      iszero\n        /* \"Staking.sol\":1629:1690  require(_tokenAddress != address(0), \"Invalid stake address\") */\n      tag_167\n      jumpi\n      mload(0x40)\n      0x08c379a000000000000000000000000000000000000000000000000000000000\n      dup2\n      mstore\n      0x04\n      add\n      tag_168\n      swap1\n      tag_169\n      jump\t// in\n    tag_168:\n      mload(0x40)\n      dup1\n      swap2\n      sub\n      swap1\n      revert\n    tag_167:\n        /* \"Staking.sol\":1735:1736  0 */\n      0x00\n        /* \"Staking.sol\":1709:1737  _rewardAddress != address(0) */\n      0xffffffffffffffffffffffffffffffffffffffff\n      and\n        /* \"Staking.sol\":1709:1723  _rewardAddress */\n      dup4\n        /* \"Staking.sol\":1709:1737  _rewardAddress != address(0) */\n      0xffffffffffffffffffffffffffffffffffffffff\n      and\n      eq\n      iszero\n        /* \"Staking.sol\":1701:1764  require(_rewardAddress != address(0), \"Invalid reward address\") */\n      tag_170\n      jumpi\n      mload(0x40)\n      0x08c379a000000000000000000000000000000000000000000000000000000000\n      dup2\n      mstore\n      0x04\n      add\n      tag_171\n      swap1\n      tag_172\n      jump\t// in\n    tag_171:\n      mload(0x40)\n      dup1\n      swap2\n      sub\n      swap1\n      revert\n    tag_170:\n        /* \"Staking.sol\":1777:1785  poolInfo */\n      0x04\n        /* \"Staking.sol\":1791:2028  PoolStruct({\r... */\n      mload(0x40)\n      dup1\n      0xc0\n      add\n      0x40\n      mstore\n      dup1\n        /* \"Staking.sol\":1831:1844  _tokenAddress */\n      dup7\n        /* \"Staking.sol\":1791:2028  PoolStruct({\r... */\n      0xffffffffffffffffffffffffffffffffffffffff\n      and\n      dup2\n      mstore\n      0x20\n      add\n        /* \"Staking.sol\":1874:1888  _rewardAddress */\n      dup6\n        /* \"Staking.sol\":1791:2028  PoolStruct({\r... */\n      0xffffffffffffffffffffffffffffffffffffffff\n      and\n      dup2\n      mstore\n      0x20\n      add\n        /* \"Staking.sol\":1921:1922  0 */\n      0x00\n        /* \"Staking.sol\":1791:2028  PoolStruct({\r... */\n      dup2\n      mstore\n      0x20\n      add\n        /* \"Staking.sol\":1943:1948  _name */\n      dup5\n        /* \"Staking.sol\":1791:2028  PoolStruct({\r... */\n      dup2\n      mstore\n      0x20\n      add\n        /* \"Staking.sol\":1976:1981  false */\n      0x00\n        /* \"Staking.sol\":1791:2028  PoolStruct({\r... */\n      iszero\n      iszero\n      dup2\n      mstore\n      0x20\n      add\n        /* \"Staking.sol\":2012:2016  _apy */\n      dup4\n        /* \"Staking.sol\":1791:2028  PoolStruct({\r... */\n      dup2\n      mstore\n      pop\n        /* \"Staking.sol\":1777:2029  poolInfo.push(PoolStruct({\r... */\n      swap1\n      dup1\n      0x01\n      dup2\n      sload\n      add\n      dup1\n      dup3\n      sstore\n      dup1\n      swap2\n      pop\n      pop\n      0x01\n      swap1\n      sub\n      swap1\n      0x00\n      mstore\n      keccak256(0x00, 0x20)\n      swap1\n      0x06\n      mul\n      add\n      0x00\n      swap1\n      swap2\n      swap1\n      swap2\n      swap1\n      swap2\n      pop\n      0x00\n      dup3\n      add\n      mload\n      dup2\n      0x00\n      add\n      exp(0x0100, 0x00)\n      dup2\n      sload\n      dup2\n      0xffffffffffffffffffffffffffffffffffffffff\n      mul\n      not\n      and\n      swap1\n      dup4\n      0xffffffffffffffffffffffffffffffffffffffff\n      and\n      mul\n      or\n      swap1\n      sstore\n      pop\n      0x20\n      dup3\n      add\n      mload\n      dup2\n      0x01\n      add\n      exp(0x0100, 0x00)\n      dup2\n      sload\n      dup2\n      0xffffffffffffffffffffffffffffffffffffffff\n      mul\n      not\n      and\n      swap1\n      dup4\n      0xffffffffffffffffffffffffffffffffffffffff\n      and\n      mul\n      or\n      swap1\n      sstore\n      pop\n      0x40\n      dup3\n      add\n      mload\n      dup2\n      0x02\n      add\n      sstore\n      0x60\n      dup3\n      add\n      mload\n      dup2\n      0x03\n      add\n      swap1\n      dup1\n      mload\n      swap1\n      0x20\n      add\n      swap1\n      tag_174\n      swap3\n      swap2\n      swap1\n      tag_175\n      jump\t// in\n    tag_174:\n      pop\n      0x80\n      dup3\n      add\n      mload\n      dup2\n      0x04\n      add\n      exp(0x0100, 0x00)\n      dup2\n      sload\n      dup2\n      0xff\n      mul\n      not\n      and\n      swap1\n      dup4\n      iszero\n      iszero\n      mul\n      or\n      swap1\n      sstore\n      pop\n      0xa0\n      dup3\n      add\n      mload\n      dup2\n      0x05\n      add\n      sstore\n      pop\n      pop\n        /* \"Staking.sol\":2056:2060  true */\n      0x01\n        /* \"Staking.sol\":2042:2053  poolCreated */\n      0x03\n      0x00\n        /* \"Staking.sol\":2042:2060  poolCreated = true */\n      0x0100\n      exp\n      dup2\n      sload\n      dup2\n      0xff\n      mul\n      not\n      and\n      swap1\n      dup4\n      iszero\n      iszero\n      mul\n      or\n      swap1\n      sstore\n      pop\n        /* \"Staking.sol\":1373:2068  function createPool(address _tokenAddress, \r... */\n      pop\n      pop\n      pop\n      pop\n      jump\t// out\n        /* \"@openzeppelin/contracts/access/Ownable.sol\":1831:1932  function renounceOwnership() public virtual onlyOwner {... */\n    tag_71:\n        /* \"@openzeppelin/contracts/access/Ownable.sol\":1094:1107  _checkOwner() */\n      tag_177\n        /* \"@openzeppelin/contracts/access/Ownable.sol\":1094:1105  _checkOwner */\n      tag_162\n        /* \"@openzeppelin/contracts/access/Ownable.sol\":1094:1107  _checkOwner() */\n      jump\t// in\n    tag_177:\n        /* \"@openzeppelin/contracts/access/Ownable.sol\":1895:1925  _transferOwnership(address(0)) */\n      tag_179\n        /* \"@openzeppelin/contracts/access/Ownable.sol\":1922:1923  0 */\n      0x00\n        /* \"@openzeppelin/contracts/access/Ownable.sol\":1895:1913  _transferOwnership */\n      tag_180\n        /* \"@openzeppelin/contracts/access/Ownable.sol\":1895:1925  _transferOwnership(address(0)) */\n      jump\t// in\n    tag_179:\n        /* \"@openzeppelin/contracts/access/Ownable.sol\":1831:1932  function renounceOwnership() public virtual onlyOwner {... */\n      jump\t// out\n        /* \"Staking.sol\":3343:4220  function unStake() public {\r... */\n    tag_74:\n        /* \"Staking.sol\":3389:3401  stakeDetails */\n      0x07\n        /* \"Staking.sol\":3389:3413  stakeDetails[msg.sender] */\n      0x00\n        /* \"Staking.sol\":3402:3412  msg.sender */\n      caller\n        /* \"Staking.sol\":3389:3413  stakeDetails[msg.sender] */\n      0xffffffffffffffffffffffffffffffffffffffff\n      and\n      0xffffffffffffffffffffffffffffffffffffffff\n      and\n      dup2\n      mstore\n      0x20\n      add\n      swap1\n      dup2\n      mstore\n      0x20\n      add\n      0x00\n      keccak256\n        /* \"Staking.sol\":3389:3416  stakeDetails[msg.sender][0] */\n      0x00\n        /* \"Staking.sol\":3414:3415  0 */\n      dup1\n        /* \"Staking.sol\":3389:3416  stakeDetails[msg.sender][0] */\n      dup2\n      mstore\n      0x20\n      add\n      swap1\n      dup2\n      mstore\n      0x20\n      add\n      0x00\n      keccak256\n        /* \"Staking.sol\":3389:3424  stakeDetails[msg.sender][0].isExist */\n      0x00\n      add\n      0x00\n      swap1\n      sload\n      swap1\n      0x0100\n      exp\n      swap1\n      div\n      0xff\n      and\n        /* \"Staking.sol\":3380:3447  require (stakeDetails[msg.sender][0].isExist, \"You are not staked\") */\n      tag_182\n      jumpi\n      mload(0x40)\n      0x08c379a000000000000000000000000000000000000000000000000000000000\n      dup2\n      mstore\n      0x04\n      add\n      tag_183\n      swap1\n      tag_184\n      jump\t// in\n    tag_183:\n      mload(0x40)\n      dup1\n      swap2\n      sub\n      swap1\n      revert\n    tag_182:\n        /* \"Staking.sol\":3495:3496  0 */\n      0x00\n        /* \"Staking.sol\":3464:3492  getCurrentReward(msg.sender) */\n      tag_185\n        /* \"Staking.sol\":3481:3491  msg.sender */\n      caller\n        /* \"Staking.sol\":3464:3480  getCurrentReward */\n      tag_57\n        /* \"Staking.sol\":3464:3492  getCurrentReward(msg.sender) */\n      jump\t// in\n    tag_185:\n        /* \"Staking.sol\":3464:3496  getCurrentReward(msg.sender) > 0 */\n      gt\n        /* \"Staking.sol\":3460:3546  if (getCurrentReward(msg.sender) > 0) {\r... */\n      iszero\n      tag_186\n      jumpi\n        /* \"Staking.sol\":3513:3534  _withdraw(msg.sender) */\n      tag_187\n        /* \"Staking.sol\":3523:3533  msg.sender */\n      caller\n        /* \"Staking.sol\":3513:3522  _withdraw */\n      tag_142\n        /* \"Staking.sol\":3513:3534  _withdraw(msg.sender) */\n      jump\t// in\n    tag_187:\n        /* \"Staking.sol\":3460:3546  if (getCurrentReward(msg.sender) > 0) {\r... */\n    tag_186:\n        /* \"Staking.sol\":3565:3573  poolInfo */\n      0x04\n        /* \"Staking.sol\":3574:3575  0 */\n      0x00\n        /* \"Staking.sol\":3565:3576  poolInfo[0] */\n      dup2\n      sload\n      dup2\n      lt\n      tag_188\n      jumpi\n      tag_189\n      tag_132\n      jump\t// in\n    tag_189:\n    tag_188:\n      swap1\n      0x00\n      mstore\n      keccak256(0x00, 0x20)\n      swap1\n      0x06\n      mul\n      add\n        /* \"Staking.sol\":3565:3589  poolInfo[0].tokenAddress */\n      0x00\n      add\n      0x00\n      swap1\n      sload\n      swap1\n      0x0100\n      exp\n      swap1\n      div\n      0xffffffffffffffffffffffffffffffffffffffff\n      and\n        /* \"Staking.sol\":3558:3599  IERC20(poolInfo[0].tokenAddress).transfer */\n      0xffffffffffffffffffffffffffffffffffffffff\n      and\n      0xa9059cbb\n        /* \"Staking.sol\":3600:3610  msg.sender */\n      caller\n        /* \"Staking.sol\":3612:3624  stakeDetails */\n      0x07\n        /* \"Staking.sol\":3612:3636  stakeDetails[msg.sender] */\n      0x00\n        /* \"Staking.sol\":3625:3635  msg.sender */\n      caller\n        /* \"Staking.sol\":3612:3636  stakeDetails[msg.sender] */\n      0xffffffffffffffffffffffffffffffffffffffff\n      and\n      0xffffffffffffffffffffffffffffffffffffffff\n      and\n      dup2\n      mstore\n      0x20\n      add\n      swap1\n      dup2\n      mstore\n      0x20\n      add\n      0x00\n      keccak256\n        /* \"Staking.sol\":3612:3639  stakeDetails[msg.sender][0] */\n      0x00\n        /* \"Staking.sol\":3637:3638  0 */\n      dup1\n        /* \"Staking.sol\":3612:3639  stakeDetails[msg.sender][0] */\n      dup2\n      mstore\n      0x20\n      add\n      swap1\n      dup2\n      mstore\n      0x20\n      add\n      0x00\n      keccak256\n        /* \"Staking.sol\":3612:3646  stakeDetails[msg.sender][0].amount */\n      0x01\n      add\n      sload\n        /* \"Staking.sol\":3558:3647  IERC20(poolInfo[0].tokenAddress).transfer(msg.sender, stakeDetails[msg.sender][0].amount) */\n      mload(0x40)\n      dup4\n      0xffffffff\n      and\n      0xe0\n      shl\n      dup2\n      mstore\n      0x04\n      add\n      tag_191\n      swap3\n      swap2\n      swap1\n      tag_192\n      jump\t// in\n    tag_191:\n      0x20\n      mload(0x40)\n      dup1\n      dup4\n      sub\n      dup2\n      0x00\n      dup8\n      dup1\n      extcodesize\n      iszero\n      dup1\n      iszero\n      tag_193\n      jumpi\n      0x00\n      dup1\n      revert\n    tag_193:\n      pop\n      gas\n      call\n      iszero\n      dup1\n      iszero\n      tag_195\n      jumpi\n      returndatasize\n      0x00\n      dup1\n      returndatacopy\n      revert(0x00, returndatasize)\n    tag_195:\n      pop\n      pop\n      pop\n      pop\n      mload(0x40)\n      returndatasize\n      not(0x1f)\n      0x1f\n      dup3\n      add\n      and\n      dup3\n      add\n      dup1\n      0x40\n      mstore\n      pop\n      dup2\n      add\n      swap1\n      tag_196\n      swap2\n      swap1\n      tag_197\n      jump\t// in\n    tag_196:\n      pop\n        /* \"Staking.sol\":3673:3745  UnStake(msg.sender, stakeDetails[msg.sender][0].amount, block.timestamp) */\n      0x54a9763035584fc4fcad1bc4e0e7a83f93e016f50ae32bd527530a77257393ee\n        /* \"Staking.sol\":3681:3691  msg.sender */\n      caller\n        /* \"Staking.sol\":3693:3705  stakeDetails */\n      0x07\n        /* \"Staking.sol\":3693:3717  stakeDetails[msg.sender] */\n      0x00\n        /* \"Staking.sol\":3706:3716  msg.sender */\n      caller\n        /* \"Staking.sol\":3693:3717  stakeDetails[msg.sender] */\n      0xffffffffffffffffffffffffffffffffffffffff\n      and\n      0xffffffffffffffffffffffffffffffffffffffff\n      and\n      dup2\n      mstore\n      0x20\n      add\n      swap1\n      dup2\n      mstore\n      0x20\n      add\n      0x00\n      keccak256\n        /* \"Staking.sol\":3693:3720  stakeDetails[msg.sender][0] */\n      0x00\n        /* \"Staking.sol\":3718:3719  0 */\n      dup1\n        /* \"Staking.sol\":3693:3720  stakeDetails[msg.sender][0] */\n      dup2\n      mstore\n      0x20\n      add\n      swap1\n      dup2\n      mstore\n      0x20\n      add\n      0x00\n      keccak256\n        /* \"Staking.sol\":3693:3727  stakeDetails[msg.sender][0].amount */\n      0x01\n      add\n      sload\n        /* \"Staking.sol\":3729:3744  block.timestamp */\n      timestamp\n        /* \"Staking.sol\":3673:3745  UnStake(msg.sender, stakeDetails[msg.sender][0].amount, block.timestamp) */\n      mload(0x40)\n      tag_198\n      swap4\n      swap3\n      swap2\n      swap1\n      tag_199\n      jump\t// in\n    tag_198:\n      mload(0x40)\n      dup1\n      swap2\n      sub\n      swap1\n      log1\n        /* \"Staking.sol\":3798:3810  stakeDetails */\n      0x07\n        /* \"Staking.sol\":3798:3822  stakeDetails[msg.sender] */\n      0x00\n        /* \"Staking.sol\":3811:3821  msg.sender */\n      caller\n        /* \"Staking.sol\":3798:3822  stakeDetails[msg.sender] */\n      0xffffffffffffffffffffffffffffffffffffffff\n      and\n      0xffffffffffffffffffffffffffffffffffffffff\n      and\n      dup2\n      mstore\n      0x20\n      add\n      swap1\n      dup2\n      mstore\n      0x20\n      add\n      0x00\n      keccak256\n        /* \"Staking.sol\":3798:3825  stakeDetails[msg.sender][0] */\n      0x00\n        /* \"Staking.sol\":3823:3824  0 */\n      dup1\n        /* \"Staking.sol\":3798:3825  stakeDetails[msg.sender][0] */\n      dup2\n      mstore\n      0x20\n      add\n      swap1\n      dup2\n      mstore\n      0x20\n      add\n      0x00\n      keccak256\n        /* \"Staking.sol\":3798:3832  stakeDetails[msg.sender][0].amount */\n      0x01\n      add\n      sload\n        /* \"Staking.sol\":3766:3774  poolInfo */\n      0x04\n        /* \"Staking.sol\":3775:3776  0 */\n      0x00\n        /* \"Staking.sol\":3766:3777  poolInfo[0] */\n      dup2\n      sload\n      dup2\n      lt\n      tag_200\n      jumpi\n      tag_201\n      tag_132\n      jump\t// in\n    tag_201:\n    tag_200:\n      swap1\n      0x00\n      mstore\n      keccak256(0x00, 0x20)\n      swap1\n      0x06\n      mul\n      add\n        /* \"Staking.sol\":3766:3794  poolInfo[0].totalStakeAmount */\n      0x02\n      add\n      0x00\n        /* \"Staking.sol\":3766:3832  poolInfo[0].totalStakeAmount -= stakeDetails[msg.sender][0].amount */\n      dup3\n      dup3\n      sload\n      tag_203\n      swap2\n      swap1\n      tag_126\n      jump\t// in\n    tag_203:\n      swap3\n      pop\n      pop\n      dup2\n      swap1\n      sstore\n      pop\n        /* \"Staking.sol\":3857:3866  uint256 i */\n      0x00\n        /* \"Staking.sol\":3853:4166  for(uint256 i = 0; i < userPoolIds[msg.sender].length; i++){\r... */\n    tag_204:\n        /* \"Staking.sol\":3876:3887  userPoolIds */\n      0x05\n        /* \"Staking.sol\":3876:3899  userPoolIds[msg.sender] */\n      0x00\n        /* \"Staking.sol\":3888:3898  msg.sender */\n      caller\n        /* \"Staking.sol\":3876:3899  userPoolIds[msg.sender] */\n      0xffffffffffffffffffffffffffffffffffffffff\n      and\n      0xffffffffffffffffffffffffffffffffffffffff\n      and\n      dup2\n      mstore\n      0x20\n      add\n      swap1\n      dup2\n      mstore\n      0x20\n      add\n      0x00\n      keccak256\n        /* \"Staking.sol\":3876:3906  userPoolIds[msg.sender].length */\n      dup1\n      sload\n      swap1\n      pop\n        /* \"Staking.sol\":3872:3873  i */\n      dup2\n        /* \"Staking.sol\":3872:3906  i < userPoolIds[msg.sender].length */\n      lt\n        /* \"Staking.sol\":3853:4166  for(uint256 i = 0; i < userPoolIds[msg.sender].length; i++){\r... */\n      iszero\n      tag_205\n      jumpi\n        /* \"Staking.sol\":3960:3961  0 */\n      0x00\n        /* \"Staking.sol\":3930:3941  userPoolIds */\n      0x05\n        /* \"Staking.sol\":3930:3953  userPoolIds[msg.sender] */\n      0x00\n        /* \"Staking.sol\":3942:3952  msg.sender */\n      caller\n        /* \"Staking.sol\":3930:3953  userPoolIds[msg.sender] */\n      0xffffffffffffffffffffffffffffffffffffffff\n      and\n      0xffffffffffffffffffffffffffffffffffffffff\n      and\n      dup2\n      mstore\n      0x20\n      add\n      swap1\n      dup2\n      mstore\n      0x20\n      add\n      0x00\n      keccak256\n        /* \"Staking.sol\":3954:3955  i */\n      dup3\n        /* \"Staking.sol\":3930:3956  userPoolIds[msg.sender][i] */\n      dup2\n      sload\n      dup2\n      lt\n      tag_207\n      jumpi\n      tag_208\n      tag_132\n      jump\t// in\n    tag_208:\n    tag_207:\n      swap1\n      0x00\n      mstore\n      keccak256(0x00, 0x20)\n      add\n      sload\n        /* \"Staking.sol\":3930:3961  userPoolIds[msg.sender][i] == 0 */\n      eq\n        /* \"Staking.sol\":3927:4155  if(userPoolIds[msg.sender][i] == 0){\r... */\n      iszero\n      tag_210\n      jumpi\n        /* \"Staking.sol\":4010:4021  userPoolIds */\n      0x05\n        /* \"Staking.sol\":4010:4033  userPoolIds[msg.sender] */\n      0x00\n        /* \"Staking.sol\":4022:4032  msg.sender */\n      caller\n        /* \"Staking.sol\":4010:4033  userPoolIds[msg.sender] */\n      0xffffffffffffffffffffffffffffffffffffffff\n      and\n      0xffffffffffffffffffffffffffffffffffffffff\n      and\n      dup2\n      mstore\n      0x20\n      add\n      swap1\n      dup2\n      mstore\n      0x20\n      add\n      0x00\n      keccak256\n        /* \"Staking.sol\":4065:4066  1 */\n      0x01\n        /* \"Staking.sol\":4034:4045  userPoolIds */\n      0x05\n        /* \"Staking.sol\":4034:4057  userPoolIds[msg.sender] */\n      0x00\n        /* \"Staking.sol\":4046:4056  msg.sender */\n      caller\n        /* \"Staking.sol\":4034:4057  userPoolIds[msg.sender] */\n      0xffffffffffffffffffffffffffffffffffffffff\n      and\n      0xffffffffffffffffffffffffffffffffffffffff\n      and\n      dup2\n      mstore\n      0x20\n      add\n      swap1\n      dup2\n      mstore\n      0x20\n      add\n      0x00\n      keccak256\n        /* \"Staking.sol\":4034:4064  userPoolIds[msg.sender].length */\n      dup1\n      sload\n      swap1\n      pop\n        /* \"Staking.sol\":4034:4066  userPoolIds[msg.sender].length-1 */\n      tag_211\n      swap2\n      swap1\n      tag_126\n      jump\t// in\n    tag_211:\n        /* \"Staking.sol\":4010:4067  userPoolIds[msg.sender][userPoolIds[msg.sender].length-1] */\n      dup2\n      sload\n      dup2\n      lt\n      tag_212\n      jumpi\n      tag_213\n      tag_132\n      jump\t// in\n    tag_213:\n    tag_212:\n      swap1\n      0x00\n      mstore\n      keccak256(0x00, 0x20)\n      add\n      sload\n        /* \"Staking.sol\":3981:3992  userPoolIds */\n      0x05\n        /* \"Staking.sol\":3981:4004  userPoolIds[msg.sender] */\n      0x00\n        /* \"Staking.sol\":3993:4003  msg.sender */\n      caller\n        /* \"Staking.sol\":3981:4004  userPoolIds[msg.sender] */\n      0xffffffffffffffffffffffffffffffffffffffff\n      and\n      0xffffffffffffffffffffffffffffffffffffffff\n      and\n      dup2\n      mstore\n      0x20\n      add\n      swap1\n      dup2\n      mstore\n      0x20\n      add\n      0x00\n      keccak256\n        /* \"Staking.sol\":4005:4006  i */\n      dup3\n        /* \"Staking.sol\":3981:4007  userPoolIds[msg.sender][i] */\n      dup2\n      sload\n      dup2\n      lt\n      tag_215\n      jumpi\n      tag_216\n      tag_132\n      jump\t// in\n    tag_216:\n    tag_215:\n      swap1\n      0x00\n      mstore\n      keccak256(0x00, 0x20)\n      add\n        /* \"Staking.sol\":3981:4067  userPoolIds[msg.sender][i] = userPoolIds[msg.sender][userPoolIds[msg.sender].length-1] */\n      dup2\n      swap1\n      sstore\n      pop\n        /* \"Staking.sol\":4086:4097  userPoolIds */\n      0x05\n        /* \"Staking.sol\":4086:4109  userPoolIds[msg.sender] */\n      0x00\n        /* \"Staking.sol\":4098:4108  msg.sender */\n      caller\n        /* \"Staking.sol\":4086:4109  userPoolIds[msg.sender] */\n      0xffffffffffffffffffffffffffffffffffffffff\n      and\n      0xffffffffffffffffffffffffffffffffffffffff\n      and\n      dup2\n      mstore\n      0x20\n      add\n      swap1\n      dup2\n      mstore\n      0x20\n      add\n      0x00\n      keccak256\n        /* \"Staking.sol\":4086:4115  userPoolIds[msg.sender].pop() */\n      dup1\n      sload\n      dup1\n      tag_218\n      jumpi\n      tag_219\n      tag_220\n      jump\t// in\n    tag_219:\n    tag_218:\n      0x01\n      swap1\n      sub\n      dup2\n      dup2\n      swap1\n      0x00\n      mstore\n      keccak256(0x00, 0x20)\n      add\n      0x00\n      swap1\n      sstore\n      swap1\n      sstore\n        /* \"Staking.sol\":4134:4139  break */\n      jump(tag_205)\n        /* \"Staking.sol\":3927:4155  if(userPoolIds[msg.sender][i] == 0){\r... */\n    tag_210:\n        /* \"Staking.sol\":3908:3911  i++ */\n      dup1\n      dup1\n      tag_222\n      swap1\n      tag_223\n      jump\t// in\n    tag_222:\n      swap2\n      pop\n      pop\n        /* \"Staking.sol\":3853:4166  for(uint256 i = 0; i < userPoolIds[msg.sender].length; i++){\r... */\n      jump(tag_204)\n    tag_205:\n      pop\n        /* \"Staking.sol\":4185:4197  stakeDetails */\n      0x07\n        /* \"Staking.sol\":4185:4209  stakeDetails[msg.sender] */\n      0x00\n        /* \"Staking.sol\":4198:4208  msg.sender */\n      caller\n        /* \"Staking.sol\":4185:4209  stakeDetails[msg.sender] */\n      0xffffffffffffffffffffffffffffffffffffffff\n      and\n      0xffffffffffffffffffffffffffffffffffffffff\n      and\n      dup2\n      mstore\n      0x20\n      add\n      swap1\n      dup2\n      mstore\n      0x20\n      add\n      0x00\n      keccak256\n        /* \"Staking.sol\":4185:4212  stakeDetails[msg.sender][0] */\n      0x00\n        /* \"Staking.sol\":4210:4211  0 */\n      dup1\n        /* \"Staking.sol\":4185:4212  stakeDetails[msg.sender][0] */\n      dup2\n      mstore\n      0x20\n      add\n      swap1\n      dup2\n      mstore\n      0x20\n      add\n      0x00\n      keccak256\n      0x00\n        /* \"Staking.sol\":4178:4212  delete stakeDetails[msg.sender][0] */\n      dup1\n      dup3\n      add\n      exp(0x0100, 0x00)\n      dup2\n      sload\n      swap1\n      0xff\n      mul\n      not\n      and\n      swap1\n      sstore\n      0x01\n      dup3\n      add\n      0x00\n      swap1\n      sstore\n      0x02\n      dup3\n      add\n      0x00\n      swap1\n      sstore\n      0x03\n      dup3\n      add\n      0x00\n      swap1\n      sstore\n      pop\n      pop\n        /* \"Staking.sol\":3343:4220  function unStake() public {\r... */\n      jump\t// out\n        /* \"@openzeppelin/contracts/access/Ownable.sol\":1201:1286  function owner() public view virtual returns (address) {... */\n    tag_77:\n        /* \"@openzeppelin/contracts/access/Ownable.sol\":1247:1254  address */\n      0x00\n        /* \"@openzeppelin/contracts/access/Ownable.sol\":1273:1279  _owner */\n      dup1\n      0x00\n      swap1\n      sload\n      swap1\n      0x0100\n      exp\n      swap1\n      div\n      0xffffffffffffffffffffffffffffffffffffffff\n      and\n        /* \"@openzeppelin/contracts/access/Ownable.sol\":1266:1279  return _owner */\n      swap1\n      pop\n        /* \"@openzeppelin/contracts/access/Ownable.sol\":1201:1286  function owner() public view virtual returns (address) {... */\n      swap1\n      jump\t// out\n        /* \"Staking.sol\":2275:3331  function stake(uint256 _amount) public payable {\r... */\n    tag_82:\n        /* \"Staking.sol\":2342:2354  stakeDetails */\n      0x07\n        /* \"Staking.sol\":2342:2366  stakeDetails[msg.sender] */\n      0x00\n        /* \"Staking.sol\":2355:2365  msg.sender */\n      caller\n        /* \"Staking.sol\":2342:2366  stakeDetails[msg.sender] */\n      0xffffffffffffffffffffffffffffffffffffffff\n      and\n      0xffffffffffffffffffffffffffffffffffffffff\n      and\n      dup2\n      mstore\n      0x20\n      add\n      swap1\n      dup2\n      mstore\n      0x20\n      add\n      0x00\n      keccak256\n        /* \"Staking.sol\":2342:2369  stakeDetails[msg.sender][0] */\n      0x00\n        /* \"Staking.sol\":2367:2368  0 */\n      dup1\n        /* \"Staking.sol\":2342:2369  stakeDetails[msg.sender][0] */\n      dup2\n      mstore\n      0x20\n      add\n      swap1\n      dup2\n      mstore\n      0x20\n      add\n      0x00\n      keccak256\n        /* \"Staking.sol\":2342:2377  stakeDetails[msg.sender][0].isExist */\n      0x00\n      add\n      0x00\n      swap1\n      sload\n      swap1\n      0x0100\n      exp\n      swap1\n      div\n      0xff\n      and\n        /* \"Staking.sol\":2341:2377  !stakeDetails[msg.sender][0].isExist */\n      iszero\n        /* \"Staking.sol\":2333:2400  require(!stakeDetails[msg.sender][0].isExist, \"You already staked\") */\n      tag_226\n      jumpi\n      mload(0x40)\n      0x08c379a000000000000000000000000000000000000000000000000000000000\n      dup2\n      mstore\n      0x04\n      add\n      tag_227\n      swap1\n      tag_228\n      jump\t// in\n    tag_227:\n      mload(0x40)\n      dup1\n      swap2\n      sub\n      swap1\n      revert\n    tag_226:\n        /* \"Staking.sol\":2420:2428  poolInfo */\n      0x04\n        /* \"Staking.sol\":2429:2430  0 */\n      0x00\n        /* \"Staking.sol\":2420:2431  poolInfo[0] */\n      dup2\n      sload\n      dup2\n      lt\n      tag_229\n      jumpi\n      tag_230\n      tag_132\n      jump\t// in\n    tag_230:\n    tag_229:\n      swap1\n      0x00\n      mstore\n      keccak256(0x00, 0x20)\n      swap1\n      0x06\n      mul\n      add\n        /* \"Staking.sol\":2420:2443  poolInfo[0].isPoolPause */\n      0x04\n      add\n      0x00\n      swap1\n      sload\n      swap1\n      0x0100\n      exp\n      swap1\n      div\n      0xff\n      and\n        /* \"Staking.sol\":2419:2443  !poolInfo[0].isPoolPause */\n      iszero\n        /* \"Staking.sol\":2411:2477  require(!poolInfo[0].isPoolPause , \"You can't stake in this pool\") */\n      tag_232\n      jumpi\n      mload(0x40)\n      0x08c379a000000000000000000000000000000000000000000000000000000000\n      dup2\n      mstore\n      0x04\n      add\n      tag_233\n      swap1\n      tag_234\n      jump\t// in\n    tag_233:\n      mload(0x40)\n      dup1\n      swap2\n      sub\n      swap1\n      revert\n    tag_232:\n        /* \"Staking.sol\":2579:2586  _amount */\n      dup1\n        /* \"Staking.sol\":2513:2521  poolInfo */\n      0x04\n        /* \"Staking.sol\":2522:2523  0 */\n      0x00\n        /* \"Staking.sol\":2513:2524  poolInfo[0] */\n      dup2\n      sload\n      dup2\n      lt\n      tag_235\n      jumpi\n      tag_236\n      tag_132\n      jump\t// in\n    tag_236:\n    tag_235:\n      swap1\n      0x00\n      mstore\n      keccak256(0x00, 0x20)\n      swap1\n      0x06\n      mul\n      add\n        /* \"Staking.sol\":2513:2537  poolInfo[0].tokenAddress */\n      0x00\n      add\n      0x00\n      swap1\n      sload\n      swap1\n      0x0100\n      exp\n      swap1\n      div\n      0xffffffffffffffffffffffffffffffffffffffff\n      and\n        /* \"Staking.sol\":2506:2548  IERC20(poolInfo[0].tokenAddress).allowance */\n      0xffffffffffffffffffffffffffffffffffffffff\n      and\n      0xdd62ed3e\n        /* \"Staking.sol\":2549:2559  msg.sender */\n      caller\n        /* \"Staking.sol\":2569:2573  this */\n      address\n        /* \"Staking.sol\":2506:2575  IERC20(poolInfo[0].tokenAddress).allowance(msg.sender, address(this)) */\n      mload(0x40)\n      dup4\n      0xffffffff\n      and\n      0xe0\n      shl\n      dup2\n      mstore\n      0x04\n      add\n      tag_238\n      swap3\n      swap2\n      swap1\n      tag_239\n      jump\t// in\n    tag_238:\n      0x20\n      mload(0x40)\n      dup1\n      dup4\n      sub\n      dup2\n      dup7\n      dup1\n      extcodesize\n      iszero\n      dup1\n      iszero\n      tag_240\n      jumpi\n      0x00\n      dup1\n      revert\n    tag_240:\n      pop\n      gas\n      staticcall\n      iszero\n      dup1\n      iszero\n      tag_242\n      jumpi\n      returndatasize\n      0x00\n      dup1\n      returndatacopy\n      revert(0x00, returndatasize)\n    tag_242:\n      pop\n      pop\n      pop\n      pop\n      mload(0x40)\n      returndatasize\n      not(0x1f)\n      0x1f\n      dup3\n      add\n      and\n      dup3\n      add\n      dup1\n      0x40\n      mstore\n      pop\n      dup2\n      add\n      swap1\n      tag_243\n      swap2\n      swap1\n      tag_244\n      jump\t// in\n    tag_243:\n        /* \"Staking.sol\":2506:2586  IERC20(poolInfo[0].tokenAddress).allowance(msg.sender, address(this)) >= _amount */\n      lt\n      iszero\n        /* \"Staking.sol\":2498:2610  require(IERC20(poolInfo[0].tokenAddress).allowance(msg.sender, address(this)) >= _amount, \"Tokens not approved\") */\n      tag_245\n      jumpi\n      mload(0x40)\n      0x08c379a000000000000000000000000000000000000000000000000000000000\n      dup2\n      mstore\n      0x04\n      add\n      tag_246\n      swap1\n      tag_247\n      jump\t// in\n    tag_246:\n      mload(0x40)\n      dup1\n      swap2\n      sub\n      swap1\n      revert\n    tag_245:\n        /* \"Staking.sol\":2628:2636  poolInfo */\n      0x04\n        /* \"Staking.sol\":2637:2638  0 */\n      0x00\n        /* \"Staking.sol\":2628:2639  poolInfo[0] */\n      dup2\n      sload\n      dup2\n      lt\n      tag_248\n      jumpi\n      tag_249\n      tag_132\n      jump\t// in\n    tag_249:\n    tag_248:\n      swap1\n      0x00\n      mstore\n      keccak256(0x00, 0x20)\n      swap1\n      0x06\n      mul\n      add\n        /* \"Staking.sol\":2628:2652  poolInfo[0].tokenAddress */\n      0x00\n      add\n      0x00\n      swap1\n      sload\n      swap1\n      0x0100\n      exp\n      swap1\n      div\n      0xffffffffffffffffffffffffffffffffffffffff\n      and\n        /* \"Staking.sol\":2621:2666  IERC20(poolInfo[0].tokenAddress).transferFrom */\n      0xffffffffffffffffffffffffffffffffffffffff\n      and\n      0x23b872dd\n        /* \"Staking.sol\":2667:2677  msg.sender */\n      caller\n        /* \"Staking.sol\":2687:2691  this */\n      address\n        /* \"Staking.sol\":2694:2701  _amount */\n      dup5\n        /* \"Staking.sol\":2621:2702  IERC20(poolInfo[0].tokenAddress).transferFrom(msg.sender, address(this), _amount) */\n      mload(0x40)\n      dup5\n      0xffffffff\n      and\n      0xe0\n      shl\n      dup2\n      mstore\n      0x04\n      add\n      tag_251\n      swap4\n      swap3\n      swap2\n      swap1\n      tag_252\n      jump\t// in\n    tag_251:\n      0x20\n      mload(0x40)\n      dup1\n      dup4\n      sub\n      dup2\n      0x00\n      dup8\n      dup1\n      extcodesize\n      iszero\n      dup1\n      iszero\n      tag_253\n      jumpi\n      0x00\n      dup1\n      revert\n    tag_253:\n      pop\n      gas\n      call\n      iszero\n      dup1\n      iszero\n      tag_255\n      jumpi\n      returndatasize\n      0x00\n      dup1\n      returndatacopy\n      revert(0x00, returndatasize)\n    tag_255:\n      pop\n      pop\n      pop\n      pop\n      mload(0x40)\n      returndatasize\n      not(0x1f)\n      0x1f\n      dup3\n      add\n      and\n      dup3\n      add\n      dup1\n      0x40\n      mstore\n      pop\n      dup2\n      add\n      swap1\n      tag_256\n      swap2\n      swap1\n      tag_197\n      jump\t// in\n    tag_256:\n      pop\n        /* \"Staking.sol\":2783:2794  dailyCapAmt */\n      sload(0x02)\n        /* \"Staking.sol\":2772:2779  _amount */\n      dup2\n        /* \"Staking.sol\":2731:2739  dailyCap */\n      0x06\n        /* \"Staking.sol\":2731:2766  dailyCap[(block.timestamp) / 86400] */\n      0x00\n        /* \"Staking.sol\":2760:2765  86400 */\n      0x015180\n        /* \"Staking.sol\":2741:2756  block.timestamp */\n      timestamp\n        /* \"Staking.sol\":2740:2765  (block.timestamp) / 86400 */\n      tag_257\n      swap2\n      swap1\n      tag_137\n      jump\t// in\n    tag_257:\n        /* \"Staking.sol\":2731:2766  dailyCap[(block.timestamp) / 86400] */\n      dup2\n      mstore\n      0x20\n      add\n      swap1\n      dup2\n      mstore\n      0x20\n      add\n      0x00\n      keccak256\n        /* \"Staking.sol\":2731:2769  dailyCap[(block.timestamp) / 86400][0] */\n      0x00\n        /* \"Staking.sol\":2767:2768  0 */\n      dup1\n        /* \"Staking.sol\":2731:2769  dailyCap[(block.timestamp) / 86400][0] */\n      dup2\n      mstore\n      0x20\n      add\n      swap1\n      dup2\n      mstore\n      0x20\n      add\n      0x00\n      keccak256\n      sload\n        /* \"Staking.sol\":2731:2779  dailyCap[(block.timestamp) / 86400][0] + _amount */\n      tag_258\n      swap2\n      swap1\n      tag_259\n      jump\t// in\n    tag_258:\n        /* \"Staking.sol\":2731:2794  dailyCap[(block.timestamp) / 86400][0] + _amount <= dailyCapAmt */\n      gt\n      iszero\n        /* \"Staking.sol\":2723:2818  require(dailyCap[(block.timestamp) / 86400][0] + _amount <= dailyCapAmt, \"Daily limit reached\") */\n      tag_260\n      jumpi\n      mload(0x40)\n      0x08c379a000000000000000000000000000000000000000000000000000000000\n      dup2\n      mstore\n      0x04\n      add\n      tag_261\n      swap1\n      tag_262\n      jump\t// in\n    tag_261:\n      mload(0x40)\n      dup1\n      swap2\n      sub\n      swap1\n      revert\n    tag_260:\n        /* \"Staking.sol\":2848:2862  minStakeAmount */\n      sload(0x01)\n        /* \"Staking.sol\":2837:2844  _amount */\n      dup2\n        /* \"Staking.sol\":2837:2862  _amount >= minStakeAmount */\n      lt\n      iszero\n        /* \"Staking.sol\":2829:2902  require(_amount >= minStakeAmount, \"Staking amount is less then minimum\") */\n      tag_263\n      jumpi\n      mload(0x40)\n      0x08c379a000000000000000000000000000000000000000000000000000000000\n      dup2\n      mstore\n      0x04\n      add\n      tag_264\n      swap1\n      tag_265\n      jump\t// in\n    tag_264:\n      mload(0x40)\n      dup1\n      swap2\n      sub\n      swap1\n      revert\n    tag_263:\n        /* \"Staking.sol\":2953:3106  StakeStruct({\r... */\n      mload(0x40)\n      dup1\n      0x80\n      add\n      0x40\n      mstore\n      dup1\n        /* \"Staking.sol\":2990:2994  true */\n      0x01\n        /* \"Staking.sol\":2953:3106  StakeStruct({\r... */\n      iszero\n      iszero\n      dup2\n      mstore\n      0x20\n      add\n        /* \"Staking.sol\":3019:3026  _amount */\n      dup3\n        /* \"Staking.sol\":2953:3106  StakeStruct({\r... */\n      dup2\n      mstore\n      0x20\n      add\n        /* \"Staking.sol\":3052:3067  block.timestamp */\n      timestamp\n        /* \"Staking.sol\":2953:3106  StakeStruct({\r... */\n      dup2\n      mstore\n      0x20\n      add\n        /* \"Staking.sol\":3093:3094  0 */\n      0x00\n        /* \"Staking.sol\":2953:3106  StakeStruct({\r... */\n      dup2\n      mstore\n      pop\n        /* \"Staking.sol\":2923:2935  stakeDetails */\n      0x07\n        /* \"Staking.sol\":2923:2947  stakeDetails[msg.sender] */\n      0x00\n        /* \"Staking.sol\":2936:2946  msg.sender */\n      caller\n        /* \"Staking.sol\":2923:2947  stakeDetails[msg.sender] */\n      0xffffffffffffffffffffffffffffffffffffffff\n      and\n      0xffffffffffffffffffffffffffffffffffffffff\n      and\n      dup2\n      mstore\n      0x20\n      add\n      swap1\n      dup2\n      mstore\n      0x20\n      add\n      0x00\n      keccak256\n        /* \"Staking.sol\":2923:2950  stakeDetails[msg.sender][0] */\n      0x00\n        /* \"Staking.sol\":2948:2949  0 */\n      dup1\n        /* \"Staking.sol\":2923:2950  stakeDetails[msg.sender][0] */\n      dup2\n      mstore\n      0x20\n      add\n      swap1\n      dup2\n      mstore\n      0x20\n      add\n      0x00\n      keccak256\n        /* \"Staking.sol\":2923:3106  stakeDetails[msg.sender][0] = StakeStruct({\r... */\n      0x00\n      dup3\n      add\n      mload\n      dup2\n      0x00\n      add\n      exp(0x0100, 0x00)\n      dup2\n      sload\n      dup2\n      0xff\n      mul\n      not\n      and\n      swap1\n      dup4\n      iszero\n      iszero\n      mul\n      or\n      swap1\n      sstore\n      pop\n      0x20\n      dup3\n      add\n      mload\n      dup2\n      0x01\n      add\n      sstore\n      0x40\n      dup3\n      add\n      mload\n      dup2\n      0x02\n      add\n      sstore\n      0x60\n      dup3\n      add\n      mload\n      dup2\n      0x03\n      add\n      sstore\n      swap1\n      pop\n      pop\n        /* \"Staking.sol\":3162:3169  _amount */\n      dup1\n        /* \"Staking.sol\":3119:3127  dailyCap */\n      0x06\n        /* \"Staking.sol\":3119:3154  dailyCap[(block.timestamp) / 86400] */\n      0x00\n        /* \"Staking.sol\":3148:3153  86400 */\n      0x015180\n        /* \"Staking.sol\":3129:3144  block.timestamp */\n      timestamp\n        /* \"Staking.sol\":3128:3153  (block.timestamp) / 86400 */\n      tag_266\n      swap2\n      swap1\n      tag_137\n      jump\t// in\n    tag_266:\n        /* \"Staking.sol\":3119:3154  dailyCap[(block.timestamp) / 86400] */\n      dup2\n      mstore\n      0x20\n      add\n      swap1\n      dup2\n      mstore\n      0x20\n      add\n      0x00\n      keccak256\n        /* \"Staking.sol\":3119:3157  dailyCap[(block.timestamp) / 86400][0] */\n      0x00\n        /* \"Staking.sol\":3155:3156  0 */\n      dup1\n        /* \"Staking.sol\":3119:3157  dailyCap[(block.timestamp) / 86400][0] */\n      dup2\n      mstore\n      0x20\n      add\n      swap1\n      dup2\n      mstore\n      0x20\n      add\n      0x00\n      keccak256\n      0x00\n        /* \"Staking.sol\":3119:3169  dailyCap[(block.timestamp) / 86400][0]  += _amount */\n      dup3\n      dup3\n      sload\n      tag_267\n      swap2\n      swap1\n      tag_259\n      jump\t// in\n    tag_267:\n      swap3\n      pop\n      pop\n      dup2\n      swap1\n      sstore\n      pop\n        /* \"Staking.sol\":3212:3219  _amount */\n      dup1\n        /* \"Staking.sol\":3180:3188  poolInfo */\n      0x04\n        /* \"Staking.sol\":3189:3190  0 */\n      0x00\n        /* \"Staking.sol\":3180:3191  poolInfo[0] */\n      dup2\n      sload\n      dup2\n      lt\n      tag_268\n      jumpi\n      tag_269\n      tag_132\n      jump\t// in\n    tag_269:\n    tag_268:\n      swap1\n      0x00\n      mstore\n      keccak256(0x00, 0x20)\n      swap1\n      0x06\n      mul\n      add\n        /* \"Staking.sol\":3180:3208  poolInfo[0].totalStakeAmount */\n      0x02\n      add\n      0x00\n        /* \"Staking.sol\":3180:3219  poolInfo[0].totalStakeAmount += _amount */\n      dup3\n      dup3\n      sload\n      tag_271\n      swap2\n      swap1\n      tag_259\n      jump\t// in\n    tag_271:\n      swap3\n      pop\n      pop\n      dup2\n      swap1\n      sstore\n      pop\n        /* \"Staking.sol\":3230:3241  userPoolIds */\n      0x05\n        /* \"Staking.sol\":3230:3253  userPoolIds[msg.sender] */\n      0x00\n        /* \"Staking.sol\":3242:3252  msg.sender */\n      caller\n        /* \"Staking.sol\":3230:3253  userPoolIds[msg.sender] */\n      0xffffffffffffffffffffffffffffffffffffffff\n      and\n      0xffffffffffffffffffffffffffffffffffffffff\n      and\n      dup2\n      mstore\n      0x20\n      add\n      swap1\n      dup2\n      mstore\n      0x20\n      add\n      0x00\n      keccak256\n        /* \"Staking.sol\":3259:3260  0 */\n      0x00\n        /* \"Staking.sol\":3230:3261  userPoolIds[msg.sender].push(0) */\n      swap1\n      dup1\n      0x01\n      dup2\n      sload\n      add\n      dup1\n      dup3\n      sstore\n      dup1\n      swap2\n      pop\n      pop\n      0x01\n      swap1\n      sub\n      swap1\n      0x00\n      mstore\n      keccak256(0x00, 0x20)\n      add\n      0x00\n      swap1\n      swap2\n      swap1\n      swap2\n      swap1\n      swap2\n      pop\n      sstore\n        /* \"Staking.sol\":3277:3323  Stake(msg.sender, _amount, 0, block.timestamp) */\n      0xf556991011e831bcfac4f406d547e5e32cdd98267efab83935230d5f8d02c446\n        /* \"Staking.sol\":3283:3293  msg.sender */\n      caller\n        /* \"Staking.sol\":3295:3302  _amount */\n      dup3\n        /* \"Staking.sol\":3304:3305  0 */\n      0x00\n        /* \"Staking.sol\":3307:3322  block.timestamp */\n      timestamp\n        /* \"Staking.sol\":3277:3323  Stake(msg.sender, _amount, 0, block.timestamp) */\n      mload(0x40)\n      tag_273\n      swap5\n      swap4\n      swap3\n      swap2\n      swap1\n      tag_274\n      jump\t// in\n    tag_273:\n      mload(0x40)\n      dup1\n      swap2\n      sub\n      swap1\n      log1\n        /* \"Staking.sol\":2275:3331  function stake(uint256 _amount) public payable {\r... */\n      pop\n      jump\t// out\n        /* \"Staking.sol\":5908:6079  function depositRewardToken(uint256 _amount) public onlyOwner {\r... */\n    tag_86:\n        /* \"@openzeppelin/contracts/access/Ownable.sol\":1094:1107  _checkOwner() */\n      tag_276\n        /* \"@openzeppelin/contracts/access/Ownable.sol\":1094:1105  _checkOwner */\n      tag_162\n        /* \"@openzeppelin/contracts/access/Ownable.sol\":1094:1107  _checkOwner() */\n      jump\t// in\n    tag_276:\n        /* \"Staking.sol\":5988:5996  poolInfo */\n      0x04\n        /* \"Staking.sol\":5997:5998  0 */\n      0x00\n        /* \"Staking.sol\":5988:5999  poolInfo[0] */\n      dup2\n      sload\n      dup2\n      lt\n      tag_278\n      jumpi\n      tag_279\n      tag_132\n      jump\t// in\n    tag_279:\n    tag_278:\n      swap1\n      0x00\n      mstore\n      keccak256(0x00, 0x20)\n      swap1\n      0x06\n      mul\n      add\n        /* \"Staking.sol\":5988:6013  poolInfo[0].rewardAddress */\n      0x01\n      add\n      0x00\n      swap1\n      sload\n      swap1\n      0x0100\n      exp\n      swap1\n      div\n      0xffffffffffffffffffffffffffffffffffffffff\n      and\n        /* \"Staking.sol\":5981:6027  IERC20(poolInfo[0].rewardAddress).transferFrom */\n      0xffffffffffffffffffffffffffffffffffffffff\n      and\n      0x23b872dd\n        /* \"Staking.sol\":6028:6038  msg.sender */\n      caller\n        /* \"Staking.sol\":6048:6052  this */\n      address\n        /* \"Staking.sol\":6055:6062  _amount */\n      dup5\n        /* \"Staking.sol\":5981:6063  IERC20(poolInfo[0].rewardAddress).transferFrom(msg.sender, address(this), _amount) */\n      mload(0x40)\n      dup5\n      0xffffffff\n      and\n      0xe0\n      shl\n      dup2\n      mstore\n      0x04\n      add\n      tag_281\n      swap4\n      swap3\n      swap2\n      swap1\n      tag_252\n      jump\t// in\n    tag_281:\n      0x20\n      mload(0x40)\n      dup1\n      dup4\n      sub\n      dup2\n      0x00\n      dup8\n      dup1\n      extcodesize\n      iszero\n      dup1\n      iszero\n      tag_282\n      jumpi\n      0x00\n      dup1\n      revert\n    tag_282:\n      pop\n      gas\n      call\n      iszero\n      dup1\n      iszero\n      tag_284\n      jumpi\n      returndatasize\n      0x00\n      dup1\n      returndatacopy\n      revert(0x00, returndatasize)\n    tag_284:\n      pop\n      pop\n      pop\n      pop\n      mload(0x40)\n      returndatasize\n      not(0x1f)\n      0x1f\n      dup3\n      add\n      and\n      dup3\n      add\n      dup1\n      0x40\n      mstore\n      pop\n      dup2\n      add\n      swap1\n      tag_285\n      swap2\n      swap1\n      tag_197\n      jump\t// in\n    tag_285:\n      pop\n        /* \"Staking.sol\":5908:6079  function depositRewardToken(uint256 _amount) public onlyOwner {\r... */\n      pop\n      jump\t// out\n        /* \"Staking.sol\":4228:4330  function changeDailyCapLimit (uint256 _limit) public onlyOwner {\r... */\n    tag_90:\n        /* \"@openzeppelin/contracts/access/Ownable.sol\":1094:1107  _checkOwner() */\n      tag_287\n        /* \"@openzeppelin/contracts/access/Ownable.sol\":1094:1105  _checkOwner */\n      tag_162\n        /* \"@openzeppelin/contracts/access/Ownable.sol\":1094:1107  _checkOwner() */\n      jump\t// in\n    tag_287:\n        /* \"Staking.sol\":4316:4322  _limit */\n      dup1\n        /* \"Staking.sol\":4302:4313  dailyCapAmt */\n      0x02\n        /* \"Staking.sol\":4302:4322  dailyCapAmt = _limit */\n      dup2\n      swap1\n      sstore\n      pop\n        /* \"Staking.sol\":4228:4330  function changeDailyCapLimit (uint256 _limit) public onlyOwner {\r... */\n      pop\n      jump\t// out\n        /* \"Staking.sol\":2076:2267  function poolPauseUnPause() public onlyOwner {\r... */\n    tag_93:\n        /* \"@openzeppelin/contracts/access/Ownable.sol\":1094:1107  _checkOwner() */\n      tag_290\n        /* \"@openzeppelin/contracts/access/Ownable.sol\":1094:1105  _checkOwner */\n      tag_162\n        /* \"@openzeppelin/contracts/access/Ownable.sol\":1094:1107  _checkOwner() */\n      jump\t// in\n    tag_290:\n        /* \"Staking.sol\":2172:2173  0 */\n      0x00\n        /* \"Staking.sol\":2140:2148  poolInfo */\n      0x04\n        /* \"Staking.sol\":2149:2150  0 */\n      0x00\n        /* \"Staking.sol\":2140:2151  poolInfo[0] */\n      dup2\n      sload\n      dup2\n      lt\n      tag_292\n      jumpi\n      tag_293\n      tag_132\n      jump\t// in\n    tag_293:\n    tag_292:\n      swap1\n      0x00\n      mstore\n      keccak256(0x00, 0x20)\n      swap1\n      0x06\n      mul\n      add\n        /* \"Staking.sol\":2140:2168  poolInfo[0].totalStakeAmount */\n      0x02\n      add\n      sload\n        /* \"Staking.sol\":2140:2173  poolInfo[0].totalStakeAmount == 0 */\n      eq\n        /* \"Staking.sol\":2132:2198  require(poolInfo[0].totalStakeAmount == 0 , \"Cannot cancel pool!\") */\n      tag_295\n      jumpi\n      mload(0x40)\n      0x08c379a000000000000000000000000000000000000000000000000000000000\n      dup2\n      mstore\n      0x04\n      add\n      tag_296\n      swap1\n      tag_297\n      jump\t// in\n    tag_296:\n      mload(0x40)\n      dup1\n      swap2\n      sub\n      swap1\n      revert\n    tag_295:\n        /* \"Staking.sol\":2236:2244  poolInfo */\n      0x04\n        /* \"Staking.sol\":2245:2246  0 */\n      0x00\n        /* \"Staking.sol\":2236:2247  poolInfo[0] */\n      dup2\n      sload\n      dup2\n      lt\n      tag_298\n      jumpi\n      tag_299\n      tag_132\n      jump\t// in\n    tag_299:\n    tag_298:\n      swap1\n      0x00\n      mstore\n      keccak256(0x00, 0x20)\n      swap1\n      0x06\n      mul\n      add\n        /* \"Staking.sol\":2236:2259  poolInfo[0].isPoolPause */\n      0x04\n      add\n      0x00\n      swap1\n      sload\n      swap1\n      0x0100\n      exp\n      swap1\n      div\n      0xff\n      and\n        /* \"Staking.sol\":2235:2259  !poolInfo[0].isPoolPause */\n      iszero\n        /* \"Staking.sol\":2209:2217  poolInfo */\n      0x04\n        /* \"Staking.sol\":2218:2219  0 */\n      0x00\n        /* \"Staking.sol\":2209:2220  poolInfo[0] */\n      dup2\n      sload\n      dup2\n      lt\n      tag_301\n      jumpi\n      tag_302\n      tag_132\n      jump\t// in\n    tag_302:\n    tag_301:\n      swap1\n      0x00\n      mstore\n      keccak256(0x00, 0x20)\n      swap1\n      0x06\n      mul\n      add\n        /* \"Staking.sol\":2209:2232  poolInfo[0].isPoolPause */\n      0x04\n      add\n      0x00\n        /* \"Staking.sol\":2209:2259  poolInfo[0].isPoolPause = !poolInfo[0].isPoolPause */\n      0x0100\n      exp\n      dup2\n      sload\n      dup2\n      0xff\n      mul\n      not\n      and\n      swap1\n      dup4\n      iszero\n      iszero\n      mul\n      or\n      swap1\n      sstore\n      pop\n        /* \"Staking.sol\":2076:2267  function poolPauseUnPause() public onlyOwner {\r... */\n      jump\t// out\n        /* \"Staking.sol\":4338:4449  function changeMinStakeAmt (uint256 _minAmount) public onlyOwner {\r... */\n    tag_97:\n        /* \"@openzeppelin/contracts/access/Ownable.sol\":1094:1107  _checkOwner() */\n      tag_305\n        /* \"@openzeppelin/contracts/access/Ownable.sol\":1094:1105  _checkOwner */\n      tag_162\n        /* \"@openzeppelin/contracts/access/Ownable.sol\":1094:1107  _checkOwner() */\n      jump\t// in\n    tag_305:\n        /* \"Staking.sol\":4431:4441  _minAmount */\n      dup1\n        /* \"Staking.sol\":4414:4428  minStakeAmount */\n      0x01\n        /* \"Staking.sol\":4414:4441  minStakeAmount = _minAmount */\n      dup2\n      swap1\n      sstore\n      pop\n        /* \"Staking.sol\":4338:4449  function changeMinStakeAmt (uint256 _minAmount) public onlyOwner {\r... */\n      pop\n      jump\t// out\n        /* \"Staking.sol\":6704:6804  function checkPoolPause() public view returns(bool){\r... */\n    tag_100:\n        /* \"Staking.sol\":6750:6754  bool */\n      0x00\n        /* \"Staking.sol\":6773:6781  poolInfo */\n      0x04\n        /* \"Staking.sol\":6782:6783  0 */\n      0x00\n        /* \"Staking.sol\":6773:6784  poolInfo[0] */\n      dup2\n      sload\n      dup2\n      lt\n      tag_308\n      jumpi\n      tag_309\n      tag_132\n      jump\t// in\n    tag_309:\n    tag_308:\n      swap1\n      0x00\n      mstore\n      keccak256(0x00, 0x20)\n      swap1\n      0x06\n      mul\n      add\n        /* \"Staking.sol\":6773:6796  poolInfo[0].isPoolPause */\n      0x04\n      add\n      0x00\n      swap1\n      sload\n      swap1\n      0x0100\n      exp\n      swap1\n      div\n      0xff\n      and\n        /* \"Staking.sol\":6766:6796  return poolInfo[0].isPoolPause */\n      swap1\n      pop\n        /* \"Staking.sol\":6704:6804  function checkPoolPause() public view returns(bool){\r... */\n      swap1\n      jump\t// out\n        /* \"Staking.sol\":383:437  uint256 public minStakeAmount = 1000000000000000000000 */\n    tag_104:\n      sload(0x01)\n      dup2\n      jump\t// out\n        /* \"@openzeppelin/contracts/access/Ownable.sol\":2081:2279  function transferOwnership(address newOwner) public virtual onlyOwner {... */\n    tag_109:\n        /* \"@openzeppelin/contracts/access/Ownable.sol\":1094:1107  _checkOwner() */\n      tag_312\n        /* \"@openzeppelin/contracts/access/Ownable.sol\":1094:1105  _checkOwner */\n      tag_162\n        /* \"@openzeppelin/contracts/access/Ownable.sol\":1094:1107  _checkOwner() */\n      jump\t// in\n    tag_312:\n        /* \"@openzeppelin/contracts/access/Ownable.sol\":2189:2190  0 */\n      0x00\n        /* \"@openzeppelin/contracts/access/Ownable.sol\":2169:2191  newOwner != address(0) */\n      0xffffffffffffffffffffffffffffffffffffffff\n      and\n        /* \"@openzeppelin/contracts/access/Ownable.sol\":2169:2177  newOwner */\n      dup2\n        /* \"@openzeppelin/contracts/access/Ownable.sol\":2169:2191  newOwner != address(0) */\n      0xffffffffffffffffffffffffffffffffffffffff\n      and\n      eq\n      iszero\n        /* \"@openzeppelin/contracts/access/Ownable.sol\":2161:2234  require(newOwner != address(0), \"Ownable: new owner is the zero address\") */\n      tag_314\n      jumpi\n      mload(0x40)\n      0x08c379a000000000000000000000000000000000000000000000000000000000\n      dup2\n      mstore\n      0x04\n      add\n      tag_315\n      swap1\n      tag_316\n      jump\t// in\n    tag_315:\n      mload(0x40)\n      dup1\n      swap2\n      sub\n      swap1\n      revert\n    tag_314:\n        /* \"@openzeppelin/contracts/access/Ownable.sol\":2244:2272  _transferOwnership(newOwner) */\n      tag_317\n        /* \"@openzeppelin/contracts/access/Ownable.sol\":2263:2271  newOwner */\n      dup2\n        /* \"@openzeppelin/contracts/access/Ownable.sol\":2244:2262  _transferOwnership */\n      tag_180\n        /* \"@openzeppelin/contracts/access/Ownable.sol\":2244:2272  _transferOwnership(newOwner) */\n      jump\t// in\n    tag_317:\n        /* \"@openzeppelin/contracts/access/Ownable.sol\":2081:2279  function transferOwnership(address newOwner) public virtual onlyOwner {... */\n      pop\n      jump\t// out\n        /* \"Staking.sol\":6442:6569  function getStakeDetails(address _user) public view returns(StakeStruct memory){\r... */\n    tag_113:\n        /* \"Staking.sol\":6502:6520  StakeStruct memory */\n      tag_318\n      tag_319\n      jump\t// in\n    tag_318:\n        /* \"Staking.sol\":6539:6551  stakeDetails */\n      0x07\n        /* \"Staking.sol\":6539:6558  stakeDetails[_user] */\n      0x00\n        /* \"Staking.sol\":6552:6557  _user */\n      dup4\n        /* \"Staking.sol\":6539:6558  stakeDetails[_user] */\n      0xffffffffffffffffffffffffffffffffffffffff\n      and\n      0xffffffffffffffffffffffffffffffffffffffff\n      and\n      dup2\n      mstore\n      0x20\n      add\n      swap1\n      dup2\n      mstore\n      0x20\n      add\n      0x00\n      keccak256\n        /* \"Staking.sol\":6539:6561  stakeDetails[_user][0] */\n      0x00\n        /* \"Staking.sol\":6559:6560  0 */\n      dup1\n        /* \"Staking.sol\":6539:6561  stakeDetails[_user][0] */\n      dup2\n      mstore\n      0x20\n      add\n      swap1\n      dup2\n      mstore\n      0x20\n      add\n      0x00\n      keccak256\n        /* \"Staking.sol\":6532:6561  return stakeDetails[_user][0] */\n      mload(0x40)\n      dup1\n      0x80\n      add\n      0x40\n      mstore\n      swap1\n      dup2\n      0x00\n      dup3\n      add\n      0x00\n      swap1\n      sload\n      swap1\n      0x0100\n      exp\n      swap1\n      div\n      0xff\n      and\n      iszero\n      iszero\n      iszero\n      iszero\n      dup2\n      mstore\n      0x20\n      add\n      0x01\n      dup3\n      add\n      sload\n      dup2\n      mstore\n      0x20\n      add\n      0x02\n      dup3\n      add\n      sload\n      dup2\n      mstore\n      0x20\n      add\n      0x03\n      dup3\n      add\n      sload\n      dup2\n      mstore\n      pop\n      pop\n      swap1\n      pop\n        /* \"Staking.sol\":6442:6569  function getStakeDetails(address _user) public view returns(StakeStruct memory){\r... */\n      swap2\n      swap1\n      pop\n      jump\t// out\n        /* \"Staking.sol\":6087:6318  function transferTokens(uint256 _amount) public onlyOwner {\r... */\n    tag_119:\n        /* \"@openzeppelin/contracts/access/Ownable.sol\":1094:1107  _checkOwner() */\n      tag_322\n        /* \"@openzeppelin/contracts/access/Ownable.sol\":1094:1105  _checkOwner */\n      tag_162\n        /* \"@openzeppelin/contracts/access/Ownable.sol\":1094:1107  _checkOwner() */\n      jump\t// in\n    tag_322:\n        /* \"Staking.sol\":6201:6202  0 */\n      0x00\n        /* \"Staking.sol\":6164:6203  poolInfo[0].rewardAddress != address(0) */\n      0xffffffffffffffffffffffffffffffffffffffff\n      and\n        /* \"Staking.sol\":6164:6172  poolInfo */\n      0x04\n        /* \"Staking.sol\":6173:6174  0 */\n      0x00\n        /* \"Staking.sol\":6164:6175  poolInfo[0] */\n      dup2\n      sload\n      dup2\n      lt\n      tag_324\n      jumpi\n      tag_325\n      tag_132\n      jump\t// in\n    tag_325:\n    tag_324:\n      swap1\n      0x00\n      mstore\n      keccak256(0x00, 0x20)\n      swap1\n      0x06\n      mul\n      add\n        /* \"Staking.sol\":6164:6189  poolInfo[0].rewardAddress */\n      0x01\n      add\n      0x00\n      swap1\n      sload\n      swap1\n      0x0100\n      exp\n      swap1\n      div\n      0xffffffffffffffffffffffffffffffffffffffff\n      and\n        /* \"Staking.sol\":6164:6203  poolInfo[0].rewardAddress != address(0) */\n      0xffffffffffffffffffffffffffffffffffffffff\n      and\n      eq\n      iszero\n        /* \"Staking.sol\":6156:6236  require(poolInfo[0].rewardAddress != address(0),\"You can't transfer the tokens\") */\n      tag_327\n      jumpi\n      mload(0x40)\n      0x08c379a000000000000000000000000000000000000000000000000000000000\n      dup2\n      mstore\n      0x04\n      add\n      tag_328\n      swap1\n      tag_329\n      jump\t// in\n    tag_328:\n      mload(0x40)\n      dup1\n      swap2\n      sub\n      swap1\n      revert\n    tag_327:\n        /* \"Staking.sol\":6254:6262  poolInfo */\n      0x04\n        /* \"Staking.sol\":6263:6264  0 */\n      0x00\n        /* \"Staking.sol\":6254:6265  poolInfo[0] */\n      dup2\n      sload\n      dup2\n      lt\n      tag_330\n      jumpi\n      tag_331\n      tag_132\n      jump\t// in\n    tag_331:\n    tag_330:\n      swap1\n      0x00\n      mstore\n      keccak256(0x00, 0x20)\n      swap1\n      0x06\n      mul\n      add\n        /* \"Staking.sol\":6254:6279  poolInfo[0].rewardAddress */\n      0x01\n      add\n      0x00\n      swap1\n      sload\n      swap1\n      0x0100\n      exp\n      swap1\n      div\n      0xffffffffffffffffffffffffffffffffffffffff\n      and\n        /* \"Staking.sol\":6247:6289  IERC20(poolInfo[0].rewardAddress).transfer */\n      0xffffffffffffffffffffffffffffffffffffffff\n      and\n      0xa9059cbb\n        /* \"Staking.sol\":6290:6300  msg.sender */\n      caller\n        /* \"Staking.sol\":6302:6309  _amount */\n      dup4\n        /* \"Staking.sol\":6247:6310  IERC20(poolInfo[0].rewardAddress).transfer(msg.sender, _amount) */\n      mload(0x40)\n      dup4\n      0xffffffff\n      and\n      0xe0\n      shl\n      dup2\n      mstore\n      0x04\n      add\n      tag_333\n      swap3\n      swap2\n      swap1\n      tag_192\n      jump\t// in\n    tag_333:\n      0x20\n      mload(0x40)\n      dup1\n      dup4\n      sub\n      dup2\n      0x00\n      dup8\n      dup1\n      extcodesize\n      iszero\n      dup1\n      iszero\n      tag_334\n      jumpi\n      0x00\n      dup1\n      revert\n    tag_334:\n      pop\n      gas\n      call\n      iszero\n      dup1\n      iszero\n      tag_336\n      jumpi\n      returndatasize\n      0x00\n      dup1\n      returndatacopy\n      revert(0x00, returndatasize)\n    tag_336:\n      pop\n      pop\n      pop\n      pop\n      mload(0x40)\n      returndatasize\n      not(0x1f)\n      0x1f\n      dup3\n      add\n      and\n      dup3\n      add\n      dup1\n      0x40\n      mstore\n      pop\n      dup2\n      add\n      swap1\n      tag_337\n      swap2\n      swap1\n      tag_197\n      jump\t// in\n    tag_337:\n      pop\n        /* \"Staking.sol\":6087:6318  function transferTokens(uint256 _amount) public onlyOwner {\r... */\n      pop\n      jump\t// out\n        /* \"Staking.sol\":4569:4973  function _withdraw(address _user) internal {\r... */\n    tag_142:\n        /* \"Staking.sol\":4657:4658  0 */\n      0x00\n        /* \"Staking.sol\":4631:4654  getCurrentReward(_user) */\n      tag_339\n        /* \"Staking.sol\":4648:4653  _user */\n      dup3\n        /* \"Staking.sol\":4631:4647  getCurrentReward */\n      tag_57\n        /* \"Staking.sol\":4631:4654  getCurrentReward(_user) */\n      jump\t// in\n    tag_339:\n        /* \"Staking.sol\":4631:4658  getCurrentReward(_user) > 0 */\n      gt\n        /* \"Staking.sol\":4623:4682  require(getCurrentReward(_user) > 0, \"Nothing to withdraw\") */\n      tag_340\n      jumpi\n      mload(0x40)\n      0x08c379a000000000000000000000000000000000000000000000000000000000\n      dup2\n      mstore\n      0x04\n      add\n      tag_341\n      swap1\n      tag_342\n      jump\t// in\n    tag_341:\n      mload(0x40)\n      dup1\n      swap2\n      sub\n      swap1\n      revert\n    tag_340:\n        /* \"Staking.sol\":4693:4714  uint256 harvestAmount */\n      0x00\n        /* \"Staking.sol\":4717:4740  getCurrentReward(_user) */\n      tag_343\n        /* \"Staking.sol\":4734:4739  _user */\n      dup3\n        /* \"Staking.sol\":4717:4733  getCurrentReward */\n      tag_57\n        /* \"Staking.sol\":4717:4740  getCurrentReward(_user) */\n      jump\t// in\n    tag_343:\n        /* \"Staking.sol\":4693:4740  uint256 harvestAmount = getCurrentReward(_user) */\n      swap1\n      pop\n        /* \"Staking.sol\":4768:4776  poolInfo */\n      0x04\n        /* \"Staking.sol\":4777:4778  0 */\n      0x00\n        /* \"Staking.sol\":4768:4779  poolInfo[0] */\n      dup2\n      sload\n      dup2\n      lt\n      tag_344\n      jumpi\n      tag_345\n      tag_132\n      jump\t// in\n    tag_345:\n    tag_344:\n      swap1\n      0x00\n      mstore\n      keccak256(0x00, 0x20)\n      swap1\n      0x06\n      mul\n      add\n        /* \"Staking.sol\":4768:4793  poolInfo[0].rewardAddress */\n      0x01\n      add\n      0x00\n      swap1\n      sload\n      swap1\n      0x0100\n      exp\n      swap1\n      div\n      0xffffffffffffffffffffffffffffffffffffffff\n      and\n        /* \"Staking.sol\":4761:4803  IERC20(poolInfo[0].rewardAddress).transfer */\n      0xffffffffffffffffffffffffffffffffffffffff\n      and\n      0xa9059cbb\n        /* \"Staking.sol\":4804:4814  msg.sender */\n      caller\n        /* \"Staking.sol\":4816:4829  harvestAmount */\n      dup4\n        /* \"Staking.sol\":4761:4830  IERC20(poolInfo[0].rewardAddress).transfer(msg.sender, harvestAmount) */\n      mload(0x40)\n      dup4\n      0xffffffff\n      and\n      0xe0\n      shl\n      dup2\n      mstore\n      0x04\n      add\n      tag_347\n      swap3\n      swap2\n      swap1\n      tag_192\n      jump\t// in\n    tag_347:\n      0x20\n      mload(0x40)\n      dup1\n      dup4\n      sub\n      dup2\n      0x00\n      dup8\n      dup1\n      extcodesize\n      iszero\n      dup1\n      iszero\n      tag_348\n      jumpi\n      0x00\n      dup1\n      revert\n    tag_348:\n      pop\n      gas\n      call\n      iszero\n      dup1\n      iszero\n      tag_350\n      jumpi\n      returndatasize\n      0x00\n      dup1\n      returndatacopy\n      revert(0x00, returndatasize)\n    tag_350:\n      pop\n      pop\n      pop\n      pop\n      mload(0x40)\n      returndatasize\n      not(0x1f)\n      0x1f\n      dup3\n      add\n      and\n      dup3\n      add\n      dup1\n      0x40\n      mstore\n      pop\n      dup2\n      add\n      swap1\n      tag_351\n      swap2\n      swap1\n      tag_197\n      jump\t// in\n    tag_351:\n      pop\n        /* \"Staking.sol\":4887:4900  harvestAmount */\n      dup1\n        /* \"Staking.sol\":4851:4863  stakeDetails */\n      0x07\n        /* \"Staking.sol\":4851:4870  stakeDetails[_user] */\n      0x00\n        /* \"Staking.sol\":4864:4869  _user */\n      dup5\n        /* \"Staking.sol\":4851:4870  stakeDetails[_user] */\n      0xffffffffffffffffffffffffffffffffffffffff\n      and\n      0xffffffffffffffffffffffffffffffffffffffff\n      and\n      dup2\n      mstore\n      0x20\n      add\n      swap1\n      dup2\n      mstore\n      0x20\n      add\n      0x00\n      keccak256\n        /* \"Staking.sol\":4851:4873  stakeDetails[_user][0] */\n      0x00\n        /* \"Staking.sol\":4871:4872  0 */\n      dup1\n        /* \"Staking.sol\":4851:4873  stakeDetails[_user][0] */\n      dup2\n      mstore\n      0x20\n      add\n      swap1\n      dup2\n      mstore\n      0x20\n      add\n      0x00\n      keccak256\n        /* \"Staking.sol\":4851:4883  stakeDetails[_user][0].withdrawn */\n      0x03\n      add\n      0x00\n        /* \"Staking.sol\":4851:4900  stakeDetails[_user][0].withdrawn += harvestAmount */\n      dup3\n      dup3\n      sload\n      tag_352\n      swap2\n      swap1\n      tag_259\n      jump\t// in\n    tag_352:\n      swap3\n      pop\n      pop\n      dup2\n      swap1\n      sstore\n      pop\n        /* \"Staking.sol\":4916:4965  Withdrawal(_user, harvestAmount, block.timestamp) */\n      0xdf273cb619d95419a9cd0ec88123a0538c85064229baa6363788f743fff90deb\n        /* \"Staking.sol\":4927:4932  _user */\n      dup3\n        /* \"Staking.sol\":4934:4947  harvestAmount */\n      dup3\n        /* \"Staking.sol\":4949:4964  block.timestamp */\n      timestamp\n        /* \"Staking.sol\":4916:4965  Withdrawal(_user, harvestAmount, block.timestamp) */\n      mload(0x40)\n      tag_353\n      swap4\n      swap3\n      swap2\n      swap1\n      tag_199\n      jump\t// in\n    tag_353:\n      mload(0x40)\n      dup1\n      swap2\n      sub\n      swap1\n      log1\n        /* \"Staking.sol\":4612:4973  {\r... */\n      pop\n        /* \"Staking.sol\":4569:4973  function _withdraw(address _user) internal {\r... */\n      pop\n      jump\t// out\n        /* \"@openzeppelin/contracts/access/Ownable.sol\":1359:1489  function _checkOwner() internal view virtual {... */\n    tag_162:\n        /* \"@openzeppelin/contracts/access/Ownable.sol\":1433:1445  _msgSender() */\n      tag_355\n        /* \"@openzeppelin/contracts/access/Ownable.sol\":1433:1443  _msgSender */\n      tag_356\n        /* \"@openzeppelin/contracts/access/Ownable.sol\":1433:1445  _msgSender() */\n      jump\t// in\n    tag_355:\n        /* \"@openzeppelin/contracts/access/Ownable.sol\":1422:1445  owner() == _msgSender() */\n      0xffffffffffffffffffffffffffffffffffffffff\n      and\n        /* \"@openzeppelin/contracts/access/Ownable.sol\":1422:1429  owner() */\n      tag_357\n        /* \"@openzeppelin/contracts/access/Ownable.sol\":1422:1427  owner */\n      tag_77\n        /* \"@openzeppelin/contracts/access/Ownable.sol\":1422:1429  owner() */\n      jump\t// in\n    tag_357:\n        /* \"@openzeppelin/contracts/access/Ownable.sol\":1422:1445  owner() == _msgSender() */\n      0xffffffffffffffffffffffffffffffffffffffff\n      and\n      eq\n        /* \"@openzeppelin/contracts/access/Ownable.sol\":1414:1482  require(owner() == _msgSender(), \"Ownable: caller is not the owner\") */\n      tag_358\n      jumpi\n      mload(0x40)\n      0x08c379a000000000000000000000000000000000000000000000000000000000\n      dup2\n      mstore\n      0x04\n      add\n      tag_359\n      swap1\n      tag_360\n      jump\t// in\n    tag_359:\n      mload(0x40)\n      dup1\n      swap2\n      sub\n      swap1\n      revert\n    tag_358:\n        /* \"@openzeppelin/contracts/access/Ownable.sol\":1359:1489  function _checkOwner() internal view virtual {... */\n      jump\t// out\n        /* \"@openzeppelin/contracts/access/Ownable.sol\":2433:2620  function _transferOwnership(address newOwner) internal virtual {... */\n    tag_180:\n        /* \"@openzeppelin/contracts/access/Ownable.sol\":2506:2522  address oldOwner */\n      0x00\n        /* \"@openzeppelin/contracts/access/Ownable.sol\":2525:2531  _owner */\n      dup1\n      0x00\n      swap1\n      sload\n      swap1\n      0x0100\n      exp\n      swap1\n      div\n      0xffffffffffffffffffffffffffffffffffffffff\n      and\n        /* \"@openzeppelin/contracts/access/Ownable.sol\":2506:2531  address oldOwner = _owner */\n      swap1\n      pop\n        /* \"@openzeppelin/contracts/access/Ownable.sol\":2550:2558  newOwner */\n      dup2\n        /* \"@openzeppelin/contracts/access/Ownable.sol\":2541:2547  _owner */\n      0x00\n      dup1\n        /* \"@openzeppelin/contracts/access/Ownable.sol\":2541:2558  _owner = newOwner */\n      0x0100\n      exp\n      dup2\n      sload\n      dup2\n      0xffffffffffffffffffffffffffffffffffffffff\n      mul\n      not\n      and\n      swap1\n      dup4\n      0xffffffffffffffffffffffffffffffffffffffff\n      and\n      mul\n      or\n      swap1\n      sstore\n      pop\n        /* \"@openzeppelin/contracts/access/Ownable.sol\":2604:2612  newOwner */\n      dup2\n        /* \"@openzeppelin/contracts/access/Ownable.sol\":2573:2613  OwnershipTransferred(oldOwner, newOwner) */\n      0xffffffffffffffffffffffffffffffffffffffff\n      and\n        /* \"@openzeppelin/contracts/access/Ownable.sol\":2594:2602  oldOwner */\n      dup2\n        /* \"@openzeppelin/contracts/access/Ownable.sol\":2573:2613  OwnershipTransferred(oldOwner, newOwner) */\n      0xffffffffffffffffffffffffffffffffffffffff\n      and\n      0x8be0079c531659141344cd1fd0a4f28419497f9722a3daafe3b4186f6b6457e0\n      mload(0x40)\n      mload(0x40)\n      dup1\n      swap2\n      sub\n      swap1\n      log3\n        /* \"@openzeppelin/contracts/access/Ownable.sol\":2496:2620  {... */\n      pop\n        /* \"@openzeppelin/contracts/access/Ownable.sol\":2433:2620  function _transferOwnership(address newOwner) internal virtual {... */\n      pop\n      jump\t// out\n        /* \"@openzeppelin/contracts/utils/Context.sol\":640:736  function _msgSender() internal view virtual returns (address) {... */\n    tag_356:\n        /* \"@openzeppelin/contracts/utils/Context.sol\":693:700  address */\n      0x00\n        /* \"@openzeppelin/contracts/utils/Context.sol\":719:729  msg.sender */\n      caller\n        /* \"@openzeppelin/contracts/utils/Context.sol\":712:729  return msg.sender */\n      swap1\n      pop\n        /* \"@openzeppelin/contracts/utils/Context.sol\":640:736  function _msgSender() internal view virtual returns (address) {... */\n      swap1\n      jump\t// out\n    tag_149:\n      mload(0x40)\n      dup1\n      0xc0\n      add\n      0x40\n      mstore\n      dup1\n      and(0xffffffffffffffffffffffffffffffffffffffff, 0x00)\n      dup2\n      mstore\n      0x20\n      add\n      and(0xffffffffffffffffffffffffffffffffffffffff, 0x00)\n      dup2\n      mstore\n      0x20\n      add\n      0x00\n      dup2\n      mstore\n      0x20\n      add\n      0x60\n      dup2\n      mstore\n      0x20\n      add\n      iszero(iszero(0x00))\n      dup2\n      mstore\n      0x20\n      add\n      0x00\n      dup2\n      mstore\n      pop\n      swap1\n      jump\t// out\n    tag_175:\n      dup3\n      dup1\n      sload\n      tag_363\n      swap1\n      tag_155\n      jump\t// in\n    tag_363:\n      swap1\n      0x00\n      mstore\n      keccak256(0x00, 0x20)\n      swap1\n      0x1f\n      add\n      0x20\n      swap1\n      div\n      dup2\n      add\n      swap3\n      dup3\n      tag_365\n      jumpi\n      0x00\n      dup6\n      sstore\n      jump(tag_364)\n    tag_365:\n      dup3\n      0x1f\n      lt\n      tag_366\n      jumpi\n      dup1\n      mload\n      not(0xff)\n      and\n      dup4\n      dup1\n      add\n      or\n      dup6\n      sstore\n      jump(tag_364)\n    tag_366:\n      dup3\n      dup1\n      add\n      0x01\n      add\n      dup6\n      sstore\n      dup3\n      iszero\n      tag_364\n      jumpi\n      swap2\n      dup3\n      add\n    tag_367:\n      dup3\n      dup2\n      gt\n      iszero\n      tag_368\n      jumpi\n      dup3\n      mload\n      dup3\n      sstore\n      swap2\n      0x20\n      add\n      swap2\n      swap1\n      0x01\n      add\n      swap1\n      jump(tag_367)\n    tag_368:\n    tag_364:\n      pop\n      swap1\n      pop\n      tag_369\n      swap2\n      swap1\n      tag_370\n      jump\t// in\n    tag_369:\n      pop\n      swap1\n      jump\t// out\n    tag_319:\n      mload(0x40)\n      dup1\n      0x80\n      add\n      0x40\n      mstore\n      dup1\n      iszero(iszero(0x00))\n      dup2\n      mstore\n      0x20\n      add\n      0x00\n      dup2\n      mstore\n      0x20\n      add\n      0x00\n      dup2\n      mstore\n      0x20\n      add\n      0x00\n      dup2\n      mstore\n      pop\n      swap1\n      jump\t// out\n    tag_370:\n    tag_371:\n      dup1\n      dup3\n      gt\n      iszero\n      tag_372\n      jumpi\n      0x00\n      dup2\n      0x00\n      swap1\n      sstore\n      pop\n      0x01\n      add\n      jump(tag_371)\n    tag_372:\n      pop\n      swap1\n      jump\t// out\n        /* \"#utility.yul\":7:419   */\n    tag_374:\n        /* \"#utility.yul\":85:90   */\n      0x00\n        /* \"#utility.yul\":110:176   */\n      tag_376\n        /* \"#utility.yul\":126:175   */\n      tag_377\n        /* \"#utility.yul\":168:174   */\n      dup5\n        /* \"#utility.yul\":126:175   */\n      tag_378\n      jump\t// in\n    tag_377:\n        /* \"#utility.yul\":110:176   */\n      tag_379\n      jump\t// in\n    tag_376:\n        /* \"#utility.yul\":101:176   */\n      swap1\n      pop\n        /* \"#utility.yul\":199:205   */\n      dup3\n        /* \"#utility.yul\":192:197   */\n      dup2\n        /* \"#utility.yul\":185:206   */\n      mstore\n        /* \"#utility.yul\":237:241   */\n      0x20\n        /* \"#utility.yul\":230:235   */\n      dup2\n        /* \"#utility.yul\":226:242   */\n      add\n        /* \"#utility.yul\":275:278   */\n      dup5\n        /* \"#utility.yul\":266:272   */\n      dup5\n        /* \"#utility.yul\":261:264   */\n      dup5\n        /* \"#utility.yul\":257:273   */\n      add\n        /* \"#utility.yul\":254:279   */\n      gt\n        /* \"#utility.yul\":251:363   */\n      iszero\n      tag_380\n      jumpi\n        /* \"#utility.yul\":282:361   */\n      tag_381\n      tag_382\n      jump\t// in\n    tag_381:\n        /* \"#utility.yul\":251:363   */\n    tag_380:\n        /* \"#utility.yul\":372:413   */\n      tag_383\n        /* \"#utility.yul\":406:412   */\n      dup5\n        /* \"#utility.yul\":401:404   */\n      dup3\n        /* \"#utility.yul\":396:399   */\n      dup6\n        /* \"#utility.yul\":372:413   */\n      tag_384\n      jump\t// in\n    tag_383:\n        /* \"#utility.yul\":91:419   */\n      pop\n        /* \"#utility.yul\":7:419   */\n      swap4\n      swap3\n      pop\n      pop\n      pop\n      jump\t// out\n        /* \"#utility.yul\":425:564   */\n    tag_385:\n        /* \"#utility.yul\":471:476   */\n      0x00\n        /* \"#utility.yul\":509:515   */\n      dup2\n        /* \"#utility.yul\":496:516   */\n      calldataload\n        /* \"#utility.yul\":487:516   */\n      swap1\n      pop\n        /* \"#utility.yul\":525:558   */\n      tag_387\n        /* \"#utility.yul\":552:557   */\n      dup2\n        /* \"#utility.yul\":525:558   */\n      tag_388\n      jump\t// in\n    tag_387:\n        /* \"#utility.yul\":425:564   */\n      swap3\n      swap2\n      pop\n      pop\n      jump\t// out\n        /* \"#utility.yul\":570:707   */\n    tag_389:\n        /* \"#utility.yul\":624:629   */\n      0x00\n        /* \"#utility.yul\":655:661   */\n      dup2\n        /* \"#utility.yul\":649:662   */\n      mload\n        /* \"#utility.yul\":640:662   */\n      swap1\n      pop\n        /* \"#utility.yul\":671:701   */\n      tag_391\n        /* \"#utility.yul\":695:700   */\n      dup2\n        /* \"#utility.yul\":671:701   */\n      tag_392\n      jump\t// in\n    tag_391:\n        /* \"#utility.yul\":570:707   */\n      swap3\n      swap2\n      pop\n      pop\n      jump\t// out\n        /* \"#utility.yul\":727:1067   */\n    tag_393:\n        /* \"#utility.yul\":783:788   */\n      0x00\n        /* \"#utility.yul\":832:835   */\n      dup3\n        /* \"#utility.yul\":825:829   */\n      0x1f\n        /* \"#utility.yul\":817:823   */\n      dup4\n        /* \"#utility.yul\":813:830   */\n      add\n        /* \"#utility.yul\":809:836   */\n      slt\n        /* \"#utility.yul\":799:921   */\n      tag_395\n      jumpi\n        /* \"#utility.yul\":840:919   */\n      tag_396\n      tag_397\n      jump\t// in\n    tag_396:\n        /* \"#utility.yul\":799:921   */\n    tag_395:\n        /* \"#utility.yul\":957:963   */\n      dup2\n        /* \"#utility.yul\":944:964   */\n      calldataload\n        /* \"#utility.yul\":982:1061   */\n      tag_398\n        /* \"#utility.yul\":1057:1060   */\n      dup5\n        /* \"#utility.yul\":1049:1055   */\n      dup3\n        /* \"#utility.yul\":1042:1046   */\n      0x20\n        /* \"#utility.yul\":1034:1040   */\n      dup7\n        /* \"#utility.yul\":1030:1047   */\n      add\n        /* \"#utility.yul\":982:1061   */\n      tag_374\n      jump\t// in\n    tag_398:\n        /* \"#utility.yul\":973:1061   */\n      swap2\n      pop\n        /* \"#utility.yul\":789:1067   */\n      pop\n        /* \"#utility.yul\":727:1067   */\n      swap3\n      swap2\n      pop\n      pop\n      jump\t// out\n        /* \"#utility.yul\":1073:1212   */\n    tag_399:\n        /* \"#utility.yul\":1119:1124   */\n      0x00\n        /* \"#utility.yul\":1157:1163   */\n      dup2\n        /* \"#utility.yul\":1144:1164   */\n      calldataload\n        /* \"#utility.yul\":1135:1164   */\n      swap1\n      pop\n        /* \"#utility.yul\":1173:1206   */\n      tag_401\n        /* \"#utility.yul\":1200:1205   */\n      dup2\n        /* \"#utility.yul\":1173:1206   */\n      tag_402\n      jump\t// in\n    tag_401:\n        /* \"#utility.yul\":1073:1212   */\n      swap3\n      swap2\n      pop\n      pop\n      jump\t// out\n        /* \"#utility.yul\":1218:1361   */\n    tag_403:\n        /* \"#utility.yul\":1275:1280   */\n      0x00\n        /* \"#utility.yul\":1306:1312   */\n      dup2\n        /* \"#utility.yul\":1300:1313   */\n      mload\n        /* \"#utility.yul\":1291:1313   */\n      swap1\n      pop\n        /* \"#utility.yul\":1322:1355   */\n      tag_405\n        /* \"#utility.yul\":1349:1354   */\n      dup2\n        /* \"#utility.yul\":1322:1355   */\n      tag_402\n      jump\t// in\n    tag_405:\n        /* \"#utility.yul\":1218:1361   */\n      swap3\n      swap2\n      pop\n      pop\n      jump\t// out\n        /* \"#utility.yul\":1367:1696   */\n    tag_40:\n        /* \"#utility.yul\":1426:1432   */\n      0x00\n        /* \"#utility.yul\":1475:1477   */\n      0x20\n        /* \"#utility.yul\":1463:1472   */\n      dup3\n        /* \"#utility.yul\":1454:1461   */\n      dup5\n        /* \"#utility.yul\":1450:1473   */\n      sub\n        /* \"#utility.yul\":1446:1478   */\n      slt\n        /* \"#utility.yul\":1443:1562   */\n      iszero\n      tag_407\n      jumpi\n        /* \"#utility.yul\":1481:1560   */\n      tag_408\n      tag_409\n      jump\t// in\n    tag_408:\n        /* \"#utility.yul\":1443:1562   */\n    tag_407:\n        /* \"#utility.yul\":1601:1602   */\n      0x00\n        /* \"#utility.yul\":1626:1679   */\n      tag_410\n        /* \"#utility.yul\":1671:1678   */\n      dup5\n        /* \"#utility.yul\":1662:1668   */\n      dup3\n        /* \"#utility.yul\":1651:1660   */\n      dup6\n        /* \"#utility.yul\":1647:1669   */\n      add\n        /* \"#utility.yul\":1626:1679   */\n      tag_385\n      jump\t// in\n    tag_410:\n        /* \"#utility.yul\":1616:1679   */\n      swap2\n      pop\n        /* \"#utility.yul\":1572:1689   */\n      pop\n        /* \"#utility.yul\":1367:1696   */\n      swap3\n      swap2\n      pop\n      pop\n      jump\t// out\n        /* \"#utility.yul\":1702:2647   */\n    tag_67:\n        /* \"#utility.yul\":1798:1804   */\n      0x00\n        /* \"#utility.yul\":1806:1812   */\n      dup1\n        /* \"#utility.yul\":1814:1820   */\n      0x00\n        /* \"#utility.yul\":1822:1828   */\n      dup1\n        /* \"#utility.yul\":1871:1874   */\n      0x80\n        /* \"#utility.yul\":1859:1868   */\n      dup6\n        /* \"#utility.yul\":1850:1857   */\n      dup8\n        /* \"#utility.yul\":1846:1869   */\n      sub\n        /* \"#utility.yul\":1842:1875   */\n      slt\n        /* \"#utility.yul\":1839:1959   */\n      iszero\n      tag_412\n      jumpi\n        /* \"#utility.yul\":1878:1957   */\n      tag_413\n      tag_409\n      jump\t// in\n    tag_413:\n        /* \"#utility.yul\":1839:1959   */\n    tag_412:\n        /* \"#utility.yul\":1998:1999   */\n      0x00\n        /* \"#utility.yul\":2023:2076   */\n      tag_414\n        /* \"#utility.yul\":2068:2075   */\n      dup8\n        /* \"#utility.yul\":2059:2065   */\n      dup3\n        /* \"#utility.yul\":2048:2057   */\n      dup9\n        /* \"#utility.yul\":2044:2066   */\n      add\n        /* \"#utility.yul\":2023:2076   */\n      tag_385\n      jump\t// in\n    tag_414:\n        /* \"#utility.yul\":2013:2076   */\n      swap5\n      pop\n        /* \"#utility.yul\":1969:2086   */\n      pop\n        /* \"#utility.yul\":2125:2127   */\n      0x20\n        /* \"#utility.yul\":2151:2204   */\n      tag_415\n        /* \"#utility.yul\":2196:2203   */\n      dup8\n        /* \"#utility.yul\":2187:2193   */\n      dup3\n        /* \"#utility.yul\":2176:2185   */\n      dup9\n        /* \"#utility.yul\":2172:2194   */\n      add\n        /* \"#utility.yul\":2151:2204   */\n      tag_385\n      jump\t// in\n    tag_415:\n        /* \"#utility.yul\":2141:2204   */\n      swap4\n      pop\n        /* \"#utility.yul\":2096:2214   */\n      pop\n        /* \"#utility.yul\":2281:2283   */\n      0x40\n        /* \"#utility.yul\":2270:2279   */\n      dup6\n        /* \"#utility.yul\":2266:2284   */\n      add\n        /* \"#utility.yul\":2253:2285   */\n      calldataload\n        /* \"#utility.yul\":2312:2330   */\n      0xffffffffffffffff\n        /* \"#utility.yul\":2304:2310   */\n      dup2\n        /* \"#utility.yul\":2301:2331   */\n      gt\n        /* \"#utility.yul\":2298:2415   */\n      iszero\n      tag_416\n      jumpi\n        /* \"#utility.yul\":2334:2413   */\n      tag_417\n      tag_418\n      jump\t// in\n    tag_417:\n        /* \"#utility.yul\":2298:2415   */\n    tag_416:\n        /* \"#utility.yul\":2439:2502   */\n      tag_419\n        /* \"#utility.yul\":2494:2501   */\n      dup8\n        /* \"#utility.yul\":2485:2491   */\n      dup3\n        /* \"#utility.yul\":2474:2483   */\n      dup9\n        /* \"#utility.yul\":2470:2492   */\n      add\n        /* \"#utility.yul\":2439:2502   */\n      tag_393\n      jump\t// in\n    tag_419:\n        /* \"#utility.yul\":2429:2502   */\n      swap3\n      pop\n        /* \"#utility.yul\":2224:2512   */\n      pop\n        /* \"#utility.yul\":2551:2553   */\n      0x60\n        /* \"#utility.yul\":2577:2630   */\n      tag_420\n        /* \"#utility.yul\":2622:2629   */\n      dup8\n        /* \"#utility.yul\":2613:2619   */\n      dup3\n        /* \"#utility.yul\":2602:2611   */\n      dup9\n        /* \"#utility.yul\":2598:2620   */\n      add\n        /* \"#utility.yul\":2577:2630   */\n      tag_399\n      jump\t// in\n    tag_420:\n        /* \"#utility.yul\":2567:2630   */\n      swap2\n      pop\n        /* \"#utility.yul\":2522:2640   */\n      pop\n        /* \"#utility.yul\":1702:2647   */\n      swap3\n      swap6\n      swap2\n      swap5\n      pop\n      swap3\n      pop\n      jump\t// out\n        /* \"#utility.yul\":2653:2998   */\n    tag_197:\n        /* \"#utility.yul\":2720:2726   */\n      0x00\n        /* \"#utility.yul\":2769:2771   */\n      0x20\n        /* \"#utility.yul\":2757:2766   */\n      dup3\n        /* \"#utility.yul\":2748:2755   */\n      dup5\n        /* \"#utility.yul\":2744:2767   */\n      sub\n        /* \"#utility.yul\":2740:2772   */\n      slt\n        /* \"#utility.yul\":2737:2856   */\n      iszero\n      tag_422\n      jumpi\n        /* \"#utility.yul\":2775:2854   */\n      tag_423\n      tag_409\n      jump\t// in\n    tag_423:\n        /* \"#utility.yul\":2737:2856   */\n    tag_422:\n        /* \"#utility.yul\":2895:2896   */\n      0x00\n        /* \"#utility.yul\":2920:2981   */\n      tag_424\n        /* \"#utility.yul\":2973:2980   */\n      dup5\n        /* \"#utility.yul\":2964:2970   */\n      dup3\n        /* \"#utility.yul\":2953:2962   */\n      dup6\n        /* \"#utility.yul\":2949:2971   */\n      add\n        /* \"#utility.yul\":2920:2981   */\n      tag_389\n      jump\t// in\n    tag_424:\n        /* \"#utility.yul\":2910:2981   */\n      swap2\n      pop\n        /* \"#utility.yul\":2866:2991   */\n      pop\n        /* \"#utility.yul\":2653:2998   */\n      swap3\n      swap2\n      pop\n      pop\n      jump\t// out\n        /* \"#utility.yul\":3004:3333   */\n    tag_29:\n        /* \"#utility.yul\":3063:3069   */\n      0x00\n        /* \"#utility.yul\":3112:3114   */\n      0x20\n        /* \"#utility.yul\":3100:3109   */\n      dup3\n        /* \"#utility.yul\":3091:3098   */\n      dup5\n        /* \"#utility.yul\":3087:3110   */\n      sub\n        /* \"#utility.yul\":3083:3115   */\n      slt\n        /* \"#utility.yul\":3080:3199   */\n      iszero\n      tag_426\n      jumpi\n        /* \"#utility.yul\":3118:3197   */\n      tag_427\n      tag_409\n      jump\t// in\n    tag_427:\n        /* \"#utility.yul\":3080:3199   */\n    tag_426:\n        /* \"#utility.yul\":3238:3239   */\n      0x00\n        /* \"#utility.yul\":3263:3316   */\n      tag_428\n        /* \"#utility.yul\":3308:3315   */\n      dup5\n        /* \"#utility.yul\":3299:3305   */\n      dup3\n        /* \"#utility.yul\":3288:3297   */\n      dup6\n        /* \"#utility.yul\":3284:3306   */\n      add\n        /* \"#utility.yul\":3263:3316   */\n      tag_399\n      jump\t// in\n    tag_428:\n        /* \"#utility.yul\":3253:3316   */\n      swap2\n      pop\n        /* \"#utility.yul\":3209:3326   */\n      pop\n        /* \"#utility.yul\":3004:3333   */\n      swap3\n      swap2\n      pop\n      pop\n      jump\t// out\n        /* \"#utility.yul\":3339:3690   */\n    tag_244:\n        /* \"#utility.yul\":3409:3415   */\n      0x00\n        /* \"#utility.yul\":3458:3460   */\n      0x20\n        /* \"#utility.yul\":3446:3455   */\n      dup3\n        /* \"#utility.yul\":3437:3444   */\n      dup5\n        /* \"#utility.yul\":3433:3456   */\n      sub\n        /* \"#utility.yul\":3429:3461   */\n      slt\n        /* \"#utility.yul\":3426:3545   */\n      iszero\n      tag_430\n      jumpi\n        /* \"#utility.yul\":3464:3543   */\n      tag_431\n      tag_409\n      jump\t// in\n    tag_431:\n        /* \"#utility.yul\":3426:3545   */\n    tag_430:\n        /* \"#utility.yul\":3584:3585   */\n      0x00\n        /* \"#utility.yul\":3609:3673   */\n      tag_432\n        /* \"#utility.yul\":3665:3672   */\n      dup5\n        /* \"#utility.yul\":3656:3662   */\n      dup3\n        /* \"#utility.yul\":3645:3654   */\n      dup6\n        /* \"#utility.yul\":3641:3663   */\n      add\n        /* \"#utility.yul\":3609:3673   */\n      tag_403\n      jump\t// in\n    tag_432:\n        /* \"#utility.yul\":3599:3673   */\n      swap2\n      pop\n        /* \"#utility.yul\":3555:3683   */\n      pop\n        /* \"#utility.yul\":3339:3690   */\n      swap3\n      swap2\n      pop\n      pop\n      jump\t// out\n        /* \"#utility.yul\":3696:3875   */\n    tag_433:\n        /* \"#utility.yul\":3765:3775   */\n      0x00\n        /* \"#utility.yul\":3786:3832   */\n      tag_435\n        /* \"#utility.yul\":3828:3831   */\n      dup4\n        /* \"#utility.yul\":3820:3826   */\n      dup4\n        /* \"#utility.yul\":3786:3832   */\n      tag_436\n      jump\t// in\n    tag_435:\n        /* \"#utility.yul\":3864:3868   */\n      0x20\n        /* \"#utility.yul\":3859:3862   */\n      dup4\n        /* \"#utility.yul\":3855:3869   */\n      add\n        /* \"#utility.yul\":3841:3869   */\n      swap1\n      pop\n        /* \"#utility.yul\":3696:3875   */\n      swap3\n      swap2\n      pop\n      pop\n      jump\t// out\n        /* \"#utility.yul\":3881:3989   */\n    tag_437:\n        /* \"#utility.yul\":3958:3982   */\n      tag_439\n        /* \"#utility.yul\":3976:3981   */\n      dup2\n        /* \"#utility.yul\":3958:3982   */\n      tag_440\n      jump\t// in\n    tag_439:\n        /* \"#utility.yul\":3953:3956   */\n      dup3\n        /* \"#utility.yul\":3946:3983   */\n      mstore\n        /* \"#utility.yul\":3881:3989   */\n      pop\n      pop\n      jump\t// out\n        /* \"#utility.yul\":3995:4113   */\n    tag_441:\n        /* \"#utility.yul\":4082:4106   */\n      tag_443\n        /* \"#utility.yul\":4100:4105   */\n      dup2\n        /* \"#utility.yul\":4082:4106   */\n      tag_440\n      jump\t// in\n    tag_443:\n        /* \"#utility.yul\":4077:4080   */\n      dup3\n        /* \"#utility.yul\":4070:4107   */\n      mstore\n        /* \"#utility.yul\":3995:4113   */\n      pop\n      pop\n      jump\t// out\n        /* \"#utility.yul\":4149:4881   */\n    tag_444:\n        /* \"#utility.yul\":4268:4271   */\n      0x00\n        /* \"#utility.yul\":4297:4351   */\n      tag_446\n        /* \"#utility.yul\":4345:4350   */\n      dup3\n        /* \"#utility.yul\":4297:4351   */\n      tag_447\n      jump\t// in\n    tag_446:\n        /* \"#utility.yul\":4367:4453   */\n      tag_448\n        /* \"#utility.yul\":4446:4452   */\n      dup2\n        /* \"#utility.yul\":4441:4444   */\n      dup6\n        /* \"#utility.yul\":4367:4453   */\n      tag_449\n      jump\t// in\n    tag_448:\n        /* \"#utility.yul\":4360:4453   */\n      swap4\n      pop\n        /* \"#utility.yul\":4477:4533   */\n      tag_450\n        /* \"#utility.yul\":4527:4532   */\n      dup4\n        /* \"#utility.yul\":4477:4533   */\n      tag_451\n      jump\t// in\n    tag_450:\n        /* \"#utility.yul\":4556:4563   */\n      dup1\n        /* \"#utility.yul\":4587:4588   */\n      0x00\n        /* \"#utility.yul\":4572:4856   */\n    tag_452:\n        /* \"#utility.yul\":4597:4603   */\n      dup4\n        /* \"#utility.yul\":4594:4595   */\n      dup2\n        /* \"#utility.yul\":4591:4604   */\n      lt\n        /* \"#utility.yul\":4572:4856   */\n      iszero\n      tag_454\n      jumpi\n        /* \"#utility.yul\":4673:4679   */\n      dup2\n        /* \"#utility.yul\":4667:4680   */\n      mload\n        /* \"#utility.yul\":4700:4763   */\n      tag_455\n        /* \"#utility.yul\":4759:4762   */\n      dup9\n        /* \"#utility.yul\":4744:4757   */\n      dup3\n        /* \"#utility.yul\":4700:4763   */\n      tag_433\n      jump\t// in\n    tag_455:\n        /* \"#utility.yul\":4693:4763   */\n      swap8\n      pop\n        /* \"#utility.yul\":4786:4846   */\n      tag_456\n        /* \"#utility.yul\":4839:4845   */\n      dup4\n        /* \"#utility.yul\":4786:4846   */\n      tag_457\n      jump\t// in\n    tag_456:\n        /* \"#utility.yul\":4776:4846   */\n      swap3\n      pop\n        /* \"#utility.yul\":4632:4856   */\n      pop\n        /* \"#utility.yul\":4619:4620   */\n      0x01\n        /* \"#utility.yul\":4616:4617   */\n      dup2\n        /* \"#utility.yul\":4612:4621   */\n      add\n        /* \"#utility.yul\":4607:4621   */\n      swap1\n      pop\n        /* \"#utility.yul\":4572:4856   */\n      jump(tag_452)\n    tag_454:\n        /* \"#utility.yul\":4576:4590   */\n      pop\n        /* \"#utility.yul\":4872:4875   */\n      dup6\n        /* \"#utility.yul\":4865:4875   */\n      swap4\n      pop\n        /* \"#utility.yul\":4273:4881   */\n      pop\n      pop\n      pop\n        /* \"#utility.yul\":4149:4881   */\n      swap3\n      swap2\n      pop\n      pop\n      jump\t// out\n        /* \"#utility.yul\":4887:4986   */\n    tag_458:\n        /* \"#utility.yul\":4958:4979   */\n      tag_460\n        /* \"#utility.yul\":4973:4978   */\n      dup2\n        /* \"#utility.yul\":4958:4979   */\n      tag_461\n      jump\t// in\n    tag_460:\n        /* \"#utility.yul\":4953:4956   */\n      dup3\n        /* \"#utility.yul\":4946:4980   */\n      mstore\n        /* \"#utility.yul\":4887:4986   */\n      pop\n      pop\n      jump\t// out\n        /* \"#utility.yul\":4992:5101   */\n    tag_462:\n        /* \"#utility.yul\":5073:5094   */\n      tag_464\n        /* \"#utility.yul\":5088:5093   */\n      dup2\n        /* \"#utility.yul\":5073:5094   */\n      tag_461\n      jump\t// in\n    tag_464:\n        /* \"#utility.yul\":5068:5071   */\n      dup3\n        /* \"#utility.yul\":5061:5095   */\n      mstore\n        /* \"#utility.yul\":4992:5101   */\n      pop\n      pop\n      jump\t// out\n        /* \"#utility.yul\":5107:5254   */\n    tag_465:\n        /* \"#utility.yul\":5202:5247   */\n      tag_467\n        /* \"#utility.yul\":5241:5246   */\n      dup2\n        /* \"#utility.yul\":5202:5247   */\n      tag_468\n      jump\t// in\n    tag_467:\n        /* \"#utility.yul\":5197:5200   */\n      dup3\n        /* \"#utility.yul\":5190:5248   */\n      mstore\n        /* \"#utility.yul\":5107:5254   */\n      pop\n      pop\n      jump\t// out\n        /* \"#utility.yul\":5260:5604   */\n    tag_469:\n        /* \"#utility.yul\":5338:5341   */\n      0x00\n        /* \"#utility.yul\":5366:5405   */\n      tag_471\n        /* \"#utility.yul\":5399:5404   */\n      dup3\n        /* \"#utility.yul\":5366:5405   */\n      tag_472\n      jump\t// in\n    tag_471:\n        /* \"#utility.yul\":5421:5482   */\n      tag_473\n        /* \"#utility.yul\":5475:5481   */\n      dup2\n        /* \"#utility.yul\":5470:5473   */\n      dup6\n        /* \"#utility.yul\":5421:5482   */\n      tag_474\n      jump\t// in\n    tag_473:\n        /* \"#utility.yul\":5414:5482   */\n      swap4\n      pop\n        /* \"#utility.yul\":5491:5543   */\n      tag_475\n        /* \"#utility.yul\":5536:5542   */\n      dup2\n        /* \"#utility.yul\":5531:5534   */\n      dup6\n        /* \"#utility.yul\":5524:5528   */\n      0x20\n        /* \"#utility.yul\":5517:5522   */\n      dup7\n        /* \"#utility.yul\":5513:5529   */\n      add\n        /* \"#utility.yul\":5491:5543   */\n      tag_476\n      jump\t// in\n    tag_475:\n        /* \"#utility.yul\":5568:5597   */\n      tag_477\n        /* \"#utility.yul\":5590:5596   */\n      dup2\n        /* \"#utility.yul\":5568:5597   */\n      tag_478\n      jump\t// in\n    tag_477:\n        /* \"#utility.yul\":5563:5566   */\n      dup5\n        /* \"#utility.yul\":5559:5598   */\n      add\n        /* \"#utility.yul\":5552:5598   */\n      swap2\n      pop\n        /* \"#utility.yul\":5342:5604   */\n      pop\n        /* \"#utility.yul\":5260:5604   */\n      swap3\n      swap2\n      pop\n      pop\n      jump\t// out\n        /* \"#utility.yul\":5610:5976   */\n    tag_479:\n        /* \"#utility.yul\":5752:5755   */\n      0x00\n        /* \"#utility.yul\":5773:5840   */\n      tag_481\n        /* \"#utility.yul\":5837:5839   */\n      0x12\n        /* \"#utility.yul\":5832:5835   */\n      dup4\n        /* \"#utility.yul\":5773:5840   */\n      tag_482\n      jump\t// in\n    tag_481:\n        /* \"#utility.yul\":5766:5840   */\n      swap2\n      pop\n        /* \"#utility.yul\":5849:5942   */\n      tag_483\n        /* \"#utility.yul\":5938:5941   */\n      dup3\n        /* \"#utility.yul\":5849:5942   */\n      tag_484\n      jump\t// in\n    tag_483:\n        /* \"#utility.yul\":5967:5969   */\n      0x20\n        /* \"#utility.yul\":5962:5965   */\n      dup3\n        /* \"#utility.yul\":5958:5970   */\n      add\n        /* \"#utility.yul\":5951:5970   */\n      swap1\n      pop\n        /* \"#utility.yul\":5610:5976   */\n      swap2\n      swap1\n      pop\n      jump\t// out\n        /* \"#utility.yul\":5982:6348   */\n    tag_485:\n        /* \"#utility.yul\":6124:6127   */\n      0x00\n        /* \"#utility.yul\":6145:6212   */\n      tag_487\n        /* \"#utility.yul\":6209:6211   */\n      0x13\n        /* \"#utility.yul\":6204:6207   */\n      dup4\n        /* \"#utility.yul\":6145:6212   */\n      tag_482\n      jump\t// in\n    tag_487:\n        /* \"#utility.yul\":6138:6212   */\n      swap2\n      pop\n        /* \"#utility.yul\":6221:6314   */\n      tag_488\n        /* \"#utility.yul\":6310:6313   */\n      dup3\n        /* \"#utility.yul\":6221:6314   */\n      tag_489\n      jump\t// in\n    tag_488:\n        /* \"#utility.yul\":6339:6341   */\n      0x20\n        /* \"#utility.yul\":6334:6337   */\n      dup3\n        /* \"#utility.yul\":6330:6342   */\n      add\n        /* \"#utility.yul\":6323:6342   */\n      swap1\n      pop\n        /* \"#utility.yul\":5982:6348   */\n      swap2\n      swap1\n      pop\n      jump\t// out\n        /* \"#utility.yul\":6354:6720   */\n    tag_490:\n        /* \"#utility.yul\":6496:6499   */\n      0x00\n        /* \"#utility.yul\":6517:6584   */\n      tag_492\n        /* \"#utility.yul\":6581:6583   */\n      0x13\n        /* \"#utility.yul\":6576:6579   */\n      dup4\n        /* \"#utility.yul\":6517:6584   */\n      tag_482\n      jump\t// in\n    tag_492:\n        /* \"#utility.yul\":6510:6584   */\n      swap2\n      pop\n        /* \"#utility.yul\":6593:6686   */\n      tag_493\n        /* \"#utility.yul\":6682:6685   */\n      dup3\n        /* \"#utility.yul\":6593:6686   */\n      tag_494\n      jump\t// in\n    tag_493:\n        /* \"#utility.yul\":6711:6713   */\n      0x20\n        /* \"#utility.yul\":6706:6709   */\n      dup3\n        /* \"#utility.yul\":6702:6714   */\n      add\n        /* \"#utility.yul\":6695:6714   */\n      swap1\n      pop\n        /* \"#utility.yul\":6354:6720   */\n      swap2\n      swap1\n      pop\n      jump\t// out\n        /* \"#utility.yul\":6726:7092   */\n    tag_495:\n        /* \"#utility.yul\":6868:6871   */\n      0x00\n        /* \"#utility.yul\":6889:6956   */\n      tag_497\n        /* \"#utility.yul\":6953:6955   */\n      0x26\n        /* \"#utility.yul\":6948:6951   */\n      dup4\n        /* \"#utility.yul\":6889:6956   */\n      tag_482\n      jump\t// in\n    tag_497:\n        /* \"#utility.yul\":6882:6956   */\n      swap2\n      pop\n        /* \"#utility.yul\":6965:7058   */\n      tag_498\n        /* \"#utility.yul\":7054:7057   */\n      dup3\n        /* \"#utility.yul\":6965:7058   */\n      tag_499\n      jump\t// in\n    tag_498:\n        /* \"#utility.yul\":7083:7085   */\n      0x40\n        /* \"#utility.yul\":7078:7081   */\n      dup3\n        /* \"#utility.yul\":7074:7086   */\n      add\n        /* \"#utility.yul\":7067:7086   */\n      swap1\n      pop\n        /* \"#utility.yul\":6726:7092   */\n      swap2\n      swap1\n      pop\n      jump\t// out\n        /* \"#utility.yul\":7098:7464   */\n    tag_500:\n        /* \"#utility.yul\":7240:7243   */\n      0x00\n        /* \"#utility.yul\":7261:7328   */\n      tag_502\n        /* \"#utility.yul\":7325:7327   */\n      0x13\n        /* \"#utility.yul\":7320:7323   */\n      dup4\n        /* \"#utility.yul\":7261:7328   */\n      tag_482\n      jump\t// in\n    tag_502:\n        /* \"#utility.yul\":7254:7328   */\n      swap2\n      pop\n        /* \"#utility.yul\":7337:7430   */\n      tag_503\n        /* \"#utility.yul\":7426:7429   */\n      dup3\n        /* \"#utility.yul\":7337:7430   */\n      tag_504\n      jump\t// in\n    tag_503:\n        /* \"#utility.yul\":7455:7457   */\n      0x20\n        /* \"#utility.yul\":7450:7453   */\n      dup3\n        /* \"#utility.yul\":7446:7458   */\n      add\n        /* \"#utility.yul\":7439:7458   */\n      swap1\n      pop\n        /* \"#utility.yul\":7098:7464   */\n      swap2\n      swap1\n      pop\n      jump\t// out\n        /* \"#utility.yul\":7470:7836   */\n    tag_505:\n        /* \"#utility.yul\":7612:7615   */\n      0x00\n        /* \"#utility.yul\":7633:7700   */\n      tag_507\n        /* \"#utility.yul\":7697:7699   */\n      0x1c\n        /* \"#utility.yul\":7692:7695   */\n      dup4\n        /* \"#utility.yul\":7633:7700   */\n      tag_482\n      jump\t// in\n    tag_507:\n        /* \"#utility.yul\":7626:7700   */\n      swap2\n      pop\n        /* \"#utility.yul\":7709:7802   */\n      tag_508\n        /* \"#utility.yul\":7798:7801   */\n      dup3\n        /* \"#utility.yul\":7709:7802   */\n      tag_509\n      jump\t// in\n    tag_508:\n        /* \"#utility.yul\":7827:7829   */\n      0x20\n        /* \"#utility.yul\":7822:7825   */\n      dup3\n        /* \"#utility.yul\":7818:7830   */\n      add\n        /* \"#utility.yul\":7811:7830   */\n      swap1\n      pop\n        /* \"#utility.yul\":7470:7836   */\n      swap2\n      swap1\n      pop\n      jump\t// out\n        /* \"#utility.yul\":7842:8208   */\n    tag_510:\n        /* \"#utility.yul\":7984:7987   */\n      0x00\n        /* \"#utility.yul\":8005:8072   */\n      tag_512\n        /* \"#utility.yul\":8069:8071   */\n      0x16\n        /* \"#utility.yul\":8064:8067   */\n      dup4\n        /* \"#utility.yul\":8005:8072   */\n      tag_482\n      jump\t// in\n    tag_512:\n        /* \"#utility.yul\":7998:8072   */\n      swap2\n      pop\n        /* \"#utility.yul\":8081:8174   */\n      tag_513\n        /* \"#utility.yul\":8170:8173   */\n      dup3\n        /* \"#utility.yul\":8081:8174   */\n      tag_514\n      jump\t// in\n    tag_513:\n        /* \"#utility.yul\":8199:8201   */\n      0x20\n        /* \"#utility.yul\":8194:8197   */\n      dup3\n        /* \"#utility.yul\":8190:8202   */\n      add\n        /* \"#utility.yul\":8183:8202   */\n      swap1\n      pop\n        /* \"#utility.yul\":7842:8208   */\n      swap2\n      swap1\n      pop\n      jump\t// out\n        /* \"#utility.yul\":8214:8580   */\n    tag_515:\n        /* \"#utility.yul\":8356:8359   */\n      0x00\n        /* \"#utility.yul\":8377:8444   */\n      tag_517\n        /* \"#utility.yul\":8441:8443   */\n      0x15\n        /* \"#utility.yul\":8436:8439   */\n      dup4\n        /* \"#utility.yul\":8377:8444   */\n      tag_482\n      jump\t// in\n    tag_517:\n        /* \"#utility.yul\":8370:8444   */\n      swap2\n      pop\n        /* \"#utility.yul\":8453:8546   */\n      tag_518\n        /* \"#utility.yul\":8542:8545   */\n      dup3\n        /* \"#utility.yul\":8453:8546   */\n      tag_519\n      jump\t// in\n    tag_518:\n        /* \"#utility.yul\":8571:8573   */\n      0x20\n        /* \"#utility.yul\":8566:8569   */\n      dup3\n        /* \"#utility.yul\":8562:8574   */\n      add\n        /* \"#utility.yul\":8555:8574   */\n      swap1\n      pop\n        /* \"#utility.yul\":8214:8580   */\n      swap2\n      swap1\n      pop\n      jump\t// out\n        /* \"#utility.yul\":8586:8952   */\n    tag_520:\n        /* \"#utility.yul\":8728:8731   */\n      0x00\n        /* \"#utility.yul\":8749:8816   */\n      tag_522\n        /* \"#utility.yul\":8813:8815   */\n      0x20\n        /* \"#utility.yul\":8808:8811   */\n      dup4\n        /* \"#utility.yul\":8749:8816   */\n      tag_482\n      jump\t// in\n    tag_522:\n        /* \"#utility.yul\":8742:8816   */\n      swap2\n      pop\n        /* \"#utility.yul\":8825:8918   */\n      tag_523\n        /* \"#utility.yul\":8914:8917   */\n      dup3\n        /* \"#utility.yul\":8825:8918   */\n      tag_524\n      jump\t// in\n    tag_523:\n        /* \"#utility.yul\":8943:8945   */\n      0x20\n        /* \"#utility.yul\":8938:8941   */\n      dup3\n        /* \"#utility.yul\":8934:8946   */\n      add\n        /* \"#utility.yul\":8927:8946   */\n      swap1\n      pop\n        /* \"#utility.yul\":8586:8952   */\n      swap2\n      swap1\n      pop\n      jump\t// out\n        /* \"#utility.yul\":8958:9324   */\n    tag_525:\n        /* \"#utility.yul\":9100:9103   */\n      0x00\n        /* \"#utility.yul\":9121:9188   */\n      tag_527\n        /* \"#utility.yul\":9185:9187   */\n      0x0c\n        /* \"#utility.yul\":9180:9183   */\n      dup4\n        /* \"#utility.yul\":9121:9188   */\n      tag_482\n      jump\t// in\n    tag_527:\n        /* \"#utility.yul\":9114:9188   */\n      swap2\n      pop\n        /* \"#utility.yul\":9197:9290   */\n      tag_528\n        /* \"#utility.yul\":9286:9289   */\n      dup3\n        /* \"#utility.yul\":9197:9290   */\n      tag_529\n      jump\t// in\n    tag_528:\n        /* \"#utility.yul\":9315:9317   */\n      0x20\n        /* \"#utility.yul\":9310:9313   */\n      dup3\n        /* \"#utility.yul\":9306:9318   */\n      add\n        /* \"#utility.yul\":9299:9318   */\n      swap1\n      pop\n        /* \"#utility.yul\":8958:9324   */\n      swap2\n      swap1\n      pop\n      jump\t// out\n        /* \"#utility.yul\":9330:9696   */\n    tag_530:\n        /* \"#utility.yul\":9472:9475   */\n      0x00\n        /* \"#utility.yul\":9493:9560   */\n      tag_532\n        /* \"#utility.yul\":9557:9559   */\n      0x23\n        /* \"#utility.yul\":9552:9555   */\n      dup4\n        /* \"#utility.yul\":9493:9560   */\n      tag_482\n      jump\t// in\n    tag_532:\n        /* \"#utility.yul\":9486:9560   */\n      swap2\n      pop\n        /* \"#utility.yul\":9569:9662   */\n      tag_533\n        /* \"#utility.yul\":9658:9661   */\n      dup3\n        /* \"#utility.yul\":9569:9662   */\n      tag_534\n      jump\t// in\n    tag_533:\n        /* \"#utility.yul\":9687:9689   */\n      0x40\n        /* \"#utility.yul\":9682:9685   */\n      dup3\n        /* \"#utility.yul\":9678:9690   */\n      add\n        /* \"#utility.yul\":9671:9690   */\n      swap1\n      pop\n        /* \"#utility.yul\":9330:9696   */\n      swap2\n      swap1\n      pop\n      jump\t// out\n        /* \"#utility.yul\":9702:10068   */\n    tag_535:\n        /* \"#utility.yul\":9844:9847   */\n      0x00\n        /* \"#utility.yul\":9865:9932   */\n      tag_537\n        /* \"#utility.yul\":9929:9931   */\n      0x12\n        /* \"#utility.yul\":9924:9927   */\n      dup4\n        /* \"#utility.yul\":9865:9932   */\n      tag_482\n      jump\t// in\n    tag_537:\n        /* \"#utility.yul\":9858:9932   */\n      swap2\n      pop\n        /* \"#utility.yul\":9941:10034   */\n      tag_538\n        /* \"#utility.yul\":10030:10033   */\n      dup3\n        /* \"#utility.yul\":9941:10034   */\n      tag_539\n      jump\t// in\n    tag_538:\n        /* \"#utility.yul\":10059:10061   */\n      0x20\n        /* \"#utility.yul\":10054:10057   */\n      dup3\n        /* \"#utility.yul\":10050:10062   */\n      add\n        /* \"#utility.yul\":10043:10062   */\n      swap1\n      pop\n        /* \"#utility.yul\":9702:10068   */\n      swap2\n      swap1\n      pop\n      jump\t// out\n        /* \"#utility.yul\":10074:10440   */\n    tag_540:\n        /* \"#utility.yul\":10216:10219   */\n      0x00\n        /* \"#utility.yul\":10237:10304   */\n      tag_542\n        /* \"#utility.yul\":10301:10303   */\n      0x1d\n        /* \"#utility.yul\":10296:10299   */\n      dup4\n        /* \"#utility.yul\":10237:10304   */\n      tag_482\n      jump\t// in\n    tag_542:\n        /* \"#utility.yul\":10230:10304   */\n      swap2\n      pop\n        /* \"#utility.yul\":10313:10406   */\n      tag_543\n        /* \"#utility.yul\":10402:10405   */\n      dup3\n        /* \"#utility.yul\":10313:10406   */\n      tag_544\n      jump\t// in\n    tag_543:\n        /* \"#utility.yul\":10431:10433   */\n      0x20\n        /* \"#utility.yul\":10426:10429   */\n      dup3\n        /* \"#utility.yul\":10422:10434   */\n      add\n        /* \"#utility.yul\":10415:10434   */\n      swap1\n      pop\n        /* \"#utility.yul\":10074:10440   */\n      swap2\n      swap1\n      pop\n      jump\t// out\n        /* \"#utility.yul\":10446:10812   */\n    tag_545:\n        /* \"#utility.yul\":10588:10591   */\n      0x00\n        /* \"#utility.yul\":10609:10676   */\n      tag_547\n        /* \"#utility.yul\":10673:10675   */\n      0x13\n        /* \"#utility.yul\":10668:10671   */\n      dup4\n        /* \"#utility.yul\":10609:10676   */\n      tag_482\n      jump\t// in\n    tag_547:\n        /* \"#utility.yul\":10602:10676   */\n      swap2\n      pop\n        /* \"#utility.yul\":10685:10778   */\n      tag_548\n        /* \"#utility.yul\":10774:10777   */\n      dup3\n        /* \"#utility.yul\":10685:10778   */\n      tag_549\n      jump\t// in\n    tag_548:\n        /* \"#utility.yul\":10803:10805   */\n      0x20\n        /* \"#utility.yul\":10798:10801   */\n      dup3\n        /* \"#utility.yul\":10794:10806   */\n      add\n        /* \"#utility.yul\":10787:10806   */\n      swap1\n      pop\n        /* \"#utility.yul\":10446:10812   */\n      swap2\n      swap1\n      pop\n      jump\t// out\n        /* \"#utility.yul\":10892:12229   */\n    tag_550:\n        /* \"#utility.yul\":11017:11020   */\n      0x00\n        /* \"#utility.yul\":11053:11057   */\n      0xc0\n        /* \"#utility.yul\":11048:11051   */\n      dup4\n        /* \"#utility.yul\":11044:11058   */\n      add\n        /* \"#utility.yul\":11148:11152   */\n      0x00\n        /* \"#utility.yul\":11141:11146   */\n      dup4\n        /* \"#utility.yul\":11137:11153   */\n      add\n        /* \"#utility.yul\":11131:11154   */\n      mload\n        /* \"#utility.yul\":11167:11230   */\n      tag_552\n        /* \"#utility.yul\":11224:11228   */\n      0x00\n        /* \"#utility.yul\":11219:11222   */\n      dup7\n        /* \"#utility.yul\":11215:11229   */\n      add\n        /* \"#utility.yul\":11201:11213   */\n      dup3\n        /* \"#utility.yul\":11167:11230   */\n      tag_437\n      jump\t// in\n    tag_552:\n        /* \"#utility.yul\":11068:11240   */\n      pop\n        /* \"#utility.yul\":11331:11335   */\n      0x20\n        /* \"#utility.yul\":11324:11329   */\n      dup4\n        /* \"#utility.yul\":11320:11336   */\n      add\n        /* \"#utility.yul\":11314:11337   */\n      mload\n        /* \"#utility.yul\":11350:11413   */\n      tag_553\n        /* \"#utility.yul\":11407:11411   */\n      0x20\n        /* \"#utility.yul\":11402:11405   */\n      dup7\n        /* \"#utility.yul\":11398:11412   */\n      add\n        /* \"#utility.yul\":11384:11396   */\n      dup3\n        /* \"#utility.yul\":11350:11413   */\n      tag_437\n      jump\t// in\n    tag_553:\n        /* \"#utility.yul\":11250:11423   */\n      pop\n        /* \"#utility.yul\":11517:11521   */\n      0x40\n        /* \"#utility.yul\":11510:11515   */\n      dup4\n        /* \"#utility.yul\":11506:11522   */\n      add\n        /* \"#utility.yul\":11500:11523   */\n      mload\n        /* \"#utility.yul\":11536:11599   */\n      tag_554\n        /* \"#utility.yul\":11593:11597   */\n      0x40\n        /* \"#utility.yul\":11588:11591   */\n      dup7\n        /* \"#utility.yul\":11584:11598   */\n      add\n        /* \"#utility.yul\":11570:11582   */\n      dup3\n        /* \"#utility.yul\":11536:11599   */\n      tag_436\n      jump\t// in\n    tag_554:\n        /* \"#utility.yul\":11433:11609   */\n      pop\n        /* \"#utility.yul\":11691:11695   */\n      0x60\n        /* \"#utility.yul\":11684:11689   */\n      dup4\n        /* \"#utility.yul\":11680:11696   */\n      add\n        /* \"#utility.yul\":11674:11697   */\n      mload\n        /* \"#utility.yul\":11744:11747   */\n      dup5\n        /* \"#utility.yul\":11738:11742   */\n      dup3\n        /* \"#utility.yul\":11734:11748   */\n      sub\n        /* \"#utility.yul\":11727:11731   */\n      0x60\n        /* \"#utility.yul\":11722:11725   */\n      dup7\n        /* \"#utility.yul\":11718:11732   */\n      add\n        /* \"#utility.yul\":11711:11749   */\n      mstore\n        /* \"#utility.yul\":11770:11843   */\n      tag_555\n        /* \"#utility.yul\":11838:11842   */\n      dup3\n        /* \"#utility.yul\":11824:11836   */\n      dup3\n        /* \"#utility.yul\":11770:11843   */\n      tag_469\n      jump\t// in\n    tag_555:\n        /* \"#utility.yul\":11762:11843   */\n      swap2\n      pop\n        /* \"#utility.yul\":11619:11854   */\n      pop\n        /* \"#utility.yul\":11943:11947   */\n      0x80\n        /* \"#utility.yul\":11936:11941   */\n      dup4\n        /* \"#utility.yul\":11932:11948   */\n      add\n        /* \"#utility.yul\":11926:11949   */\n      mload\n        /* \"#utility.yul\":11962:12019   */\n      tag_556\n        /* \"#utility.yul\":12013:12017   */\n      0x80\n        /* \"#utility.yul\":12008:12011   */\n      dup7\n        /* \"#utility.yul\":12004:12018   */\n      add\n        /* \"#utility.yul\":11990:12002   */\n      dup3\n        /* \"#utility.yul\":11962:12019   */\n      tag_458\n      jump\t// in\n    tag_556:\n        /* \"#utility.yul\":11864:12029   */\n      pop\n        /* \"#utility.yul\":12110:12114   */\n      0xa0\n        /* \"#utility.yul\":12103:12108   */\n      dup4\n        /* \"#utility.yul\":12099:12115   */\n      add\n        /* \"#utility.yul\":12093:12116   */\n      mload\n        /* \"#utility.yul\":12129:12192   */\n      tag_557\n        /* \"#utility.yul\":12186:12190   */\n      0xa0\n        /* \"#utility.yul\":12181:12184   */\n      dup7\n        /* \"#utility.yul\":12177:12191   */\n      add\n        /* \"#utility.yul\":12163:12175   */\n      dup3\n        /* \"#utility.yul\":12129:12192   */\n      tag_436\n      jump\t// in\n    tag_557:\n        /* \"#utility.yul\":12039:12202   */\n      pop\n        /* \"#utility.yul\":12219:12223   */\n      dup1\n        /* \"#utility.yul\":12212:12223   */\n      swap2\n      pop\n        /* \"#utility.yul\":11022:12229   */\n      pop\n        /* \"#utility.yul\":10892:12229   */\n      swap3\n      swap2\n      pop\n      pop\n      jump\t// out\n        /* \"#utility.yul\":12311:13183   */\n    tag_558:\n        /* \"#utility.yul\":12466:12470   */\n      0x80\n        /* \"#utility.yul\":12461:12464   */\n      dup3\n        /* \"#utility.yul\":12457:12471   */\n      add\n        /* \"#utility.yul\":12556:12560   */\n      0x00\n        /* \"#utility.yul\":12549:12554   */\n      dup3\n        /* \"#utility.yul\":12545:12561   */\n      add\n        /* \"#utility.yul\":12539:12562   */\n      mload\n        /* \"#utility.yul\":12575:12632   */\n      tag_560\n        /* \"#utility.yul\":12626:12630   */\n      0x00\n        /* \"#utility.yul\":12621:12624   */\n      dup6\n        /* \"#utility.yul\":12617:12631   */\n      add\n        /* \"#utility.yul\":12603:12615   */\n      dup3\n        /* \"#utility.yul\":12575:12632   */\n      tag_458\n      jump\t// in\n    tag_560:\n        /* \"#utility.yul\":12481:12642   */\n      pop\n        /* \"#utility.yul\":12726:12730   */\n      0x20\n        /* \"#utility.yul\":12719:12724   */\n      dup3\n        /* \"#utility.yul\":12715:12731   */\n      add\n        /* \"#utility.yul\":12709:12732   */\n      mload\n        /* \"#utility.yul\":12745:12808   */\n      tag_561\n        /* \"#utility.yul\":12802:12806   */\n      0x20\n        /* \"#utility.yul\":12797:12800   */\n      dup6\n        /* \"#utility.yul\":12793:12807   */\n      add\n        /* \"#utility.yul\":12779:12791   */\n      dup3\n        /* \"#utility.yul\":12745:12808   */\n      tag_436\n      jump\t// in\n    tag_561:\n        /* \"#utility.yul\":12652:12818   */\n      pop\n        /* \"#utility.yul\":12905:12909   */\n      0x40\n        /* \"#utility.yul\":12898:12903   */\n      dup3\n        /* \"#utility.yul\":12894:12910   */\n      add\n        /* \"#utility.yul\":12888:12911   */\n      mload\n        /* \"#utility.yul\":12924:12987   */\n      tag_562\n        /* \"#utility.yul\":12981:12985   */\n      0x40\n        /* \"#utility.yul\":12976:12979   */\n      dup6\n        /* \"#utility.yul\":12972:12986   */\n      add\n        /* \"#utility.yul\":12958:12970   */\n      dup3\n        /* \"#utility.yul\":12924:12987   */\n      tag_436\n      jump\t// in\n    tag_562:\n        /* \"#utility.yul\":12828:12997   */\n      pop\n        /* \"#utility.yul\":13084:13088   */\n      0x60\n        /* \"#utility.yul\":13077:13082   */\n      dup3\n        /* \"#utility.yul\":13073:13089   */\n      add\n        /* \"#utility.yul\":13067:13090   */\n      mload\n        /* \"#utility.yul\":13103:13166   */\n      tag_563\n        /* \"#utility.yul\":13160:13164   */\n      0x60\n        /* \"#utility.yul\":13155:13158   */\n      dup6\n        /* \"#utility.yul\":13151:13165   */\n      add\n        /* \"#utility.yul\":13137:13149   */\n      dup3\n        /* \"#utility.yul\":13103:13166   */\n      tag_436\n      jump\t// in\n    tag_563:\n        /* \"#utility.yul\":13007:13176   */\n      pop\n        /* \"#utility.yul\":12435:13183   */\n      pop\n        /* \"#utility.yul\":12311:13183   */\n      pop\n      pop\n      jump\t// out\n        /* \"#utility.yul\":13189:13297   */\n    tag_436:\n        /* \"#utility.yul\":13266:13290   */\n      tag_565\n        /* \"#utility.yul\":13284:13289   */\n      dup2\n        /* \"#utility.yul\":13266:13290   */\n      tag_566\n      jump\t// in\n    tag_565:\n        /* \"#utility.yul\":13261:13264   */\n      dup3\n        /* \"#utility.yul\":13254:13291   */\n      mstore\n        /* \"#utility.yul\":13189:13297   */\n      pop\n      pop\n      jump\t// out\n        /* \"#utility.yul\":13303:13421   */\n    tag_567:\n        /* \"#utility.yul\":13390:13414   */\n      tag_569\n        /* \"#utility.yul\":13408:13413   */\n      dup2\n        /* \"#utility.yul\":13390:13414   */\n      tag_566\n      jump\t// in\n    tag_569:\n        /* \"#utility.yul\":13385:13388   */\n      dup3\n        /* \"#utility.yul\":13378:13415   */\n      mstore\n        /* \"#utility.yul\":13303:13421   */\n      pop\n      pop\n      jump\t// out\n        /* \"#utility.yul\":13427:13649   */\n    tag_79:\n        /* \"#utility.yul\":13520:13524   */\n      0x00\n        /* \"#utility.yul\":13558:13560   */\n      0x20\n        /* \"#utility.yul\":13547:13556   */\n      dup3\n        /* \"#utility.yul\":13543:13561   */\n      add\n        /* \"#utility.yul\":13535:13561   */\n      swap1\n      pop\n        /* \"#utility.yul\":13571:13642   */\n      tag_571\n        /* \"#utility.yul\":13639:13640   */\n      0x00\n        /* \"#utility.yul\":13628:13637   */\n      dup4\n        /* \"#utility.yul\":13624:13641   */\n      add\n        /* \"#utility.yul\":13615:13621   */\n      dup5\n        /* \"#utility.yul\":13571:13642   */\n      tag_441\n      jump\t// in\n    tag_571:\n        /* \"#utility.yul\":13427:13649   */\n      swap3\n      swap2\n      pop\n      pop\n      jump\t// out\n        /* \"#utility.yul\":13655:13987   */\n    tag_239:\n        /* \"#utility.yul\":13776:13780   */\n      0x00\n        /* \"#utility.yul\":13814:13816   */\n      0x40\n        /* \"#utility.yul\":13803:13812   */\n      dup3\n        /* \"#utility.yul\":13799:13817   */\n      add\n        /* \"#utility.yul\":13791:13817   */\n      swap1\n      pop\n        /* \"#utility.yul\":13827:13898   */\n      tag_573\n        /* \"#utility.yul\":13895:13896   */\n      0x00\n        /* \"#utility.yul\":13884:13893   */\n      dup4\n        /* \"#utility.yul\":13880:13897   */\n      add\n        /* \"#utility.yul\":13871:13877   */\n      dup6\n        /* \"#utility.yul\":13827:13898   */\n      tag_441\n      jump\t// in\n    tag_573:\n        /* \"#utility.yul\":13908:13980   */\n      tag_574\n        /* \"#utility.yul\":13976:13978   */\n      0x20\n        /* \"#utility.yul\":13965:13974   */\n      dup4\n        /* \"#utility.yul\":13961:13979   */\n      add\n        /* \"#utility.yul\":13952:13958   */\n      dup5\n        /* \"#utility.yul\":13908:13980   */\n      tag_441\n      jump\t// in\n    tag_574:\n        /* \"#utility.yul\":13655:13987   */\n      swap4\n      swap3\n      pop\n      pop\n      pop\n      jump\t// out\n        /* \"#utility.yul\":13993:14435   */\n    tag_252:\n        /* \"#utility.yul\":14142:14146   */\n      0x00\n        /* \"#utility.yul\":14180:14182   */\n      0x60\n        /* \"#utility.yul\":14169:14178   */\n      dup3\n        /* \"#utility.yul\":14165:14183   */\n      add\n        /* \"#utility.yul\":14157:14183   */\n      swap1\n      pop\n        /* \"#utility.yul\":14193:14264   */\n      tag_576\n        /* \"#utility.yul\":14261:14262   */\n      0x00\n        /* \"#utility.yul\":14250:14259   */\n      dup4\n        /* \"#utility.yul\":14246:14263   */\n      add\n        /* \"#utility.yul\":14237:14243   */\n      dup7\n        /* \"#utility.yul\":14193:14264   */\n      tag_441\n      jump\t// in\n    tag_576:\n        /* \"#utility.yul\":14274:14346   */\n      tag_577\n        /* \"#utility.yul\":14342:14344   */\n      0x20\n        /* \"#utility.yul\":14331:14340   */\n      dup4\n        /* \"#utility.yul\":14327:14345   */\n      add\n        /* \"#utility.yul\":14318:14324   */\n      dup6\n        /* \"#utility.yul\":14274:14346   */\n      tag_441\n      jump\t// in\n    tag_577:\n        /* \"#utility.yul\":14356:14428   */\n      tag_578\n        /* \"#utility.yul\":14424:14426   */\n      0x40\n        /* \"#utility.yul\":14413:14422   */\n      dup4\n        /* \"#utility.yul\":14409:14427   */\n      add\n        /* \"#utility.yul\":14400:14406   */\n      dup5\n        /* \"#utility.yul\":14356:14428   */\n      tag_567\n      jump\t// in\n    tag_578:\n        /* \"#utility.yul\":13993:14435   */\n      swap5\n      swap4\n      pop\n      pop\n      pop\n      pop\n      jump\t// out\n        /* \"#utility.yul\":14441:14773   */\n    tag_192:\n        /* \"#utility.yul\":14562:14566   */\n      0x00\n        /* \"#utility.yul\":14600:14602   */\n      0x40\n        /* \"#utility.yul\":14589:14598   */\n      dup3\n        /* \"#utility.yul\":14585:14603   */\n      add\n        /* \"#utility.yul\":14577:14603   */\n      swap1\n      pop\n        /* \"#utility.yul\":14613:14684   */\n      tag_580\n        /* \"#utility.yul\":14681:14682   */\n      0x00\n        /* \"#utility.yul\":14670:14679   */\n      dup4\n        /* \"#utility.yul\":14666:14683   */\n      add\n        /* \"#utility.yul\":14657:14663   */\n      dup6\n        /* \"#utility.yul\":14613:14684   */\n      tag_441\n      jump\t// in\n    tag_580:\n        /* \"#utility.yul\":14694:14766   */\n      tag_581\n        /* \"#utility.yul\":14762:14764   */\n      0x20\n        /* \"#utility.yul\":14751:14760   */\n      dup4\n        /* \"#utility.yul\":14747:14765   */\n      add\n        /* \"#utility.yul\":14738:14744   */\n      dup5\n        /* \"#utility.yul\":14694:14766   */\n      tag_567\n      jump\t// in\n    tag_581:\n        /* \"#utility.yul\":14441:14773   */\n      swap4\n      swap3\n      pop\n      pop\n      pop\n      jump\t// out\n        /* \"#utility.yul\":14779:15348   */\n    tag_274:\n        /* \"#utility.yul\":14964:14968   */\n      0x00\n        /* \"#utility.yul\":15002:15005   */\n      0x80\n        /* \"#utility.yul\":14991:15000   */\n      dup3\n        /* \"#utility.yul\":14987:15006   */\n      add\n        /* \"#utility.yul\":14979:15006   */\n      swap1\n      pop\n        /* \"#utility.yul\":15016:15087   */\n      tag_583\n        /* \"#utility.yul\":15084:15085   */\n      0x00\n        /* \"#utility.yul\":15073:15082   */\n      dup4\n        /* \"#utility.yul\":15069:15086   */\n      add\n        /* \"#utility.yul\":15060:15066   */\n      dup8\n        /* \"#utility.yul\":15016:15087   */\n      tag_441\n      jump\t// in\n    tag_583:\n        /* \"#utility.yul\":15097:15169   */\n      tag_584\n        /* \"#utility.yul\":15165:15167   */\n      0x20\n        /* \"#utility.yul\":15154:15163   */\n      dup4\n        /* \"#utility.yul\":15150:15168   */\n      add\n        /* \"#utility.yul\":15141:15147   */\n      dup7\n        /* \"#utility.yul\":15097:15169   */\n      tag_567\n      jump\t// in\n    tag_584:\n        /* \"#utility.yul\":15179:15259   */\n      tag_585\n        /* \"#utility.yul\":15255:15257   */\n      0x40\n        /* \"#utility.yul\":15244:15253   */\n      dup4\n        /* \"#utility.yul\":15240:15258   */\n      add\n        /* \"#utility.yul\":15231:15237   */\n      dup6\n        /* \"#utility.yul\":15179:15259   */\n      tag_465\n      jump\t// in\n    tag_585:\n        /* \"#utility.yul\":15269:15341   */\n      tag_586\n        /* \"#utility.yul\":15337:15339   */\n      0x60\n        /* \"#utility.yul\":15326:15335   */\n      dup4\n        /* \"#utility.yul\":15322:15340   */\n      add\n        /* \"#utility.yul\":15313:15319   */\n      dup5\n        /* \"#utility.yul\":15269:15341   */\n      tag_567\n      jump\t// in\n    tag_586:\n        /* \"#utility.yul\":14779:15348   */\n      swap6\n      swap5\n      pop\n      pop\n      pop\n      pop\n      pop\n      jump\t// out\n        /* \"#utility.yul\":15354:15796   */\n    tag_199:\n        /* \"#utility.yul\":15503:15507   */\n      0x00\n        /* \"#utility.yul\":15541:15543   */\n      0x60\n        /* \"#utility.yul\":15530:15539   */\n      dup3\n        /* \"#utility.yul\":15526:15544   */\n      add\n        /* \"#utility.yul\":15518:15544   */\n      swap1\n      pop\n        /* \"#utility.yul\":15554:15625   */\n      tag_588\n        /* \"#utility.yul\":15622:15623   */\n      0x00\n        /* \"#utility.yul\":15611:15620   */\n      dup4\n        /* \"#utility.yul\":15607:15624   */\n      add\n        /* \"#utility.yul\":15598:15604   */\n      dup7\n        /* \"#utility.yul\":15554:15625   */\n      tag_441\n      jump\t// in\n    tag_588:\n        /* \"#utility.yul\":15635:15707   */\n      tag_589\n        /* \"#utility.yul\":15703:15705   */\n      0x20\n        /* \"#utility.yul\":15692:15701   */\n      dup4\n        /* \"#utility.yul\":15688:15706   */\n      add\n        /* \"#utility.yul\":15679:15685   */\n      dup6\n        /* \"#utility.yul\":15635:15707   */\n      tag_567\n      jump\t// in\n    tag_589:\n        /* \"#utility.yul\":15717:15789   */\n      tag_590\n        /* \"#utility.yul\":15785:15787   */\n      0x40\n        /* \"#utility.yul\":15774:15783   */\n      dup4\n        /* \"#utility.yul\":15770:15788   */\n      add\n        /* \"#utility.yul\":15761:15767   */\n      dup5\n        /* \"#utility.yul\":15717:15789   */\n      tag_567\n      jump\t// in\n    tag_590:\n        /* \"#utility.yul\":15354:15796   */\n      swap5\n      swap4\n      pop\n      pop\n      pop\n      pop\n      jump\t// out\n        /* \"#utility.yul\":15802:16175   */\n    tag_43:\n        /* \"#utility.yul\":15945:15949   */\n      0x00\n        /* \"#utility.yul\":15983:15985   */\n      0x20\n        /* \"#utility.yul\":15972:15981   */\n      dup3\n        /* \"#utility.yul\":15968:15986   */\n      add\n        /* \"#utility.yul\":15960:15986   */\n      swap1\n      pop\n        /* \"#utility.yul\":16032:16041   */\n      dup2\n        /* \"#utility.yul\":16026:16030   */\n      dup2\n        /* \"#utility.yul\":16022:16042   */\n      sub\n        /* \"#utility.yul\":16018:16019   */\n      0x00\n        /* \"#utility.yul\":16007:16016   */\n      dup4\n        /* \"#utility.yul\":16003:16020   */\n      add\n        /* \"#utility.yul\":15996:16043   */\n      mstore\n        /* \"#utility.yul\":16060:16168   */\n      tag_592\n        /* \"#utility.yul\":16163:16167   */\n      dup2\n        /* \"#utility.yul\":16154:16160   */\n      dup5\n        /* \"#utility.yul\":16060:16168   */\n      tag_444\n      jump\t// in\n    tag_592:\n        /* \"#utility.yul\":16052:16168   */\n      swap1\n      pop\n        /* \"#utility.yul\":15802:16175   */\n      swap3\n      swap2\n      pop\n      pop\n      jump\t// out\n        /* \"#utility.yul\":16181:16391   */\n    tag_53:\n        /* \"#utility.yul\":16268:16272   */\n      0x00\n        /* \"#utility.yul\":16306:16308   */\n      0x20\n        /* \"#utility.yul\":16295:16304   */\n      dup3\n        /* \"#utility.yul\":16291:16309   */\n      add\n        /* \"#utility.yul\":16283:16309   */\n      swap1\n      pop\n        /* \"#utility.yul\":16319:16384   */\n      tag_594\n        /* \"#utility.yul\":16381:16382   */\n      0x00\n        /* \"#utility.yul\":16370:16379   */\n      dup4\n        /* \"#utility.yul\":16366:16383   */\n      add\n        /* \"#utility.yul\":16357:16363   */\n      dup5\n        /* \"#utility.yul\":16319:16384   */\n      tag_462\n      jump\t// in\n    tag_594:\n        /* \"#utility.yul\":16181:16391   */\n      swap3\n      swap2\n      pop\n      pop\n      jump\t// out\n        /* \"#utility.yul\":16397:16816   */\n    tag_184:\n        /* \"#utility.yul\":16563:16567   */\n      0x00\n        /* \"#utility.yul\":16601:16603   */\n      0x20\n        /* \"#utility.yul\":16590:16599   */\n      dup3\n        /* \"#utility.yul\":16586:16604   */\n      add\n        /* \"#utility.yul\":16578:16604   */\n      swap1\n      pop\n        /* \"#utility.yul\":16650:16659   */\n      dup2\n        /* \"#utility.yul\":16644:16648   */\n      dup2\n        /* \"#utility.yul\":16640:16660   */\n      sub\n        /* \"#utility.yul\":16636:16637   */\n      0x00\n        /* \"#utility.yul\":16625:16634   */\n      dup4\n        /* \"#utility.yul\":16621:16638   */\n      add\n        /* \"#utility.yul\":16614:16661   */\n      mstore\n        /* \"#utility.yul\":16678:16809   */\n      tag_596\n        /* \"#utility.yul\":16804:16808   */\n      dup2\n        /* \"#utility.yul\":16678:16809   */\n      tag_479\n      jump\t// in\n    tag_596:\n        /* \"#utility.yul\":16670:16809   */\n      swap1\n      pop\n        /* \"#utility.yul\":16397:16816   */\n      swap2\n      swap1\n      pop\n      jump\t// out\n        /* \"#utility.yul\":16822:17241   */\n    tag_247:\n        /* \"#utility.yul\":16988:16992   */\n      0x00\n        /* \"#utility.yul\":17026:17028   */\n      0x20\n        /* \"#utility.yul\":17015:17024   */\n      dup3\n        /* \"#utility.yul\":17011:17029   */\n      add\n        /* \"#utility.yul\":17003:17029   */\n      swap1\n      pop\n        /* \"#utility.yul\":17075:17084   */\n      dup2\n        /* \"#utility.yul\":17069:17073   */\n      dup2\n        /* \"#utility.yul\":17065:17085   */\n      sub\n        /* \"#utility.yul\":17061:17062   */\n      0x00\n        /* \"#utility.yul\":17050:17059   */\n      dup4\n        /* \"#utility.yul\":17046:17063   */\n      add\n        /* \"#utility.yul\":17039:17086   */\n      mstore\n        /* \"#utility.yul\":17103:17234   */\n      tag_598\n        /* \"#utility.yul\":17229:17233   */\n      dup2\n        /* \"#utility.yul\":17103:17234   */\n      tag_485\n      jump\t// in\n    tag_598:\n        /* \"#utility.yul\":17095:17234   */\n      swap1\n      pop\n        /* \"#utility.yul\":16822:17241   */\n      swap2\n      swap1\n      pop\n      jump\t// out\n        /* \"#utility.yul\":17247:17666   */\n    tag_342:\n        /* \"#utility.yul\":17413:17417   */\n      0x00\n        /* \"#utility.yul\":17451:17453   */\n      0x20\n        /* \"#utility.yul\":17440:17449   */\n      dup3\n        /* \"#utility.yul\":17436:17454   */\n      add\n        /* \"#utility.yul\":17428:17454   */\n      swap1\n      pop\n        /* \"#utility.yul\":17500:17509   */\n      dup2\n        /* \"#utility.yul\":17494:17498   */\n      dup2\n        /* \"#utility.yul\":17490:17510   */\n      sub\n        /* \"#utility.yul\":17486:17487   */\n      0x00\n        /* \"#utility.yul\":17475:17484   */\n      dup4\n        /* \"#utility.yul\":17471:17488   */\n      add\n        /* \"#utility.yul\":17464:17511   */\n      mstore\n        /* \"#utility.yul\":17528:17659   */\n      tag_600\n        /* \"#utility.yul\":17654:17658   */\n      dup2\n        /* \"#utility.yul\":17528:17659   */\n      tag_490\n      jump\t// in\n    tag_600:\n        /* \"#utility.yul\":17520:17659   */\n      swap1\n      pop\n        /* \"#utility.yul\":17247:17666   */\n      swap2\n      swap1\n      pop\n      jump\t// out\n        /* \"#utility.yul\":17672:18091   */\n    tag_316:\n        /* \"#utility.yul\":17838:17842   */\n      0x00\n        /* \"#utility.yul\":17876:17878   */\n      0x20\n        /* \"#utility.yul\":17865:17874   */\n      dup3\n        /* \"#utility.yul\":17861:17879   */\n      add\n        /* \"#utility.yul\":17853:17879   */\n      swap1\n      pop\n        /* \"#utility.yul\":17925:17934   */\n      dup2\n        /* \"#utility.yul\":17919:17923   */\n      dup2\n        /* \"#utility.yul\":17915:17935   */\n      sub\n        /* \"#utility.yul\":17911:17912   */\n      0x00\n        /* \"#utility.yul\":17900:17909   */\n      dup4\n        /* \"#utility.yul\":17896:17913   */\n      add\n        /* \"#utility.yul\":17889:17936   */\n      mstore\n        /* \"#utility.yul\":17953:18084   */\n      tag_602\n        /* \"#utility.yul\":18079:18083   */\n      dup2\n        /* \"#utility.yul\":17953:18084   */\n      tag_495\n      jump\t// in\n    tag_602:\n        /* \"#utility.yul\":17945:18084   */\n      swap1\n      pop\n        /* \"#utility.yul\":17672:18091   */\n      swap2\n      swap1\n      pop\n      jump\t// out\n        /* \"#utility.yul\":18097:18516   */\n    tag_262:\n        /* \"#utility.yul\":18263:18267   */\n      0x00\n        /* \"#utility.yul\":18301:18303   */\n      0x20\n        /* \"#utility.yul\":18290:18299   */\n      dup3\n        /* \"#utility.yul\":18286:18304   */\n      add\n        /* \"#utility.yul\":18278:18304   */\n      swap1\n      pop\n        /* \"#utility.yul\":18350:18359   */\n      dup2\n        /* \"#utility.yul\":18344:18348   */\n      dup2\n        /* \"#utility.yul\":18340:18360   */\n      sub\n        /* \"#utility.yul\":18336:18337   */\n      0x00\n        /* \"#utility.yul\":18325:18334   */\n      dup4\n        /* \"#utility.yul\":18321:18338   */\n      add\n        /* \"#utility.yul\":18314:18361   */\n      mstore\n        /* \"#utility.yul\":18378:18509   */\n      tag_604\n        /* \"#utility.yul\":18504:18508   */\n      dup2\n        /* \"#utility.yul\":18378:18509   */\n      tag_500\n      jump\t// in\n    tag_604:\n        /* \"#utility.yul\":18370:18509   */\n      swap1\n      pop\n        /* \"#utility.yul\":18097:18516   */\n      swap2\n      swap1\n      pop\n      jump\t// out\n        /* \"#utility.yul\":18522:18941   */\n    tag_234:\n        /* \"#utility.yul\":18688:18692   */\n      0x00\n        /* \"#utility.yul\":18726:18728   */\n      0x20\n        /* \"#utility.yul\":18715:18724   */\n      dup3\n        /* \"#utility.yul\":18711:18729   */\n      add\n        /* \"#utility.yul\":18703:18729   */\n      swap1\n      pop\n        /* \"#utility.yul\":18775:18784   */\n      dup2\n        /* \"#utility.yul\":18769:18773   */\n      dup2\n        /* \"#utility.yul\":18765:18785   */\n      sub\n        /* \"#utility.yul\":18761:18762   */\n      0x00\n        /* \"#utility.yul\":18750:18759   */\n      dup4\n        /* \"#utility.yul\":18746:18763   */\n      add\n        /* \"#utility.yul\":18739:18786   */\n      mstore\n        /* \"#utility.yul\":18803:18934   */\n      tag_606\n        /* \"#utility.yul\":18929:18933   */\n      dup2\n        /* \"#utility.yul\":18803:18934   */\n      tag_505\n      jump\t// in\n    tag_606:\n        /* \"#utility.yul\":18795:18934   */\n      swap1\n      pop\n        /* \"#utility.yul\":18522:18941   */\n      swap2\n      swap1\n      pop\n      jump\t// out\n        /* \"#utility.yul\":18947:19366   */\n    tag_172:\n        /* \"#utility.yul\":19113:19117   */\n      0x00\n        /* \"#utility.yul\":19151:19153   */\n      0x20\n        /* \"#utility.yul\":19140:19149   */\n      dup3\n        /* \"#utility.yul\":19136:19154   */\n      add\n        /* \"#utility.yul\":19128:19154   */\n      swap1\n      pop\n        /* \"#utility.yul\":19200:19209   */\n      dup2\n        /* \"#utility.yul\":19194:19198   */\n      dup2\n        /* \"#utility.yul\":19190:19210   */\n      sub\n        /* \"#utility.yul\":19186:19187   */\n      0x00\n        /* \"#utility.yul\":19175:19184   */\n      dup4\n        /* \"#utility.yul\":19171:19188   */\n      add\n        /* \"#utility.yul\":19164:19211   */\n      mstore\n        /* \"#utility.yul\":19228:19359   */\n      tag_608\n        /* \"#utility.yul\":19354:19358   */\n      dup2\n        /* \"#utility.yul\":19228:19359   */\n      tag_510\n      jump\t// in\n    tag_608:\n        /* \"#utility.yul\":19220:19359   */\n      swap1\n      pop\n        /* \"#utility.yul\":18947:19366   */\n      swap2\n      swap1\n      pop\n      jump\t// out\n        /* \"#utility.yul\":19372:19791   */\n    tag_169:\n        /* \"#utility.yul\":19538:19542   */\n      0x00\n        /* \"#utility.yul\":19576:19578   */\n      0x20\n        /* \"#utility.yul\":19565:19574   */\n      dup3\n        /* \"#utility.yul\":19561:19579   */\n      add\n        /* \"#utility.yul\":19553:19579   */\n      swap1\n      pop\n        /* \"#utility.yul\":19625:19634   */\n      dup2\n        /* \"#utility.yul\":19619:19623   */\n      dup2\n        /* \"#utility.yul\":19615:19635   */\n      sub\n        /* \"#utility.yul\":19611:19612   */\n      0x00\n        /* \"#utility.yul\":19600:19609   */\n      dup4\n        /* \"#utility.yul\":19596:19613   */\n      add\n        /* \"#utility.yul\":19589:19636   */\n      mstore\n        /* \"#utility.yul\":19653:19784   */\n      tag_610\n        /* \"#utility.yul\":19779:19783   */\n      dup2\n        /* \"#utility.yul\":19653:19784   */\n      tag_515\n      jump\t// in\n    tag_610:\n        /* \"#utility.yul\":19645:19784   */\n      swap1\n      pop\n        /* \"#utility.yul\":19372:19791   */\n      swap2\n      swap1\n      pop\n      jump\t// out\n        /* \"#utility.yul\":19797:20216   */\n    tag_360:\n        /* \"#utility.yul\":19963:19967   */\n      0x00\n        /* \"#utility.yul\":20001:20003   */\n      0x20\n        /* \"#utility.yul\":19990:19999   */\n      dup3\n        /* \"#utility.yul\":19986:20004   */\n      add\n        /* \"#utility.yul\":19978:20004   */\n      swap1\n      pop\n        /* \"#utility.yul\":20050:20059   */\n      dup2\n        /* \"#utility.yul\":20044:20048   */\n      dup2\n        /* \"#utility.yul\":20040:20060   */\n      sub\n        /* \"#utility.yul\":20036:20037   */\n      0x00\n        /* \"#utility.yul\":20025:20034   */\n      dup4\n        /* \"#utility.yul\":20021:20038   */\n      add\n        /* \"#utility.yul\":20014:20061   */\n      mstore\n        /* \"#utility.yul\":20078:20209   */\n      tag_612\n        /* \"#utility.yul\":20204:20208   */\n      dup2\n        /* \"#utility.yul\":20078:20209   */\n      tag_520\n      jump\t// in\n    tag_612:\n        /* \"#utility.yul\":20070:20209   */\n      swap1\n      pop\n        /* \"#utility.yul\":19797:20216   */\n      swap2\n      swap1\n      pop\n      jump\t// out\n        /* \"#utility.yul\":20222:20641   */\n    tag_166:\n        /* \"#utility.yul\":20388:20392   */\n      0x00\n        /* \"#utility.yul\":20426:20428   */\n      0x20\n        /* \"#utility.yul\":20415:20424   */\n      dup3\n        /* \"#utility.yul\":20411:20429   */\n      add\n        /* \"#utility.yul\":20403:20429   */\n      swap1\n      pop\n        /* \"#utility.yul\":20475:20484   */\n      dup2\n        /* \"#utility.yul\":20469:20473   */\n      dup2\n        /* \"#utility.yul\":20465:20485   */\n      sub\n        /* \"#utility.yul\":20461:20462   */\n      0x00\n        /* \"#utility.yul\":20450:20459   */\n      dup4\n        /* \"#utility.yul\":20446:20463   */\n      add\n        /* \"#utility.yul\":20439:20486   */\n      mstore\n        /* \"#utility.yul\":20503:20634   */\n      tag_614\n        /* \"#utility.yul\":20629:20633   */\n      dup2\n        /* \"#utility.yul\":20503:20634   */\n      tag_525\n      jump\t// in\n    tag_614:\n        /* \"#utility.yul\":20495:20634   */\n      swap1\n      pop\n        /* \"#utility.yul\":20222:20641   */\n      swap2\n      swap1\n      pop\n      jump\t// out\n        /* \"#utility.yul\":20647:21066   */\n    tag_265:\n        /* \"#utility.yul\":20813:20817   */\n      0x00\n        /* \"#utility.yul\":20851:20853   */\n      0x20\n        /* \"#utility.yul\":20840:20849   */\n      dup3\n        /* \"#utility.yul\":20836:20854   */\n      add\n        /* \"#utility.yul\":20828:20854   */\n      swap1\n      pop\n        /* \"#utility.yul\":20900:20909   */\n      dup2\n        /* \"#utility.yul\":20894:20898   */\n      dup2\n        /* \"#utility.yul\":20890:20910   */\n      sub\n        /* \"#utility.yul\":20886:20887   */\n      0x00\n        /* \"#utility.yul\":20875:20884   */\n      dup4\n        /* \"#utility.yul\":20871:20888   */\n      add\n        /* \"#utility.yul\":20864:20911   */\n      mstore\n        /* \"#utility.yul\":20928:21059   */\n      tag_616\n        /* \"#utility.yul\":21054:21058   */\n      dup2\n        /* \"#utility.yul\":20928:21059   */\n      tag_530\n      jump\t// in\n    tag_616:\n        /* \"#utility.yul\":20920:21059   */\n      swap1\n      pop\n        /* \"#utility.yul\":20647:21066   */\n      swap2\n      swap1\n      pop\n      jump\t// out\n        /* \"#utility.yul\":21072:21491   */\n    tag_228:\n        /* \"#utility.yul\":21238:21242   */\n      0x00\n        /* \"#utility.yul\":21276:21278   */\n      0x20\n        /* \"#utility.yul\":21265:21274   */\n      dup3\n        /* \"#utility.yul\":21261:21279   */\n      add\n        /* \"#utility.yul\":21253:21279   */\n      swap1\n      pop\n        /* \"#utility.yul\":21325:21334   */\n      dup2\n        /* \"#utility.yul\":21319:21323   */\n      dup2\n        /* \"#utility.yul\":21315:21335   */\n      sub\n        /* \"#utility.yul\":21311:21312   */\n      0x00\n        /* \"#utility.yul\":21300:21309   */\n      dup4\n        /* \"#utility.yul\":21296:21313   */\n      add\n        /* \"#utility.yul\":21289:21336   */\n      mstore\n        /* \"#utility.yul\":21353:21484   */\n      tag_618\n        /* \"#utility.yul\":21479:21483   */\n      dup2\n        /* \"#utility.yul\":21353:21484   */\n      tag_535\n      jump\t// in\n    tag_618:\n        /* \"#utility.yul\":21345:21484   */\n      swap1\n      pop\n        /* \"#utility.yul\":21072:21491   */\n      swap2\n      swap1\n      pop\n      jump\t// out\n        /* \"#utility.yul\":21497:21916   */\n    tag_329:\n        /* \"#utility.yul\":21663:21667   */\n      0x00\n        /* \"#utility.yul\":21701:21703   */\n      0x20\n        /* \"#utility.yul\":21690:21699   */\n      dup3\n        /* \"#utility.yul\":21686:21704   */\n      add\n        /* \"#utility.yul\":21678:21704   */\n      swap1\n      pop\n        /* \"#utility.yul\":21750:21759   */\n      dup2\n        /* \"#utility.yul\":21744:21748   */\n      dup2\n        /* \"#utility.yul\":21740:21760   */\n      sub\n        /* \"#utility.yul\":21736:21737   */\n      0x00\n        /* \"#utility.yul\":21725:21734   */\n      dup4\n        /* \"#utility.yul\":21721:21738   */\n      add\n        /* \"#utility.yul\":21714:21761   */\n      mstore\n        /* \"#utility.yul\":21778:21909   */\n      tag_620\n        /* \"#utility.yul\":21904:21908   */\n      dup2\n        /* \"#utility.yul\":21778:21909   */\n      tag_540\n      jump\t// in\n    tag_620:\n        /* \"#utility.yul\":21770:21909   */\n      swap1\n      pop\n        /* \"#utility.yul\":21497:21916   */\n      swap2\n      swap1\n      pop\n      jump\t// out\n        /* \"#utility.yul\":21922:22341   */\n    tag_297:\n        /* \"#utility.yul\":22088:22092   */\n      0x00\n        /* \"#utility.yul\":22126:22128   */\n      0x20\n        /* \"#utility.yul\":22115:22124   */\n      dup3\n        /* \"#utility.yul\":22111:22129   */\n      add\n        /* \"#utility.yul\":22103:22129   */\n      swap1\n      pop\n        /* \"#utility.yul\":22175:22184   */\n      dup2\n        /* \"#utility.yul\":22169:22173   */\n      dup2\n        /* \"#utility.yul\":22165:22185   */\n      sub\n        /* \"#utility.yul\":22161:22162   */\n      0x00\n        /* \"#utility.yul\":22150:22159   */\n      dup4\n        /* \"#utility.yul\":22146:22163   */\n      add\n        /* \"#utility.yul\":22139:22186   */\n      mstore\n        /* \"#utility.yul\":22203:22334   */\n      tag_622\n        /* \"#utility.yul\":22329:22333   */\n      dup2\n        /* \"#utility.yul\":22203:22334   */\n      tag_545\n      jump\t// in\n    tag_622:\n        /* \"#utility.yul\":22195:22334   */\n      swap1\n      pop\n        /* \"#utility.yul\":21922:22341   */\n      swap2\n      swap1\n      pop\n      jump\t// out\n        /* \"#utility.yul\":22347:22732   */\n    tag_63:\n        /* \"#utility.yul\":22496:22500   */\n      0x00\n        /* \"#utility.yul\":22534:22536   */\n      0x20\n        /* \"#utility.yul\":22523:22532   */\n      dup3\n        /* \"#utility.yul\":22519:22537   */\n      add\n        /* \"#utility.yul\":22511:22537   */\n      swap1\n      pop\n        /* \"#utility.yul\":22583:22592   */\n      dup2\n        /* \"#utility.yul\":22577:22581   */\n      dup2\n        /* \"#utility.yul\":22573:22593   */\n      sub\n        /* \"#utility.yul\":22569:22570   */\n      0x00\n        /* \"#utility.yul\":22558:22567   */\n      dup4\n        /* \"#utility.yul\":22554:22571   */\n      add\n        /* \"#utility.yul\":22547:22594   */\n      mstore\n        /* \"#utility.yul\":22611:22725   */\n      tag_624\n        /* \"#utility.yul\":22720:22724   */\n      dup2\n        /* \"#utility.yul\":22711:22717   */\n      dup5\n        /* \"#utility.yul\":22611:22725   */\n      tag_550\n      jump\t// in\n    tag_624:\n        /* \"#utility.yul\":22603:22725   */\n      swap1\n      pop\n        /* \"#utility.yul\":22347:22732   */\n      swap3\n      swap2\n      pop\n      pop\n      jump\t// out\n        /* \"#utility.yul\":22738:23077   */\n    tag_115:\n        /* \"#utility.yul\":22889:22893   */\n      0x00\n        /* \"#utility.yul\":22927:22930   */\n      0x80\n        /* \"#utility.yul\":22916:22925   */\n      dup3\n        /* \"#utility.yul\":22912:22931   */\n      add\n        /* \"#utility.yul\":22904:22931   */\n      swap1\n      pop\n        /* \"#utility.yul\":22941:23070   */\n      tag_626\n        /* \"#utility.yul\":23067:23068   */\n      0x00\n        /* \"#utility.yul\":23056:23065   */\n      dup4\n        /* \"#utility.yul\":23052:23069   */\n      add\n        /* \"#utility.yul\":23043:23049   */\n      dup5\n        /* \"#utility.yul\":22941:23070   */\n      tag_558\n      jump\t// in\n    tag_626:\n        /* \"#utility.yul\":22738:23077   */\n      swap3\n      swap2\n      pop\n      pop\n      jump\t// out\n        /* \"#utility.yul\":23083:23305   */\n    tag_32:\n        /* \"#utility.yul\":23176:23180   */\n      0x00\n        /* \"#utility.yul\":23214:23216   */\n      0x20\n        /* \"#utility.yul\":23203:23212   */\n      dup3\n        /* \"#utility.yul\":23199:23217   */\n      add\n        /* \"#utility.yul\":23191:23217   */\n      swap1\n      pop\n        /* \"#utility.yul\":23227:23298   */\n      tag_628\n        /* \"#utility.yul\":23295:23296   */\n      0x00\n        /* \"#utility.yul\":23284:23293   */\n      dup4\n        /* \"#utility.yul\":23280:23297   */\n      add\n        /* \"#utility.yul\":23271:23277   */\n      dup5\n        /* \"#utility.yul\":23227:23298   */\n      tag_567\n      jump\t// in\n    tag_628:\n        /* \"#utility.yul\":23083:23305   */\n      swap3\n      swap2\n      pop\n      pop\n      jump\t// out\n        /* \"#utility.yul\":23311:23440   */\n    tag_379:\n        /* \"#utility.yul\":23345:23351   */\n      0x00\n        /* \"#utility.yul\":23372:23392   */\n      tag_630\n      tag_631\n      jump\t// in\n    tag_630:\n        /* \"#utility.yul\":23362:23392   */\n      swap1\n      pop\n        /* \"#utility.yul\":23401:23434   */\n      tag_632\n        /* \"#utility.yul\":23429:23433   */\n      dup3\n        /* \"#utility.yul\":23421:23427   */\n      dup3\n        /* \"#utility.yul\":23401:23434   */\n      tag_633\n      jump\t// in\n    tag_632:\n        /* \"#utility.yul\":23311:23440   */\n      swap2\n      swap1\n      pop\n      jump\t// out\n        /* \"#utility.yul\":23446:23521   */\n    tag_631:\n        /* \"#utility.yul\":23479:23485   */\n      0x00\n        /* \"#utility.yul\":23512:23514   */\n      0x40\n        /* \"#utility.yul\":23506:23515   */\n      mload\n        /* \"#utility.yul\":23496:23515   */\n      swap1\n      pop\n        /* \"#utility.yul\":23446:23521   */\n      swap1\n      jump\t// out\n        /* \"#utility.yul\":23527:23835   */\n    tag_378:\n        /* \"#utility.yul\":23589:23593   */\n      0x00\n        /* \"#utility.yul\":23679:23697   */\n      0xffffffffffffffff\n        /* \"#utility.yul\":23671:23677   */\n      dup3\n        /* \"#utility.yul\":23668:23698   */\n      gt\n        /* \"#utility.yul\":23665:23721   */\n      iszero\n      tag_636\n      jumpi\n        /* \"#utility.yul\":23701:23719   */\n      tag_637\n      tag_638\n      jump\t// in\n    tag_637:\n        /* \"#utility.yul\":23665:23721   */\n    tag_636:\n        /* \"#utility.yul\":23739:23768   */\n      tag_639\n        /* \"#utility.yul\":23761:23767   */\n      dup3\n        /* \"#utility.yul\":23739:23768   */\n      tag_478\n      jump\t// in\n    tag_639:\n        /* \"#utility.yul\":23731:23768   */\n      swap1\n      pop\n        /* \"#utility.yul\":23823:23827   */\n      0x20\n        /* \"#utility.yul\":23817:23821   */\n      dup2\n        /* \"#utility.yul\":23813:23828   */\n      add\n        /* \"#utility.yul\":23805:23828   */\n      swap1\n      pop\n        /* \"#utility.yul\":23527:23835   */\n      swap2\n      swap1\n      pop\n      jump\t// out\n        /* \"#utility.yul\":23841:23973   */\n    tag_451:\n        /* \"#utility.yul\":23908:23912   */\n      0x00\n        /* \"#utility.yul\":23931:23934   */\n      dup2\n        /* \"#utility.yul\":23923:23934   */\n      swap1\n      pop\n        /* \"#utility.yul\":23961:23965   */\n      0x20\n        /* \"#utility.yul\":23956:23959   */\n      dup3\n        /* \"#utility.yul\":23952:23966   */\n      add\n        /* \"#utility.yul\":23944:23966   */\n      swap1\n      pop\n        /* \"#utility.yul\":23841:23973   */\n      swap2\n      swap1\n      pop\n      jump\t// out\n        /* \"#utility.yul\":23979:24093   */\n    tag_447:\n        /* \"#utility.yul\":24046:24052   */\n      0x00\n        /* \"#utility.yul\":24080:24085   */\n      dup2\n        /* \"#utility.yul\":24074:24086   */\n      mload\n        /* \"#utility.yul\":24064:24086   */\n      swap1\n      pop\n        /* \"#utility.yul\":23979:24093   */\n      swap2\n      swap1\n      pop\n      jump\t// out\n        /* \"#utility.yul\":24099:24198   */\n    tag_472:\n        /* \"#utility.yul\":24151:24157   */\n      0x00\n        /* \"#utility.yul\":24185:24190   */\n      dup2\n        /* \"#utility.yul\":24179:24191   */\n      mload\n        /* \"#utility.yul\":24169:24191   */\n      swap1\n      pop\n        /* \"#utility.yul\":24099:24198   */\n      swap2\n      swap1\n      pop\n      jump\t// out\n        /* \"#utility.yul\":24204:24317   */\n    tag_457:\n        /* \"#utility.yul\":24274:24278   */\n      0x00\n        /* \"#utility.yul\":24306:24310   */\n      0x20\n        /* \"#utility.yul\":24301:24304   */\n      dup3\n        /* \"#utility.yul\":24297:24311   */\n      add\n        /* \"#utility.yul\":24289:24311   */\n      swap1\n      pop\n        /* \"#utility.yul\":24204:24317   */\n      swap2\n      swap1\n      pop\n      jump\t// out\n        /* \"#utility.yul\":24323:24507   */\n    tag_449:\n        /* \"#utility.yul\":24422:24433   */\n      0x00\n        /* \"#utility.yul\":24456:24462   */\n      dup3\n        /* \"#utility.yul\":24451:24454   */\n      dup3\n        /* \"#utility.yul\":24444:24463   */\n      mstore\n        /* \"#utility.yul\":24496:24500   */\n      0x20\n        /* \"#utility.yul\":24491:24494   */\n      dup3\n        /* \"#utility.yul\":24487:24501   */\n      add\n        /* \"#utility.yul\":24472:24501   */\n      swap1\n      pop\n        /* \"#utility.yul\":24323:24507   */\n      swap3\n      swap2\n      pop\n      pop\n      jump\t// out\n        /* \"#utility.yul\":24513:24672   */\n    tag_474:\n        /* \"#utility.yul\":24587:24598   */\n      0x00\n        /* \"#utility.yul\":24621:24627   */\n      dup3\n        /* \"#utility.yul\":24616:24619   */\n      dup3\n        /* \"#utility.yul\":24609:24628   */\n      mstore\n        /* \"#utility.yul\":24661:24665   */\n      0x20\n        /* \"#utility.yul\":24656:24659   */\n      dup3\n        /* \"#utility.yul\":24652:24666   */\n      add\n        /* \"#utility.yul\":24637:24666   */\n      swap1\n      pop\n        /* \"#utility.yul\":24513:24672   */\n      swap3\n      swap2\n      pop\n      pop\n      jump\t// out\n        /* \"#utility.yul\":24678:24847   */\n    tag_482:\n        /* \"#utility.yul\":24762:24773   */\n      0x00\n        /* \"#utility.yul\":24796:24802   */\n      dup3\n        /* \"#utility.yul\":24791:24794   */\n      dup3\n        /* \"#utility.yul\":24784:24803   */\n      mstore\n        /* \"#utility.yul\":24836:24840   */\n      0x20\n        /* \"#utility.yul\":24831:24834   */\n      dup3\n        /* \"#utility.yul\":24827:24841   */\n      add\n        /* \"#utility.yul\":24812:24841   */\n      swap1\n      pop\n        /* \"#utility.yul\":24678:24847   */\n      swap3\n      swap2\n      pop\n      pop\n      jump\t// out\n        /* \"#utility.yul\":24853:25158   */\n    tag_259:\n        /* \"#utility.yul\":24893:24896   */\n      0x00\n        /* \"#utility.yul\":24912:24932   */\n      tag_648\n        /* \"#utility.yul\":24930:24931   */\n      dup3\n        /* \"#utility.yul\":24912:24932   */\n      tag_566\n      jump\t// in\n    tag_648:\n        /* \"#utility.yul\":24907:24932   */\n      swap2\n      pop\n        /* \"#utility.yul\":24946:24966   */\n      tag_649\n        /* \"#utility.yul\":24964:24965   */\n      dup4\n        /* \"#utility.yul\":24946:24966   */\n      tag_566\n      jump\t// in\n    tag_649:\n        /* \"#utility.yul\":24941:24966   */\n      swap3\n      pop\n        /* \"#utility.yul\":25100:25101   */\n      dup3\n        /* \"#utility.yul\":25032:25098   */\n      0xffffffffffffffffffffffffffffffffffffffffffffffffffffffffffffffff\n        /* \"#utility.yul\":25028:25102   */\n      sub\n        /* \"#utility.yul\":25025:25026   */\n      dup3\n        /* \"#utility.yul\":25022:25103   */\n      gt\n        /* \"#utility.yul\":25019:25126   */\n      iszero\n      tag_650\n      jumpi\n        /* \"#utility.yul\":25106:25124   */\n      tag_651\n      tag_652\n      jump\t// in\n    tag_651:\n        /* \"#utility.yul\":25019:25126   */\n    tag_650:\n        /* \"#utility.yul\":25150:25151   */\n      dup3\n        /* \"#utility.yul\":25147:25148   */\n      dup3\n        /* \"#utility.yul\":25143:25152   */\n      add\n        /* \"#utility.yul\":25136:25152   */\n      swap1\n      pop\n        /* \"#utility.yul\":24853:25158   */\n      swap3\n      swap2\n      pop\n      pop\n      jump\t// out\n        /* \"#utility.yul\":25164:25349   */\n    tag_137:\n        /* \"#utility.yul\":25204:25205   */\n      0x00\n        /* \"#utility.yul\":25221:25241   */\n      tag_654\n        /* \"#utility.yul\":25239:25240   */\n      dup3\n        /* \"#utility.yul\":25221:25241   */\n      tag_566\n      jump\t// in\n    tag_654:\n        /* \"#utility.yul\":25216:25241   */\n      swap2\n      pop\n        /* \"#utility.yul\":25255:25275   */\n      tag_655\n        /* \"#utility.yul\":25273:25274   */\n      dup4\n        /* \"#utility.yul\":25255:25275   */\n      tag_566\n      jump\t// in\n    tag_655:\n        /* \"#utility.yul\":25250:25275   */\n      swap3\n      pop\n        /* \"#utility.yul\":25294:25295   */\n      dup3\n        /* \"#utility.yul\":25284:25319   */\n      tag_656\n      jumpi\n        /* \"#utility.yul\":25299:25317   */\n      tag_657\n      tag_658\n      jump\t// in\n    tag_657:\n        /* \"#utility.yul\":25284:25319   */\n    tag_656:\n        /* \"#utility.yul\":25341:25342   */\n      dup3\n        /* \"#utility.yul\":25338:25339   */\n      dup3\n        /* \"#utility.yul\":25334:25343   */\n      div\n        /* \"#utility.yul\":25329:25343   */\n      swap1\n      pop\n        /* \"#utility.yul\":25164:25349   */\n      swap3\n      swap2\n      pop\n      pop\n      jump\t// out\n        /* \"#utility.yul\":25355:25703   */\n    tag_135:\n        /* \"#utility.yul\":25395:25402   */\n      0x00\n        /* \"#utility.yul\":25418:25438   */\n      tag_660\n        /* \"#utility.yul\":25436:25437   */\n      dup3\n        /* \"#utility.yul\":25418:25438   */\n      tag_566\n      jump\t// in\n    tag_660:\n        /* \"#utility.yul\":25413:25438   */\n      swap2\n      pop\n        /* \"#utility.yul\":25452:25472   */\n      tag_661\n        /* \"#utility.yul\":25470:25471   */\n      dup4\n        /* \"#utility.yul\":25452:25472   */\n      tag_566\n      jump\t// in\n    tag_661:\n        /* \"#utility.yul\":25447:25472   */\n      swap3\n      pop\n        /* \"#utility.yul\":25640:25641   */\n      dup2\n        /* \"#utility.yul\":25572:25638   */\n      0xffffffffffffffffffffffffffffffffffffffffffffffffffffffffffffffff\n        /* \"#utility.yul\":25568:25642   */\n      div\n        /* \"#utility.yul\":25565:25566   */\n      dup4\n        /* \"#utility.yul\":25562:25643   */\n      gt\n        /* \"#utility.yul\":25557:25558   */\n      dup3\n        /* \"#utility.yul\":25550:25559   */\n      iszero\n        /* \"#utility.yul\":25543:25560   */\n      iszero\n        /* \"#utility.yul\":25539:25644   */\n      and\n        /* \"#utility.yul\":25536:25667   */\n      iszero\n      tag_662\n      jumpi\n        /* \"#utility.yul\":25647:25665   */\n      tag_663\n      tag_652\n      jump\t// in\n    tag_663:\n        /* \"#utility.yul\":25536:25667   */\n    tag_662:\n        /* \"#utility.yul\":25695:25696   */\n      dup3\n        /* \"#utility.yul\":25692:25693   */\n      dup3\n        /* \"#utility.yul\":25688:25697   */\n      mul\n        /* \"#utility.yul\":25677:25697   */\n      swap1\n      pop\n        /* \"#utility.yul\":25355:25703   */\n      swap3\n      swap2\n      pop\n      pop\n      jump\t// out\n        /* \"#utility.yul\":25709:25900   */\n    tag_126:\n        /* \"#utility.yul\":25749:25753   */\n      0x00\n        /* \"#utility.yul\":25769:25789   */\n      tag_665\n        /* \"#utility.yul\":25787:25788   */\n      dup3\n        /* \"#utility.yul\":25769:25789   */\n      tag_566\n      jump\t// in\n    tag_665:\n        /* \"#utility.yul\":25764:25789   */\n      swap2\n      pop\n        /* \"#utility.yul\":25803:25823   */\n      tag_666\n        /* \"#utility.yul\":25821:25822   */\n      dup4\n        /* \"#utility.yul\":25803:25823   */\n      tag_566\n      jump\t// in\n    tag_666:\n        /* \"#utility.yul\":25798:25823   */\n      swap3\n      pop\n        /* \"#utility.yul\":25842:25843   */\n      dup3\n        /* \"#utility.yul\":25839:25840   */\n      dup3\n        /* \"#utility.yul\":25836:25844   */\n      lt\n        /* \"#utility.yul\":25833:25867   */\n      iszero\n      tag_667\n      jumpi\n        /* \"#utility.yul\":25847:25865   */\n      tag_668\n      tag_652\n      jump\t// in\n    tag_668:\n        /* \"#utility.yul\":25833:25867   */\n    tag_667:\n        /* \"#utility.yul\":25892:25893   */\n      dup3\n        /* \"#utility.yul\":25889:25890   */\n      dup3\n        /* \"#utility.yul\":25885:25894   */\n      sub\n        /* \"#utility.yul\":25877:25894   */\n      swap1\n      pop\n        /* \"#utility.yul\":25709:25900   */\n      swap3\n      swap2\n      pop\n      pop\n      jump\t// out\n        /* \"#utility.yul\":25906:26002   */\n    tag_440:\n        /* \"#utility.yul\":25943:25950   */\n      0x00\n        /* \"#utility.yul\":25972:25996   */\n      tag_670\n        /* \"#utility.yul\":25990:25995   */\n      dup3\n        /* \"#utility.yul\":25972:25996   */\n      tag_671\n      jump\t// in\n    tag_670:\n        /* \"#utility.yul\":25961:25996   */\n      swap1\n      pop\n        /* \"#utility.yul\":25906:26002   */\n      swap2\n      swap1\n      pop\n      jump\t// out\n        /* \"#utility.yul\":26008:26098   */\n    tag_461:\n        /* \"#utility.yul\":26042:26049   */\n      0x00\n        /* \"#utility.yul\":26085:26090   */\n      dup2\n        /* \"#utility.yul\":26078:26091   */\n      iszero\n        /* \"#utility.yul\":26071:26092   */\n      iszero\n        /* \"#utility.yul\":26060:26092   */\n      swap1\n      pop\n        /* \"#utility.yul\":26008:26098   */\n      swap2\n      swap1\n      pop\n      jump\t// out\n        /* \"#utility.yul\":26104:26230   */\n    tag_671:\n        /* \"#utility.yul\":26141:26148   */\n      0x00\n        /* \"#utility.yul\":26181:26223   */\n      0xffffffffffffffffffffffffffffffffffffffff\n        /* \"#utility.yul\":26174:26179   */\n      dup3\n        /* \"#utility.yul\":26170:26224   */\n      and\n        /* \"#utility.yul\":26159:26224   */\n      swap1\n      pop\n        /* \"#utility.yul\":26104:26230   */\n      swap2\n      swap1\n      pop\n      jump\t// out\n        /* \"#utility.yul\":26236:26313   */\n    tag_566:\n        /* \"#utility.yul\":26273:26280   */\n      0x00\n        /* \"#utility.yul\":26302:26307   */\n      dup2\n        /* \"#utility.yul\":26291:26307   */\n      swap1\n      pop\n        /* \"#utility.yul\":26236:26313   */\n      swap2\n      swap1\n      pop\n      jump\t// out\n        /* \"#utility.yul\":26319:26440   */\n    tag_468:\n        /* \"#utility.yul\":26377:26386   */\n      0x00\n        /* \"#utility.yul\":26410:26434   */\n      tag_676\n        /* \"#utility.yul\":26428:26433   */\n      dup3\n        /* \"#utility.yul\":26410:26434   */\n      tag_566\n      jump\t// in\n    tag_676:\n        /* \"#utility.yul\":26397:26434   */\n      swap1\n      pop\n        /* \"#utility.yul\":26319:26440   */\n      swap2\n      swap1\n      pop\n      jump\t// out\n        /* \"#utility.yul\":26446:26600   */\n    tag_384:\n        /* \"#utility.yul\":26530:26536   */\n      dup3\n        /* \"#utility.yul\":26525:26528   */\n      dup2\n        /* \"#utility.yul\":26520:26523   */\n      dup4\n        /* \"#utility.yul\":26507:26537   */\n      calldatacopy\n        /* \"#utility.yul\":26592:26593   */\n      0x00\n        /* \"#utility.yul\":26583:26589   */\n      dup4\n        /* \"#utility.yul\":26578:26581   */\n      dup4\n        /* \"#utility.yul\":26574:26590   */\n      add\n        /* \"#utility.yul\":26567:26594   */\n      mstore\n        /* \"#utility.yul\":26446:26600   */\n      pop\n      pop\n      pop\n      jump\t// out\n        /* \"#utility.yul\":26606:26913   */\n    tag_476:\n        /* \"#utility.yul\":26674:26675   */\n      0x00\n        /* \"#utility.yul\":26684:26797   */\n    tag_679:\n        /* \"#utility.yul\":26698:26704   */\n      dup4\n        /* \"#utility.yul\":26695:26696   */\n      dup2\n        /* \"#utility.yul\":26692:26705   */\n      lt\n        /* \"#utility.yul\":26684:26797   */\n      iszero\n      tag_681\n      jumpi\n        /* \"#utility.yul\":26783:26784   */\n      dup1\n        /* \"#utility.yul\":26778:26781   */\n      dup3\n        /* \"#utility.yul\":26774:26785   */\n      add\n        /* \"#utility.yul\":26768:26786   */\n      mload\n        /* \"#utility.yul\":26764:26765   */\n      dup2\n        /* \"#utility.yul\":26759:26762   */\n      dup5\n        /* \"#utility.yul\":26755:26766   */\n      add\n        /* \"#utility.yul\":26748:26787   */\n      mstore\n        /* \"#utility.yul\":26720:26722   */\n      0x20\n        /* \"#utility.yul\":26717:26718   */\n      dup2\n        /* \"#utility.yul\":26713:26723   */\n      add\n        /* \"#utility.yul\":26708:26723   */\n      swap1\n      pop\n        /* \"#utility.yul\":26684:26797   */\n      jump(tag_679)\n    tag_681:\n        /* \"#utility.yul\":26815:26821   */\n      dup4\n        /* \"#utility.yul\":26812:26813   */\n      dup2\n        /* \"#utility.yul\":26809:26822   */\n      gt\n        /* \"#utility.yul\":26806:26907   */\n      iszero\n      tag_682\n      jumpi\n        /* \"#utility.yul\":26895:26896   */\n      0x00\n        /* \"#utility.yul\":26886:26892   */\n      dup5\n        /* \"#utility.yul\":26881:26884   */\n      dup5\n        /* \"#utility.yul\":26877:26893   */\n      add\n        /* \"#utility.yul\":26870:26897   */\n      mstore\n        /* \"#utility.yul\":26806:26907   */\n    tag_682:\n        /* \"#utility.yul\":26655:26913   */\n      pop\n        /* \"#utility.yul\":26606:26913   */\n      pop\n      pop\n      pop\n      jump\t// out\n        /* \"#utility.yul\":26919:27239   */\n    tag_155:\n        /* \"#utility.yul\":26963:26969   */\n      0x00\n        /* \"#utility.yul\":27000:27001   */\n      0x02\n        /* \"#utility.yul\":26994:26998   */\n      dup3\n        /* \"#utility.yul\":26990:27002   */\n      div\n        /* \"#utility.yul\":26980:27002   */\n      swap1\n      pop\n        /* \"#utility.yul\":27047:27048   */\n      0x01\n        /* \"#utility.yul\":27041:27045   */\n      dup3\n        /* \"#utility.yul\":27037:27049   */\n      and\n        /* \"#utility.yul\":27068:27086   */\n      dup1\n        /* \"#utility.yul\":27058:27139   */\n      tag_684\n      jumpi\n        /* \"#utility.yul\":27124:27128   */\n      0x7f\n        /* \"#utility.yul\":27116:27122   */\n      dup3\n        /* \"#utility.yul\":27112:27129   */\n      and\n        /* \"#utility.yul\":27102:27129   */\n      swap2\n      pop\n        /* \"#utility.yul\":27058:27139   */\n    tag_684:\n        /* \"#utility.yul\":27186:27188   */\n      0x20\n        /* \"#utility.yul\":27178:27184   */\n      dup3\n        /* \"#utility.yul\":27175:27189   */\n      lt\n        /* \"#utility.yul\":27155:27173   */\n      dup2\n        /* \"#utility.yul\":27152:27190   */\n      eq\n        /* \"#utility.yul\":27149:27233   */\n      iszero\n      tag_685\n      jumpi\n        /* \"#utility.yul\":27205:27223   */\n      tag_686\n      tag_687\n      jump\t// in\n    tag_686:\n        /* \"#utility.yul\":27149:27233   */\n    tag_685:\n        /* \"#utility.yul\":26970:27239   */\n      pop\n        /* \"#utility.yul\":26919:27239   */\n      swap2\n      swap1\n      pop\n      jump\t// out\n        /* \"#utility.yul\":27245:27526   */\n    tag_633:\n        /* \"#utility.yul\":27328:27355   */\n      tag_689\n        /* \"#utility.yul\":27350:27354   */\n      dup3\n        /* \"#utility.yul\":27328:27355   */\n      tag_478\n      jump\t// in\n    tag_689:\n        /* \"#utility.yul\":27320:27326   */\n      dup2\n        /* \"#utility.yul\":27316:27356   */\n      add\n        /* \"#utility.yul\":27458:27464   */\n      dup2\n        /* \"#utility.yul\":27446:27456   */\n      dup2\n        /* \"#utility.yul\":27443:27465   */\n      lt\n        /* \"#utility.yul\":27422:27440   */\n      0xffffffffffffffff\n        /* \"#utility.yul\":27410:27420   */\n      dup3\n        /* \"#utility.yul\":27407:27441   */\n      gt\n        /* \"#utility.yul\":27404:27466   */\n      or\n        /* \"#utility.yul\":27401:27489   */\n      iszero\n      tag_690\n      jumpi\n        /* \"#utility.yul\":27469:27487   */\n      tag_691\n      tag_638\n      jump\t// in\n    tag_691:\n        /* \"#utility.yul\":27401:27489   */\n    tag_690:\n        /* \"#utility.yul\":27509:27519   */\n      dup1\n        /* \"#utility.yul\":27505:27507   */\n      0x40\n        /* \"#utility.yul\":27498:27520   */\n      mstore\n        /* \"#utility.yul\":27288:27526   */\n      pop\n        /* \"#utility.yul\":27245:27526   */\n      pop\n      pop\n      jump\t// out\n        /* \"#utility.yul\":27532:27765   */\n    tag_223:\n        /* \"#utility.yul\":27571:27574   */\n      0x00\n        /* \"#utility.yul\":27594:27618   */\n      tag_693\n        /* \"#utility.yul\":27612:27617   */\n      dup3\n        /* \"#utility.yul\":27594:27618   */\n      tag_566\n      jump\t// in\n    tag_693:\n        /* \"#utility.yul\":27585:27618   */\n      swap2\n      pop\n        /* \"#utility.yul\":27640:27706   */\n      0xffffffffffffffffffffffffffffffffffffffffffffffffffffffffffffffff\n        /* \"#utility.yul\":27633:27638   */\n      dup3\n        /* \"#utility.yul\":27630:27707   */\n      eq\n        /* \"#utility.yul\":27627:27730   */\n      iszero\n      tag_694\n      jumpi\n        /* \"#utility.yul\":27710:27728   */\n      tag_695\n      tag_652\n      jump\t// in\n    tag_695:\n        /* \"#utility.yul\":27627:27730   */\n    tag_694:\n        /* \"#utility.yul\":27757:27758   */\n      0x01\n        /* \"#utility.yul\":27750:27755   */\n      dup3\n        /* \"#utility.yul\":27746:27759   */\n      add\n        /* \"#utility.yul\":27739:27759   */\n      swap1\n      pop\n        /* \"#utility.yul\":27532:27765   */\n      swap2\n      swap1\n      pop\n      jump\t// out\n        /* \"#utility.yul\":27771:27951   */\n    tag_652:\n        /* \"#utility.yul\":27819:27896   */\n      0x4e487b7100000000000000000000000000000000000000000000000000000000\n        /* \"#utility.yul\":27816:27817   */\n      0x00\n        /* \"#utility.yul\":27809:27897   */\n      mstore\n        /* \"#utility.yul\":27916:27920   */\n      0x11\n        /* \"#utility.yul\":27913:27914   */\n      0x04\n        /* \"#utility.yul\":27906:27921   */\n      mstore\n        /* \"#utility.yul\":27940:27944   */\n      0x24\n        /* \"#utility.yul\":27937:27938   */\n      0x00\n        /* \"#utility.yul\":27930:27945   */\n      revert\n        /* \"#utility.yul\":27957:28137   */\n    tag_658:\n        /* \"#utility.yul\":28005:28082   */\n      0x4e487b7100000000000000000000000000000000000000000000000000000000\n        /* \"#utility.yul\":28002:28003   */\n      0x00\n        /* \"#utility.yul\":27995:28083   */\n      mstore\n        /* \"#utility.yul\":28102:28106   */\n      0x12\n        /* \"#utility.yul\":28099:28100   */\n      0x04\n        /* \"#utility.yul\":28092:28107   */\n      mstore\n        /* \"#utility.yul\":28126:28130   */\n      0x24\n        /* \"#utility.yul\":28123:28124   */\n      0x00\n        /* \"#utility.yul\":28116:28131   */\n      revert\n        /* \"#utility.yul\":28143:28323   */\n    tag_687:\n        /* \"#utility.yul\":28191:28268   */\n      0x4e487b7100000000000000000000000000000000000000000000000000000000\n        /* \"#utility.yul\":28188:28189   */\n      0x00\n        /* \"#utility.yul\":28181:28269   */\n      mstore\n        /* \"#utility.yul\":28288:28292   */\n      0x22\n        /* \"#utility.yul\":28285:28286   */\n      0x04\n        /* \"#utility.yul\":28278:28293   */\n      mstore\n        /* \"#utility.yul\":28312:28316   */\n      0x24\n        /* \"#utility.yul\":28309:28310   */\n      0x00\n        /* \"#utility.yul\":28302:28317   */\n      revert\n        /* \"#utility.yul\":28329:28509   */\n    tag_220:\n        /* \"#utility.yul\":28377:28454   */\n      0x4e487b7100000000000000000000000000000000000000000000000000000000\n        /* \"#utility.yul\":28374:28375   */\n      0x00\n        /* \"#utility.yul\":28367:28455   */\n      mstore\n        /* \"#utility.yul\":28474:28478   */\n      0x31\n        /* \"#utility.yul\":28471:28472   */\n      0x04\n        /* \"#utility.yul\":28464:28479   */\n      mstore\n        /* \"#utility.yul\":28498:28502   */\n      0x24\n        /* \"#utility.yul\":28495:28496   */\n      0x00\n        /* \"#utility.yul\":28488:28503   */\n      revert\n        /* \"#utility.yul\":28515:28695   */\n    tag_132:\n        /* \"#utility.yul\":28563:28640   */\n      0x4e487b7100000000000000000000000000000000000000000000000000000000\n        /* \"#utility.yul\":28560:28561   */\n      0x00\n        /* \"#utility.yul\":28553:28641   */\n      mstore\n        /* \"#utility.yul\":28660:28664   */\n      0x32\n        /* \"#utility.yul\":28657:28658   */\n      0x04\n        /* \"#utility.yul\":28650:28665   */\n      mstore\n        /* \"#utility.yul\":28684:28688   */\n      0x24\n        /* \"#utility.yul\":28681:28682   */\n      0x00\n        /* \"#utility.yul\":28674:28689   */\n      revert\n        /* \"#utility.yul\":28701:28881   */\n    tag_638:\n        /* \"#utility.yul\":28749:28826   */\n      0x4e487b7100000000000000000000000000000000000000000000000000000000\n        /* \"#utility.yul\":28746:28747   */\n      0x00\n        /* \"#utility.yul\":28739:28827   */\n      mstore\n        /* \"#utility.yul\":28846:28850   */\n      0x41\n        /* \"#utility.yul\":28843:28844   */\n      0x04\n        /* \"#utility.yul\":28836:28851   */\n      mstore\n        /* \"#utility.yul\":28870:28874   */\n      0x24\n        /* \"#utility.yul\":28867:28868   */\n      0x00\n        /* \"#utility.yul\":28860:28875   */\n      revert\n        /* \"#utility.yul\":28887:29004   */\n    tag_397:\n        /* \"#utility.yul\":28996:28997   */\n      0x00\n        /* \"#utility.yul\":28993:28994   */\n      dup1\n        /* \"#utility.yul\":28986:28998   */\n      revert\n        /* \"#utility.yul\":29010:29127   */\n    tag_382:\n        /* \"#utility.yul\":29119:29120   */\n      0x00\n        /* \"#utility.yul\":29116:29117   */\n      dup1\n        /* \"#utility.yul\":29109:29121   */\n      revert\n        /* \"#utility.yul\":29133:29250   */\n    tag_418:\n        /* \"#utility.yul\":29242:29243   */\n      0x00\n        /* \"#utility.yul\":29239:29240   */\n      dup1\n        /* \"#utility.yul\":29232:29244   */\n      revert\n        /* \"#utility.yul\":29256:29373   */\n    tag_409:\n        /* \"#utility.yul\":29365:29366   */\n      0x00\n        /* \"#utility.yul\":29362:29363   */\n      dup1\n        /* \"#utility.yul\":29355:29367   */\n      revert\n        /* \"#utility.yul\":29379:29481   */\n    tag_478:\n        /* \"#utility.yul\":29420:29426   */\n      0x00\n        /* \"#utility.yul\":29471:29473   */\n      0x1f\n        /* \"#utility.yul\":29467:29474   */\n      not\n        /* \"#utility.yul\":29462:29464   */\n      0x1f\n        /* \"#utility.yul\":29455:29460   */\n      dup4\n        /* \"#utility.yul\":29451:29465   */\n      add\n        /* \"#utility.yul\":29447:29475   */\n      and\n        /* \"#utility.yul\":29437:29475   */\n      swap1\n      pop\n        /* \"#utility.yul\":29379:29481   */\n      swap2\n      swap1\n      pop\n      jump\t// out\n        /* \"#utility.yul\":29487:29655   */\n    tag_484:\n        /* \"#utility.yul\":29627:29647   */\n      0x596f7520617265206e6f74207374616b65640000000000000000000000000000\n        /* \"#utility.yul\":29623:29624   */\n      0x00\n        /* \"#utility.yul\":29615:29621   */\n      dup3\n        /* \"#utility.yul\":29611:29625   */\n      add\n        /* \"#utility.yul\":29604:29648   */\n      mstore\n        /* \"#utility.yul\":29487:29655   */\n      pop\n      jump\t// out\n        /* \"#utility.yul\":29661:29830   */\n    tag_489:\n        /* \"#utility.yul\":29801:29822   */\n      0x546f6b656e73206e6f7420617070726f76656400000000000000000000000000\n        /* \"#utility.yul\":29797:29798   */\n      0x00\n        /* \"#utility.yul\":29789:29795   */\n      dup3\n        /* \"#utility.yul\":29785:29799   */\n      add\n        /* \"#utility.yul\":29778:29823   */\n      mstore\n        /* \"#utility.yul\":29661:29830   */\n      pop\n      jump\t// out\n        /* \"#utility.yul\":29836:30005   */\n    tag_494:\n        /* \"#utility.yul\":29976:29997   */\n      0x4e6f7468696e6720746f20776974686472617700000000000000000000000000\n        /* \"#utility.yul\":29972:29973   */\n      0x00\n        /* \"#utility.yul\":29964:29970   */\n      dup3\n        /* \"#utility.yul\":29960:29974   */\n      add\n        /* \"#utility.yul\":29953:29998   */\n      mstore\n        /* \"#utility.yul\":29836:30005   */\n      pop\n      jump\t// out\n        /* \"#utility.yul\":30011:30236   */\n    tag_499:\n        /* \"#utility.yul\":30151:30185   */\n      0x4f776e61626c653a206e6577206f776e657220697320746865207a65726f2061\n        /* \"#utility.yul\":30147:30148   */\n      0x00\n        /* \"#utility.yul\":30139:30145   */\n      dup3\n        /* \"#utility.yul\":30135:30149   */\n      add\n        /* \"#utility.yul\":30128:30186   */\n      mstore\n        /* \"#utility.yul\":30220:30228   */\n      0x6464726573730000000000000000000000000000000000000000000000000000\n        /* \"#utility.yul\":30215:30217   */\n      0x20\n        /* \"#utility.yul\":30207:30213   */\n      dup3\n        /* \"#utility.yul\":30203:30218   */\n      add\n        /* \"#utility.yul\":30196:30229   */\n      mstore\n        /* \"#utility.yul\":30011:30236   */\n      pop\n      jump\t// out\n        /* \"#utility.yul\":30242:30411   */\n    tag_504:\n        /* \"#utility.yul\":30382:30403   */\n      0x4461696c79206c696d6974207265616368656400000000000000000000000000\n        /* \"#utility.yul\":30378:30379   */\n      0x00\n        /* \"#utility.yul\":30370:30376   */\n      dup3\n        /* \"#utility.yul\":30366:30380   */\n      add\n        /* \"#utility.yul\":30359:30404   */\n      mstore\n        /* \"#utility.yul\":30242:30411   */\n      pop\n      jump\t// out\n        /* \"#utility.yul\":30417:30595   */\n    tag_509:\n        /* \"#utility.yul\":30557:30587   */\n      0x596f752063616e2774207374616b6520696e207468697320706f6f6c00000000\n        /* \"#utility.yul\":30553:30554   */\n      0x00\n        /* \"#utility.yul\":30545:30551   */\n      dup3\n        /* \"#utility.yul\":30541:30555   */\n      add\n        /* \"#utility.yul\":30534:30588   */\n      mstore\n        /* \"#utility.yul\":30417:30595   */\n      pop\n      jump\t// out\n        /* \"#utility.yul\":30601:30773   */\n    tag_514:\n        /* \"#utility.yul\":30741:30765   */\n      0x496e76616c696420726577617264206164647265737300000000000000000000\n        /* \"#utility.yul\":30737:30738   */\n      0x00\n        /* \"#utility.yul\":30729:30735   */\n      dup3\n        /* \"#utility.yul\":30725:30739   */\n      add\n        /* \"#utility.yul\":30718:30766   */\n      mstore\n        /* \"#utility.yul\":30601:30773   */\n      pop\n      jump\t// out\n        /* \"#utility.yul\":30779:30950   */\n    tag_519:\n        /* \"#utility.yul\":30919:30942   */\n      0x496e76616c6964207374616b6520616464726573730000000000000000000000\n        /* \"#utility.yul\":30915:30916   */\n      0x00\n        /* \"#utility.yul\":30907:30913   */\n      dup3\n        /* \"#utility.yul\":30903:30917   */\n      add\n        /* \"#utility.yul\":30896:30943   */\n      mstore\n        /* \"#utility.yul\":30779:30950   */\n      pop\n      jump\t// out\n        /* \"#utility.yul\":30956:31138   */\n    tag_524:\n        /* \"#utility.yul\":31096:31130   */\n      0x4f776e61626c653a2063616c6c6572206973206e6f7420746865206f776e6572\n        /* \"#utility.yul\":31092:31093   */\n      0x00\n        /* \"#utility.yul\":31084:31090   */\n      dup3\n        /* \"#utility.yul\":31080:31094   */\n      add\n        /* \"#utility.yul\":31073:31131   */\n      mstore\n        /* \"#utility.yul\":30956:31138   */\n      pop\n      jump\t// out\n        /* \"#utility.yul\":31144:31306   */\n    tag_529:\n        /* \"#utility.yul\":31284:31298   */\n      0x506f6f6c20657869737473210000000000000000000000000000000000000000\n        /* \"#utility.yul\":31280:31281   */\n      0x00\n        /* \"#utility.yul\":31272:31278   */\n      dup3\n        /* \"#utility.yul\":31268:31282   */\n      add\n        /* \"#utility.yul\":31261:31299   */\n      mstore\n        /* \"#utility.yul\":31144:31306   */\n      pop\n      jump\t// out\n        /* \"#utility.yul\":31312:31534   */\n    tag_534:\n        /* \"#utility.yul\":31452:31486   */\n      0x5374616b696e6720616d6f756e74206973206c657373207468656e206d696e69\n        /* \"#utility.yul\":31448:31449   */\n      0x00\n        /* \"#utility.yul\":31440:31446   */\n      dup3\n        /* \"#utility.yul\":31436:31450   */\n      add\n        /* \"#utility.yul\":31429:31487   */\n      mstore\n        /* \"#utility.yul\":31521:31526   */\n      0x6d756d0000000000000000000000000000000000000000000000000000000000\n        /* \"#utility.yul\":31516:31518   */\n      0x20\n        /* \"#utility.yul\":31508:31514   */\n      dup3\n        /* \"#utility.yul\":31504:31519   */\n      add\n        /* \"#utility.yul\":31497:31527   */\n      mstore\n        /* \"#utility.yul\":31312:31534   */\n      pop\n      jump\t// out\n        /* \"#utility.yul\":31540:31708   */\n    tag_539:\n        /* \"#utility.yul\":31680:31700   */\n      0x596f7520616c7265616479207374616b65640000000000000000000000000000\n        /* \"#utility.yul\":31676:31677   */\n      0x00\n        /* \"#utility.yul\":31668:31674   */\n      dup3\n        /* \"#utility.yul\":31664:31678   */\n      add\n        /* \"#utility.yul\":31657:31701   */\n      mstore\n        /* \"#utility.yul\":31540:31708   */\n      pop\n      jump\t// out\n        /* \"#utility.yul\":31714:31893   */\n    tag_544:\n        /* \"#utility.yul\":31854:31885   */\n      0x596f752063616e2774207472616e736665722074686520746f6b656e73000000\n        /* \"#utility.yul\":31850:31851   */\n      0x00\n        /* \"#utility.yul\":31842:31848   */\n      dup3\n        /* \"#utility.yul\":31838:31852   */\n      add\n        /* \"#utility.yul\":31831:31886   */\n      mstore\n        /* \"#utility.yul\":31714:31893   */\n      pop\n      jump\t// out\n        /* \"#utility.yul\":31899:32068   */\n    tag_549:\n        /* \"#utility.yul\":32039:32060   */\n      0x43616e6e6f742063616e63656c20706f6f6c2100000000000000000000000000\n        /* \"#utility.yul\":32035:32036   */\n      0x00\n        /* \"#utility.yul\":32027:32033   */\n      dup3\n        /* \"#utility.yul\":32023:32037   */\n      add\n        /* \"#utility.yul\":32016:32061   */\n      mstore\n        /* \"#utility.yul\":31899:32068   */\n      pop\n      jump\t// out\n        /* \"#utility.yul\":32074:32196   */\n    tag_388:\n        /* \"#utility.yul\":32147:32171   */\n      tag_722\n        /* \"#utility.yul\":32165:32170   */\n      dup2\n        /* \"#utility.yul\":32147:32171   */\n      tag_440\n      jump\t// in\n    tag_722:\n        /* \"#utility.yul\":32140:32145   */\n      dup2\n        /* \"#utility.yul\":32137:32172   */\n      eq\n        /* \"#utility.yul\":32127:32190   */\n      tag_723\n      jumpi\n        /* \"#utility.yul\":32186:32187   */\n      0x00\n        /* \"#utility.yul\":32183:32184   */\n      dup1\n        /* \"#utility.yul\":32176:32188   */\n      revert\n        /* \"#utility.yul\":32127:32190   */\n    tag_723:\n        /* \"#utility.yul\":32074:32196   */\n      pop\n      jump\t// out\n        /* \"#utility.yul\":32202:32318   */\n    tag_392:\n        /* \"#utility.yul\":32272:32293   */\n      tag_725\n        /* \"#utility.yul\":32287:32292   */\n      dup2\n        /* \"#utility.yul\":32272:32293   */\n      tag_461\n      jump\t// in\n    tag_725:\n        /* \"#utility.yul\":32265:32270   */\n      dup2\n        /* \"#utility.yul\":32262:32294   */\n      eq\n        /* \"#utility.yul\":32252:32312   */\n      tag_726\n      jumpi\n        /* \"#utility.yul\":32308:32309   */\n      0x00\n        /* \"#utility.yul\":32305:32306   */\n      dup1\n        /* \"#utility.yul\":32298:32310   */\n      revert\n        /* \"#utility.yul\":32252:32312   */\n    tag_726:\n        /* \"#utility.yul\":32202:32318   */\n      pop\n      jump\t// out\n        /* \"#utility.yul\":32324:32446   */\n    tag_402:\n        /* \"#utility.yul\":32397:32421   */\n      tag_728\n        /* \"#utility.yul\":32415:32420   */\n      dup2\n        /* \"#utility.yul\":32397:32421   */\n      tag_566\n      jump\t// in\n    tag_728:\n        /* \"#utility.yul\":32390:32395   */\n      dup2\n        /* \"#utility.yul\":32387:32422   */\n      eq\n        /* \"#utility.yul\":32377:32440   */\n      tag_729\n      jumpi\n        /* \"#utility.yul\":32436:32437   */\n      0x00\n        /* \"#utility.yul\":32433:32434   */\n      dup1\n        /* \"#utility.yul\":32426:32438   */\n      revert\n        /* \"#utility.yul\":32377:32440   */\n    tag_729:\n        /* \"#utility.yul\":32324:32446   */\n      pop\n      jump\t// out\n\n    auxdata: 0xa26469706673582212208613efb70139b0c84c2392acb8ebd90c07902350392e0916d120ffe63156ffa564736f6c63430008070033\n}\n",
				"bytecode": {
					"linkReferences": {},
					"object": "6080604052683635c9adc5dea0000060015569d3c21bcecceda10000006002556000600360006101000a81548160ff0219169083151502179055503480156200004757600080fd5b50620000686200005c6200006e60201b60201c565b6200007660201b60201c565b6200013a565b600033905090565b60008060009054906101000a900473ffffffffffffffffffffffffffffffffffffffff169050816000806101000a81548173ffffffffffffffffffffffffffffffffffffffff021916908373ffffffffffffffffffffffffffffffffffffffff1602179055508173ffffffffffffffffffffffffffffffffffffffff168173ffffffffffffffffffffffffffffffffffffffff167f8be0079c531659141344cd1fd0a4f28419497f9722a3daafe3b4186f6b6457e060405160405180910390a35050565b6131f8806200014a6000396000f3fe60806040526004361061012a5760003560e01c80638da5cb5b116100ab578063e36c723b1161006f578063e36c723b146103ab578063e7732d0a146103d4578063f1887684146103ff578063f2fde38b1461042a578063f41322ac14610453578063fd9a4e61146104905761012a565b80638da5cb5b146102fb578063a694fc3a14610326578063c089bd7414610342578063d21cb76e1461036b578063da906bf6146103945761012a565b80634d307e3f116100f25780634d307e3f1461023c57806360246c881461027957806360c18315146102a4578063715018a6146102cd57806373cf575a146102e45761012a565b80630d2f03741461012f57806314e1b95b1461016c57806320867caa1461019757806334381749146101d45780633ccfd60b14610211575b600080fd5b34801561013b57600080fd5b50610156600480360381019061015191906122ec565b6104b9565b6040516101639190612a80565b60405180910390f35b34801561017857600080fd5b506101816104e7565b60405161018e9190612a80565b60405180910390f35b3480156101a357600080fd5b506101be60048036038101906101b9919061220f565b6104ed565b6040516101cb9190612846565b60405180910390f35b3480156101e057600080fd5b506101fb60048036038101906101f6919061220f565b610584565b6040516102089190612a80565b60405180910390f35b34801561021d57600080fd5b50610226610725565b6040516102339190612868565b60405180910390f35b34801561024857600080fd5b50610263600480360381019061025e919061220f565b610737565b6040516102709190612a80565b60405180910390f35b34801561028557600080fd5b5061028e61080b565b60405161029b9190612a43565b60405180910390f35b3480156102b057600080fd5b506102cb60048036038101906102c6919061223c565b6109b3565b005b3480156102d957600080fd5b506102e2610c75565b005b3480156102f057600080fd5b506102f9610c89565b005b34801561030757600080fd5b50610310611242565b60405161031d9190612726565b60405180910390f35b610340600480360381019061033b91906122ec565b61126b565b005b34801561034e57600080fd5b50610369600480360381019061036491906122ec565b611814565b005b34801561037757600080fd5b50610392600480360381019061038d91906122ec565b6118f5565b005b3480156103a057600080fd5b506103a9611907565b005b3480156103b757600080fd5b506103d260048036038101906103cd91906122ec565b6119ec565b005b3480156103e057600080fd5b506103e96119fe565b6040516103f69190612868565b60405180910390f35b34801561040b57600080fd5b50610414611a39565b6040516104219190612a80565b60405180910390f35b34801561043657600080fd5b50610451600480360381019061044c919061220f565b611a3f565b005b34801561045f57600080fd5b5061047a6004803603810190610475919061220f565b611ac3565b6040516104879190612a65565b60405180910390f35b34801561049c57600080fd5b506104b760048036038101906104b291906122ec565b611b66565b005b6000600660008381526020019081526020016000206000808152602001908152602001600020549050919050565b60025481565b6060600560008373ffffffffffffffffffffffffffffffffffffffff1673ffffffffffffffffffffffffffffffffffffffff16815260200190815260200160002080548060200260200160405190810160405280929190818152602001828054801561057857602002820191906000526020600020905b815481526020019060010190808311610564575b50505050509050919050565b60008060b4426105949190612c38565b90506000600760008573ffffffffffffffffffffffffffffffffffffffff1673ffffffffffffffffffffffffffffffffffffffff16815260200190815260200160002060008081526020019081526020016000206002015482111561065957600760008573ffffffffffffffffffffffffffffffffffffffff1673ffffffffffffffffffffffffffffffffffffffff168152602001908152602001600020600080815260200190815260200160002060020154826106529190612c38565b9050610664565b600092505050610720565b60006064600460008154811061067d5761067c612e70565b5b906000526020600020906006020160050154600760008873ffffffffffffffffffffffffffffffffffffffff1673ffffffffffffffffffffffffffffffffffffffff1681526020019081526020016000206000808152602001908152602001600020600101546106ed9190612bde565b6106f79190612bad565b905060006301e13380838361070c9190612bde565b6107169190612bad565b9050809450505050505b919050565b600061073033611cfb565b6001905090565b600080600760008473ffffffffffffffffffffffffffffffffffffffff1673ffffffffffffffffffffffffffffffffffffffff1681526020019081526020016000206000808152602001908152602001600020600101541461080157600760008373ffffffffffffffffffffffffffffffffffffffff1673ffffffffffffffffffffffffffffffffffffffff1681526020019081526020016000206000808152602001908152602001600020600301546107f083610584565b6107fa9190612c38565b9050610806565b600090505b919050565b61081361201a565b600460008154811061082857610827612e70565b5b90600052602060002090600602016040518060c00160405290816000820160009054906101000a900473ffffffffffffffffffffffffffffffffffffffff1673ffffffffffffffffffffffffffffffffffffffff1673ffffffffffffffffffffffffffffffffffffffff1681526020016001820160009054906101000a900473ffffffffffffffffffffffffffffffffffffffff1673ffffffffffffffffffffffffffffffffffffffff1673ffffffffffffffffffffffffffffffffffffffff1681526020016002820154815260200160038201805461090790612d08565b80601f016020809104026020016040519081016040528092919081815260200182805461093390612d08565b80156109805780601f1061095557610100808354040283529160200191610980565b820191906000526020600020905b81548152906001019060200180831161096357829003601f168201915b505050505081526020016004820160009054906101000a900460ff16151515158152602001600582015481525050905090565b6109bb611ed0565b600360009054906101000a900460ff1615610a0b576040517f08c379a0000000000000000000000000000000000000000000000000000000008152600401610a02906129a3565b60405180910390fd5b600073ffffffffffffffffffffffffffffffffffffffff168473ffffffffffffffffffffffffffffffffffffffff161415610a7b576040517f08c379a0000000000000000000000000000000000000000000000000000000008152600401610a7290612963565b60405180910390fd5b600073ffffffffffffffffffffffffffffffffffffffff168373ffffffffffffffffffffffffffffffffffffffff161415610aeb576040517f08c379a0000000000000000000000000000000000000000000000000000000008152600401610ae290612943565b60405180910390fd5b60046040518060c001604052808673ffffffffffffffffffffffffffffffffffffffff1681526020018573ffffffffffffffffffffffffffffffffffffffff1681526020016000815260200184815260200160001515815260200183815250908060018154018082558091505060019003906000526020600020906006020160009091909190915060008201518160000160006101000a81548173ffffffffffffffffffffffffffffffffffffffff021916908373ffffffffffffffffffffffffffffffffffffffff16021790555060208201518160010160006101000a81548173ffffffffffffffffffffffffffffffffffffffff021916908373ffffffffffffffffffffffffffffffffffffffff160217905550604082015181600201556060820151816003019080519060200190610c2792919061207e565b5060808201518160040160006101000a81548160ff02191690831515021790555060a0820151816005015550506001600360006101000a81548160ff02191690831515021790555050505050565b610c7d611ed0565b610c876000611f4e565b565b600760003373ffffffffffffffffffffffffffffffffffffffff1673ffffffffffffffffffffffffffffffffffffffff168152602001908152602001600020600080815260200190815260200160002060000160009054906101000a900460ff16610d29576040517f08c379a0000000000000000000000000000000000000000000000000000000008152600401610d2090612883565b60405180910390fd5b6000610d3433610737565b1115610d4457610d4333611cfb565b5b6004600081548110610d5957610d58612e70565b5b906000526020600020906006020160000160009054906101000a900473ffffffffffffffffffffffffffffffffffffffff1673ffffffffffffffffffffffffffffffffffffffff1663a9059cbb33600760003373ffffffffffffffffffffffffffffffffffffffff1673ffffffffffffffffffffffffffffffffffffffff1681526020019081526020016000206000808152602001908152602001600020600101546040518363ffffffff1660e01b8152600401610e189291906127a1565b602060405180830381600087803b158015610e3257600080fd5b505af1158015610e46573d6000803e3d6000fd5b505050506040513d601f19601f82011682018060405250810190610e6a91906122bf565b507f54a9763035584fc4fcad1bc4e0e7a83f93e016f50ae32bd527530a77257393ee33600760003373ffffffffffffffffffffffffffffffffffffffff1673ffffffffffffffffffffffffffffffffffffffff16815260200190815260200160002060008081526020019081526020016000206001015442604051610ef19392919061280f565b60405180910390a1600760003373ffffffffffffffffffffffffffffffffffffffff1673ffffffffffffffffffffffffffffffffffffffff1681526020019081526020016000206000808152602001908152602001600020600101546004600081548110610f6257610f61612e70565b5b90600052602060002090600602016002016000828254610f829190612c38565b9250508190555060005b600560003373ffffffffffffffffffffffffffffffffffffffff1673ffffffffffffffffffffffffffffffffffffffff168152602001908152602001600020805490508110156111c0576000600560003373ffffffffffffffffffffffffffffffffffffffff1673ffffffffffffffffffffffffffffffffffffffff168152602001908152602001600020828154811061102957611028612e70565b5b906000526020600020015414156111ad57600560003373ffffffffffffffffffffffffffffffffffffffff1673ffffffffffffffffffffffffffffffffffffffff1681526020019081526020016000206001600560003373ffffffffffffffffffffffffffffffffffffffff1673ffffffffffffffffffffffffffffffffffffffff168152602001908152602001600020805490506110c89190612c38565b815481106110d9576110d8612e70565b5b9060005260206000200154600560003373ffffffffffffffffffffffffffffffffffffffff1673ffffffffffffffffffffffffffffffffffffffff168152602001908152602001600020828154811061113557611134612e70565b5b9060005260206000200181905550600560003373ffffffffffffffffffffffffffffffffffffffff1673ffffffffffffffffffffffffffffffffffffffff16815260200190815260200160002080548061119257611191612e41565b5b600190038181906000526020600020016000905590556111c0565b80806111b890612d6b565b915050610f8c565b50600760003373ffffffffffffffffffffffffffffffffffffffff1673ffffffffffffffffffffffffffffffffffffffff1681526020019081526020016000206000808152602001908152602001600020600080820160006101000a81549060ff02191690556001820160009055600282016000905560038201600090555050565b60008060009054906101000a900473ffffffffffffffffffffffffffffffffffffffff16905090565b600760003373ffffffffffffffffffffffffffffffffffffffff1673ffffffffffffffffffffffffffffffffffffffff168152602001908152602001600020600080815260200190815260200160002060000160009054906101000a900460ff161561130c576040517f08c379a0000000000000000000000000000000000000000000000000000000008152600401611303906129e3565b60405180910390fd5b600460008154811061132157611320612e70565b5b906000526020600020906006020160040160009054906101000a900460ff1615611380576040517f08c379a000000000000000000000000000000000000000000000000000000000815260040161137790612923565b60405180910390fd5b80600460008154811061139657611395612e70565b5b906000526020600020906006020160000160009054906101000a900473ffffffffffffffffffffffffffffffffffffffff1673ffffffffffffffffffffffffffffffffffffffff1663dd62ed3e33306040518363ffffffff1660e01b8152600401611402929190612741565b60206040518083038186803b15801561141a57600080fd5b505afa15801561142e573d6000803e3d6000fd5b505050506040513d601f19601f820116820180604052508101906114529190612319565b1015611493576040517f08c379a000000000000000000000000000000000000000000000000000000000815260040161148a906128a3565b60405180910390fd5b60046000815481106114a8576114a7612e70565b5b906000526020600020906006020160000160009054906101000a900473ffffffffffffffffffffffffffffffffffffffff1673ffffffffffffffffffffffffffffffffffffffff166323b872dd3330846040518463ffffffff1660e01b81526004016115169392919061276a565b602060405180830381600087803b15801561153057600080fd5b505af1158015611544573d6000803e3d6000fd5b505050506040513d601f19601f8201168201806040525081019061156891906122bf565b50600254816006600062015180426115809190612bad565b81526020019081526020016000206000808152602001908152602001600020546115aa9190612b57565b11156115eb576040517f08c379a00000000000000000000000000000000000000000000000000000000081526004016115e290612903565b60405180910390fd5b600154811015611630576040517f08c379a0000000000000000000000000000000000000000000000000000000008152600401611627906129c3565b60405180910390fd5b60405180608001604052806001151581526020018281526020014281526020016000815250600760003373ffffffffffffffffffffffffffffffffffffffff1673ffffffffffffffffffffffffffffffffffffffff168152602001908152602001600020600080815260200190815260200160002060008201518160000160006101000a81548160ff021916908315150217905550602082015181600101556040820151816002015560608201518160030155905050806006600062015180426116fa9190612bad565b8152602001908152602001600020600080815260200190815260200160002060008282546117289190612b57565b9250508190555080600460008154811061174557611744612e70565b5b906000526020600020906006020160020160008282546117659190612b57565b92505081905550600560003373ffffffffffffffffffffffffffffffffffffffff1673ffffffffffffffffffffffffffffffffffffffff168152602001908152602001600020600090806001815401808255809150506001900390600052602060002001600090919091909150557ff556991011e831bcfac4f406d547e5e32cdd98267efab83935230d5f8d02c446338260004260405161180994939291906127ca565b60405180910390a150565b61181c611ed0565b600460008154811061183157611830612e70565b5b906000526020600020906006020160010160009054906101000a900473ffffffffffffffffffffffffffffffffffffffff1673ffffffffffffffffffffffffffffffffffffffff166323b872dd3330846040518463ffffffff1660e01b815260040161189f9392919061276a565b602060405180830381600087803b1580156118b957600080fd5b505af11580156118cd573d6000803e3d6000fd5b505050506040513d601f19601f820116820180604052508101906118f191906122bf565b5050565b6118fd611ed0565b8060028190555050565b61190f611ed0565b6000600460008154811061192657611925612e70565b5b90600052602060002090600602016002015414611978576040517f08c379a000000000000000000000000000000000000000000000000000000000815260040161196f90612a23565b60405180910390fd5b600460008154811061198d5761198c612e70565b5b906000526020600020906006020160040160009054906101000a900460ff161560046000815481106119c2576119c1612e70565b5b906000526020600020906006020160040160006101000a81548160ff021916908315150217905550565b6119f4611ed0565b8060018190555050565b60006004600081548110611a1557611a14612e70565b5b906000526020600020906006020160040160009054906101000a900460ff16905090565b60015481565b611a47611ed0565b600073ffffffffffffffffffffffffffffffffffffffff168173ffffffffffffffffffffffffffffffffffffffff161415611ab7576040517f08c379a0000000000000000000000000000000000000000000000000000000008152600401611aae906128e3565b60405180910390fd5b611ac081611f4e565b50565b611acb612104565b600760008373ffffffffffffffffffffffffffffffffffffffff1673ffffffffffffffffffffffffffffffffffffffff16815260200190815260200160002060008081526020019081526020016000206040518060800160405290816000820160009054906101000a900460ff1615151515815260200160018201548152602001600282015481526020016003820154815250509050919050565b611b6e611ed0565b600073ffffffffffffffffffffffffffffffffffffffff166004600081548110611b9b57611b9a612e70565b5b906000526020600020906006020160010160009054906101000a900473ffffffffffffffffffffffffffffffffffffffff1673ffffffffffffffffffffffffffffffffffffffff161415611c24576040517f08c379a0000000000000000000000000000000000000000000000000000000008152600401611c1b90612a03565b60405180910390fd5b6004600081548110611c3957611c38612e70565b5b906000526020600020906006020160010160009054906101000a900473ffffffffffffffffffffffffffffffffffffffff1673ffffffffffffffffffffffffffffffffffffffff1663a9059cbb33836040518363ffffffff1660e01b8152600401611ca59291906127a1565b602060405180830381600087803b158015611cbf57600080fd5b505af1158015611cd3573d6000803e3d6000fd5b505050506040513d601f19601f82011682018060405250810190611cf791906122bf565b5050565b6000611d0682610737565b11611d46576040517f08c379a0000000000000000000000000000000000000000000000000000000008152600401611d3d906128c3565b60405180910390fd5b6000611d5182610737565b90506004600081548110611d6857611d67612e70565b5b906000526020600020906006020160010160009054906101000a900473ffffffffffffffffffffffffffffffffffffffff1673ffffffffffffffffffffffffffffffffffffffff1663a9059cbb33836040518363ffffffff1660e01b8152600401611dd49291906127a1565b602060405180830381600087803b158015611dee57600080fd5b505af1158015611e02573d6000803e3d6000fd5b505050506040513d601f19601f82011682018060405250810190611e2691906122bf565b5080600760008473ffffffffffffffffffffffffffffffffffffffff1673ffffffffffffffffffffffffffffffffffffffff16815260200190815260200160002060008081526020019081526020016000206003016000828254611e8a9190612b57565b925050819055507fdf273cb619d95419a9cd0ec88123a0538c85064229baa6363788f743fff90deb828242604051611ec49392919061280f565b60405180910390a15050565b611ed8612012565b73ffffffffffffffffffffffffffffffffffffffff16611ef6611242565b73ffffffffffffffffffffffffffffffffffffffff1614611f4c576040517f08c379a0000000000000000000000000000000000000000000000000000000008152600401611f4390612983565b60405180910390fd5b565b60008060009054906101000a900473ffffffffffffffffffffffffffffffffffffffff169050816000806101000a81548173ffffffffffffffffffffffffffffffffffffffff021916908373ffffffffffffffffffffffffffffffffffffffff1602179055508173ffffffffffffffffffffffffffffffffffffffff168173ffffffffffffffffffffffffffffffffffffffff167f8be0079c531659141344cd1fd0a4f28419497f9722a3daafe3b4186f6b6457e060405160405180910390a35050565b600033905090565b6040518060c00160405280600073ffffffffffffffffffffffffffffffffffffffff168152602001600073ffffffffffffffffffffffffffffffffffffffff1681526020016000815260200160608152602001600015158152602001600081525090565b82805461208a90612d08565b90600052602060002090601f0160209004810192826120ac57600085556120f3565b82601f106120c557805160ff19168380011785556120f3565b828001600101855582156120f3579182015b828111156120f25782518255916020019190600101906120d7565b5b509050612100919061212e565b5090565b60405180608001604052806000151581526020016000815260200160008152602001600081525090565b5b8082111561214757600081600090555060010161212f565b5090565b600061215e61215984612ac0565b612a9b565b90508281526020810184848401111561217a57612179612ed3565b5b612185848285612cc6565b509392505050565b60008135905061219c8161317d565b92915050565b6000815190506121b181613194565b92915050565b600082601f8301126121cc576121cb612ece565b5b81356121dc84826020860161214b565b91505092915050565b6000813590506121f4816131ab565b92915050565b600081519050612209816131ab565b92915050565b60006020828403121561222557612224612edd565b5b60006122338482850161218d565b91505092915050565b6000806000806080858703121561225657612255612edd565b5b60006122648782880161218d565b94505060206122758782880161218d565b935050604085013567ffffffffffffffff81111561229657612295612ed8565b5b6122a2878288016121b7565b92505060606122b3878288016121e5565b91505092959194509250565b6000602082840312156122d5576122d4612edd565b5b60006122e3848285016121a2565b91505092915050565b60006020828403121561230257612301612edd565b5b6000612310848285016121e5565b91505092915050565b60006020828403121561232f5761232e612edd565b5b600061233d848285016121fa565b91505092915050565b60006123528383612708565b60208301905092915050565b61236781612c6c565b82525050565b61237681612c6c565b82525050565b600061238782612b01565b6123918185612b24565b935061239c83612af1565b8060005b838110156123cd5781516123b48882612346565b97506123bf83612b17565b9250506001810190506123a0565b5085935050505092915050565b6123e381612c7e565b82525050565b6123f281612c7e565b82525050565b61240181612cb4565b82525050565b600061241282612b0c565b61241c8185612b35565b935061242c818560208601612cd5565b61243581612ee2565b840191505092915050565b600061244d601283612b46565b915061245882612ef3565b602082019050919050565b6000612470601383612b46565b915061247b82612f1c565b602082019050919050565b6000612493601383612b46565b915061249e82612f45565b602082019050919050565b60006124b6602683612b46565b91506124c182612f6e565b604082019050919050565b60006124d9601383612b46565b91506124e482612fbd565b602082019050919050565b60006124fc601c83612b46565b915061250782612fe6565b602082019050919050565b600061251f601683612b46565b915061252a8261300f565b602082019050919050565b6000612542601583612b46565b915061254d82613038565b602082019050919050565b6000612565602083612b46565b915061257082613061565b602082019050919050565b6000612588600c83612b46565b91506125938261308a565b602082019050919050565b60006125ab602383612b46565b91506125b6826130b3565b604082019050919050565b60006125ce601283612b46565b91506125d982613102565b602082019050919050565b60006125f1601d83612b46565b91506125fc8261312b565b602082019050919050565b6000612614601383612b46565b915061261f82613154565b602082019050919050565b600060c083016000830151612642600086018261235e565b506020830151612655602086018261235e565b5060408301516126686040860182612708565b50606083015184820360608601526126808282612407565b915050608083015161269560808601826123da565b5060a08301516126a860a0860182612708565b508091505092915050565b6080820160008201516126c960008501826123da565b5060208201516126dc6020850182612708565b5060408201516126ef6040850182612708565b5060608201516127026060850182612708565b50505050565b61271181612caa565b82525050565b61272081612caa565b82525050565b600060208201905061273b600083018461236d565b92915050565b6000604082019050612756600083018561236d565b612763602083018461236d565b9392505050565b600060608201905061277f600083018661236d565b61278c602083018561236d565b6127996040830184612717565b949350505050565b60006040820190506127b6600083018561236d565b6127c36020830184612717565b9392505050565b60006080820190506127df600083018761236d565b6127ec6020830186612717565b6127f960408301856123f8565b6128066060830184612717565b95945050505050565b6000606082019050612824600083018661236d565b6128316020830185612717565b61283e6040830184612717565b949350505050565b60006020820190508181036000830152612860818461237c565b905092915050565b600060208201905061287d60008301846123e9565b92915050565b6000602082019050818103600083015261289c81612440565b9050919050565b600060208201905081810360008301526128bc81612463565b9050919050565b600060208201905081810360008301526128dc81612486565b9050919050565b600060208201905081810360008301526128fc816124a9565b9050919050565b6000602082019050818103600083015261291c816124cc565b9050919050565b6000602082019050818103600083015261293c816124ef565b9050919050565b6000602082019050818103600083015261295c81612512565b9050919050565b6000602082019050818103600083015261297c81612535565b9050919050565b6000602082019050818103600083015261299c81612558565b9050919050565b600060208201905081810360008301526129bc8161257b565b9050919050565b600060208201905081810360008301526129dc8161259e565b9050919050565b600060208201905081810360008301526129fc816125c1565b9050919050565b60006020820190508181036000830152612a1c816125e4565b9050919050565b60006020820190508181036000830152612a3c81612607565b9050919050565b60006020820190508181036000830152612a5d818461262a565b905092915050565b6000608082019050612a7a60008301846126b3565b92915050565b6000602082019050612a956000830184612717565b92915050565b6000612aa5612ab6565b9050612ab18282612d3a565b919050565b6000604051905090565b600067ffffffffffffffff821115612adb57612ada612e9f565b5b612ae482612ee2565b9050602081019050919050565b6000819050602082019050919050565b600081519050919050565b600081519050919050565b6000602082019050919050565b600082825260208201905092915050565b600082825260208201905092915050565b600082825260208201905092915050565b6000612b6282612caa565b9150612b6d83612caa565b9250827fffffffffffffffffffffffffffffffffffffffffffffffffffffffffffffffff03821115612ba257612ba1612db4565b5b828201905092915050565b6000612bb882612caa565b9150612bc383612caa565b925082612bd357612bd2612de3565b5b828204905092915050565b6000612be982612caa565b9150612bf483612caa565b9250817fffffffffffffffffffffffffffffffffffffffffffffffffffffffffffffffff0483118215151615612c2d57612c2c612db4565b5b828202905092915050565b6000612c4382612caa565b9150612c4e83612caa565b925082821015612c6157612c60612db4565b5b828203905092915050565b6000612c7782612c8a565b9050919050565b60008115159050919050565b600073ffffffffffffffffffffffffffffffffffffffff82169050919050565b6000819050919050565b6000612cbf82612caa565b9050919050565b82818337600083830152505050565b60005b83811015612cf3578082015181840152602081019050612cd8565b83811115612d02576000848401525b50505050565b60006002820490506001821680612d2057607f821691505b60208210811415612d3457612d33612e12565b5b50919050565b612d4382612ee2565b810181811067ffffffffffffffff82111715612d6257612d61612e9f565b5b80604052505050565b6000612d7682612caa565b91507fffffffffffffffffffffffffffffffffffffffffffffffffffffffffffffffff821415612da957612da8612db4565b5b600182019050919050565b7f4e487b7100000000000000000000000000000000000000000000000000000000600052601160045260246000fd5b7f4e487b7100000000000000000000000000000000000000000000000000000000600052601260045260246000fd5b7f4e487b7100000000000000000000000000000000000000000000000000000000600052602260045260246000fd5b7f4e487b7100000000000000000000000000000000000000000000000000000000600052603160045260246000fd5b7f4e487b7100000000000000000000000000000000000000000000000000000000600052603260045260246000fd5b7f4e487b7100000000000000000000000000000000000000000000000000000000600052604160045260246000fd5b600080fd5b600080fd5b600080fd5b600080fd5b6000601f19601f8301169050919050565b7f596f7520617265206e6f74207374616b65640000000000000000000000000000600082015250565b7f546f6b656e73206e6f7420617070726f76656400000000000000000000000000600082015250565b7f4e6f7468696e6720746f20776974686472617700000000000000000000000000600082015250565b7f4f776e61626c653a206e6577206f776e657220697320746865207a65726f206160008201527f6464726573730000000000000000000000000000000000000000000000000000602082015250565b7f4461696c79206c696d6974207265616368656400000000000000000000000000600082015250565b7f596f752063616e2774207374616b6520696e207468697320706f6f6c00000000600082015250565b7f496e76616c696420726577617264206164647265737300000000000000000000600082015250565b7f496e76616c6964207374616b6520616464726573730000000000000000000000600082015250565b7f4f776e61626c653a2063616c6c6572206973206e6f7420746865206f776e6572600082015250565b7f506f6f6c20657869737473210000000000000000000000000000000000000000600082015250565b7f5374616b696e6720616d6f756e74206973206c657373207468656e206d696e6960008201527f6d756d0000000000000000000000000000000000000000000000000000000000602082015250565b7f596f7520616c7265616479207374616b65640000000000000000000000000000600082015250565b7f596f752063616e2774207472616e736665722074686520746f6b656e73000000600082015250565b7f43616e6e6f742063616e63656c20706f6f6c2100000000000000000000000000600082015250565b61318681612c6c565b811461319157600080fd5b50565b61319d81612c7e565b81146131a857600080fd5b50565b6131b481612caa565b81146131bf57600080fd5b5056fea26469706673582212208613efb70139b0c84c2392acb8ebd90c07902350392e0916d120ffe63156ffa564736f6c63430008070033",
					"opcodes": "PUSH1 0x80 PUSH1 0x40 MSTORE PUSH9 0x3635C9ADC5DEA00000 PUSH1 0x1 SSTORE PUSH10 0xD3C21BCECCEDA1000000 PUSH1 0x2 SSTORE PUSH1 0x0 PUSH1 0x3 PUSH1 0x0 PUSH2 0x100 EXP DUP2 SLOAD DUP2 PUSH1 0xFF MUL NOT AND SWAP1 DUP4 ISZERO ISZERO MUL OR SWAP1 SSTORE POP CALLVALUE DUP1 ISZERO PUSH3 0x47 JUMPI PUSH1 0x0 DUP1 REVERT JUMPDEST POP PUSH3 0x68 PUSH3 0x5C PUSH3 0x6E PUSH1 0x20 SHL PUSH1 0x20 SHR JUMP JUMPDEST PUSH3 0x76 PUSH1 0x20 SHL PUSH1 0x20 SHR JUMP JUMPDEST PUSH3 0x13A JUMP JUMPDEST PUSH1 0x0 CALLER SWAP1 POP SWAP1 JUMP JUMPDEST PUSH1 0x0 DUP1 PUSH1 0x0 SWAP1 SLOAD SWAP1 PUSH2 0x100 EXP SWAP1 DIV PUSH20 0xFFFFFFFFFFFFFFFFFFFFFFFFFFFFFFFFFFFFFFFF AND SWAP1 POP DUP2 PUSH1 0x0 DUP1 PUSH2 0x100 EXP DUP2 SLOAD DUP2 PUSH20 0xFFFFFFFFFFFFFFFFFFFFFFFFFFFFFFFFFFFFFFFF MUL NOT AND SWAP1 DUP4 PUSH20 0xFFFFFFFFFFFFFFFFFFFFFFFFFFFFFFFFFFFFFFFF AND MUL OR SWAP1 SSTORE POP DUP2 PUSH20 0xFFFFFFFFFFFFFFFFFFFFFFFFFFFFFFFFFFFFFFFF AND DUP2 PUSH20 0xFFFFFFFFFFFFFFFFFFFFFFFFFFFFFFFFFFFFFFFF AND PUSH32 0x8BE0079C531659141344CD1FD0A4F28419497F9722A3DAAFE3B4186F6B6457E0 PUSH1 0x40 MLOAD PUSH1 0x40 MLOAD DUP1 SWAP2 SUB SWAP1 LOG3 POP POP JUMP JUMPDEST PUSH2 0x31F8 DUP1 PUSH3 0x14A PUSH1 0x0 CODECOPY PUSH1 0x0 RETURN INVALID PUSH1 0x80 PUSH1 0x40 MSTORE PUSH1 0x4 CALLDATASIZE LT PUSH2 0x12A JUMPI PUSH1 0x0 CALLDATALOAD PUSH1 0xE0 SHR DUP1 PUSH4 0x8DA5CB5B GT PUSH2 0xAB JUMPI DUP1 PUSH4 0xE36C723B GT PUSH2 0x6F JUMPI DUP1 PUSH4 0xE36C723B EQ PUSH2 0x3AB JUMPI DUP1 PUSH4 0xE7732D0A EQ PUSH2 0x3D4 JUMPI DUP1 PUSH4 0xF1887684 EQ PUSH2 0x3FF JUMPI DUP1 PUSH4 0xF2FDE38B EQ PUSH2 0x42A JUMPI DUP1 PUSH4 0xF41322AC EQ PUSH2 0x453 JUMPI DUP1 PUSH4 0xFD9A4E61 EQ PUSH2 0x490 JUMPI PUSH2 0x12A JUMP JUMPDEST DUP1 PUSH4 0x8DA5CB5B EQ PUSH2 0x2FB JUMPI DUP1 PUSH4 0xA694FC3A EQ PUSH2 0x326 JUMPI DUP1 PUSH4 0xC089BD74 EQ PUSH2 0x342 JUMPI DUP1 PUSH4 0xD21CB76E EQ PUSH2 0x36B JUMPI DUP1 PUSH4 0xDA906BF6 EQ PUSH2 0x394 JUMPI PUSH2 0x12A JUMP JUMPDEST DUP1 PUSH4 0x4D307E3F GT PUSH2 0xF2 JUMPI DUP1 PUSH4 0x4D307E3F EQ PUSH2 0x23C JUMPI DUP1 PUSH4 0x60246C88 EQ PUSH2 0x279 JUMPI DUP1 PUSH4 0x60C18315 EQ PUSH2 0x2A4 JUMPI DUP1 PUSH4 0x715018A6 EQ PUSH2 0x2CD JUMPI DUP1 PUSH4 0x73CF575A EQ PUSH2 0x2E4 JUMPI PUSH2 0x12A JUMP JUMPDEST DUP1 PUSH4 0xD2F0374 EQ PUSH2 0x12F JUMPI DUP1 PUSH4 0x14E1B95B EQ PUSH2 0x16C JUMPI DUP1 PUSH4 0x20867CAA EQ PUSH2 0x197 JUMPI DUP1 PUSH4 0x34381749 EQ PUSH2 0x1D4 JUMPI DUP1 PUSH4 0x3CCFD60B EQ PUSH2 0x211 JUMPI JUMPDEST PUSH1 0x0 DUP1 REVERT JUMPDEST CALLVALUE DUP1 ISZERO PUSH2 0x13B JUMPI PUSH1 0x0 DUP1 REVERT JUMPDEST POP PUSH2 0x156 PUSH1 0x4 DUP1 CALLDATASIZE SUB DUP2 ADD SWAP1 PUSH2 0x151 SWAP2 SWAP1 PUSH2 0x22EC JUMP JUMPDEST PUSH2 0x4B9 JUMP JUMPDEST PUSH1 0x40 MLOAD PUSH2 0x163 SWAP2 SWAP1 PUSH2 0x2A80 JUMP JUMPDEST PUSH1 0x40 MLOAD DUP1 SWAP2 SUB SWAP1 RETURN JUMPDEST CALLVALUE DUP1 ISZERO PUSH2 0x178 JUMPI PUSH1 0x0 DUP1 REVERT JUMPDEST POP PUSH2 0x181 PUSH2 0x4E7 JUMP JUMPDEST PUSH1 0x40 MLOAD PUSH2 0x18E SWAP2 SWAP1 PUSH2 0x2A80 JUMP JUMPDEST PUSH1 0x40 MLOAD DUP1 SWAP2 SUB SWAP1 RETURN JUMPDEST CALLVALUE DUP1 ISZERO PUSH2 0x1A3 JUMPI PUSH1 0x0 DUP1 REVERT JUMPDEST POP PUSH2 0x1BE PUSH1 0x4 DUP1 CALLDATASIZE SUB DUP2 ADD SWAP1 PUSH2 0x1B9 SWAP2 SWAP1 PUSH2 0x220F JUMP JUMPDEST PUSH2 0x4ED JUMP JUMPDEST PUSH1 0x40 MLOAD PUSH2 0x1CB SWAP2 SWAP1 PUSH2 0x2846 JUMP JUMPDEST PUSH1 0x40 MLOAD DUP1 SWAP2 SUB SWAP1 RETURN JUMPDEST CALLVALUE DUP1 ISZERO PUSH2 0x1E0 JUMPI PUSH1 0x0 DUP1 REVERT JUMPDEST POP PUSH2 0x1FB PUSH1 0x4 DUP1 CALLDATASIZE SUB DUP2 ADD SWAP1 PUSH2 0x1F6 SWAP2 SWAP1 PUSH2 0x220F JUMP JUMPDEST PUSH2 0x584 JUMP JUMPDEST PUSH1 0x40 MLOAD PUSH2 0x208 SWAP2 SWAP1 PUSH2 0x2A80 JUMP JUMPDEST PUSH1 0x40 MLOAD DUP1 SWAP2 SUB SWAP1 RETURN JUMPDEST CALLVALUE DUP1 ISZERO PUSH2 0x21D JUMPI PUSH1 0x0 DUP1 REVERT JUMPDEST POP PUSH2 0x226 PUSH2 0x725 JUMP JUMPDEST PUSH1 0x40 MLOAD PUSH2 0x233 SWAP2 SWAP1 PUSH2 0x2868 JUMP JUMPDEST PUSH1 0x40 MLOAD DUP1 SWAP2 SUB SWAP1 RETURN JUMPDEST CALLVALUE DUP1 ISZERO PUSH2 0x248 JUMPI PUSH1 0x0 DUP1 REVERT JUMPDEST POP PUSH2 0x263 PUSH1 0x4 DUP1 CALLDATASIZE SUB DUP2 ADD SWAP1 PUSH2 0x25E SWAP2 SWAP1 PUSH2 0x220F JUMP JUMPDEST PUSH2 0x737 JUMP JUMPDEST PUSH1 0x40 MLOAD PUSH2 0x270 SWAP2 SWAP1 PUSH2 0x2A80 JUMP JUMPDEST PUSH1 0x40 MLOAD DUP1 SWAP2 SUB SWAP1 RETURN JUMPDEST CALLVALUE DUP1 ISZERO PUSH2 0x285 JUMPI PUSH1 0x0 DUP1 REVERT JUMPDEST POP PUSH2 0x28E PUSH2 0x80B JUMP JUMPDEST PUSH1 0x40 MLOAD PUSH2 0x29B SWAP2 SWAP1 PUSH2 0x2A43 JUMP JUMPDEST PUSH1 0x40 MLOAD DUP1 SWAP2 SUB SWAP1 RETURN JUMPDEST CALLVALUE DUP1 ISZERO PUSH2 0x2B0 JUMPI PUSH1 0x0 DUP1 REVERT JUMPDEST POP PUSH2 0x2CB PUSH1 0x4 DUP1 CALLDATASIZE SUB DUP2 ADD SWAP1 PUSH2 0x2C6 SWAP2 SWAP1 PUSH2 0x223C JUMP JUMPDEST PUSH2 0x9B3 JUMP JUMPDEST STOP JUMPDEST CALLVALUE DUP1 ISZERO PUSH2 0x2D9 JUMPI PUSH1 0x0 DUP1 REVERT JUMPDEST POP PUSH2 0x2E2 PUSH2 0xC75 JUMP JUMPDEST STOP JUMPDEST CALLVALUE DUP1 ISZERO PUSH2 0x2F0 JUMPI PUSH1 0x0 DUP1 REVERT JUMPDEST POP PUSH2 0x2F9 PUSH2 0xC89 JUMP JUMPDEST STOP JUMPDEST CALLVALUE DUP1 ISZERO PUSH2 0x307 JUMPI PUSH1 0x0 DUP1 REVERT JUMPDEST POP PUSH2 0x310 PUSH2 0x1242 JUMP JUMPDEST PUSH1 0x40 MLOAD PUSH2 0x31D SWAP2 SWAP1 PUSH2 0x2726 JUMP JUMPDEST PUSH1 0x40 MLOAD DUP1 SWAP2 SUB SWAP1 RETURN JUMPDEST PUSH2 0x340 PUSH1 0x4 DUP1 CALLDATASIZE SUB DUP2 ADD SWAP1 PUSH2 0x33B SWAP2 SWAP1 PUSH2 0x22EC JUMP JUMPDEST PUSH2 0x126B JUMP JUMPDEST STOP JUMPDEST CALLVALUE DUP1 ISZERO PUSH2 0x34E JUMPI PUSH1 0x0 DUP1 REVERT JUMPDEST POP PUSH2 0x369 PUSH1 0x4 DUP1 CALLDATASIZE SUB DUP2 ADD SWAP1 PUSH2 0x364 SWAP2 SWAP1 PUSH2 0x22EC JUMP JUMPDEST PUSH2 0x1814 JUMP JUMPDEST STOP JUMPDEST CALLVALUE DUP1 ISZERO PUSH2 0x377 JUMPI PUSH1 0x0 DUP1 REVERT JUMPDEST POP PUSH2 0x392 PUSH1 0x4 DUP1 CALLDATASIZE SUB DUP2 ADD SWAP1 PUSH2 0x38D SWAP2 SWAP1 PUSH2 0x22EC JUMP JUMPDEST PUSH2 0x18F5 JUMP JUMPDEST STOP JUMPDEST CALLVALUE DUP1 ISZERO PUSH2 0x3A0 JUMPI PUSH1 0x0 DUP1 REVERT JUMPDEST POP PUSH2 0x3A9 PUSH2 0x1907 JUMP JUMPDEST STOP JUMPDEST CALLVALUE DUP1 ISZERO PUSH2 0x3B7 JUMPI PUSH1 0x0 DUP1 REVERT JUMPDEST POP PUSH2 0x3D2 PUSH1 0x4 DUP1 CALLDATASIZE SUB DUP2 ADD SWAP1 PUSH2 0x3CD SWAP2 SWAP1 PUSH2 0x22EC JUMP JUMPDEST PUSH2 0x19EC JUMP JUMPDEST STOP JUMPDEST CALLVALUE DUP1 ISZERO PUSH2 0x3E0 JUMPI PUSH1 0x0 DUP1 REVERT JUMPDEST POP PUSH2 0x3E9 PUSH2 0x19FE JUMP JUMPDEST PUSH1 0x40 MLOAD PUSH2 0x3F6 SWAP2 SWAP1 PUSH2 0x2868 JUMP JUMPDEST PUSH1 0x40 MLOAD DUP1 SWAP2 SUB SWAP1 RETURN JUMPDEST CALLVALUE DUP1 ISZERO PUSH2 0x40B JUMPI PUSH1 0x0 DUP1 REVERT JUMPDEST POP PUSH2 0x414 PUSH2 0x1A39 JUMP JUMPDEST PUSH1 0x40 MLOAD PUSH2 0x421 SWAP2 SWAP1 PUSH2 0x2A80 JUMP JUMPDEST PUSH1 0x40 MLOAD DUP1 SWAP2 SUB SWAP1 RETURN JUMPDEST CALLVALUE DUP1 ISZERO PUSH2 0x436 JUMPI PUSH1 0x0 DUP1 REVERT JUMPDEST POP PUSH2 0x451 PUSH1 0x4 DUP1 CALLDATASIZE SUB DUP2 ADD SWAP1 PUSH2 0x44C SWAP2 SWAP1 PUSH2 0x220F JUMP JUMPDEST PUSH2 0x1A3F JUMP JUMPDEST STOP JUMPDEST CALLVALUE DUP1 ISZERO PUSH2 0x45F JUMPI PUSH1 0x0 DUP1 REVERT JUMPDEST POP PUSH2 0x47A PUSH1 0x4 DUP1 CALLDATASIZE SUB DUP2 ADD SWAP1 PUSH2 0x475 SWAP2 SWAP1 PUSH2 0x220F JUMP JUMPDEST PUSH2 0x1AC3 JUMP JUMPDEST PUSH1 0x40 MLOAD PUSH2 0x487 SWAP2 SWAP1 PUSH2 0x2A65 JUMP JUMPDEST PUSH1 0x40 MLOAD DUP1 SWAP2 SUB SWAP1 RETURN JUMPDEST CALLVALUE DUP1 ISZERO PUSH2 0x49C JUMPI PUSH1 0x0 DUP1 REVERT JUMPDEST POP PUSH2 0x4B7 PUSH1 0x4 DUP1 CALLDATASIZE SUB DUP2 ADD SWAP1 PUSH2 0x4B2 SWAP2 SWAP1 PUSH2 0x22EC JUMP JUMPDEST PUSH2 0x1B66 JUMP JUMPDEST STOP JUMPDEST PUSH1 0x0 PUSH1 0x6 PUSH1 0x0 DUP4 DUP2 MSTORE PUSH1 0x20 ADD SWAP1 DUP2 MSTORE PUSH1 0x20 ADD PUSH1 0x0 KECCAK256 PUSH1 0x0 DUP1 DUP2 MSTORE PUSH1 0x20 ADD SWAP1 DUP2 MSTORE PUSH1 0x20 ADD PUSH1 0x0 KECCAK256 SLOAD SWAP1 POP SWAP2 SWAP1 POP JUMP JUMPDEST PUSH1 0x2 SLOAD DUP2 JUMP JUMPDEST PUSH1 0x60 PUSH1 0x5 PUSH1 0x0 DUP4 PUSH20 0xFFFFFFFFFFFFFFFFFFFFFFFFFFFFFFFFFFFFFFFF AND PUSH20 0xFFFFFFFFFFFFFFFFFFFFFFFFFFFFFFFFFFFFFFFF AND DUP2 MSTORE PUSH1 0x20 ADD SWAP1 DUP2 MSTORE PUSH1 0x20 ADD PUSH1 0x0 KECCAK256 DUP1 SLOAD DUP1 PUSH1 0x20 MUL PUSH1 0x20 ADD PUSH1 0x40 MLOAD SWAP1 DUP2 ADD PUSH1 0x40 MSTORE DUP1 SWAP3 SWAP2 SWAP1 DUP2 DUP2 MSTORE PUSH1 0x20 ADD DUP3 DUP1 SLOAD DUP1 ISZERO PUSH2 0x578 JUMPI PUSH1 0x20 MUL DUP3 ADD SWAP2 SWAP1 PUSH1 0x0 MSTORE PUSH1 0x20 PUSH1 0x0 KECCAK256 SWAP1 JUMPDEST DUP2 SLOAD DUP2 MSTORE PUSH1 0x20 ADD SWAP1 PUSH1 0x1 ADD SWAP1 DUP1 DUP4 GT PUSH2 0x564 JUMPI JUMPDEST POP POP POP POP POP SWAP1 POP SWAP2 SWAP1 POP JUMP JUMPDEST PUSH1 0x0 DUP1 PUSH1 0xB4 TIMESTAMP PUSH2 0x594 SWAP2 SWAP1 PUSH2 0x2C38 JUMP JUMPDEST SWAP1 POP PUSH1 0x0 PUSH1 0x7 PUSH1 0x0 DUP6 PUSH20 0xFFFFFFFFFFFFFFFFFFFFFFFFFFFFFFFFFFFFFFFF AND PUSH20 0xFFFFFFFFFFFFFFFFFFFFFFFFFFFFFFFFFFFFFFFF AND DUP2 MSTORE PUSH1 0x20 ADD SWAP1 DUP2 MSTORE PUSH1 0x20 ADD PUSH1 0x0 KECCAK256 PUSH1 0x0 DUP1 DUP2 MSTORE PUSH1 0x20 ADD SWAP1 DUP2 MSTORE PUSH1 0x20 ADD PUSH1 0x0 KECCAK256 PUSH1 0x2 ADD SLOAD DUP3 GT ISZERO PUSH2 0x659 JUMPI PUSH1 0x7 PUSH1 0x0 DUP6 PUSH20 0xFFFFFFFFFFFFFFFFFFFFFFFFFFFFFFFFFFFFFFFF AND PUSH20 0xFFFFFFFFFFFFFFFFFFFFFFFFFFFFFFFFFFFFFFFF AND DUP2 MSTORE PUSH1 0x20 ADD SWAP1 DUP2 MSTORE PUSH1 0x20 ADD PUSH1 0x0 KECCAK256 PUSH1 0x0 DUP1 DUP2 MSTORE PUSH1 0x20 ADD SWAP1 DUP2 MSTORE PUSH1 0x20 ADD PUSH1 0x0 KECCAK256 PUSH1 0x2 ADD SLOAD DUP3 PUSH2 0x652 SWAP2 SWAP1 PUSH2 0x2C38 JUMP JUMPDEST SWAP1 POP PUSH2 0x664 JUMP JUMPDEST PUSH1 0x0 SWAP3 POP POP POP PUSH2 0x720 JUMP JUMPDEST PUSH1 0x0 PUSH1 0x64 PUSH1 0x4 PUSH1 0x0 DUP2 SLOAD DUP2 LT PUSH2 0x67D JUMPI PUSH2 0x67C PUSH2 0x2E70 JUMP JUMPDEST JUMPDEST SWAP1 PUSH1 0x0 MSTORE PUSH1 0x20 PUSH1 0x0 KECCAK256 SWAP1 PUSH1 0x6 MUL ADD PUSH1 0x5 ADD SLOAD PUSH1 0x7 PUSH1 0x0 DUP9 PUSH20 0xFFFFFFFFFFFFFFFFFFFFFFFFFFFFFFFFFFFFFFFF AND PUSH20 0xFFFFFFFFFFFFFFFFFFFFFFFFFFFFFFFFFFFFFFFF AND DUP2 MSTORE PUSH1 0x20 ADD SWAP1 DUP2 MSTORE PUSH1 0x20 ADD PUSH1 0x0 KECCAK256 PUSH1 0x0 DUP1 DUP2 MSTORE PUSH1 0x20 ADD SWAP1 DUP2 MSTORE PUSH1 0x20 ADD PUSH1 0x0 KECCAK256 PUSH1 0x1 ADD SLOAD PUSH2 0x6ED SWAP2 SWAP1 PUSH2 0x2BDE JUMP JUMPDEST PUSH2 0x6F7 SWAP2 SWAP1 PUSH2 0x2BAD JUMP JUMPDEST SWAP1 POP PUSH1 0x0 PUSH4 0x1E13380 DUP4 DUP4 PUSH2 0x70C SWAP2 SWAP1 PUSH2 0x2BDE JUMP JUMPDEST PUSH2 0x716 SWAP2 SWAP1 PUSH2 0x2BAD JUMP JUMPDEST SWAP1 POP DUP1 SWAP5 POP POP POP POP POP JUMPDEST SWAP2 SWAP1 POP JUMP JUMPDEST PUSH1 0x0 PUSH2 0x730 CALLER PUSH2 0x1CFB JUMP JUMPDEST PUSH1 0x1 SWAP1 POP SWAP1 JUMP JUMPDEST PUSH1 0x0 DUP1 PUSH1 0x7 PUSH1 0x0 DUP5 PUSH20 0xFFFFFFFFFFFFFFFFFFFFFFFFFFFFFFFFFFFFFFFF AND PUSH20 0xFFFFFFFFFFFFFFFFFFFFFFFFFFFFFFFFFFFFFFFF AND DUP2 MSTORE PUSH1 0x20 ADD SWAP1 DUP2 MSTORE PUSH1 0x20 ADD PUSH1 0x0 KECCAK256 PUSH1 0x0 DUP1 DUP2 MSTORE PUSH1 0x20 ADD SWAP1 DUP2 MSTORE PUSH1 0x20 ADD PUSH1 0x0 KECCAK256 PUSH1 0x1 ADD SLOAD EQ PUSH2 0x801 JUMPI PUSH1 0x7 PUSH1 0x0 DUP4 PUSH20 0xFFFFFFFFFFFFFFFFFFFFFFFFFFFFFFFFFFFFFFFF AND PUSH20 0xFFFFFFFFFFFFFFFFFFFFFFFFFFFFFFFFFFFFFFFF AND DUP2 MSTORE PUSH1 0x20 ADD SWAP1 DUP2 MSTORE PUSH1 0x20 ADD PUSH1 0x0 KECCAK256 PUSH1 0x0 DUP1 DUP2 MSTORE PUSH1 0x20 ADD SWAP1 DUP2 MSTORE PUSH1 0x20 ADD PUSH1 0x0 KECCAK256 PUSH1 0x3 ADD SLOAD PUSH2 0x7F0 DUP4 PUSH2 0x584 JUMP JUMPDEST PUSH2 0x7FA SWAP2 SWAP1 PUSH2 0x2C38 JUMP JUMPDEST SWAP1 POP PUSH2 0x806 JUMP JUMPDEST PUSH1 0x0 SWAP1 POP JUMPDEST SWAP2 SWAP1 POP JUMP JUMPDEST PUSH2 0x813 PUSH2 0x201A JUMP JUMPDEST PUSH1 0x4 PUSH1 0x0 DUP2 SLOAD DUP2 LT PUSH2 0x828 JUMPI PUSH2 0x827 PUSH2 0x2E70 JUMP JUMPDEST JUMPDEST SWAP1 PUSH1 0x0 MSTORE PUSH1 0x20 PUSH1 0x0 KECCAK256 SWAP1 PUSH1 0x6 MUL ADD PUSH1 0x40 MLOAD DUP1 PUSH1 0xC0 ADD PUSH1 0x40 MSTORE SWAP1 DUP2 PUSH1 0x0 DUP3 ADD PUSH1 0x0 SWAP1 SLOAD SWAP1 PUSH2 0x100 EXP SWAP1 DIV PUSH20 0xFFFFFFFFFFFFFFFFFFFFFFFFFFFFFFFFFFFFFFFF AND PUSH20 0xFFFFFFFFFFFFFFFFFFFFFFFFFFFFFFFFFFFFFFFF AND PUSH20 0xFFFFFFFFFFFFFFFFFFFFFFFFFFFFFFFFFFFFFFFF AND DUP2 MSTORE PUSH1 0x20 ADD PUSH1 0x1 DUP3 ADD PUSH1 0x0 SWAP1 SLOAD SWAP1 PUSH2 0x100 EXP SWAP1 DIV PUSH20 0xFFFFFFFFFFFFFFFFFFFFFFFFFFFFFFFFFFFFFFFF AND PUSH20 0xFFFFFFFFFFFFFFFFFFFFFFFFFFFFFFFFFFFFFFFF AND PUSH20 0xFFFFFFFFFFFFFFFFFFFFFFFFFFFFFFFFFFFFFFFF AND DUP2 MSTORE PUSH1 0x20 ADD PUSH1 0x2 DUP3 ADD SLOAD DUP2 MSTORE PUSH1 0x20 ADD PUSH1 0x3 DUP3 ADD DUP1 SLOAD PUSH2 0x907 SWAP1 PUSH2 0x2D08 JUMP JUMPDEST DUP1 PUSH1 0x1F ADD PUSH1 0x20 DUP1 SWAP2 DIV MUL PUSH1 0x20 ADD PUSH1 0x40 MLOAD SWAP1 DUP2 ADD PUSH1 0x40 MSTORE DUP1 SWAP3 SWAP2 SWAP1 DUP2 DUP2 MSTORE PUSH1 0x20 ADD DUP3 DUP1 SLOAD PUSH2 0x933 SWAP1 PUSH2 0x2D08 JUMP JUMPDEST DUP1 ISZERO PUSH2 0x980 JUMPI DUP1 PUSH1 0x1F LT PUSH2 0x955 JUMPI PUSH2 0x100 DUP1 DUP4 SLOAD DIV MUL DUP4 MSTORE SWAP2 PUSH1 0x20 ADD SWAP2 PUSH2 0x980 JUMP JUMPDEST DUP3 ADD SWAP2 SWAP1 PUSH1 0x0 MSTORE PUSH1 0x20 PUSH1 0x0 KECCAK256 SWAP1 JUMPDEST DUP2 SLOAD DUP2 MSTORE SWAP1 PUSH1 0x1 ADD SWAP1 PUSH1 0x20 ADD DUP1 DUP4 GT PUSH2 0x963 JUMPI DUP3 SWAP1 SUB PUSH1 0x1F AND DUP3 ADD SWAP2 JUMPDEST POP POP POP POP POP DUP2 MSTORE PUSH1 0x20 ADD PUSH1 0x4 DUP3 ADD PUSH1 0x0 SWAP1 SLOAD SWAP1 PUSH2 0x100 EXP SWAP1 DIV PUSH1 0xFF AND ISZERO ISZERO ISZERO ISZERO DUP2 MSTORE PUSH1 0x20 ADD PUSH1 0x5 DUP3 ADD SLOAD DUP2 MSTORE POP POP SWAP1 POP SWAP1 JUMP JUMPDEST PUSH2 0x9BB PUSH2 0x1ED0 JUMP JUMPDEST PUSH1 0x3 PUSH1 0x0 SWAP1 SLOAD SWAP1 PUSH2 0x100 EXP SWAP1 DIV PUSH1 0xFF AND ISZERO PUSH2 0xA0B JUMPI PUSH1 0x40 MLOAD PUSH32 0x8C379A000000000000000000000000000000000000000000000000000000000 DUP2 MSTORE PUSH1 0x4 ADD PUSH2 0xA02 SWAP1 PUSH2 0x29A3 JUMP JUMPDEST PUSH1 0x40 MLOAD DUP1 SWAP2 SUB SWAP1 REVERT JUMPDEST PUSH1 0x0 PUSH20 0xFFFFFFFFFFFFFFFFFFFFFFFFFFFFFFFFFFFFFFFF AND DUP5 PUSH20 0xFFFFFFFFFFFFFFFFFFFFFFFFFFFFFFFFFFFFFFFF AND EQ ISZERO PUSH2 0xA7B JUMPI PUSH1 0x40 MLOAD PUSH32 0x8C379A000000000000000000000000000000000000000000000000000000000 DUP2 MSTORE PUSH1 0x4 ADD PUSH2 0xA72 SWAP1 PUSH2 0x2963 JUMP JUMPDEST PUSH1 0x40 MLOAD DUP1 SWAP2 SUB SWAP1 REVERT JUMPDEST PUSH1 0x0 PUSH20 0xFFFFFFFFFFFFFFFFFFFFFFFFFFFFFFFFFFFFFFFF AND DUP4 PUSH20 0xFFFFFFFFFFFFFFFFFFFFFFFFFFFFFFFFFFFFFFFF AND EQ ISZERO PUSH2 0xAEB JUMPI PUSH1 0x40 MLOAD PUSH32 0x8C379A000000000000000000000000000000000000000000000000000000000 DUP2 MSTORE PUSH1 0x4 ADD PUSH2 0xAE2 SWAP1 PUSH2 0x2943 JUMP JUMPDEST PUSH1 0x40 MLOAD DUP1 SWAP2 SUB SWAP1 REVERT JUMPDEST PUSH1 0x4 PUSH1 0x40 MLOAD DUP1 PUSH1 0xC0 ADD PUSH1 0x40 MSTORE DUP1 DUP7 PUSH20 0xFFFFFFFFFFFFFFFFFFFFFFFFFFFFFFFFFFFFFFFF AND DUP2 MSTORE PUSH1 0x20 ADD DUP6 PUSH20 0xFFFFFFFFFFFFFFFFFFFFFFFFFFFFFFFFFFFFFFFF AND DUP2 MSTORE PUSH1 0x20 ADD PUSH1 0x0 DUP2 MSTORE PUSH1 0x20 ADD DUP5 DUP2 MSTORE PUSH1 0x20 ADD PUSH1 0x0 ISZERO ISZERO DUP2 MSTORE PUSH1 0x20 ADD DUP4 DUP2 MSTORE POP SWAP1 DUP1 PUSH1 0x1 DUP2 SLOAD ADD DUP1 DUP3 SSTORE DUP1 SWAP2 POP POP PUSH1 0x1 SWAP1 SUB SWAP1 PUSH1 0x0 MSTORE PUSH1 0x20 PUSH1 0x0 KECCAK256 SWAP1 PUSH1 0x6 MUL ADD PUSH1 0x0 SWAP1 SWAP2 SWAP1 SWAP2 SWAP1 SWAP2 POP PUSH1 0x0 DUP3 ADD MLOAD DUP2 PUSH1 0x0 ADD PUSH1 0x0 PUSH2 0x100 EXP DUP2 SLOAD DUP2 PUSH20 0xFFFFFFFFFFFFFFFFFFFFFFFFFFFFFFFFFFFFFFFF MUL NOT AND SWAP1 DUP4 PUSH20 0xFFFFFFFFFFFFFFFFFFFFFFFFFFFFFFFFFFFFFFFF AND MUL OR SWAP1 SSTORE POP PUSH1 0x20 DUP3 ADD MLOAD DUP2 PUSH1 0x1 ADD PUSH1 0x0 PUSH2 0x100 EXP DUP2 SLOAD DUP2 PUSH20 0xFFFFFFFFFFFFFFFFFFFFFFFFFFFFFFFFFFFFFFFF MUL NOT AND SWAP1 DUP4 PUSH20 0xFFFFFFFFFFFFFFFFFFFFFFFFFFFFFFFFFFFFFFFF AND MUL OR SWAP1 SSTORE POP PUSH1 0x40 DUP3 ADD MLOAD DUP2 PUSH1 0x2 ADD SSTORE PUSH1 0x60 DUP3 ADD MLOAD DUP2 PUSH1 0x3 ADD SWAP1 DUP1 MLOAD SWAP1 PUSH1 0x20 ADD SWAP1 PUSH2 0xC27 SWAP3 SWAP2 SWAP1 PUSH2 0x207E JUMP JUMPDEST POP PUSH1 0x80 DUP3 ADD MLOAD DUP2 PUSH1 0x4 ADD PUSH1 0x0 PUSH2 0x100 EXP DUP2 SLOAD DUP2 PUSH1 0xFF MUL NOT AND SWAP1 DUP4 ISZERO ISZERO MUL OR SWAP1 SSTORE POP PUSH1 0xA0 DUP3 ADD MLOAD DUP2 PUSH1 0x5 ADD SSTORE POP POP PUSH1 0x1 PUSH1 0x3 PUSH1 0x0 PUSH2 0x100 EXP DUP2 SLOAD DUP2 PUSH1 0xFF MUL NOT AND SWAP1 DUP4 ISZERO ISZERO MUL OR SWAP1 SSTORE POP POP POP POP POP JUMP JUMPDEST PUSH2 0xC7D PUSH2 0x1ED0 JUMP JUMPDEST PUSH2 0xC87 PUSH1 0x0 PUSH2 0x1F4E JUMP JUMPDEST JUMP JUMPDEST PUSH1 0x7 PUSH1 0x0 CALLER PUSH20 0xFFFFFFFFFFFFFFFFFFFFFFFFFFFFFFFFFFFFFFFF AND PUSH20 0xFFFFFFFFFFFFFFFFFFFFFFFFFFFFFFFFFFFFFFFF AND DUP2 MSTORE PUSH1 0x20 ADD SWAP1 DUP2 MSTORE PUSH1 0x20 ADD PUSH1 0x0 KECCAK256 PUSH1 0x0 DUP1 DUP2 MSTORE PUSH1 0x20 ADD SWAP1 DUP2 MSTORE PUSH1 0x20 ADD PUSH1 0x0 KECCAK256 PUSH1 0x0 ADD PUSH1 0x0 SWAP1 SLOAD SWAP1 PUSH2 0x100 EXP SWAP1 DIV PUSH1 0xFF AND PUSH2 0xD29 JUMPI PUSH1 0x40 MLOAD PUSH32 0x8C379A000000000000000000000000000000000000000000000000000000000 DUP2 MSTORE PUSH1 0x4 ADD PUSH2 0xD20 SWAP1 PUSH2 0x2883 JUMP JUMPDEST PUSH1 0x40 MLOAD DUP1 SWAP2 SUB SWAP1 REVERT JUMPDEST PUSH1 0x0 PUSH2 0xD34 CALLER PUSH2 0x737 JUMP JUMPDEST GT ISZERO PUSH2 0xD44 JUMPI PUSH2 0xD43 CALLER PUSH2 0x1CFB JUMP JUMPDEST JUMPDEST PUSH1 0x4 PUSH1 0x0 DUP2 SLOAD DUP2 LT PUSH2 0xD59 JUMPI PUSH2 0xD58 PUSH2 0x2E70 JUMP JUMPDEST JUMPDEST SWAP1 PUSH1 0x0 MSTORE PUSH1 0x20 PUSH1 0x0 KECCAK256 SWAP1 PUSH1 0x6 MUL ADD PUSH1 0x0 ADD PUSH1 0x0 SWAP1 SLOAD SWAP1 PUSH2 0x100 EXP SWAP1 DIV PUSH20 0xFFFFFFFFFFFFFFFFFFFFFFFFFFFFFFFFFFFFFFFF AND PUSH20 0xFFFFFFFFFFFFFFFFFFFFFFFFFFFFFFFFFFFFFFFF AND PUSH4 0xA9059CBB CALLER PUSH1 0x7 PUSH1 0x0 CALLER PUSH20 0xFFFFFFFFFFFFFFFFFFFFFFFFFFFFFFFFFFFFFFFF AND PUSH20 0xFFFFFFFFFFFFFFFFFFFFFFFFFFFFFFFFFFFFFFFF AND DUP2 MSTORE PUSH1 0x20 ADD SWAP1 DUP2 MSTORE PUSH1 0x20 ADD PUSH1 0x0 KECCAK256 PUSH1 0x0 DUP1 DUP2 MSTORE PUSH1 0x20 ADD SWAP1 DUP2 MSTORE PUSH1 0x20 ADD PUSH1 0x0 KECCAK256 PUSH1 0x1 ADD SLOAD PUSH1 0x40 MLOAD DUP4 PUSH4 0xFFFFFFFF AND PUSH1 0xE0 SHL DUP2 MSTORE PUSH1 0x4 ADD PUSH2 0xE18 SWAP3 SWAP2 SWAP1 PUSH2 0x27A1 JUMP JUMPDEST PUSH1 0x20 PUSH1 0x40 MLOAD DUP1 DUP4 SUB DUP2 PUSH1 0x0 DUP8 DUP1 EXTCODESIZE ISZERO DUP1 ISZERO PUSH2 0xE32 JUMPI PUSH1 0x0 DUP1 REVERT JUMPDEST POP GAS CALL ISZERO DUP1 ISZERO PUSH2 0xE46 JUMPI RETURNDATASIZE PUSH1 0x0 DUP1 RETURNDATACOPY RETURNDATASIZE PUSH1 0x0 REVERT JUMPDEST POP POP POP POP PUSH1 0x40 MLOAD RETURNDATASIZE PUSH1 0x1F NOT PUSH1 0x1F DUP3 ADD AND DUP3 ADD DUP1 PUSH1 0x40 MSTORE POP DUP2 ADD SWAP1 PUSH2 0xE6A SWAP2 SWAP1 PUSH2 0x22BF JUMP JUMPDEST POP PUSH32 0x54A9763035584FC4FCAD1BC4E0E7A83F93E016F50AE32BD527530A77257393EE CALLER PUSH1 0x7 PUSH1 0x0 CALLER PUSH20 0xFFFFFFFFFFFFFFFFFFFFFFFFFFFFFFFFFFFFFFFF AND PUSH20 0xFFFFFFFFFFFFFFFFFFFFFFFFFFFFFFFFFFFFFFFF AND DUP2 MSTORE PUSH1 0x20 ADD SWAP1 DUP2 MSTORE PUSH1 0x20 ADD PUSH1 0x0 KECCAK256 PUSH1 0x0 DUP1 DUP2 MSTORE PUSH1 0x20 ADD SWAP1 DUP2 MSTORE PUSH1 0x20 ADD PUSH1 0x0 KECCAK256 PUSH1 0x1 ADD SLOAD TIMESTAMP PUSH1 0x40 MLOAD PUSH2 0xEF1 SWAP4 SWAP3 SWAP2 SWAP1 PUSH2 0x280F JUMP JUMPDEST PUSH1 0x40 MLOAD DUP1 SWAP2 SUB SWAP1 LOG1 PUSH1 0x7 PUSH1 0x0 CALLER PUSH20 0xFFFFFFFFFFFFFFFFFFFFFFFFFFFFFFFFFFFFFFFF AND PUSH20 0xFFFFFFFFFFFFFFFFFFFFFFFFFFFFFFFFFFFFFFFF AND DUP2 MSTORE PUSH1 0x20 ADD SWAP1 DUP2 MSTORE PUSH1 0x20 ADD PUSH1 0x0 KECCAK256 PUSH1 0x0 DUP1 DUP2 MSTORE PUSH1 0x20 ADD SWAP1 DUP2 MSTORE PUSH1 0x20 ADD PUSH1 0x0 KECCAK256 PUSH1 0x1 ADD SLOAD PUSH1 0x4 PUSH1 0x0 DUP2 SLOAD DUP2 LT PUSH2 0xF62 JUMPI PUSH2 0xF61 PUSH2 0x2E70 JUMP JUMPDEST JUMPDEST SWAP1 PUSH1 0x0 MSTORE PUSH1 0x20 PUSH1 0x0 KECCAK256 SWAP1 PUSH1 0x6 MUL ADD PUSH1 0x2 ADD PUSH1 0x0 DUP3 DUP3 SLOAD PUSH2 0xF82 SWAP2 SWAP1 PUSH2 0x2C38 JUMP JUMPDEST SWAP3 POP POP DUP2 SWAP1 SSTORE POP PUSH1 0x0 JUMPDEST PUSH1 0x5 PUSH1 0x0 CALLER PUSH20 0xFFFFFFFFFFFFFFFFFFFFFFFFFFFFFFFFFFFFFFFF AND PUSH20 0xFFFFFFFFFFFFFFFFFFFFFFFFFFFFFFFFFFFFFFFF AND DUP2 MSTORE PUSH1 0x20 ADD SWAP1 DUP2 MSTORE PUSH1 0x20 ADD PUSH1 0x0 KECCAK256 DUP1 SLOAD SWAP1 POP DUP2 LT ISZERO PUSH2 0x11C0 JUMPI PUSH1 0x0 PUSH1 0x5 PUSH1 0x0 CALLER PUSH20 0xFFFFFFFFFFFFFFFFFFFFFFFFFFFFFFFFFFFFFFFF AND PUSH20 0xFFFFFFFFFFFFFFFFFFFFFFFFFFFFFFFFFFFFFFFF AND DUP2 MSTORE PUSH1 0x20 ADD SWAP1 DUP2 MSTORE PUSH1 0x20 ADD PUSH1 0x0 KECCAK256 DUP3 DUP2 SLOAD DUP2 LT PUSH2 0x1029 JUMPI PUSH2 0x1028 PUSH2 0x2E70 JUMP JUMPDEST JUMPDEST SWAP1 PUSH1 0x0 MSTORE PUSH1 0x20 PUSH1 0x0 KECCAK256 ADD SLOAD EQ ISZERO PUSH2 0x11AD JUMPI PUSH1 0x5 PUSH1 0x0 CALLER PUSH20 0xFFFFFFFFFFFFFFFFFFFFFFFFFFFFFFFFFFFFFFFF AND PUSH20 0xFFFFFFFFFFFFFFFFFFFFFFFFFFFFFFFFFFFFFFFF AND DUP2 MSTORE PUSH1 0x20 ADD SWAP1 DUP2 MSTORE PUSH1 0x20 ADD PUSH1 0x0 KECCAK256 PUSH1 0x1 PUSH1 0x5 PUSH1 0x0 CALLER PUSH20 0xFFFFFFFFFFFFFFFFFFFFFFFFFFFFFFFFFFFFFFFF AND PUSH20 0xFFFFFFFFFFFFFFFFFFFFFFFFFFFFFFFFFFFFFFFF AND DUP2 MSTORE PUSH1 0x20 ADD SWAP1 DUP2 MSTORE PUSH1 0x20 ADD PUSH1 0x0 KECCAK256 DUP1 SLOAD SWAP1 POP PUSH2 0x10C8 SWAP2 SWAP1 PUSH2 0x2C38 JUMP JUMPDEST DUP2 SLOAD DUP2 LT PUSH2 0x10D9 JUMPI PUSH2 0x10D8 PUSH2 0x2E70 JUMP JUMPDEST JUMPDEST SWAP1 PUSH1 0x0 MSTORE PUSH1 0x20 PUSH1 0x0 KECCAK256 ADD SLOAD PUSH1 0x5 PUSH1 0x0 CALLER PUSH20 0xFFFFFFFFFFFFFFFFFFFFFFFFFFFFFFFFFFFFFFFF AND PUSH20 0xFFFFFFFFFFFFFFFFFFFFFFFFFFFFFFFFFFFFFFFF AND DUP2 MSTORE PUSH1 0x20 ADD SWAP1 DUP2 MSTORE PUSH1 0x20 ADD PUSH1 0x0 KECCAK256 DUP3 DUP2 SLOAD DUP2 LT PUSH2 0x1135 JUMPI PUSH2 0x1134 PUSH2 0x2E70 JUMP JUMPDEST JUMPDEST SWAP1 PUSH1 0x0 MSTORE PUSH1 0x20 PUSH1 0x0 KECCAK256 ADD DUP2 SWAP1 SSTORE POP PUSH1 0x5 PUSH1 0x0 CALLER PUSH20 0xFFFFFFFFFFFFFFFFFFFFFFFFFFFFFFFFFFFFFFFF AND PUSH20 0xFFFFFFFFFFFFFFFFFFFFFFFFFFFFFFFFFFFFFFFF AND DUP2 MSTORE PUSH1 0x20 ADD SWAP1 DUP2 MSTORE PUSH1 0x20 ADD PUSH1 0x0 KECCAK256 DUP1 SLOAD DUP1 PUSH2 0x1192 JUMPI PUSH2 0x1191 PUSH2 0x2E41 JUMP JUMPDEST JUMPDEST PUSH1 0x1 SWAP1 SUB DUP2 DUP2 SWAP1 PUSH1 0x0 MSTORE PUSH1 0x20 PUSH1 0x0 KECCAK256 ADD PUSH1 0x0 SWAP1 SSTORE SWAP1 SSTORE PUSH2 0x11C0 JUMP JUMPDEST DUP1 DUP1 PUSH2 0x11B8 SWAP1 PUSH2 0x2D6B JUMP JUMPDEST SWAP2 POP POP PUSH2 0xF8C JUMP JUMPDEST POP PUSH1 0x7 PUSH1 0x0 CALLER PUSH20 0xFFFFFFFFFFFFFFFFFFFFFFFFFFFFFFFFFFFFFFFF AND PUSH20 0xFFFFFFFFFFFFFFFFFFFFFFFFFFFFFFFFFFFFFFFF AND DUP2 MSTORE PUSH1 0x20 ADD SWAP1 DUP2 MSTORE PUSH1 0x20 ADD PUSH1 0x0 KECCAK256 PUSH1 0x0 DUP1 DUP2 MSTORE PUSH1 0x20 ADD SWAP1 DUP2 MSTORE PUSH1 0x20 ADD PUSH1 0x0 KECCAK256 PUSH1 0x0 DUP1 DUP3 ADD PUSH1 0x0 PUSH2 0x100 EXP DUP2 SLOAD SWAP1 PUSH1 0xFF MUL NOT AND SWAP1 SSTORE PUSH1 0x1 DUP3 ADD PUSH1 0x0 SWAP1 SSTORE PUSH1 0x2 DUP3 ADD PUSH1 0x0 SWAP1 SSTORE PUSH1 0x3 DUP3 ADD PUSH1 0x0 SWAP1 SSTORE POP POP JUMP JUMPDEST PUSH1 0x0 DUP1 PUSH1 0x0 SWAP1 SLOAD SWAP1 PUSH2 0x100 EXP SWAP1 DIV PUSH20 0xFFFFFFFFFFFFFFFFFFFFFFFFFFFFFFFFFFFFFFFF AND SWAP1 POP SWAP1 JUMP JUMPDEST PUSH1 0x7 PUSH1 0x0 CALLER PUSH20 0xFFFFFFFFFFFFFFFFFFFFFFFFFFFFFFFFFFFFFFFF AND PUSH20 0xFFFFFFFFFFFFFFFFFFFFFFFFFFFFFFFFFFFFFFFF AND DUP2 MSTORE PUSH1 0x20 ADD SWAP1 DUP2 MSTORE PUSH1 0x20 ADD PUSH1 0x0 KECCAK256 PUSH1 0x0 DUP1 DUP2 MSTORE PUSH1 0x20 ADD SWAP1 DUP2 MSTORE PUSH1 0x20 ADD PUSH1 0x0 KECCAK256 PUSH1 0x0 ADD PUSH1 0x0 SWAP1 SLOAD SWAP1 PUSH2 0x100 EXP SWAP1 DIV PUSH1 0xFF AND ISZERO PUSH2 0x130C JUMPI PUSH1 0x40 MLOAD PUSH32 0x8C379A000000000000000000000000000000000000000000000000000000000 DUP2 MSTORE PUSH1 0x4 ADD PUSH2 0x1303 SWAP1 PUSH2 0x29E3 JUMP JUMPDEST PUSH1 0x40 MLOAD DUP1 SWAP2 SUB SWAP1 REVERT JUMPDEST PUSH1 0x4 PUSH1 0x0 DUP2 SLOAD DUP2 LT PUSH2 0x1321 JUMPI PUSH2 0x1320 PUSH2 0x2E70 JUMP JUMPDEST JUMPDEST SWAP1 PUSH1 0x0 MSTORE PUSH1 0x20 PUSH1 0x0 KECCAK256 SWAP1 PUSH1 0x6 MUL ADD PUSH1 0x4 ADD PUSH1 0x0 SWAP1 SLOAD SWAP1 PUSH2 0x100 EXP SWAP1 DIV PUSH1 0xFF AND ISZERO PUSH2 0x1380 JUMPI PUSH1 0x40 MLOAD PUSH32 0x8C379A000000000000000000000000000000000000000000000000000000000 DUP2 MSTORE PUSH1 0x4 ADD PUSH2 0x1377 SWAP1 PUSH2 0x2923 JUMP JUMPDEST PUSH1 0x40 MLOAD DUP1 SWAP2 SUB SWAP1 REVERT JUMPDEST DUP1 PUSH1 0x4 PUSH1 0x0 DUP2 SLOAD DUP2 LT PUSH2 0x1396 JUMPI PUSH2 0x1395 PUSH2 0x2E70 JUMP JUMPDEST JUMPDEST SWAP1 PUSH1 0x0 MSTORE PUSH1 0x20 PUSH1 0x0 KECCAK256 SWAP1 PUSH1 0x6 MUL ADD PUSH1 0x0 ADD PUSH1 0x0 SWAP1 SLOAD SWAP1 PUSH2 0x100 EXP SWAP1 DIV PUSH20 0xFFFFFFFFFFFFFFFFFFFFFFFFFFFFFFFFFFFFFFFF AND PUSH20 0xFFFFFFFFFFFFFFFFFFFFFFFFFFFFFFFFFFFFFFFF AND PUSH4 0xDD62ED3E CALLER ADDRESS PUSH1 0x40 MLOAD DUP4 PUSH4 0xFFFFFFFF AND PUSH1 0xE0 SHL DUP2 MSTORE PUSH1 0x4 ADD PUSH2 0x1402 SWAP3 SWAP2 SWAP1 PUSH2 0x2741 JUMP JUMPDEST PUSH1 0x20 PUSH1 0x40 MLOAD DUP1 DUP4 SUB DUP2 DUP7 DUP1 EXTCODESIZE ISZERO DUP1 ISZERO PUSH2 0x141A JUMPI PUSH1 0x0 DUP1 REVERT JUMPDEST POP GAS STATICCALL ISZERO DUP1 ISZERO PUSH2 0x142E JUMPI RETURNDATASIZE PUSH1 0x0 DUP1 RETURNDATACOPY RETURNDATASIZE PUSH1 0x0 REVERT JUMPDEST POP POP POP POP PUSH1 0x40 MLOAD RETURNDATASIZE PUSH1 0x1F NOT PUSH1 0x1F DUP3 ADD AND DUP3 ADD DUP1 PUSH1 0x40 MSTORE POP DUP2 ADD SWAP1 PUSH2 0x1452 SWAP2 SWAP1 PUSH2 0x2319 JUMP JUMPDEST LT ISZERO PUSH2 0x1493 JUMPI PUSH1 0x40 MLOAD PUSH32 0x8C379A000000000000000000000000000000000000000000000000000000000 DUP2 MSTORE PUSH1 0x4 ADD PUSH2 0x148A SWAP1 PUSH2 0x28A3 JUMP JUMPDEST PUSH1 0x40 MLOAD DUP1 SWAP2 SUB SWAP1 REVERT JUMPDEST PUSH1 0x4 PUSH1 0x0 DUP2 SLOAD DUP2 LT PUSH2 0x14A8 JUMPI PUSH2 0x14A7 PUSH2 0x2E70 JUMP JUMPDEST JUMPDEST SWAP1 PUSH1 0x0 MSTORE PUSH1 0x20 PUSH1 0x0 KECCAK256 SWAP1 PUSH1 0x6 MUL ADD PUSH1 0x0 ADD PUSH1 0x0 SWAP1 SLOAD SWAP1 PUSH2 0x100 EXP SWAP1 DIV PUSH20 0xFFFFFFFFFFFFFFFFFFFFFFFFFFFFFFFFFFFFFFFF AND PUSH20 0xFFFFFFFFFFFFFFFFFFFFFFFFFFFFFFFFFFFFFFFF AND PUSH4 0x23B872DD CALLER ADDRESS DUP5 PUSH1 0x40 MLOAD DUP5 PUSH4 0xFFFFFFFF AND PUSH1 0xE0 SHL DUP2 MSTORE PUSH1 0x4 ADD PUSH2 0x1516 SWAP4 SWAP3 SWAP2 SWAP1 PUSH2 0x276A JUMP JUMPDEST PUSH1 0x20 PUSH1 0x40 MLOAD DUP1 DUP4 SUB DUP2 PUSH1 0x0 DUP8 DUP1 EXTCODESIZE ISZERO DUP1 ISZERO PUSH2 0x1530 JUMPI PUSH1 0x0 DUP1 REVERT JUMPDEST POP GAS CALL ISZERO DUP1 ISZERO PUSH2 0x1544 JUMPI RETURNDATASIZE PUSH1 0x0 DUP1 RETURNDATACOPY RETURNDATASIZE PUSH1 0x0 REVERT JUMPDEST POP POP POP POP PUSH1 0x40 MLOAD RETURNDATASIZE PUSH1 0x1F NOT PUSH1 0x1F DUP3 ADD AND DUP3 ADD DUP1 PUSH1 0x40 MSTORE POP DUP2 ADD SWAP1 PUSH2 0x1568 SWAP2 SWAP1 PUSH2 0x22BF JUMP JUMPDEST POP PUSH1 0x2 SLOAD DUP2 PUSH1 0x6 PUSH1 0x0 PUSH3 0x15180 TIMESTAMP PUSH2 0x1580 SWAP2 SWAP1 PUSH2 0x2BAD JUMP JUMPDEST DUP2 MSTORE PUSH1 0x20 ADD SWAP1 DUP2 MSTORE PUSH1 0x20 ADD PUSH1 0x0 KECCAK256 PUSH1 0x0 DUP1 DUP2 MSTORE PUSH1 0x20 ADD SWAP1 DUP2 MSTORE PUSH1 0x20 ADD PUSH1 0x0 KECCAK256 SLOAD PUSH2 0x15AA SWAP2 SWAP1 PUSH2 0x2B57 JUMP JUMPDEST GT ISZERO PUSH2 0x15EB JUMPI PUSH1 0x40 MLOAD PUSH32 0x8C379A000000000000000000000000000000000000000000000000000000000 DUP2 MSTORE PUSH1 0x4 ADD PUSH2 0x15E2 SWAP1 PUSH2 0x2903 JUMP JUMPDEST PUSH1 0x40 MLOAD DUP1 SWAP2 SUB SWAP1 REVERT JUMPDEST PUSH1 0x1 SLOAD DUP2 LT ISZERO PUSH2 0x1630 JUMPI PUSH1 0x40 MLOAD PUSH32 0x8C379A000000000000000000000000000000000000000000000000000000000 DUP2 MSTORE PUSH1 0x4 ADD PUSH2 0x1627 SWAP1 PUSH2 0x29C3 JUMP JUMPDEST PUSH1 0x40 MLOAD DUP1 SWAP2 SUB SWAP1 REVERT JUMPDEST PUSH1 0x40 MLOAD DUP1 PUSH1 0x80 ADD PUSH1 0x40 MSTORE DUP1 PUSH1 0x1 ISZERO ISZERO DUP2 MSTORE PUSH1 0x20 ADD DUP3 DUP2 MSTORE PUSH1 0x20 ADD TIMESTAMP DUP2 MSTORE PUSH1 0x20 ADD PUSH1 0x0 DUP2 MSTORE POP PUSH1 0x7 PUSH1 0x0 CALLER PUSH20 0xFFFFFFFFFFFFFFFFFFFFFFFFFFFFFFFFFFFFFFFF AND PUSH20 0xFFFFFFFFFFFFFFFFFFFFFFFFFFFFFFFFFFFFFFFF AND DUP2 MSTORE PUSH1 0x20 ADD SWAP1 DUP2 MSTORE PUSH1 0x20 ADD PUSH1 0x0 KECCAK256 PUSH1 0x0 DUP1 DUP2 MSTORE PUSH1 0x20 ADD SWAP1 DUP2 MSTORE PUSH1 0x20 ADD PUSH1 0x0 KECCAK256 PUSH1 0x0 DUP3 ADD MLOAD DUP2 PUSH1 0x0 ADD PUSH1 0x0 PUSH2 0x100 EXP DUP2 SLOAD DUP2 PUSH1 0xFF MUL NOT AND SWAP1 DUP4 ISZERO ISZERO MUL OR SWAP1 SSTORE POP PUSH1 0x20 DUP3 ADD MLOAD DUP2 PUSH1 0x1 ADD SSTORE PUSH1 0x40 DUP3 ADD MLOAD DUP2 PUSH1 0x2 ADD SSTORE PUSH1 0x60 DUP3 ADD MLOAD DUP2 PUSH1 0x3 ADD SSTORE SWAP1 POP POP DUP1 PUSH1 0x6 PUSH1 0x0 PUSH3 0x15180 TIMESTAMP PUSH2 0x16FA SWAP2 SWAP1 PUSH2 0x2BAD JUMP JUMPDEST DUP2 MSTORE PUSH1 0x20 ADD SWAP1 DUP2 MSTORE PUSH1 0x20 ADD PUSH1 0x0 KECCAK256 PUSH1 0x0 DUP1 DUP2 MSTORE PUSH1 0x20 ADD SWAP1 DUP2 MSTORE PUSH1 0x20 ADD PUSH1 0x0 KECCAK256 PUSH1 0x0 DUP3 DUP3 SLOAD PUSH2 0x1728 SWAP2 SWAP1 PUSH2 0x2B57 JUMP JUMPDEST SWAP3 POP POP DUP2 SWAP1 SSTORE POP DUP1 PUSH1 0x4 PUSH1 0x0 DUP2 SLOAD DUP2 LT PUSH2 0x1745 JUMPI PUSH2 0x1744 PUSH2 0x2E70 JUMP JUMPDEST JUMPDEST SWAP1 PUSH1 0x0 MSTORE PUSH1 0x20 PUSH1 0x0 KECCAK256 SWAP1 PUSH1 0x6 MUL ADD PUSH1 0x2 ADD PUSH1 0x0 DUP3 DUP3 SLOAD PUSH2 0x1765 SWAP2 SWAP1 PUSH2 0x2B57 JUMP JUMPDEST SWAP3 POP POP DUP2 SWAP1 SSTORE POP PUSH1 0x5 PUSH1 0x0 CALLER PUSH20 0xFFFFFFFFFFFFFFFFFFFFFFFFFFFFFFFFFFFFFFFF AND PUSH20 0xFFFFFFFFFFFFFFFFFFFFFFFFFFFFFFFFFFFFFFFF AND DUP2 MSTORE PUSH1 0x20 ADD SWAP1 DUP2 MSTORE PUSH1 0x20 ADD PUSH1 0x0 KECCAK256 PUSH1 0x0 SWAP1 DUP1 PUSH1 0x1 DUP2 SLOAD ADD DUP1 DUP3 SSTORE DUP1 SWAP2 POP POP PUSH1 0x1 SWAP1 SUB SWAP1 PUSH1 0x0 MSTORE PUSH1 0x20 PUSH1 0x0 KECCAK256 ADD PUSH1 0x0 SWAP1 SWAP2 SWAP1 SWAP2 SWAP1 SWAP2 POP SSTORE PUSH32 0xF556991011E831BCFAC4F406D547E5E32CDD98267EFAB83935230D5F8D02C446 CALLER DUP3 PUSH1 0x0 TIMESTAMP PUSH1 0x40 MLOAD PUSH2 0x1809 SWAP5 SWAP4 SWAP3 SWAP2 SWAP1 PUSH2 0x27CA JUMP JUMPDEST PUSH1 0x40 MLOAD DUP1 SWAP2 SUB SWAP1 LOG1 POP JUMP JUMPDEST PUSH2 0x181C PUSH2 0x1ED0 JUMP JUMPDEST PUSH1 0x4 PUSH1 0x0 DUP2 SLOAD DUP2 LT PUSH2 0x1831 JUMPI PUSH2 0x1830 PUSH2 0x2E70 JUMP JUMPDEST JUMPDEST SWAP1 PUSH1 0x0 MSTORE PUSH1 0x20 PUSH1 0x0 KECCAK256 SWAP1 PUSH1 0x6 MUL ADD PUSH1 0x1 ADD PUSH1 0x0 SWAP1 SLOAD SWAP1 PUSH2 0x100 EXP SWAP1 DIV PUSH20 0xFFFFFFFFFFFFFFFFFFFFFFFFFFFFFFFFFFFFFFFF AND PUSH20 0xFFFFFFFFFFFFFFFFFFFFFFFFFFFFFFFFFFFFFFFF AND PUSH4 0x23B872DD CALLER ADDRESS DUP5 PUSH1 0x40 MLOAD DUP5 PUSH4 0xFFFFFFFF AND PUSH1 0xE0 SHL DUP2 MSTORE PUSH1 0x4 ADD PUSH2 0x189F SWAP4 SWAP3 SWAP2 SWAP1 PUSH2 0x276A JUMP JUMPDEST PUSH1 0x20 PUSH1 0x40 MLOAD DUP1 DUP4 SUB DUP2 PUSH1 0x0 DUP8 DUP1 EXTCODESIZE ISZERO DUP1 ISZERO PUSH2 0x18B9 JUMPI PUSH1 0x0 DUP1 REVERT JUMPDEST POP GAS CALL ISZERO DUP1 ISZERO PUSH2 0x18CD JUMPI RETURNDATASIZE PUSH1 0x0 DUP1 RETURNDATACOPY RETURNDATASIZE PUSH1 0x0 REVERT JUMPDEST POP POP POP POP PUSH1 0x40 MLOAD RETURNDATASIZE PUSH1 0x1F NOT PUSH1 0x1F DUP3 ADD AND DUP3 ADD DUP1 PUSH1 0x40 MSTORE POP DUP2 ADD SWAP1 PUSH2 0x18F1 SWAP2 SWAP1 PUSH2 0x22BF JUMP JUMPDEST POP POP JUMP JUMPDEST PUSH2 0x18FD PUSH2 0x1ED0 JUMP JUMPDEST DUP1 PUSH1 0x2 DUP2 SWAP1 SSTORE POP POP JUMP JUMPDEST PUSH2 0x190F PUSH2 0x1ED0 JUMP JUMPDEST PUSH1 0x0 PUSH1 0x4 PUSH1 0x0 DUP2 SLOAD DUP2 LT PUSH2 0x1926 JUMPI PUSH2 0x1925 PUSH2 0x2E70 JUMP JUMPDEST JUMPDEST SWAP1 PUSH1 0x0 MSTORE PUSH1 0x20 PUSH1 0x0 KECCAK256 SWAP1 PUSH1 0x6 MUL ADD PUSH1 0x2 ADD SLOAD EQ PUSH2 0x1978 JUMPI PUSH1 0x40 MLOAD PUSH32 0x8C379A000000000000000000000000000000000000000000000000000000000 DUP2 MSTORE PUSH1 0x4 ADD PUSH2 0x196F SWAP1 PUSH2 0x2A23 JUMP JUMPDEST PUSH1 0x40 MLOAD DUP1 SWAP2 SUB SWAP1 REVERT JUMPDEST PUSH1 0x4 PUSH1 0x0 DUP2 SLOAD DUP2 LT PUSH2 0x198D JUMPI PUSH2 0x198C PUSH2 0x2E70 JUMP JUMPDEST JUMPDEST SWAP1 PUSH1 0x0 MSTORE PUSH1 0x20 PUSH1 0x0 KECCAK256 SWAP1 PUSH1 0x6 MUL ADD PUSH1 0x4 ADD PUSH1 0x0 SWAP1 SLOAD SWAP1 PUSH2 0x100 EXP SWAP1 DIV PUSH1 0xFF AND ISZERO PUSH1 0x4 PUSH1 0x0 DUP2 SLOAD DUP2 LT PUSH2 0x19C2 JUMPI PUSH2 0x19C1 PUSH2 0x2E70 JUMP JUMPDEST JUMPDEST SWAP1 PUSH1 0x0 MSTORE PUSH1 0x20 PUSH1 0x0 KECCAK256 SWAP1 PUSH1 0x6 MUL ADD PUSH1 0x4 ADD PUSH1 0x0 PUSH2 0x100 EXP DUP2 SLOAD DUP2 PUSH1 0xFF MUL NOT AND SWAP1 DUP4 ISZERO ISZERO MUL OR SWAP1 SSTORE POP JUMP JUMPDEST PUSH2 0x19F4 PUSH2 0x1ED0 JUMP JUMPDEST DUP1 PUSH1 0x1 DUP2 SWAP1 SSTORE POP POP JUMP JUMPDEST PUSH1 0x0 PUSH1 0x4 PUSH1 0x0 DUP2 SLOAD DUP2 LT PUSH2 0x1A15 JUMPI PUSH2 0x1A14 PUSH2 0x2E70 JUMP JUMPDEST JUMPDEST SWAP1 PUSH1 0x0 MSTORE PUSH1 0x20 PUSH1 0x0 KECCAK256 SWAP1 PUSH1 0x6 MUL ADD PUSH1 0x4 ADD PUSH1 0x0 SWAP1 SLOAD SWAP1 PUSH2 0x100 EXP SWAP1 DIV PUSH1 0xFF AND SWAP1 POP SWAP1 JUMP JUMPDEST PUSH1 0x1 SLOAD DUP2 JUMP JUMPDEST PUSH2 0x1A47 PUSH2 0x1ED0 JUMP JUMPDEST PUSH1 0x0 PUSH20 0xFFFFFFFFFFFFFFFFFFFFFFFFFFFFFFFFFFFFFFFF AND DUP2 PUSH20 0xFFFFFFFFFFFFFFFFFFFFFFFFFFFFFFFFFFFFFFFF AND EQ ISZERO PUSH2 0x1AB7 JUMPI PUSH1 0x40 MLOAD PUSH32 0x8C379A000000000000000000000000000000000000000000000000000000000 DUP2 MSTORE PUSH1 0x4 ADD PUSH2 0x1AAE SWAP1 PUSH2 0x28E3 JUMP JUMPDEST PUSH1 0x40 MLOAD DUP1 SWAP2 SUB SWAP1 REVERT JUMPDEST PUSH2 0x1AC0 DUP2 PUSH2 0x1F4E JUMP JUMPDEST POP JUMP JUMPDEST PUSH2 0x1ACB PUSH2 0x2104 JUMP JUMPDEST PUSH1 0x7 PUSH1 0x0 DUP4 PUSH20 0xFFFFFFFFFFFFFFFFFFFFFFFFFFFFFFFFFFFFFFFF AND PUSH20 0xFFFFFFFFFFFFFFFFFFFFFFFFFFFFFFFFFFFFFFFF AND DUP2 MSTORE PUSH1 0x20 ADD SWAP1 DUP2 MSTORE PUSH1 0x20 ADD PUSH1 0x0 KECCAK256 PUSH1 0x0 DUP1 DUP2 MSTORE PUSH1 0x20 ADD SWAP1 DUP2 MSTORE PUSH1 0x20 ADD PUSH1 0x0 KECCAK256 PUSH1 0x40 MLOAD DUP1 PUSH1 0x80 ADD PUSH1 0x40 MSTORE SWAP1 DUP2 PUSH1 0x0 DUP3 ADD PUSH1 0x0 SWAP1 SLOAD SWAP1 PUSH2 0x100 EXP SWAP1 DIV PUSH1 0xFF AND ISZERO ISZERO ISZERO ISZERO DUP2 MSTORE PUSH1 0x20 ADD PUSH1 0x1 DUP3 ADD SLOAD DUP2 MSTORE PUSH1 0x20 ADD PUSH1 0x2 DUP3 ADD SLOAD DUP2 MSTORE PUSH1 0x20 ADD PUSH1 0x3 DUP3 ADD SLOAD DUP2 MSTORE POP POP SWAP1 POP SWAP2 SWAP1 POP JUMP JUMPDEST PUSH2 0x1B6E PUSH2 0x1ED0 JUMP JUMPDEST PUSH1 0x0 PUSH20 0xFFFFFFFFFFFFFFFFFFFFFFFFFFFFFFFFFFFFFFFF AND PUSH1 0x4 PUSH1 0x0 DUP2 SLOAD DUP2 LT PUSH2 0x1B9B JUMPI PUSH2 0x1B9A PUSH2 0x2E70 JUMP JUMPDEST JUMPDEST SWAP1 PUSH1 0x0 MSTORE PUSH1 0x20 PUSH1 0x0 KECCAK256 SWAP1 PUSH1 0x6 MUL ADD PUSH1 0x1 ADD PUSH1 0x0 SWAP1 SLOAD SWAP1 PUSH2 0x100 EXP SWAP1 DIV PUSH20 0xFFFFFFFFFFFFFFFFFFFFFFFFFFFFFFFFFFFFFFFF AND PUSH20 0xFFFFFFFFFFFFFFFFFFFFFFFFFFFFFFFFFFFFFFFF AND EQ ISZERO PUSH2 0x1C24 JUMPI PUSH1 0x40 MLOAD PUSH32 0x8C379A000000000000000000000000000000000000000000000000000000000 DUP2 MSTORE PUSH1 0x4 ADD PUSH2 0x1C1B SWAP1 PUSH2 0x2A03 JUMP JUMPDEST PUSH1 0x40 MLOAD DUP1 SWAP2 SUB SWAP1 REVERT JUMPDEST PUSH1 0x4 PUSH1 0x0 DUP2 SLOAD DUP2 LT PUSH2 0x1C39 JUMPI PUSH2 0x1C38 PUSH2 0x2E70 JUMP JUMPDEST JUMPDEST SWAP1 PUSH1 0x0 MSTORE PUSH1 0x20 PUSH1 0x0 KECCAK256 SWAP1 PUSH1 0x6 MUL ADD PUSH1 0x1 ADD PUSH1 0x0 SWAP1 SLOAD SWAP1 PUSH2 0x100 EXP SWAP1 DIV PUSH20 0xFFFFFFFFFFFFFFFFFFFFFFFFFFFFFFFFFFFFFFFF AND PUSH20 0xFFFFFFFFFFFFFFFFFFFFFFFFFFFFFFFFFFFFFFFF AND PUSH4 0xA9059CBB CALLER DUP4 PUSH1 0x40 MLOAD DUP4 PUSH4 0xFFFFFFFF AND PUSH1 0xE0 SHL DUP2 MSTORE PUSH1 0x4 ADD PUSH2 0x1CA5 SWAP3 SWAP2 SWAP1 PUSH2 0x27A1 JUMP JUMPDEST PUSH1 0x20 PUSH1 0x40 MLOAD DUP1 DUP4 SUB DUP2 PUSH1 0x0 DUP8 DUP1 EXTCODESIZE ISZERO DUP1 ISZERO PUSH2 0x1CBF JUMPI PUSH1 0x0 DUP1 REVERT JUMPDEST POP GAS CALL ISZERO DUP1 ISZERO PUSH2 0x1CD3 JUMPI RETURNDATASIZE PUSH1 0x0 DUP1 RETURNDATACOPY RETURNDATASIZE PUSH1 0x0 REVERT JUMPDEST POP POP POP POP PUSH1 0x40 MLOAD RETURNDATASIZE PUSH1 0x1F NOT PUSH1 0x1F DUP3 ADD AND DUP3 ADD DUP1 PUSH1 0x40 MSTORE POP DUP2 ADD SWAP1 PUSH2 0x1CF7 SWAP2 SWAP1 PUSH2 0x22BF JUMP JUMPDEST POP POP JUMP JUMPDEST PUSH1 0x0 PUSH2 0x1D06 DUP3 PUSH2 0x737 JUMP JUMPDEST GT PUSH2 0x1D46 JUMPI PUSH1 0x40 MLOAD PUSH32 0x8C379A000000000000000000000000000000000000000000000000000000000 DUP2 MSTORE PUSH1 0x4 ADD PUSH2 0x1D3D SWAP1 PUSH2 0x28C3 JUMP JUMPDEST PUSH1 0x40 MLOAD DUP1 SWAP2 SUB SWAP1 REVERT JUMPDEST PUSH1 0x0 PUSH2 0x1D51 DUP3 PUSH2 0x737 JUMP JUMPDEST SWAP1 POP PUSH1 0x4 PUSH1 0x0 DUP2 SLOAD DUP2 LT PUSH2 0x1D68 JUMPI PUSH2 0x1D67 PUSH2 0x2E70 JUMP JUMPDEST JUMPDEST SWAP1 PUSH1 0x0 MSTORE PUSH1 0x20 PUSH1 0x0 KECCAK256 SWAP1 PUSH1 0x6 MUL ADD PUSH1 0x1 ADD PUSH1 0x0 SWAP1 SLOAD SWAP1 PUSH2 0x100 EXP SWAP1 DIV PUSH20 0xFFFFFFFFFFFFFFFFFFFFFFFFFFFFFFFFFFFFFFFF AND PUSH20 0xFFFFFFFFFFFFFFFFFFFFFFFFFFFFFFFFFFFFFFFF AND PUSH4 0xA9059CBB CALLER DUP4 PUSH1 0x40 MLOAD DUP4 PUSH4 0xFFFFFFFF AND PUSH1 0xE0 SHL DUP2 MSTORE PUSH1 0x4 ADD PUSH2 0x1DD4 SWAP3 SWAP2 SWAP1 PUSH2 0x27A1 JUMP JUMPDEST PUSH1 0x20 PUSH1 0x40 MLOAD DUP1 DUP4 SUB DUP2 PUSH1 0x0 DUP8 DUP1 EXTCODESIZE ISZERO DUP1 ISZERO PUSH2 0x1DEE JUMPI PUSH1 0x0 DUP1 REVERT JUMPDEST POP GAS CALL ISZERO DUP1 ISZERO PUSH2 0x1E02 JUMPI RETURNDATASIZE PUSH1 0x0 DUP1 RETURNDATACOPY RETURNDATASIZE PUSH1 0x0 REVERT JUMPDEST POP POP POP POP PUSH1 0x40 MLOAD RETURNDATASIZE PUSH1 0x1F NOT PUSH1 0x1F DUP3 ADD AND DUP3 ADD DUP1 PUSH1 0x40 MSTORE POP DUP2 ADD SWAP1 PUSH2 0x1E26 SWAP2 SWAP1 PUSH2 0x22BF JUMP JUMPDEST POP DUP1 PUSH1 0x7 PUSH1 0x0 DUP5 PUSH20 0xFFFFFFFFFFFFFFFFFFFFFFFFFFFFFFFFFFFFFFFF AND PUSH20 0xFFFFFFFFFFFFFFFFFFFFFFFFFFFFFFFFFFFFFFFF AND DUP2 MSTORE PUSH1 0x20 ADD SWAP1 DUP2 MSTORE PUSH1 0x20 ADD PUSH1 0x0 KECCAK256 PUSH1 0x0 DUP1 DUP2 MSTORE PUSH1 0x20 ADD SWAP1 DUP2 MSTORE PUSH1 0x20 ADD PUSH1 0x0 KECCAK256 PUSH1 0x3 ADD PUSH1 0x0 DUP3 DUP3 SLOAD PUSH2 0x1E8A SWAP2 SWAP1 PUSH2 0x2B57 JUMP JUMPDEST SWAP3 POP POP DUP2 SWAP1 SSTORE POP PUSH32 0xDF273CB619D95419A9CD0EC88123A0538C85064229BAA6363788F743FFF90DEB DUP3 DUP3 TIMESTAMP PUSH1 0x40 MLOAD PUSH2 0x1EC4 SWAP4 SWAP3 SWAP2 SWAP1 PUSH2 0x280F JUMP JUMPDEST PUSH1 0x40 MLOAD DUP1 SWAP2 SUB SWAP1 LOG1 POP POP JUMP JUMPDEST PUSH2 0x1ED8 PUSH2 0x2012 JUMP JUMPDEST PUSH20 0xFFFFFFFFFFFFFFFFFFFFFFFFFFFFFFFFFFFFFFFF AND PUSH2 0x1EF6 PUSH2 0x1242 JUMP JUMPDEST PUSH20 0xFFFFFFFFFFFFFFFFFFFFFFFFFFFFFFFFFFFFFFFF AND EQ PUSH2 0x1F4C JUMPI PUSH1 0x40 MLOAD PUSH32 0x8C379A000000000000000000000000000000000000000000000000000000000 DUP2 MSTORE PUSH1 0x4 ADD PUSH2 0x1F43 SWAP1 PUSH2 0x2983 JUMP JUMPDEST PUSH1 0x40 MLOAD DUP1 SWAP2 SUB SWAP1 REVERT JUMPDEST JUMP JUMPDEST PUSH1 0x0 DUP1 PUSH1 0x0 SWAP1 SLOAD SWAP1 PUSH2 0x100 EXP SWAP1 DIV PUSH20 0xFFFFFFFFFFFFFFFFFFFFFFFFFFFFFFFFFFFFFFFF AND SWAP1 POP DUP2 PUSH1 0x0 DUP1 PUSH2 0x100 EXP DUP2 SLOAD DUP2 PUSH20 0xFFFFFFFFFFFFFFFFFFFFFFFFFFFFFFFFFFFFFFFF MUL NOT AND SWAP1 DUP4 PUSH20 0xFFFFFFFFFFFFFFFFFFFFFFFFFFFFFFFFFFFFFFFF AND MUL OR SWAP1 SSTORE POP DUP2 PUSH20 0xFFFFFFFFFFFFFFFFFFFFFFFFFFFFFFFFFFFFFFFF AND DUP2 PUSH20 0xFFFFFFFFFFFFFFFFFFFFFFFFFFFFFFFFFFFFFFFF AND PUSH32 0x8BE0079C531659141344CD1FD0A4F28419497F9722A3DAAFE3B4186F6B6457E0 PUSH1 0x40 MLOAD PUSH1 0x40 MLOAD DUP1 SWAP2 SUB SWAP1 LOG3 POP POP JUMP JUMPDEST PUSH1 0x0 CALLER SWAP1 POP SWAP1 JUMP JUMPDEST PUSH1 0x40 MLOAD DUP1 PUSH1 0xC0 ADD PUSH1 0x40 MSTORE DUP1 PUSH1 0x0 PUSH20 0xFFFFFFFFFFFFFFFFFFFFFFFFFFFFFFFFFFFFFFFF AND DUP2 MSTORE PUSH1 0x20 ADD PUSH1 0x0 PUSH20 0xFFFFFFFFFFFFFFFFFFFFFFFFFFFFFFFFFFFFFFFF AND DUP2 MSTORE PUSH1 0x20 ADD PUSH1 0x0 DUP2 MSTORE PUSH1 0x20 ADD PUSH1 0x60 DUP2 MSTORE PUSH1 0x20 ADD PUSH1 0x0 ISZERO ISZERO DUP2 MSTORE PUSH1 0x20 ADD PUSH1 0x0 DUP2 MSTORE POP SWAP1 JUMP JUMPDEST DUP3 DUP1 SLOAD PUSH2 0x208A SWAP1 PUSH2 0x2D08 JUMP JUMPDEST SWAP1 PUSH1 0x0 MSTORE PUSH1 0x20 PUSH1 0x0 KECCAK256 SWAP1 PUSH1 0x1F ADD PUSH1 0x20 SWAP1 DIV DUP2 ADD SWAP3 DUP3 PUSH2 0x20AC JUMPI PUSH1 0x0 DUP6 SSTORE PUSH2 0x20F3 JUMP JUMPDEST DUP3 PUSH1 0x1F LT PUSH2 0x20C5 JUMPI DUP1 MLOAD PUSH1 0xFF NOT AND DUP4 DUP1 ADD OR DUP6 SSTORE PUSH2 0x20F3 JUMP JUMPDEST DUP3 DUP1 ADD PUSH1 0x1 ADD DUP6 SSTORE DUP3 ISZERO PUSH2 0x20F3 JUMPI SWAP2 DUP3 ADD JUMPDEST DUP3 DUP2 GT ISZERO PUSH2 0x20F2 JUMPI DUP3 MLOAD DUP3 SSTORE SWAP2 PUSH1 0x20 ADD SWAP2 SWAP1 PUSH1 0x1 ADD SWAP1 PUSH2 0x20D7 JUMP JUMPDEST JUMPDEST POP SWAP1 POP PUSH2 0x2100 SWAP2 SWAP1 PUSH2 0x212E JUMP JUMPDEST POP SWAP1 JUMP JUMPDEST PUSH1 0x40 MLOAD DUP1 PUSH1 0x80 ADD PUSH1 0x40 MSTORE DUP1 PUSH1 0x0 ISZERO ISZERO DUP2 MSTORE PUSH1 0x20 ADD PUSH1 0x0 DUP2 MSTORE PUSH1 0x20 ADD PUSH1 0x0 DUP2 MSTORE PUSH1 0x20 ADD PUSH1 0x0 DUP2 MSTORE POP SWAP1 JUMP JUMPDEST JUMPDEST DUP1 DUP3 GT ISZERO PUSH2 0x2147 JUMPI PUSH1 0x0 DUP2 PUSH1 0x0 SWAP1 SSTORE POP PUSH1 0x1 ADD PUSH2 0x212F JUMP JUMPDEST POP SWAP1 JUMP JUMPDEST PUSH1 0x0 PUSH2 0x215E PUSH2 0x2159 DUP5 PUSH2 0x2AC0 JUMP JUMPDEST PUSH2 0x2A9B JUMP JUMPDEST SWAP1 POP DUP3 DUP2 MSTORE PUSH1 0x20 DUP2 ADD DUP5 DUP5 DUP5 ADD GT ISZERO PUSH2 0x217A JUMPI PUSH2 0x2179 PUSH2 0x2ED3 JUMP JUMPDEST JUMPDEST PUSH2 0x2185 DUP5 DUP3 DUP6 PUSH2 0x2CC6 JUMP JUMPDEST POP SWAP4 SWAP3 POP POP POP JUMP JUMPDEST PUSH1 0x0 DUP2 CALLDATALOAD SWAP1 POP PUSH2 0x219C DUP2 PUSH2 0x317D JUMP JUMPDEST SWAP3 SWAP2 POP POP JUMP JUMPDEST PUSH1 0x0 DUP2 MLOAD SWAP1 POP PUSH2 0x21B1 DUP2 PUSH2 0x3194 JUMP JUMPDEST SWAP3 SWAP2 POP POP JUMP JUMPDEST PUSH1 0x0 DUP3 PUSH1 0x1F DUP4 ADD SLT PUSH2 0x21CC JUMPI PUSH2 0x21CB PUSH2 0x2ECE JUMP JUMPDEST JUMPDEST DUP2 CALLDATALOAD PUSH2 0x21DC DUP5 DUP3 PUSH1 0x20 DUP7 ADD PUSH2 0x214B JUMP JUMPDEST SWAP2 POP POP SWAP3 SWAP2 POP POP JUMP JUMPDEST PUSH1 0x0 DUP2 CALLDATALOAD SWAP1 POP PUSH2 0x21F4 DUP2 PUSH2 0x31AB JUMP JUMPDEST SWAP3 SWAP2 POP POP JUMP JUMPDEST PUSH1 0x0 DUP2 MLOAD SWAP1 POP PUSH2 0x2209 DUP2 PUSH2 0x31AB JUMP JUMPDEST SWAP3 SWAP2 POP POP JUMP JUMPDEST PUSH1 0x0 PUSH1 0x20 DUP3 DUP5 SUB SLT ISZERO PUSH2 0x2225 JUMPI PUSH2 0x2224 PUSH2 0x2EDD JUMP JUMPDEST JUMPDEST PUSH1 0x0 PUSH2 0x2233 DUP5 DUP3 DUP6 ADD PUSH2 0x218D JUMP JUMPDEST SWAP2 POP POP SWAP3 SWAP2 POP POP JUMP JUMPDEST PUSH1 0x0 DUP1 PUSH1 0x0 DUP1 PUSH1 0x80 DUP6 DUP8 SUB SLT ISZERO PUSH2 0x2256 JUMPI PUSH2 0x2255 PUSH2 0x2EDD JUMP JUMPDEST JUMPDEST PUSH1 0x0 PUSH2 0x2264 DUP8 DUP3 DUP9 ADD PUSH2 0x218D JUMP JUMPDEST SWAP5 POP POP PUSH1 0x20 PUSH2 0x2275 DUP8 DUP3 DUP9 ADD PUSH2 0x218D JUMP JUMPDEST SWAP4 POP POP PUSH1 0x40 DUP6 ADD CALLDATALOAD PUSH8 0xFFFFFFFFFFFFFFFF DUP2 GT ISZERO PUSH2 0x2296 JUMPI PUSH2 0x2295 PUSH2 0x2ED8 JUMP JUMPDEST JUMPDEST PUSH2 0x22A2 DUP8 DUP3 DUP9 ADD PUSH2 0x21B7 JUMP JUMPDEST SWAP3 POP POP PUSH1 0x60 PUSH2 0x22B3 DUP8 DUP3 DUP9 ADD PUSH2 0x21E5 JUMP JUMPDEST SWAP2 POP POP SWAP3 SWAP6 SWAP2 SWAP5 POP SWAP3 POP JUMP JUMPDEST PUSH1 0x0 PUSH1 0x20 DUP3 DUP5 SUB SLT ISZERO PUSH2 0x22D5 JUMPI PUSH2 0x22D4 PUSH2 0x2EDD JUMP JUMPDEST JUMPDEST PUSH1 0x0 PUSH2 0x22E3 DUP5 DUP3 DUP6 ADD PUSH2 0x21A2 JUMP JUMPDEST SWAP2 POP POP SWAP3 SWAP2 POP POP JUMP JUMPDEST PUSH1 0x0 PUSH1 0x20 DUP3 DUP5 SUB SLT ISZERO PUSH2 0x2302 JUMPI PUSH2 0x2301 PUSH2 0x2EDD JUMP JUMPDEST JUMPDEST PUSH1 0x0 PUSH2 0x2310 DUP5 DUP3 DUP6 ADD PUSH2 0x21E5 JUMP JUMPDEST SWAP2 POP POP SWAP3 SWAP2 POP POP JUMP JUMPDEST PUSH1 0x0 PUSH1 0x20 DUP3 DUP5 SUB SLT ISZERO PUSH2 0x232F JUMPI PUSH2 0x232E PUSH2 0x2EDD JUMP JUMPDEST JUMPDEST PUSH1 0x0 PUSH2 0x233D DUP5 DUP3 DUP6 ADD PUSH2 0x21FA JUMP JUMPDEST SWAP2 POP POP SWAP3 SWAP2 POP POP JUMP JUMPDEST PUSH1 0x0 PUSH2 0x2352 DUP4 DUP4 PUSH2 0x2708 JUMP JUMPDEST PUSH1 0x20 DUP4 ADD SWAP1 POP SWAP3 SWAP2 POP POP JUMP JUMPDEST PUSH2 0x2367 DUP2 PUSH2 0x2C6C JUMP JUMPDEST DUP3 MSTORE POP POP JUMP JUMPDEST PUSH2 0x2376 DUP2 PUSH2 0x2C6C JUMP JUMPDEST DUP3 MSTORE POP POP JUMP JUMPDEST PUSH1 0x0 PUSH2 0x2387 DUP3 PUSH2 0x2B01 JUMP JUMPDEST PUSH2 0x2391 DUP2 DUP6 PUSH2 0x2B24 JUMP JUMPDEST SWAP4 POP PUSH2 0x239C DUP4 PUSH2 0x2AF1 JUMP JUMPDEST DUP1 PUSH1 0x0 JUMPDEST DUP4 DUP2 LT ISZERO PUSH2 0x23CD JUMPI DUP2 MLOAD PUSH2 0x23B4 DUP9 DUP3 PUSH2 0x2346 JUMP JUMPDEST SWAP8 POP PUSH2 0x23BF DUP4 PUSH2 0x2B17 JUMP JUMPDEST SWAP3 POP POP PUSH1 0x1 DUP2 ADD SWAP1 POP PUSH2 0x23A0 JUMP JUMPDEST POP DUP6 SWAP4 POP POP POP POP SWAP3 SWAP2 POP POP JUMP JUMPDEST PUSH2 0x23E3 DUP2 PUSH2 0x2C7E JUMP JUMPDEST DUP3 MSTORE POP POP JUMP JUMPDEST PUSH2 0x23F2 DUP2 PUSH2 0x2C7E JUMP JUMPDEST DUP3 MSTORE POP POP JUMP JUMPDEST PUSH2 0x2401 DUP2 PUSH2 0x2CB4 JUMP JUMPDEST DUP3 MSTORE POP POP JUMP JUMPDEST PUSH1 0x0 PUSH2 0x2412 DUP3 PUSH2 0x2B0C JUMP JUMPDEST PUSH2 0x241C DUP2 DUP6 PUSH2 0x2B35 JUMP JUMPDEST SWAP4 POP PUSH2 0x242C DUP2 DUP6 PUSH1 0x20 DUP7 ADD PUSH2 0x2CD5 JUMP JUMPDEST PUSH2 0x2435 DUP2 PUSH2 0x2EE2 JUMP JUMPDEST DUP5 ADD SWAP2 POP POP SWAP3 SWAP2 POP POP JUMP JUMPDEST PUSH1 0x0 PUSH2 0x244D PUSH1 0x12 DUP4 PUSH2 0x2B46 JUMP JUMPDEST SWAP2 POP PUSH2 0x2458 DUP3 PUSH2 0x2EF3 JUMP JUMPDEST PUSH1 0x20 DUP3 ADD SWAP1 POP SWAP2 SWAP1 POP JUMP JUMPDEST PUSH1 0x0 PUSH2 0x2470 PUSH1 0x13 DUP4 PUSH2 0x2B46 JUMP JUMPDEST SWAP2 POP PUSH2 0x247B DUP3 PUSH2 0x2F1C JUMP JUMPDEST PUSH1 0x20 DUP3 ADD SWAP1 POP SWAP2 SWAP1 POP JUMP JUMPDEST PUSH1 0x0 PUSH2 0x2493 PUSH1 0x13 DUP4 PUSH2 0x2B46 JUMP JUMPDEST SWAP2 POP PUSH2 0x249E DUP3 PUSH2 0x2F45 JUMP JUMPDEST PUSH1 0x20 DUP3 ADD SWAP1 POP SWAP2 SWAP1 POP JUMP JUMPDEST PUSH1 0x0 PUSH2 0x24B6 PUSH1 0x26 DUP4 PUSH2 0x2B46 JUMP JUMPDEST SWAP2 POP PUSH2 0x24C1 DUP3 PUSH2 0x2F6E JUMP JUMPDEST PUSH1 0x40 DUP3 ADD SWAP1 POP SWAP2 SWAP1 POP JUMP JUMPDEST PUSH1 0x0 PUSH2 0x24D9 PUSH1 0x13 DUP4 PUSH2 0x2B46 JUMP JUMPDEST SWAP2 POP PUSH2 0x24E4 DUP3 PUSH2 0x2FBD JUMP JUMPDEST PUSH1 0x20 DUP3 ADD SWAP1 POP SWAP2 SWAP1 POP JUMP JUMPDEST PUSH1 0x0 PUSH2 0x24FC PUSH1 0x1C DUP4 PUSH2 0x2B46 JUMP JUMPDEST SWAP2 POP PUSH2 0x2507 DUP3 PUSH2 0x2FE6 JUMP JUMPDEST PUSH1 0x20 DUP3 ADD SWAP1 POP SWAP2 SWAP1 POP JUMP JUMPDEST PUSH1 0x0 PUSH2 0x251F PUSH1 0x16 DUP4 PUSH2 0x2B46 JUMP JUMPDEST SWAP2 POP PUSH2 0x252A DUP3 PUSH2 0x300F JUMP JUMPDEST PUSH1 0x20 DUP3 ADD SWAP1 POP SWAP2 SWAP1 POP JUMP JUMPDEST PUSH1 0x0 PUSH2 0x2542 PUSH1 0x15 DUP4 PUSH2 0x2B46 JUMP JUMPDEST SWAP2 POP PUSH2 0x254D DUP3 PUSH2 0x3038 JUMP JUMPDEST PUSH1 0x20 DUP3 ADD SWAP1 POP SWAP2 SWAP1 POP JUMP JUMPDEST PUSH1 0x0 PUSH2 0x2565 PUSH1 0x20 DUP4 PUSH2 0x2B46 JUMP JUMPDEST SWAP2 POP PUSH2 0x2570 DUP3 PUSH2 0x3061 JUMP JUMPDEST PUSH1 0x20 DUP3 ADD SWAP1 POP SWAP2 SWAP1 POP JUMP JUMPDEST PUSH1 0x0 PUSH2 0x2588 PUSH1 0xC DUP4 PUSH2 0x2B46 JUMP JUMPDEST SWAP2 POP PUSH2 0x2593 DUP3 PUSH2 0x308A JUMP JUMPDEST PUSH1 0x20 DUP3 ADD SWAP1 POP SWAP2 SWAP1 POP JUMP JUMPDEST PUSH1 0x0 PUSH2 0x25AB PUSH1 0x23 DUP4 PUSH2 0x2B46 JUMP JUMPDEST SWAP2 POP PUSH2 0x25B6 DUP3 PUSH2 0x30B3 JUMP JUMPDEST PUSH1 0x40 DUP3 ADD SWAP1 POP SWAP2 SWAP1 POP JUMP JUMPDEST PUSH1 0x0 PUSH2 0x25CE PUSH1 0x12 DUP4 PUSH2 0x2B46 JUMP JUMPDEST SWAP2 POP PUSH2 0x25D9 DUP3 PUSH2 0x3102 JUMP JUMPDEST PUSH1 0x20 DUP3 ADD SWAP1 POP SWAP2 SWAP1 POP JUMP JUMPDEST PUSH1 0x0 PUSH2 0x25F1 PUSH1 0x1D DUP4 PUSH2 0x2B46 JUMP JUMPDEST SWAP2 POP PUSH2 0x25FC DUP3 PUSH2 0x312B JUMP JUMPDEST PUSH1 0x20 DUP3 ADD SWAP1 POP SWAP2 SWAP1 POP JUMP JUMPDEST PUSH1 0x0 PUSH2 0x2614 PUSH1 0x13 DUP4 PUSH2 0x2B46 JUMP JUMPDEST SWAP2 POP PUSH2 0x261F DUP3 PUSH2 0x3154 JUMP JUMPDEST PUSH1 0x20 DUP3 ADD SWAP1 POP SWAP2 SWAP1 POP JUMP JUMPDEST PUSH1 0x0 PUSH1 0xC0 DUP4 ADD PUSH1 0x0 DUP4 ADD MLOAD PUSH2 0x2642 PUSH1 0x0 DUP7 ADD DUP3 PUSH2 0x235E JUMP JUMPDEST POP PUSH1 0x20 DUP4 ADD MLOAD PUSH2 0x2655 PUSH1 0x20 DUP7 ADD DUP3 PUSH2 0x235E JUMP JUMPDEST POP PUSH1 0x40 DUP4 ADD MLOAD PUSH2 0x2668 PUSH1 0x40 DUP7 ADD DUP3 PUSH2 0x2708 JUMP JUMPDEST POP PUSH1 0x60 DUP4 ADD MLOAD DUP5 DUP3 SUB PUSH1 0x60 DUP7 ADD MSTORE PUSH2 0x2680 DUP3 DUP3 PUSH2 0x2407 JUMP JUMPDEST SWAP2 POP POP PUSH1 0x80 DUP4 ADD MLOAD PUSH2 0x2695 PUSH1 0x80 DUP7 ADD DUP3 PUSH2 0x23DA JUMP JUMPDEST POP PUSH1 0xA0 DUP4 ADD MLOAD PUSH2 0x26A8 PUSH1 0xA0 DUP7 ADD DUP3 PUSH2 0x2708 JUMP JUMPDEST POP DUP1 SWAP2 POP POP SWAP3 SWAP2 POP POP JUMP JUMPDEST PUSH1 0x80 DUP3 ADD PUSH1 0x0 DUP3 ADD MLOAD PUSH2 0x26C9 PUSH1 0x0 DUP6 ADD DUP3 PUSH2 0x23DA JUMP JUMPDEST POP PUSH1 0x20 DUP3 ADD MLOAD PUSH2 0x26DC PUSH1 0x20 DUP6 ADD DUP3 PUSH2 0x2708 JUMP JUMPDEST POP PUSH1 0x40 DUP3 ADD MLOAD PUSH2 0x26EF PUSH1 0x40 DUP6 ADD DUP3 PUSH2 0x2708 JUMP JUMPDEST POP PUSH1 0x60 DUP3 ADD MLOAD PUSH2 0x2702 PUSH1 0x60 DUP6 ADD DUP3 PUSH2 0x2708 JUMP JUMPDEST POP POP POP POP JUMP JUMPDEST PUSH2 0x2711 DUP2 PUSH2 0x2CAA JUMP JUMPDEST DUP3 MSTORE POP POP JUMP JUMPDEST PUSH2 0x2720 DUP2 PUSH2 0x2CAA JUMP JUMPDEST DUP3 MSTORE POP POP JUMP JUMPDEST PUSH1 0x0 PUSH1 0x20 DUP3 ADD SWAP1 POP PUSH2 0x273B PUSH1 0x0 DUP4 ADD DUP5 PUSH2 0x236D JUMP JUMPDEST SWAP3 SWAP2 POP POP JUMP JUMPDEST PUSH1 0x0 PUSH1 0x40 DUP3 ADD SWAP1 POP PUSH2 0x2756 PUSH1 0x0 DUP4 ADD DUP6 PUSH2 0x236D JUMP JUMPDEST PUSH2 0x2763 PUSH1 0x20 DUP4 ADD DUP5 PUSH2 0x236D JUMP JUMPDEST SWAP4 SWAP3 POP POP POP JUMP JUMPDEST PUSH1 0x0 PUSH1 0x60 DUP3 ADD SWAP1 POP PUSH2 0x277F PUSH1 0x0 DUP4 ADD DUP7 PUSH2 0x236D JUMP JUMPDEST PUSH2 0x278C PUSH1 0x20 DUP4 ADD DUP6 PUSH2 0x236D JUMP JUMPDEST PUSH2 0x2799 PUSH1 0x40 DUP4 ADD DUP5 PUSH2 0x2717 JUMP JUMPDEST SWAP5 SWAP4 POP POP POP POP JUMP JUMPDEST PUSH1 0x0 PUSH1 0x40 DUP3 ADD SWAP1 POP PUSH2 0x27B6 PUSH1 0x0 DUP4 ADD DUP6 PUSH2 0x236D JUMP JUMPDEST PUSH2 0x27C3 PUSH1 0x20 DUP4 ADD DUP5 PUSH2 0x2717 JUMP JUMPDEST SWAP4 SWAP3 POP POP POP JUMP JUMPDEST PUSH1 0x0 PUSH1 0x80 DUP3 ADD SWAP1 POP PUSH2 0x27DF PUSH1 0x0 DUP4 ADD DUP8 PUSH2 0x236D JUMP JUMPDEST PUSH2 0x27EC PUSH1 0x20 DUP4 ADD DUP7 PUSH2 0x2717 JUMP JUMPDEST PUSH2 0x27F9 PUSH1 0x40 DUP4 ADD DUP6 PUSH2 0x23F8 JUMP JUMPDEST PUSH2 0x2806 PUSH1 0x60 DUP4 ADD DUP5 PUSH2 0x2717 JUMP JUMPDEST SWAP6 SWAP5 POP POP POP POP POP JUMP JUMPDEST PUSH1 0x0 PUSH1 0x60 DUP3 ADD SWAP1 POP PUSH2 0x2824 PUSH1 0x0 DUP4 ADD DUP7 PUSH2 0x236D JUMP JUMPDEST PUSH2 0x2831 PUSH1 0x20 DUP4 ADD DUP6 PUSH2 0x2717 JUMP JUMPDEST PUSH2 0x283E PUSH1 0x40 DUP4 ADD DUP5 PUSH2 0x2717 JUMP JUMPDEST SWAP5 SWAP4 POP POP POP POP JUMP JUMPDEST PUSH1 0x0 PUSH1 0x20 DUP3 ADD SWAP1 POP DUP2 DUP2 SUB PUSH1 0x0 DUP4 ADD MSTORE PUSH2 0x2860 DUP2 DUP5 PUSH2 0x237C JUMP JUMPDEST SWAP1 POP SWAP3 SWAP2 POP POP JUMP JUMPDEST PUSH1 0x0 PUSH1 0x20 DUP3 ADD SWAP1 POP PUSH2 0x287D PUSH1 0x0 DUP4 ADD DUP5 PUSH2 0x23E9 JUMP JUMPDEST SWAP3 SWAP2 POP POP JUMP JUMPDEST PUSH1 0x0 PUSH1 0x20 DUP3 ADD SWAP1 POP DUP2 DUP2 SUB PUSH1 0x0 DUP4 ADD MSTORE PUSH2 0x289C DUP2 PUSH2 0x2440 JUMP JUMPDEST SWAP1 POP SWAP2 SWAP1 POP JUMP JUMPDEST PUSH1 0x0 PUSH1 0x20 DUP3 ADD SWAP1 POP DUP2 DUP2 SUB PUSH1 0x0 DUP4 ADD MSTORE PUSH2 0x28BC DUP2 PUSH2 0x2463 JUMP JUMPDEST SWAP1 POP SWAP2 SWAP1 POP JUMP JUMPDEST PUSH1 0x0 PUSH1 0x20 DUP3 ADD SWAP1 POP DUP2 DUP2 SUB PUSH1 0x0 DUP4 ADD MSTORE PUSH2 0x28DC DUP2 PUSH2 0x2486 JUMP JUMPDEST SWAP1 POP SWAP2 SWAP1 POP JUMP JUMPDEST PUSH1 0x0 PUSH1 0x20 DUP3 ADD SWAP1 POP DUP2 DUP2 SUB PUSH1 0x0 DUP4 ADD MSTORE PUSH2 0x28FC DUP2 PUSH2 0x24A9 JUMP JUMPDEST SWAP1 POP SWAP2 SWAP1 POP JUMP JUMPDEST PUSH1 0x0 PUSH1 0x20 DUP3 ADD SWAP1 POP DUP2 DUP2 SUB PUSH1 0x0 DUP4 ADD MSTORE PUSH2 0x291C DUP2 PUSH2 0x24CC JUMP JUMPDEST SWAP1 POP SWAP2 SWAP1 POP JUMP JUMPDEST PUSH1 0x0 PUSH1 0x20 DUP3 ADD SWAP1 POP DUP2 DUP2 SUB PUSH1 0x0 DUP4 ADD MSTORE PUSH2 0x293C DUP2 PUSH2 0x24EF JUMP JUMPDEST SWAP1 POP SWAP2 SWAP1 POP JUMP JUMPDEST PUSH1 0x0 PUSH1 0x20 DUP3 ADD SWAP1 POP DUP2 DUP2 SUB PUSH1 0x0 DUP4 ADD MSTORE PUSH2 0x295C DUP2 PUSH2 0x2512 JUMP JUMPDEST SWAP1 POP SWAP2 SWAP1 POP JUMP JUMPDEST PUSH1 0x0 PUSH1 0x20 DUP3 ADD SWAP1 POP DUP2 DUP2 SUB PUSH1 0x0 DUP4 ADD MSTORE PUSH2 0x297C DUP2 PUSH2 0x2535 JUMP JUMPDEST SWAP1 POP SWAP2 SWAP1 POP JUMP JUMPDEST PUSH1 0x0 PUSH1 0x20 DUP3 ADD SWAP1 POP DUP2 DUP2 SUB PUSH1 0x0 DUP4 ADD MSTORE PUSH2 0x299C DUP2 PUSH2 0x2558 JUMP JUMPDEST SWAP1 POP SWAP2 SWAP1 POP JUMP JUMPDEST PUSH1 0x0 PUSH1 0x20 DUP3 ADD SWAP1 POP DUP2 DUP2 SUB PUSH1 0x0 DUP4 ADD MSTORE PUSH2 0x29BC DUP2 PUSH2 0x257B JUMP JUMPDEST SWAP1 POP SWAP2 SWAP1 POP JUMP JUMPDEST PUSH1 0x0 PUSH1 0x20 DUP3 ADD SWAP1 POP DUP2 DUP2 SUB PUSH1 0x0 DUP4 ADD MSTORE PUSH2 0x29DC DUP2 PUSH2 0x259E JUMP JUMPDEST SWAP1 POP SWAP2 SWAP1 POP JUMP JUMPDEST PUSH1 0x0 PUSH1 0x20 DUP3 ADD SWAP1 POP DUP2 DUP2 SUB PUSH1 0x0 DUP4 ADD MSTORE PUSH2 0x29FC DUP2 PUSH2 0x25C1 JUMP JUMPDEST SWAP1 POP SWAP2 SWAP1 POP JUMP JUMPDEST PUSH1 0x0 PUSH1 0x20 DUP3 ADD SWAP1 POP DUP2 DUP2 SUB PUSH1 0x0 DUP4 ADD MSTORE PUSH2 0x2A1C DUP2 PUSH2 0x25E4 JUMP JUMPDEST SWAP1 POP SWAP2 SWAP1 POP JUMP JUMPDEST PUSH1 0x0 PUSH1 0x20 DUP3 ADD SWAP1 POP DUP2 DUP2 SUB PUSH1 0x0 DUP4 ADD MSTORE PUSH2 0x2A3C DUP2 PUSH2 0x2607 JUMP JUMPDEST SWAP1 POP SWAP2 SWAP1 POP JUMP JUMPDEST PUSH1 0x0 PUSH1 0x20 DUP3 ADD SWAP1 POP DUP2 DUP2 SUB PUSH1 0x0 DUP4 ADD MSTORE PUSH2 0x2A5D DUP2 DUP5 PUSH2 0x262A JUMP JUMPDEST SWAP1 POP SWAP3 SWAP2 POP POP JUMP JUMPDEST PUSH1 0x0 PUSH1 0x80 DUP3 ADD SWAP1 POP PUSH2 0x2A7A PUSH1 0x0 DUP4 ADD DUP5 PUSH2 0x26B3 JUMP JUMPDEST SWAP3 SWAP2 POP POP JUMP JUMPDEST PUSH1 0x0 PUSH1 0x20 DUP3 ADD SWAP1 POP PUSH2 0x2A95 PUSH1 0x0 DUP4 ADD DUP5 PUSH2 0x2717 JUMP JUMPDEST SWAP3 SWAP2 POP POP JUMP JUMPDEST PUSH1 0x0 PUSH2 0x2AA5 PUSH2 0x2AB6 JUMP JUMPDEST SWAP1 POP PUSH2 0x2AB1 DUP3 DUP3 PUSH2 0x2D3A JUMP JUMPDEST SWAP2 SWAP1 POP JUMP JUMPDEST PUSH1 0x0 PUSH1 0x40 MLOAD SWAP1 POP SWAP1 JUMP JUMPDEST PUSH1 0x0 PUSH8 0xFFFFFFFFFFFFFFFF DUP3 GT ISZERO PUSH2 0x2ADB JUMPI PUSH2 0x2ADA PUSH2 0x2E9F JUMP JUMPDEST JUMPDEST PUSH2 0x2AE4 DUP3 PUSH2 0x2EE2 JUMP JUMPDEST SWAP1 POP PUSH1 0x20 DUP2 ADD SWAP1 POP SWAP2 SWAP1 POP JUMP JUMPDEST PUSH1 0x0 DUP2 SWAP1 POP PUSH1 0x20 DUP3 ADD SWAP1 POP SWAP2 SWAP1 POP JUMP JUMPDEST PUSH1 0x0 DUP2 MLOAD SWAP1 POP SWAP2 SWAP1 POP JUMP JUMPDEST PUSH1 0x0 DUP2 MLOAD SWAP1 POP SWAP2 SWAP1 POP JUMP JUMPDEST PUSH1 0x0 PUSH1 0x20 DUP3 ADD SWAP1 POP SWAP2 SWAP1 POP JUMP JUMPDEST PUSH1 0x0 DUP3 DUP3 MSTORE PUSH1 0x20 DUP3 ADD SWAP1 POP SWAP3 SWAP2 POP POP JUMP JUMPDEST PUSH1 0x0 DUP3 DUP3 MSTORE PUSH1 0x20 DUP3 ADD SWAP1 POP SWAP3 SWAP2 POP POP JUMP JUMPDEST PUSH1 0x0 DUP3 DUP3 MSTORE PUSH1 0x20 DUP3 ADD SWAP1 POP SWAP3 SWAP2 POP POP JUMP JUMPDEST PUSH1 0x0 PUSH2 0x2B62 DUP3 PUSH2 0x2CAA JUMP JUMPDEST SWAP2 POP PUSH2 0x2B6D DUP4 PUSH2 0x2CAA JUMP JUMPDEST SWAP3 POP DUP3 PUSH32 0xFFFFFFFFFFFFFFFFFFFFFFFFFFFFFFFFFFFFFFFFFFFFFFFFFFFFFFFFFFFFFFFF SUB DUP3 GT ISZERO PUSH2 0x2BA2 JUMPI PUSH2 0x2BA1 PUSH2 0x2DB4 JUMP JUMPDEST JUMPDEST DUP3 DUP3 ADD SWAP1 POP SWAP3 SWAP2 POP POP JUMP JUMPDEST PUSH1 0x0 PUSH2 0x2BB8 DUP3 PUSH2 0x2CAA JUMP JUMPDEST SWAP2 POP PUSH2 0x2BC3 DUP4 PUSH2 0x2CAA JUMP JUMPDEST SWAP3 POP DUP3 PUSH2 0x2BD3 JUMPI PUSH2 0x2BD2 PUSH2 0x2DE3 JUMP JUMPDEST JUMPDEST DUP3 DUP3 DIV SWAP1 POP SWAP3 SWAP2 POP POP JUMP JUMPDEST PUSH1 0x0 PUSH2 0x2BE9 DUP3 PUSH2 0x2CAA JUMP JUMPDEST SWAP2 POP PUSH2 0x2BF4 DUP4 PUSH2 0x2CAA JUMP JUMPDEST SWAP3 POP DUP2 PUSH32 0xFFFFFFFFFFFFFFFFFFFFFFFFFFFFFFFFFFFFFFFFFFFFFFFFFFFFFFFFFFFFFFFF DIV DUP4 GT DUP3 ISZERO ISZERO AND ISZERO PUSH2 0x2C2D JUMPI PUSH2 0x2C2C PUSH2 0x2DB4 JUMP JUMPDEST JUMPDEST DUP3 DUP3 MUL SWAP1 POP SWAP3 SWAP2 POP POP JUMP JUMPDEST PUSH1 0x0 PUSH2 0x2C43 DUP3 PUSH2 0x2CAA JUMP JUMPDEST SWAP2 POP PUSH2 0x2C4E DUP4 PUSH2 0x2CAA JUMP JUMPDEST SWAP3 POP DUP3 DUP3 LT ISZERO PUSH2 0x2C61 JUMPI PUSH2 0x2C60 PUSH2 0x2DB4 JUMP JUMPDEST JUMPDEST DUP3 DUP3 SUB SWAP1 POP SWAP3 SWAP2 POP POP JUMP JUMPDEST PUSH1 0x0 PUSH2 0x2C77 DUP3 PUSH2 0x2C8A JUMP JUMPDEST SWAP1 POP SWAP2 SWAP1 POP JUMP JUMPDEST PUSH1 0x0 DUP2 ISZERO ISZERO SWAP1 POP SWAP2 SWAP1 POP JUMP JUMPDEST PUSH1 0x0 PUSH20 0xFFFFFFFFFFFFFFFFFFFFFFFFFFFFFFFFFFFFFFFF DUP3 AND SWAP1 POP SWAP2 SWAP1 POP JUMP JUMPDEST PUSH1 0x0 DUP2 SWAP1 POP SWAP2 SWAP1 POP JUMP JUMPDEST PUSH1 0x0 PUSH2 0x2CBF DUP3 PUSH2 0x2CAA JUMP JUMPDEST SWAP1 POP SWAP2 SWAP1 POP JUMP JUMPDEST DUP3 DUP2 DUP4 CALLDATACOPY PUSH1 0x0 DUP4 DUP4 ADD MSTORE POP POP POP JUMP JUMPDEST PUSH1 0x0 JUMPDEST DUP4 DUP2 LT ISZERO PUSH2 0x2CF3 JUMPI DUP1 DUP3 ADD MLOAD DUP2 DUP5 ADD MSTORE PUSH1 0x20 DUP2 ADD SWAP1 POP PUSH2 0x2CD8 JUMP JUMPDEST DUP4 DUP2 GT ISZERO PUSH2 0x2D02 JUMPI PUSH1 0x0 DUP5 DUP5 ADD MSTORE JUMPDEST POP POP POP POP JUMP JUMPDEST PUSH1 0x0 PUSH1 0x2 DUP3 DIV SWAP1 POP PUSH1 0x1 DUP3 AND DUP1 PUSH2 0x2D20 JUMPI PUSH1 0x7F DUP3 AND SWAP2 POP JUMPDEST PUSH1 0x20 DUP3 LT DUP2 EQ ISZERO PUSH2 0x2D34 JUMPI PUSH2 0x2D33 PUSH2 0x2E12 JUMP JUMPDEST JUMPDEST POP SWAP2 SWAP1 POP JUMP JUMPDEST PUSH2 0x2D43 DUP3 PUSH2 0x2EE2 JUMP JUMPDEST DUP2 ADD DUP2 DUP2 LT PUSH8 0xFFFFFFFFFFFFFFFF DUP3 GT OR ISZERO PUSH2 0x2D62 JUMPI PUSH2 0x2D61 PUSH2 0x2E9F JUMP JUMPDEST JUMPDEST DUP1 PUSH1 0x40 MSTORE POP POP POP JUMP JUMPDEST PUSH1 0x0 PUSH2 0x2D76 DUP3 PUSH2 0x2CAA JUMP JUMPDEST SWAP2 POP PUSH32 0xFFFFFFFFFFFFFFFFFFFFFFFFFFFFFFFFFFFFFFFFFFFFFFFFFFFFFFFFFFFFFFFF DUP3 EQ ISZERO PUSH2 0x2DA9 JUMPI PUSH2 0x2DA8 PUSH2 0x2DB4 JUMP JUMPDEST JUMPDEST PUSH1 0x1 DUP3 ADD SWAP1 POP SWAP2 SWAP1 POP JUMP JUMPDEST PUSH32 0x4E487B7100000000000000000000000000000000000000000000000000000000 PUSH1 0x0 MSTORE PUSH1 0x11 PUSH1 0x4 MSTORE PUSH1 0x24 PUSH1 0x0 REVERT JUMPDEST PUSH32 0x4E487B7100000000000000000000000000000000000000000000000000000000 PUSH1 0x0 MSTORE PUSH1 0x12 PUSH1 0x4 MSTORE PUSH1 0x24 PUSH1 0x0 REVERT JUMPDEST PUSH32 0x4E487B7100000000000000000000000000000000000000000000000000000000 PUSH1 0x0 MSTORE PUSH1 0x22 PUSH1 0x4 MSTORE PUSH1 0x24 PUSH1 0x0 REVERT JUMPDEST PUSH32 0x4E487B7100000000000000000000000000000000000000000000000000000000 PUSH1 0x0 MSTORE PUSH1 0x31 PUSH1 0x4 MSTORE PUSH1 0x24 PUSH1 0x0 REVERT JUMPDEST PUSH32 0x4E487B7100000000000000000000000000000000000000000000000000000000 PUSH1 0x0 MSTORE PUSH1 0x32 PUSH1 0x4 MSTORE PUSH1 0x24 PUSH1 0x0 REVERT JUMPDEST PUSH32 0x4E487B7100000000000000000000000000000000000000000000000000000000 PUSH1 0x0 MSTORE PUSH1 0x41 PUSH1 0x4 MSTORE PUSH1 0x24 PUSH1 0x0 REVERT JUMPDEST PUSH1 0x0 DUP1 REVERT JUMPDEST PUSH1 0x0 DUP1 REVERT JUMPDEST PUSH1 0x0 DUP1 REVERT JUMPDEST PUSH1 0x0 DUP1 REVERT JUMPDEST PUSH1 0x0 PUSH1 0x1F NOT PUSH1 0x1F DUP4 ADD AND SWAP1 POP SWAP2 SWAP1 POP JUMP JUMPDEST PUSH32 0x596F7520617265206E6F74207374616B65640000000000000000000000000000 PUSH1 0x0 DUP3 ADD MSTORE POP JUMP JUMPDEST PUSH32 0x546F6B656E73206E6F7420617070726F76656400000000000000000000000000 PUSH1 0x0 DUP3 ADD MSTORE POP JUMP JUMPDEST PUSH32 0x4E6F7468696E6720746F20776974686472617700000000000000000000000000 PUSH1 0x0 DUP3 ADD MSTORE POP JUMP JUMPDEST PUSH32 0x4F776E61626C653A206E6577206F776E657220697320746865207A65726F2061 PUSH1 0x0 DUP3 ADD MSTORE PUSH32 0x6464726573730000000000000000000000000000000000000000000000000000 PUSH1 0x20 DUP3 ADD MSTORE POP JUMP JUMPDEST PUSH32 0x4461696C79206C696D6974207265616368656400000000000000000000000000 PUSH1 0x0 DUP3 ADD MSTORE POP JUMP JUMPDEST PUSH32 0x596F752063616E2774207374616B6520696E207468697320706F6F6C00000000 PUSH1 0x0 DUP3 ADD MSTORE POP JUMP JUMPDEST PUSH32 0x496E76616C696420726577617264206164647265737300000000000000000000 PUSH1 0x0 DUP3 ADD MSTORE POP JUMP JUMPDEST PUSH32 0x496E76616C6964207374616B6520616464726573730000000000000000000000 PUSH1 0x0 DUP3 ADD MSTORE POP JUMP JUMPDEST PUSH32 0x4F776E61626C653A2063616C6C6572206973206E6F7420746865206F776E6572 PUSH1 0x0 DUP3 ADD MSTORE POP JUMP JUMPDEST PUSH32 0x506F6F6C20657869737473210000000000000000000000000000000000000000 PUSH1 0x0 DUP3 ADD MSTORE POP JUMP JUMPDEST PUSH32 0x5374616B696E6720616D6F756E74206973206C657373207468656E206D696E69 PUSH1 0x0 DUP3 ADD MSTORE PUSH32 0x6D756D0000000000000000000000000000000000000000000000000000000000 PUSH1 0x20 DUP3 ADD MSTORE POP JUMP JUMPDEST PUSH32 0x596F7520616C7265616479207374616B65640000000000000000000000000000 PUSH1 0x0 DUP3 ADD MSTORE POP JUMP JUMPDEST PUSH32 0x596F752063616E2774207472616E736665722074686520746F6B656E73000000 PUSH1 0x0 DUP3 ADD MSTORE POP JUMP JUMPDEST PUSH32 0x43616E6E6F742063616E63656C20706F6F6C2100000000000000000000000000 PUSH1 0x0 DUP3 ADD MSTORE POP JUMP JUMPDEST PUSH2 0x3186 DUP2 PUSH2 0x2C6C JUMP JUMPDEST DUP2 EQ PUSH2 0x3191 JUMPI PUSH1 0x0 DUP1 REVERT JUMPDEST POP JUMP JUMPDEST PUSH2 0x319D DUP2 PUSH2 0x2C7E JUMP JUMPDEST DUP2 EQ PUSH2 0x31A8 JUMPI PUSH1 0x0 DUP1 REVERT JUMPDEST POP JUMP JUMPDEST PUSH2 0x31B4 DUP2 PUSH2 0x2CAA JUMP JUMPDEST DUP2 EQ PUSH2 0x31BF JUMPI PUSH1 0x0 DUP1 REVERT JUMPDEST POP JUMP INVALID LOG2 PUSH5 0x6970667358 0x22 SLT KECCAK256 DUP7 SGT 0xEF 0xB7 ADD CODECOPY 0xB0 0xC8 0x4C 0x23 SWAP3 0xAC 0xB8 0xEB 0xD9 0xC SMOD SWAP1 0x23 POP CODECOPY 0x2E MULMOD AND 0xD1 KECCAK256 SELFDESTRUCT 0xE6 BALANCE JUMP SELFDESTRUCT 0xA5 PUSH5 0x736F6C6343 STOP ADDMOD SMOD STOP CALLER "
				},
				"gasEstimates": {
					"creation": {
						"codeDepositCost": "2558400",
						"executionCost": "infinite",
						"totalCost": "infinite"
					},
					"external": {
						"changeDailyCapLimit(uint256)": "24873",
						"changeMinStakeAmt(uint256)": "24806",
						"checkPoolPause()": "4720",
						"createPool(address,address,string,uint256)": "infinite",
						"dailyCapAmt()": "2475",
						"depositRewardToken(uint256)": "infinite",
						"getCurrentReward(address)": "infinite",
						"getDailyCap(uint256)": "infinite",
						"getPoolInfo()": "infinite",
						"getStakeDetails(address)": "infinite",
						"getTotalReward(address)": "infinite",
						"getUserPoolId(address)": "infinite",
						"minStakeAmount()": "2495",
						"owner()": "2545",
						"poolPauseUnPause()": "37639",
						"renounceOwnership()": "30487",
						"stake(uint256)": "infinite",
						"transferOwnership(address)": "30835",
						"transferTokens(uint256)": "infinite",
						"unStake()": "infinite",
						"withdraw()": "infinite"
					},
					"internal": {
						"_withdraw(address)": "infinite"
					}
				},
				"methodIdentifiers": {
					"changeDailyCapLimit(uint256)": "d21cb76e",
					"changeMinStakeAmt(uint256)": "e36c723b",
					"checkPoolPause()": "e7732d0a",
					"createPool(address,address,string,uint256)": "60c18315",
					"dailyCapAmt()": "14e1b95b",
					"depositRewardToken(uint256)": "c089bd74",
					"getCurrentReward(address)": "4d307e3f",
					"getDailyCap(uint256)": "0d2f0374",
					"getPoolInfo()": "60246c88",
					"getStakeDetails(address)": "f41322ac",
					"getTotalReward(address)": "34381749",
					"getUserPoolId(address)": "20867caa",
					"minStakeAmount()": "f1887684",
					"owner()": "8da5cb5b",
					"poolPauseUnPause()": "da906bf6",
					"renounceOwnership()": "715018a6",
					"stake(uint256)": "a694fc3a",
					"transferOwnership(address)": "f2fde38b",
					"transferTokens(uint256)": "fd9a4e61",
					"unStake()": "73cf575a",
					"withdraw()": "3ccfd60b"
				}
			},
			"storageLayout": {
				"storage": [
					{
						"astId": 7,
						"contract": "Staking.sol:StakeContract",
						"label": "_owner",
						"offset": 0,
						"slot": "0",
						"type": "t_address"
					},
					{
						"astId": 1450,
						"contract": "Staking.sol:StakeContract",
						"label": "minStakeAmount",
						"offset": 0,
						"slot": "1",
						"type": "t_uint256"
					},
					{
						"astId": 1453,
						"contract": "Staking.sol:StakeContract",
						"label": "dailyCapAmt",
						"offset": 0,
						"slot": "2",
						"type": "t_uint256"
					},
					{
						"astId": 1456,
						"contract": "Staking.sol:StakeContract",
						"label": "poolCreated",
						"offset": 0,
						"slot": "3",
						"type": "t_bool"
					},
					{
						"astId": 1482,
						"contract": "Staking.sol:StakeContract",
						"label": "poolInfo",
						"offset": 0,
						"slot": "4",
						"type": "t_array(t_struct(PoolStruct)1469_storage)dyn_storage"
					},
					{
						"astId": 1487,
						"contract": "Staking.sol:StakeContract",
						"label": "userPoolIds",
						"offset": 0,
						"slot": "5",
						"type": "t_mapping(t_address,t_array(t_uint256)dyn_storage)"
					},
					{
						"astId": 1493,
						"contract": "Staking.sol:StakeContract",
						"label": "dailyCap",
						"offset": 0,
						"slot": "6",
						"type": "t_mapping(t_uint256,t_mapping(t_uint256,t_uint256))"
					},
					{
						"astId": 1500,
						"contract": "Staking.sol:StakeContract",
						"label": "stakeDetails",
						"offset": 0,
						"slot": "7",
						"type": "t_mapping(t_address,t_mapping(t_uint256,t_struct(StakeStruct)1478_storage))"
					}
				],
				"types": {
					"t_address": {
						"encoding": "inplace",
						"label": "address",
						"numberOfBytes": "20"
					},
					"t_array(t_struct(PoolStruct)1469_storage)dyn_storage": {
						"base": "t_struct(PoolStruct)1469_storage",
						"encoding": "dynamic_array",
						"label": "struct StakeContract.PoolStruct[]",
						"numberOfBytes": "32"
					},
					"t_array(t_uint256)dyn_storage": {
						"base": "t_uint256",
						"encoding": "dynamic_array",
						"label": "uint256[]",
						"numberOfBytes": "32"
					},
					"t_bool": {
						"encoding": "inplace",
						"label": "bool",
						"numberOfBytes": "1"
					},
					"t_mapping(t_address,t_array(t_uint256)dyn_storage)": {
						"encoding": "mapping",
						"key": "t_address",
						"label": "mapping(address => uint256[])",
						"numberOfBytes": "32",
						"value": "t_array(t_uint256)dyn_storage"
					},
					"t_mapping(t_address,t_mapping(t_uint256,t_struct(StakeStruct)1478_storage))": {
						"encoding": "mapping",
						"key": "t_address",
						"label": "mapping(address => mapping(uint256 => struct StakeContract.StakeStruct))",
						"numberOfBytes": "32",
						"value": "t_mapping(t_uint256,t_struct(StakeStruct)1478_storage)"
					},
					"t_mapping(t_uint256,t_mapping(t_uint256,t_uint256))": {
						"encoding": "mapping",
						"key": "t_uint256",
						"label": "mapping(uint256 => mapping(uint256 => uint256))",
						"numberOfBytes": "32",
						"value": "t_mapping(t_uint256,t_uint256)"
					},
					"t_mapping(t_uint256,t_struct(StakeStruct)1478_storage)": {
						"encoding": "mapping",
						"key": "t_uint256",
						"label": "mapping(uint256 => struct StakeContract.StakeStruct)",
						"numberOfBytes": "32",
						"value": "t_struct(StakeStruct)1478_storage"
					},
					"t_mapping(t_uint256,t_uint256)": {
						"encoding": "mapping",
						"key": "t_uint256",
						"label": "mapping(uint256 => uint256)",
						"numberOfBytes": "32",
						"value": "t_uint256"
					},
					"t_string_storage": {
						"encoding": "bytes",
						"label": "string",
						"numberOfBytes": "32"
					},
					"t_struct(PoolStruct)1469_storage": {
						"encoding": "inplace",
						"label": "struct StakeContract.PoolStruct",
						"members": [
							{
								"astId": 1458,
								"contract": "Staking.sol:StakeContract",
								"label": "tokenAddress",
								"offset": 0,
								"slot": "0",
								"type": "t_address"
							},
							{
								"astId": 1460,
								"contract": "Staking.sol:StakeContract",
								"label": "rewardAddress",
								"offset": 0,
								"slot": "1",
								"type": "t_address"
							},
							{
								"astId": 1462,
								"contract": "Staking.sol:StakeContract",
								"label": "totalStakeAmount",
								"offset": 0,
								"slot": "2",
								"type": "t_uint256"
							},
							{
								"astId": 1464,
								"contract": "Staking.sol:StakeContract",
								"label": "name",
								"offset": 0,
								"slot": "3",
								"type": "t_string_storage"
							},
							{
								"astId": 1466,
								"contract": "Staking.sol:StakeContract",
								"label": "isPoolPause",
								"offset": 0,
								"slot": "4",
								"type": "t_bool"
							},
							{
								"astId": 1468,
								"contract": "Staking.sol:StakeContract",
								"label": "apy",
								"offset": 0,
								"slot": "5",
								"type": "t_uint256"
							}
						],
						"numberOfBytes": "192"
					},
					"t_struct(StakeStruct)1478_storage": {
						"encoding": "inplace",
						"label": "struct StakeContract.StakeStruct",
						"members": [
							{
								"astId": 1471,
								"contract": "Staking.sol:StakeContract",
								"label": "isExist",
								"offset": 0,
								"slot": "0",
								"type": "t_bool"
							},
							{
								"astId": 1473,
								"contract": "Staking.sol:StakeContract",
								"label": "amount",
								"offset": 0,
								"slot": "1",
								"type": "t_uint256"
							},
							{
								"astId": 1475,
								"contract": "Staking.sol:StakeContract",
								"label": "stakeTime",
								"offset": 0,
								"slot": "2",
								"type": "t_uint256"
							},
							{
								"astId": 1477,
								"contract": "Staking.sol:StakeContract",
								"label": "withdrawn",
								"offset": 0,
								"slot": "3",
								"type": "t_uint256"
							}
						],
						"numberOfBytes": "128"
					},
					"t_uint256": {
						"encoding": "inplace",
						"label": "uint256",
						"numberOfBytes": "32"
					}
				}
			},
			"userdoc": {
				"kind": "user",
				"methods": {},
				"version": 1
			}
		}
	}
}